{
	"contracts/Donate.sol": {
		"Donate": {
			"abi": [
				{
					"inputs": [],
					"stateMutability": "nonpayable",
					"type": "constructor"
				},
				{
					"inputs": [],
					"name": "boardIndex",
					"outputs": [
						{
							"internalType": "uint256",
							"name": "",
							"type": "uint256"
						}
					],
					"stateMutability": "view",
					"type": "function"
				},
				{
					"inputs": [
						{
							"internalType": "uint256",
							"name": "",
							"type": "uint256"
						}
					],
					"name": "boards",
					"outputs": [
						{
							"internalType": "uint256",
							"name": "id",
							"type": "uint256"
						},
						{
							"internalType": "string",
							"name": "name",
							"type": "string"
						},
						{
							"internalType": "string",
							"name": "context",
							"type": "string"
						},
						{
							"internalType": "address",
							"name": "host",
							"type": "address"
						},
						{
							"internalType": "string",
							"name": "hostname",
							"type": "string"
						},
						{
							"internalType": "uint256",
							"name": "targetAmount",
							"type": "uint256"
						},
						{
							"internalType": "uint256",
							"name": "totalAmount",
							"type": "uint256"
						},
						{
							"internalType": "bool",
							"name": "expire",
							"type": "bool"
						}
					],
					"stateMutability": "view",
					"type": "function"
				},
				{
					"inputs": [
						{
							"internalType": "string",
							"name": "hostname",
							"type": "string"
						},
						{
							"internalType": "address",
							"name": "host",
							"type": "address"
						},
						{
							"internalType": "string",
							"name": "_name",
							"type": "string"
						},
						{
							"internalType": "string",
							"name": "_context",
							"type": "string"
						},
						{
							"internalType": "uint256",
							"name": "_targetAmount",
							"type": "uint256"
						}
					],
					"name": "createBoard",
					"outputs": [],
					"stateMutability": "nonpayable",
					"type": "function"
				},
				{
					"inputs": [
						{
							"internalType": "uint256",
							"name": "_targetId",
							"type": "uint256"
						},
						{
							"internalType": "string",
							"name": "name",
							"type": "string"
						},
						{
							"internalType": "address",
							"name": "_donator_addr",
							"type": "address"
						},
						{
							"internalType": "uint256",
							"name": "_amount",
							"type": "uint256"
						}
					],
					"name": "donate",
					"outputs": [],
					"stateMutability": "nonpayable",
					"type": "function"
				},
				{
					"inputs": [
						{
							"internalType": "uint256",
							"name": "",
							"type": "uint256"
						}
					],
					"name": "donators",
					"outputs": [
						{
							"internalType": "uint256",
							"name": "targetId",
							"type": "uint256"
						},
						{
							"internalType": "string",
							"name": "name",
							"type": "string"
						},
						{
							"internalType": "address",
							"name": "donator_addr",
							"type": "address"
						},
						{
							"internalType": "uint256",
							"name": "amount",
							"type": "uint256"
						}
					],
					"stateMutability": "view",
					"type": "function"
				},
				{
					"inputs": [],
					"name": "getAllBoardsExpir",
					"outputs": [
						{
							"components": [
								{
									"internalType": "uint256",
									"name": "id",
									"type": "uint256"
								},
								{
									"internalType": "string",
									"name": "name",
									"type": "string"
								},
								{
									"internalType": "string",
									"name": "context",
									"type": "string"
								},
								{
									"internalType": "address",
									"name": "host",
									"type": "address"
								},
								{
									"internalType": "string",
									"name": "hostname",
									"type": "string"
								},
								{
									"internalType": "uint256",
									"name": "targetAmount",
									"type": "uint256"
								},
								{
									"internalType": "uint256",
									"name": "totalAmount",
									"type": "uint256"
								},
								{
									"internalType": "bool",
									"name": "expire",
									"type": "bool"
								}
							],
							"internalType": "struct Donate.Board[]",
							"name": "",
							"type": "tuple[]"
						}
					],
					"stateMutability": "view",
					"type": "function"
				},
				{
					"inputs": [],
					"name": "getAllBoardsUnExpir",
					"outputs": [
						{
							"components": [
								{
									"internalType": "uint256",
									"name": "id",
									"type": "uint256"
								},
								{
									"internalType": "string",
									"name": "name",
									"type": "string"
								},
								{
									"internalType": "string",
									"name": "context",
									"type": "string"
								},
								{
									"internalType": "address",
									"name": "host",
									"type": "address"
								},
								{
									"internalType": "string",
									"name": "hostname",
									"type": "string"
								},
								{
									"internalType": "uint256",
									"name": "targetAmount",
									"type": "uint256"
								},
								{
									"internalType": "uint256",
									"name": "totalAmount",
									"type": "uint256"
								},
								{
									"internalType": "bool",
									"name": "expire",
									"type": "bool"
								}
							],
							"internalType": "struct Donate.Board[]",
							"name": "",
							"type": "tuple[]"
						}
					],
					"stateMutability": "view",
					"type": "function"
				},
				{
					"inputs": [
						{
							"internalType": "uint256",
							"name": "_boardIndex",
							"type": "uint256"
						}
					],
					"name": "getBoardInfo",
					"outputs": [
						{
							"components": [
								{
									"internalType": "uint256",
									"name": "id",
									"type": "uint256"
								},
								{
									"internalType": "string",
									"name": "name",
									"type": "string"
								},
								{
									"internalType": "string",
									"name": "context",
									"type": "string"
								},
								{
									"internalType": "address",
									"name": "host",
									"type": "address"
								},
								{
									"internalType": "string",
									"name": "hostname",
									"type": "string"
								},
								{
									"internalType": "uint256",
									"name": "targetAmount",
									"type": "uint256"
								},
								{
									"internalType": "uint256",
									"name": "totalAmount",
									"type": "uint256"
								},
								{
									"internalType": "bool",
									"name": "expire",
									"type": "bool"
								}
							],
							"internalType": "struct Donate.Board",
							"name": "",
							"type": "tuple"
						}
					],
					"stateMutability": "view",
					"type": "function"
				},
				{
					"inputs": [
						{
							"internalType": "uint256",
							"name": "_boardIndex",
							"type": "uint256"
						}
					],
					"name": "getDonatorInBoard",
					"outputs": [
						{
							"components": [
								{
									"internalType": "uint256",
									"name": "targetId",
									"type": "uint256"
								},
								{
									"internalType": "string",
									"name": "name",
									"type": "string"
								},
								{
									"internalType": "address",
									"name": "donator_addr",
									"type": "address"
								},
								{
									"internalType": "uint256",
									"name": "amount",
									"type": "uint256"
								}
							],
							"internalType": "struct Donate.Donator[]",
							"name": "",
							"type": "tuple[]"
						}
					],
					"stateMutability": "view",
					"type": "function"
				},
				{
					"inputs": [
						{
							"internalType": "address",
							"name": "_address",
							"type": "address"
						}
					],
					"name": "getDonatorInfoByAddr",
					"outputs": [
						{
							"components": [
								{
									"internalType": "uint256",
									"name": "targetId",
									"type": "uint256"
								},
								{
									"internalType": "string",
									"name": "name",
									"type": "string"
								},
								{
									"internalType": "address",
									"name": "donator_addr",
									"type": "address"
								},
								{
									"internalType": "uint256",
									"name": "amount",
									"type": "uint256"
								}
							],
							"internalType": "struct Donate.Donator[]",
							"name": "",
							"type": "tuple[]"
						}
					],
					"stateMutability": "view",
					"type": "function"
				},
				{
					"inputs": [],
					"name": "mutex",
					"outputs": [
						{
							"internalType": "bool",
							"name": "",
							"type": "bool"
						}
					],
					"stateMutability": "view",
					"type": "function"
				}
			],
			"devdoc": {
				"kind": "dev",
				"methods": {},
				"version": 1
			},
			"evm": {
				"assembly": "    /* \"contracts/Donate.sol\":59:4380  contract Donate{... */\n  mstore(0x40, 0x80)\n    /* \"contracts/Donate.sol\":569:635  constructor(){... */\n  callvalue\n  dup1\n  iszero\n  tag_1\n  jumpi\n  0x00\n  dup1\n  revert\ntag_1:\n  pop\n    /* \"contracts/Donate.sol\":604:605  0 */\n  0x00\n    /* \"contracts/Donate.sol\":593:603  boardIndex */\n  0x01\n    /* \"contracts/Donate.sol\":593:605  boardIndex=0 */\n  dup2\n  swap1\n  sstore\n  pop\n    /* \"contracts/Donate.sol\":622:627  false */\n  0x00\n    /* \"contracts/Donate.sol\":616:621  mutex */\n  dup1\n  0x00\n    /* \"contracts/Donate.sol\":616:627  mutex=false */\n  0x0100\n  exp\n  dup2\n  sload\n  dup2\n  0xff\n  mul\n  not\n  and\n  swap1\n  dup4\n  iszero\n  iszero\n  mul\n  or\n  swap1\n  sstore\n  pop\n    /* \"contracts/Donate.sol\":59:4380  contract Donate{... */\n  dataSize(sub_0)\n  dup1\n  dataOffset(sub_0)\n  0x00\n  codecopy\n  0x00\n  return\nstop\n\nsub_0: assembly {\n        /* \"contracts/Donate.sol\":59:4380  contract Donate{... */\n      mstore(0x40, 0x80)\n      callvalue\n      dup1\n      iszero\n      tag_1\n      jumpi\n      0x00\n      dup1\n      revert\n    tag_1:\n      pop\n      jumpi(tag_2, lt(calldatasize, 0x04))\n      shr(0xe0, calldataload(0x00))\n      dup1\n      0x9a7083f9\n      gt\n      tag_14\n      jumpi\n      dup1\n      0x9a7083f9\n      eq\n      tag_8\n      jumpi\n      dup1\n      0xa5720770\n      eq\n      tag_9\n      jumpi\n      dup1\n      0xac467355\n      eq\n      tag_10\n      jumpi\n      dup1\n      0xac62f566\n      eq\n      tag_11\n      jumpi\n      dup1\n      0xc985e773\n      eq\n      tag_12\n      jumpi\n      dup1\n      0xd1fb28bb\n      eq\n      tag_13\n      jumpi\n      jump(tag_2)\n    tag_14:\n      dup1\n      0x0f0e609c\n      eq\n      tag_3\n      jumpi\n      dup1\n      0x2277c26f\n      eq\n      tag_4\n      jumpi\n      dup1\n      0x3276be61\n      eq\n      tag_5\n      jumpi\n      dup1\n      0x334576d9\n      eq\n      tag_6\n      jumpi\n      dup1\n      0x5488d56b\n      eq\n      tag_7\n      jumpi\n    tag_2:\n      0x00\n      dup1\n      revert\n        /* \"contracts/Donate.sol\":1365:1913  function getAllBoardsUnExpir() public view returns(Board[] memory)... */\n    tag_3:\n      tag_15\n      tag_16\n      jump\t// in\n    tag_15:\n      mload(0x40)\n      tag_17\n      swap2\n      swap1\n      tag_18\n      jump\t// in\n    tag_17:\n      mload(0x40)\n      dup1\n      swap2\n      sub\n      swap1\n      return\n        /* \"contracts/Donate.sol\":476:502  uint256  public boardIndex */\n    tag_4:\n      tag_19\n      tag_20\n      jump\t// in\n    tag_19:\n      mload(0x40)\n      tag_21\n      swap2\n      swap1\n      tag_22\n      jump\t// in\n    tag_21:\n      mload(0x40)\n      dup1\n      swap2\n      sub\n      swap1\n      return\n        /* \"contracts/Donate.sol\":641:1154  function createBoard(string calldata hostname,address  host,string calldata _name,string calldata _context,uint256  _targetAmount) public {... */\n    tag_5:\n      tag_23\n      0x04\n      dup1\n      calldatasize\n      sub\n      dup2\n      add\n      swap1\n      tag_24\n      swap2\n      swap1\n      tag_25\n      jump\t// in\n    tag_24:\n      tag_26\n      jump\t// in\n    tag_23:\n      stop\n        /* \"contracts/Donate.sol\":1919:2445  function getAllBoardsExpir() public view returns(Board[] memory)... */\n    tag_6:\n      tag_27\n      tag_28\n      jump\t// in\n    tag_27:\n      mload(0x40)\n      tag_29\n      swap2\n      swap1\n      tag_18\n      jump\t// in\n    tag_29:\n      mload(0x40)\n      dup1\n      swap2\n      sub\n      swap1\n      return\n        /* \"contracts/Donate.sol\":3066:3722  function getDonatorInfoByAddr(address _address) public view returns(Donator[] memory)... */\n    tag_7:\n      tag_30\n      0x04\n      dup1\n      calldatasize\n      sub\n      dup2\n      add\n      swap1\n      tag_31\n      swap2\n      swap1\n      tag_32\n      jump\t// in\n    tag_31:\n      tag_33\n      jump\t// in\n    tag_30:\n      mload(0x40)\n      tag_34\n      swap2\n      swap1\n      tag_35\n      jump\t// in\n    tag_34:\n      mload(0x40)\n      dup1\n      swap2\n      sub\n      swap1\n      return\n        /* \"contracts/Donate.sol\":541:562  Board[] public boards */\n    tag_8:\n      tag_36\n      0x04\n      dup1\n      calldatasize\n      sub\n      dup2\n      add\n      swap1\n      tag_37\n      swap2\n      swap1\n      tag_38\n      jump\t// in\n    tag_37:\n      tag_39\n      jump\t// in\n    tag_36:\n      mload(0x40)\n      tag_40\n      swap9\n      swap8\n      swap7\n      swap6\n      swap5\n      swap4\n      swap3\n      swap2\n      swap1\n      tag_41\n      jump\t// in\n    tag_40:\n      mload(0x40)\n      dup1\n      swap2\n      sub\n      swap1\n      return\n        /* \"contracts/Donate.sol\":452:469  bool public mutex */\n    tag_9:\n      tag_42\n      tag_43\n      jump\t// in\n    tag_42:\n      mload(0x40)\n      tag_44\n      swap2\n      swap1\n      tag_45\n      jump\t// in\n    tag_44:\n      mload(0x40)\n      dup1\n      swap2\n      sub\n      swap1\n      return\n        /* \"contracts/Donate.sol\":2451:3060  function getDonatorInBoard(uint256 _boardIndex) public view returns(Donator[] memory)... */\n    tag_10:\n      tag_46\n      0x04\n      dup1\n      calldatasize\n      sub\n      dup2\n      add\n      swap1\n      tag_47\n      swap2\n      swap1\n      tag_38\n      jump\t// in\n    tag_47:\n      tag_48\n      jump\t// in\n    tag_46:\n      mload(0x40)\n      tag_49\n      swap2\n      swap1\n      tag_35\n      jump\t// in\n    tag_49:\n      mload(0x40)\n      dup1\n      swap2\n      sub\n      swap1\n      return\n        /* \"contracts/Donate.sol\":509:534  Donator[] public donators */\n    tag_11:\n      tag_50\n      0x04\n      dup1\n      calldatasize\n      sub\n      dup2\n      add\n      swap1\n      tag_51\n      swap2\n      swap1\n      tag_38\n      jump\t// in\n    tag_51:\n      tag_52\n      jump\t// in\n    tag_50:\n      mload(0x40)\n      tag_53\n      swap5\n      swap4\n      swap3\n      swap2\n      swap1\n      tag_54\n      jump\t// in\n    tag_53:\n      mload(0x40)\n      dup1\n      swap2\n      sub\n      swap1\n      return\n        /* \"contracts/Donate.sol\":3728:4375  function donate(uint256 _targetId,string calldata name,address _donator_addr,uint256 _amount) public {... */\n    tag_12:\n      tag_55\n      0x04\n      dup1\n      calldatasize\n      sub\n      dup2\n      add\n      swap1\n      tag_56\n      swap2\n      swap1\n      tag_57\n      jump\t// in\n    tag_56:\n      tag_58\n      jump\t// in\n    tag_55:\n      stop\n        /* \"contracts/Donate.sol\":1160:1359  function getBoardInfo(uint256 _boardIndex) public view returns(Board memory)... */\n    tag_13:\n      tag_59\n      0x04\n      dup1\n      calldatasize\n      sub\n      dup2\n      add\n      swap1\n      tag_60\n      swap2\n      swap1\n      tag_38\n      jump\t// in\n    tag_60:\n      tag_61\n      jump\t// in\n    tag_59:\n      mload(0x40)\n      tag_62\n      swap2\n      swap1\n      tag_63\n      jump\t// in\n    tag_62:\n      mload(0x40)\n      dup1\n      swap2\n      sub\n      swap1\n      return\n        /* \"contracts/Donate.sol\":1365:1913  function getAllBoardsUnExpir() public view returns(Board[] memory)... */\n    tag_16:\n        /* \"contracts/Donate.sol\":1416:1430  Board[] memory */\n      0x60\n        /* \"contracts/Donate.sol\":1468:1481  uint256 count */\n      0x00\n        /* \"contracts/Donate.sol\":1497:1506  uint256 i */\n      dup1\n        /* \"contracts/Donate.sol\":1509:1510  0 */\n      0x00\n        /* \"contracts/Donate.sol\":1497:1510  uint256 i = 0 */\n      swap1\n      pop\n        /* \"contracts/Donate.sol\":1492:1625  for (uint256 i = 0; i < boards.length; i++) {... */\n    tag_65:\n        /* \"contracts/Donate.sol\":1516:1522  boards */\n      0x03\n        /* \"contracts/Donate.sol\":1516:1529  boards.length */\n      dup1\n      sload\n      swap1\n      pop\n        /* \"contracts/Donate.sol\":1512:1513  i */\n      dup2\n        /* \"contracts/Donate.sol\":1512:1529  i < boards.length */\n      lt\n        /* \"contracts/Donate.sol\":1492:1625  for (uint256 i = 0; i < boards.length; i++) {... */\n      iszero\n      tag_66\n      jumpi\n        /* \"contracts/Donate.sol\":1555:1561  boards */\n      0x03\n        /* \"contracts/Donate.sol\":1562:1563  i */\n      dup2\n        /* \"contracts/Donate.sol\":1555:1564  boards[i] */\n      dup2\n      sload\n      dup2\n      lt\n      tag_68\n      jumpi\n      tag_69\n      tag_70\n      jump\t// in\n    tag_69:\n    tag_68:\n      swap1\n      0x00\n      mstore\n      keccak256(0x00, 0x20)\n      swap1\n      0x08\n      mul\n      add\n        /* \"contracts/Donate.sol\":1555:1571  boards[i].expire */\n      0x07\n      add\n      0x00\n      swap1\n      sload\n      swap1\n      0x0100\n      exp\n      swap1\n      div\n      0xff\n      and\n        /* \"contracts/Donate.sol\":1551:1614  if(!boards[i].expire){... */\n      tag_72\n      jumpi\n        /* \"contracts/Donate.sol\":1591:1598  ++count */\n      dup2\n      tag_73\n      swap1\n      tag_74\n      jump\t// in\n    tag_73:\n      swap2\n      pop\n        /* \"contracts/Donate.sol\":1551:1614  if(!boards[i].expire){... */\n    tag_72:\n        /* \"contracts/Donate.sol\":1531:1534  i++ */\n      dup1\n      dup1\n      0x01\n      add\n      swap2\n      pop\n      pop\n        /* \"contracts/Donate.sol\":1492:1625  for (uint256 i = 0; i < boards.length; i++) {... */\n      jump(tag_65)\n    tag_66:\n      pop\n        /* \"contracts/Donate.sol\":1635:1657  Board[] memory _boards */\n      0x00\n        /* \"contracts/Donate.sol\":1670:1675  count */\n      dup2\n        /* \"contracts/Donate.sol\":1658:1676  new Board[](count) */\n      0xffffffffffffffff\n      dup2\n      gt\n      iszero\n      tag_75\n      jumpi\n      tag_76\n      tag_77\n      jump\t// in\n    tag_76:\n    tag_75:\n      mload(0x40)\n      swap1\n      dup1\n      dup3\n      mstore\n      dup1\n      0x20\n      mul\n      0x20\n      add\n      dup3\n      add\n      0x40\n      mstore\n      dup1\n      iszero\n      tag_78\n      jumpi\n      dup2\n      0x20\n      add\n    tag_79:\n      tag_80\n      tag_81\n      jump\t// in\n    tag_80:\n      dup2\n      mstore\n      0x20\n      add\n      swap1\n      0x01\n      swap1\n      sub\n      swap1\n      dup2\n      tag_79\n      jumpi\n      swap1\n      pop\n    tag_78:\n      pop\n        /* \"contracts/Donate.sol\":1635:1676  Board[] memory _boards=new Board[](count) */\n      swap1\n      pop\n        /* \"contracts/Donate.sol\":1687:1700  uint256 index */\n      0x00\n        /* \"contracts/Donate.sol\":1716:1725  uint256 i */\n      dup1\n        /* \"contracts/Donate.sol\":1728:1729  0 */\n      0x00\n        /* \"contracts/Donate.sol\":1716:1729  uint256 i = 0 */\n      swap1\n      pop\n        /* \"contracts/Donate.sol\":1711:1881  for (uint256 i = 0; i < boards.length; i++) {... */\n    tag_82:\n        /* \"contracts/Donate.sol\":1735:1741  boards */\n      0x03\n        /* \"contracts/Donate.sol\":1735:1748  boards.length */\n      dup1\n      sload\n      swap1\n      pop\n        /* \"contracts/Donate.sol\":1731:1732  i */\n      dup2\n        /* \"contracts/Donate.sol\":1731:1748  i < boards.length */\n      lt\n        /* \"contracts/Donate.sol\":1711:1881  for (uint256 i = 0; i < boards.length; i++) {... */\n      iszero\n      tag_83\n      jumpi\n        /* \"contracts/Donate.sol\":1774:1780  boards */\n      0x03\n        /* \"contracts/Donate.sol\":1781:1782  i */\n      dup2\n        /* \"contracts/Donate.sol\":1774:1783  boards[i] */\n      dup2\n      sload\n      dup2\n      lt\n      tag_85\n      jumpi\n      tag_86\n      tag_70\n      jump\t// in\n    tag_86:\n    tag_85:\n      swap1\n      0x00\n      mstore\n      keccak256(0x00, 0x20)\n      swap1\n      0x08\n      mul\n      add\n        /* \"contracts/Donate.sol\":1774:1790  boards[i].expire */\n      0x07\n      add\n      0x00\n      swap1\n      sload\n      swap1\n      0x0100\n      exp\n      swap1\n      div\n      0xff\n      and\n        /* \"contracts/Donate.sol\":1770:1870  if(!boards[i].expire){... */\n      tag_88\n      jumpi\n        /* \"contracts/Donate.sol\":1827:1833  boards */\n      0x03\n        /* \"contracts/Donate.sol\":1834:1835  i */\n      dup2\n        /* \"contracts/Donate.sol\":1827:1836  boards[i] */\n      dup2\n      sload\n      dup2\n      lt\n      tag_89\n      jumpi\n      tag_90\n      tag_70\n      jump\t// in\n    tag_90:\n    tag_89:\n      swap1\n      0x00\n      mstore\n      keccak256(0x00, 0x20)\n      swap1\n      0x08\n      mul\n      add\n        /* \"contracts/Donate.sol\":1810:1836  _boards[index++]=boards[i] */\n      mload(0x40)\n      dup1\n      0x0100\n      add\n      0x40\n      mstore\n      swap1\n      dup2\n      0x00\n      dup3\n      add\n      sload\n      dup2\n      mstore\n      0x20\n      add\n      0x01\n      dup3\n      add\n      dup1\n      sload\n      tag_92\n      swap1\n      tag_93\n      jump\t// in\n    tag_92:\n      dup1\n      0x1f\n      add\n      0x20\n      dup1\n      swap2\n      div\n      mul\n      0x20\n      add\n      mload(0x40)\n      swap1\n      dup2\n      add\n      0x40\n      mstore\n      dup1\n      swap3\n      swap2\n      swap1\n      dup2\n      dup2\n      mstore\n      0x20\n      add\n      dup3\n      dup1\n      sload\n      tag_94\n      swap1\n      tag_93\n      jump\t// in\n    tag_94:\n      dup1\n      iszero\n      tag_95\n      jumpi\n      dup1\n      0x1f\n      lt\n      tag_96\n      jumpi\n      0x0100\n      dup1\n      dup4\n      sload\n      div\n      mul\n      dup4\n      mstore\n      swap2\n      0x20\n      add\n      swap2\n      jump(tag_95)\n    tag_96:\n      dup3\n      add\n      swap2\n      swap1\n      0x00\n      mstore\n      keccak256(0x00, 0x20)\n      swap1\n    tag_97:\n      dup2\n      sload\n      dup2\n      mstore\n      swap1\n      0x01\n      add\n      swap1\n      0x20\n      add\n      dup1\n      dup4\n      gt\n      tag_97\n      jumpi\n      dup3\n      swap1\n      sub\n      0x1f\n      and\n      dup3\n      add\n      swap2\n    tag_95:\n      pop\n      pop\n      pop\n      pop\n      pop\n      dup2\n      mstore\n      0x20\n      add\n      0x02\n      dup3\n      add\n      dup1\n      sload\n      tag_98\n      swap1\n      tag_93\n      jump\t// in\n    tag_98:\n      dup1\n      0x1f\n      add\n      0x20\n      dup1\n      swap2\n      div\n      mul\n      0x20\n      add\n      mload(0x40)\n      swap1\n      dup2\n      add\n      0x40\n      mstore\n      dup1\n      swap3\n      swap2\n      swap1\n      dup2\n      dup2\n      mstore\n      0x20\n      add\n      dup3\n      dup1\n      sload\n      tag_99\n      swap1\n      tag_93\n      jump\t// in\n    tag_99:\n      dup1\n      iszero\n      tag_100\n      jumpi\n      dup1\n      0x1f\n      lt\n      tag_101\n      jumpi\n      0x0100\n      dup1\n      dup4\n      sload\n      div\n      mul\n      dup4\n      mstore\n      swap2\n      0x20\n      add\n      swap2\n      jump(tag_100)\n    tag_101:\n      dup3\n      add\n      swap2\n      swap1\n      0x00\n      mstore\n      keccak256(0x00, 0x20)\n      swap1\n    tag_102:\n      dup2\n      sload\n      dup2\n      mstore\n      swap1\n      0x01\n      add\n      swap1\n      0x20\n      add\n      dup1\n      dup4\n      gt\n      tag_102\n      jumpi\n      dup3\n      swap1\n      sub\n      0x1f\n      and\n      dup3\n      add\n      swap2\n    tag_100:\n      pop\n      pop\n      pop\n      pop\n      pop\n      dup2\n      mstore\n      0x20\n      add\n      0x03\n      dup3\n      add\n      0x00\n      swap1\n      sload\n      swap1\n      0x0100\n      exp\n      swap1\n      div\n      0xffffffffffffffffffffffffffffffffffffffff\n      and\n      0xffffffffffffffffffffffffffffffffffffffff\n      and\n      0xffffffffffffffffffffffffffffffffffffffff\n      and\n      dup2\n      mstore\n      0x20\n      add\n      0x04\n      dup3\n      add\n      dup1\n      sload\n      tag_103\n      swap1\n      tag_93\n      jump\t// in\n    tag_103:\n      dup1\n      0x1f\n      add\n      0x20\n      dup1\n      swap2\n      div\n      mul\n      0x20\n      add\n      mload(0x40)\n      swap1\n      dup2\n      add\n      0x40\n      mstore\n      dup1\n      swap3\n      swap2\n      swap1\n      dup2\n      dup2\n      mstore\n      0x20\n      add\n      dup3\n      dup1\n      sload\n      tag_104\n      swap1\n      tag_93\n      jump\t// in\n    tag_104:\n      dup1\n      iszero\n      tag_105\n      jumpi\n      dup1\n      0x1f\n      lt\n      tag_106\n      jumpi\n      0x0100\n      dup1\n      dup4\n      sload\n      div\n      mul\n      dup4\n      mstore\n      swap2\n      0x20\n      add\n      swap2\n      jump(tag_105)\n    tag_106:\n      dup3\n      add\n      swap2\n      swap1\n      0x00\n      mstore\n      keccak256(0x00, 0x20)\n      swap1\n    tag_107:\n      dup2\n      sload\n      dup2\n      mstore\n      swap1\n      0x01\n      add\n      swap1\n      0x20\n      add\n      dup1\n      dup4\n      gt\n      tag_107\n      jumpi\n      dup3\n      swap1\n      sub\n      0x1f\n      and\n      dup3\n      add\n      swap2\n    tag_105:\n      pop\n      pop\n      pop\n      pop\n      pop\n      dup2\n      mstore\n      0x20\n      add\n      0x05\n      dup3\n      add\n      sload\n      dup2\n      mstore\n      0x20\n      add\n      0x06\n      dup3\n      add\n      sload\n      dup2\n      mstore\n      0x20\n      add\n      0x07\n      dup3\n      add\n      0x00\n      swap1\n      sload\n      swap1\n      0x0100\n      exp\n      swap1\n      div\n      0xff\n      and\n      iszero\n      iszero\n      iszero\n      iszero\n      dup2\n      mstore\n      pop\n      pop\n        /* \"contracts/Donate.sol\":1810:1817  _boards */\n      dup4\n        /* \"contracts/Donate.sol\":1818:1825  index++ */\n      dup4\n      dup1\n      tag_108\n      swap1\n      tag_74\n      jump\t// in\n    tag_108:\n      swap5\n      pop\n        /* \"contracts/Donate.sol\":1810:1826  _boards[index++] */\n      dup2\n      mload\n      dup2\n      lt\n      tag_109\n      jumpi\n      tag_110\n      tag_70\n      jump\t// in\n    tag_110:\n    tag_109:\n      0x20\n      mul\n      0x20\n      add\n      add\n        /* \"contracts/Donate.sol\":1810:1836  _boards[index++]=boards[i] */\n      dup2\n      swap1\n      mstore\n      pop\n        /* \"contracts/Donate.sol\":1770:1870  if(!boards[i].expire){... */\n    tag_88:\n        /* \"contracts/Donate.sol\":1750:1753  i++ */\n      dup1\n      dup1\n      0x01\n      add\n      swap2\n      pop\n      pop\n        /* \"contracts/Donate.sol\":1711:1881  for (uint256 i = 0; i < boards.length; i++) {... */\n      jump(tag_82)\n    tag_83:\n      pop\n        /* \"contracts/Donate.sol\":1898:1905  _boards */\n      dup2\n        /* \"contracts/Donate.sol\":1891:1905  return _boards */\n      swap4\n      pop\n      pop\n      pop\n      pop\n        /* \"contracts/Donate.sol\":1365:1913  function getAllBoardsUnExpir() public view returns(Board[] memory)... */\n      swap1\n      jump\t// out\n        /* \"contracts/Donate.sol\":476:502  uint256  public boardIndex */\n    tag_20:\n      sload(0x01)\n      dup2\n      jump\t// out\n        /* \"contracts/Donate.sol\":641:1154  function createBoard(string calldata hostname,address  host,string calldata _name,string calldata _context,uint256  _targetAmount) public {... */\n    tag_26:\n        /* \"contracts/Donate.sol\":812:813  0 */\n      0x00\n        /* \"contracts/Donate.sol\":798:814  host!=address(0) */\n      0xffffffffffffffffffffffffffffffffffffffff\n      and\n        /* \"contracts/Donate.sol\":798:802  host */\n      dup7\n        /* \"contracts/Donate.sol\":798:814  host!=address(0) */\n      0xffffffffffffffffffffffffffffffffffffffff\n      and\n      sub\n        /* \"contracts/Donate.sol\":790:838  require(host!=address(0),\"invalid host address\") */\n      tag_112\n      jumpi\n      mload(0x40)\n      0x08c379a000000000000000000000000000000000000000000000000000000000\n      dup2\n      mstore\n      0x04\n      add\n      tag_113\n      swap1\n      tag_114\n      jump\t// in\n    tag_113:\n      mload(0x40)\n      dup1\n      swap2\n      sub\n      swap1\n      revert\n    tag_112:\n        /* \"contracts/Donate.sol\":858:863  mutex */\n      0x00\n      dup1\n      sload\n      swap1\n      0x0100\n      exp\n      swap1\n      div\n      0xff\n      and\n        /* \"contracts/Donate.sol\":857:863  !mutex */\n      iszero\n        /* \"contracts/Donate.sol\":849:935  require(!mutex,\"Sorry, someone is creating the board. Pleas wait a minute and repeat\") */\n      tag_115\n      jumpi\n      mload(0x40)\n      0x08c379a000000000000000000000000000000000000000000000000000000000\n      dup2\n      mstore\n      0x04\n      add\n      tag_116\n      swap1\n      tag_117\n      jump\t// in\n    tag_116:\n      mload(0x40)\n      dup1\n      swap2\n      sub\n      swap1\n      revert\n    tag_115:\n        /* \"contracts/Donate.sol\":952:956  true */\n      0x01\n        /* \"contracts/Donate.sol\":946:951  mutex */\n      0x00\n      dup1\n        /* \"contracts/Donate.sol\":946:956  mutex=true */\n      0x0100\n      exp\n      dup2\n      sload\n      dup2\n      0xff\n      mul\n      not\n      and\n      swap1\n      dup4\n      iszero\n      iszero\n      mul\n      or\n      swap1\n      sstore\n      pop\n        /* \"contracts/Donate.sol\":967:989  Board memory boardItem */\n      0x00\n        /* \"contracts/Donate.sol\":990:1058  Board(boardIndex,_name,_context,host,hostname,_targetAmount,0,false) */\n      mload(0x40)\n      dup1\n      0x0100\n      add\n      0x40\n      mstore\n      dup1\n        /* \"contracts/Donate.sol\":996:1006  boardIndex */\n      sload(0x01)\n        /* \"contracts/Donate.sol\":990:1058  Board(boardIndex,_name,_context,host,hostname,_targetAmount,0,false) */\n      dup2\n      mstore\n      0x20\n      add\n        /* \"contracts/Donate.sol\":1007:1012  _name */\n      dup8\n      dup8\n        /* \"contracts/Donate.sol\":990:1058  Board(boardIndex,_name,_context,host,hostname,_targetAmount,0,false) */\n      dup1\n      dup1\n      0x1f\n      add\n      0x20\n      dup1\n      swap2\n      div\n      mul\n      0x20\n      add\n      mload(0x40)\n      swap1\n      dup2\n      add\n      0x40\n      mstore\n      dup1\n      swap4\n      swap3\n      swap2\n      swap1\n      dup2\n      dup2\n      mstore\n      0x20\n      add\n      dup4\n      dup4\n      dup1\n      dup3\n      dup5\n      calldatacopy\n      0x00\n      dup2\n      dup5\n      add\n      mstore\n      not(0x1f)\n      0x1f\n      dup3\n      add\n      and\n      swap1\n      pop\n      dup1\n      dup4\n      add\n      swap3\n      pop\n      pop\n      pop\n      pop\n      pop\n      pop\n      pop\n      dup2\n      mstore\n      0x20\n      add\n        /* \"contracts/Donate.sol\":1013:1021  _context */\n      dup6\n      dup6\n        /* \"contracts/Donate.sol\":990:1058  Board(boardIndex,_name,_context,host,hostname,_targetAmount,0,false) */\n      dup1\n      dup1\n      0x1f\n      add\n      0x20\n      dup1\n      swap2\n      div\n      mul\n      0x20\n      add\n      mload(0x40)\n      swap1\n      dup2\n      add\n      0x40\n      mstore\n      dup1\n      swap4\n      swap3\n      swap2\n      swap1\n      dup2\n      dup2\n      mstore\n      0x20\n      add\n      dup4\n      dup4\n      dup1\n      dup3\n      dup5\n      calldatacopy\n      0x00\n      dup2\n      dup5\n      add\n      mstore\n      not(0x1f)\n      0x1f\n      dup3\n      add\n      and\n      swap1\n      pop\n      dup1\n      dup4\n      add\n      swap3\n      pop\n      pop\n      pop\n      pop\n      pop\n      pop\n      pop\n      dup2\n      mstore\n      0x20\n      add\n        /* \"contracts/Donate.sol\":1022:1026  host */\n      dup9\n        /* \"contracts/Donate.sol\":990:1058  Board(boardIndex,_name,_context,host,hostname,_targetAmount,0,false) */\n      0xffffffffffffffffffffffffffffffffffffffff\n      and\n      dup2\n      mstore\n      0x20\n      add\n        /* \"contracts/Donate.sol\":1027:1035  hostname */\n      dup11\n      dup11\n        /* \"contracts/Donate.sol\":990:1058  Board(boardIndex,_name,_context,host,hostname,_targetAmount,0,false) */\n      dup1\n      dup1\n      0x1f\n      add\n      0x20\n      dup1\n      swap2\n      div\n      mul\n      0x20\n      add\n      mload(0x40)\n      swap1\n      dup2\n      add\n      0x40\n      mstore\n      dup1\n      swap4\n      swap3\n      swap2\n      swap1\n      dup2\n      dup2\n      mstore\n      0x20\n      add\n      dup4\n      dup4\n      dup1\n      dup3\n      dup5\n      calldatacopy\n      0x00\n      dup2\n      dup5\n      add\n      mstore\n      not(0x1f)\n      0x1f\n      dup3\n      add\n      and\n      swap1\n      pop\n      dup1\n      dup4\n      add\n      swap3\n      pop\n      pop\n      pop\n      pop\n      pop\n      pop\n      pop\n      dup2\n      mstore\n      0x20\n      add\n        /* \"contracts/Donate.sol\":1036:1049  _targetAmount */\n      dup4\n        /* \"contracts/Donate.sol\":990:1058  Board(boardIndex,_name,_context,host,hostname,_targetAmount,0,false) */\n      dup2\n      mstore\n      0x20\n      add\n        /* \"contracts/Donate.sol\":1050:1051  0 */\n      0x00\n        /* \"contracts/Donate.sol\":990:1058  Board(boardIndex,_name,_context,host,hostname,_targetAmount,0,false) */\n      dup2\n      mstore\n      0x20\n      add\n        /* \"contracts/Donate.sol\":1052:1057  false */\n      0x00\n        /* \"contracts/Donate.sol\":990:1058  Board(boardIndex,_name,_context,host,hostname,_targetAmount,0,false) */\n      iszero\n      iszero\n      dup2\n      mstore\n      pop\n        /* \"contracts/Donate.sol\":967:1058  Board memory boardItem=Board(boardIndex,_name,_context,host,hostname,_targetAmount,0,false) */\n      swap1\n      pop\n        /* \"contracts/Donate.sol\":1071:1081  boardIndex */\n      0x01\n      0x00\n        /* \"contracts/Donate.sol\":1069:1081  ++boardIndex */\n      dup2\n      sload\n      tag_118\n      swap1\n      tag_74\n      jump\t// in\n    tag_118:\n      swap2\n      swap1\n      pop\n      dup2\n      swap1\n      sstore\n      pop\n        /* \"contracts/Donate.sol\":1092:1098  boards */\n      0x03\n        /* \"contracts/Donate.sol\":1104:1113  boardItem */\n      dup2\n        /* \"contracts/Donate.sol\":1092:1114  boards.push(boardItem) */\n      swap1\n      dup1\n      0x01\n      dup2\n      sload\n      add\n      dup1\n      dup3\n      sstore\n      dup1\n      swap2\n      pop\n      pop\n      0x01\n      swap1\n      sub\n      swap1\n      0x00\n      mstore\n      keccak256(0x00, 0x20)\n      swap1\n      0x08\n      mul\n      add\n      0x00\n      swap1\n      swap2\n      swap1\n      swap2\n      swap1\n      swap2\n      pop\n      0x00\n      dup3\n      add\n      mload\n      dup2\n      0x00\n      add\n      sstore\n      0x20\n      dup3\n      add\n      mload\n      dup2\n      0x01\n      add\n      swap1\n      dup2\n      tag_120\n      swap2\n      swap1\n      tag_121\n      jump\t// in\n    tag_120:\n      pop\n      0x40\n      dup3\n      add\n      mload\n      dup2\n      0x02\n      add\n      swap1\n      dup2\n      tag_122\n      swap2\n      swap1\n      tag_121\n      jump\t// in\n    tag_122:\n      pop\n      0x60\n      dup3\n      add\n      mload\n      dup2\n      0x03\n      add\n      exp(0x0100, 0x00)\n      dup2\n      sload\n      dup2\n      0xffffffffffffffffffffffffffffffffffffffff\n      mul\n      not\n      and\n      swap1\n      dup4\n      0xffffffffffffffffffffffffffffffffffffffff\n      and\n      mul\n      or\n      swap1\n      sstore\n      pop\n      0x80\n      dup3\n      add\n      mload\n      dup2\n      0x04\n      add\n      swap1\n      dup2\n      tag_123\n      swap2\n      swap1\n      tag_121\n      jump\t// in\n    tag_123:\n      pop\n      0xa0\n      dup3\n      add\n      mload\n      dup2\n      0x05\n      add\n      sstore\n      0xc0\n      dup3\n      add\n      mload\n      dup2\n      0x06\n      add\n      sstore\n      0xe0\n      dup3\n      add\n      mload\n      dup2\n      0x07\n      add\n      exp(0x0100, 0x00)\n      dup2\n      sload\n      dup2\n      0xff\n      mul\n      not\n      and\n      swap1\n      dup4\n      iszero\n      iszero\n      mul\n      or\n      swap1\n      sstore\n      pop\n      pop\n      pop\n        /* \"contracts/Donate.sol\":1131:1136  false */\n      0x00\n        /* \"contracts/Donate.sol\":1125:1130  mutex */\n      dup1\n      0x00\n        /* \"contracts/Donate.sol\":1125:1136  mutex=false */\n      0x0100\n      exp\n      dup2\n      sload\n      dup2\n      0xff\n      mul\n      not\n      and\n      swap1\n      dup4\n      iszero\n      iszero\n      mul\n      or\n      swap1\n      sstore\n      pop\n        /* \"contracts/Donate.sol\":779:1154  {... */\n      pop\n        /* \"contracts/Donate.sol\":641:1154  function createBoard(string calldata hostname,address  host,string calldata _name,string calldata _context,uint256  _targetAmount) public {... */\n      pop\n      pop\n      pop\n      pop\n      pop\n      pop\n      pop\n      pop\n      jump\t// out\n        /* \"contracts/Donate.sol\":1919:2445  function getAllBoardsExpir() public view returns(Board[] memory)... */\n    tag_28:\n        /* \"contracts/Donate.sol\":1968:1982  Board[] memory */\n      0x60\n        /* \"contracts/Donate.sol\":2020:2033  uint256 count */\n      0x00\n        /* \"contracts/Donate.sol\":2049:2058  uint256 i */\n      dup1\n        /* \"contracts/Donate.sol\":2061:2062  0 */\n      0x00\n        /* \"contracts/Donate.sol\":2049:2062  uint256 i = 0 */\n      swap1\n      pop\n        /* \"contracts/Donate.sol\":2044:2176  for (uint256 i = 0; i < boards.length; i++) {... */\n    tag_125:\n        /* \"contracts/Donate.sol\":2068:2074  boards */\n      0x03\n        /* \"contracts/Donate.sol\":2068:2081  boards.length */\n      dup1\n      sload\n      swap1\n      pop\n        /* \"contracts/Donate.sol\":2064:2065  i */\n      dup2\n        /* \"contracts/Donate.sol\":2064:2081  i < boards.length */\n      lt\n        /* \"contracts/Donate.sol\":2044:2176  for (uint256 i = 0; i < boards.length; i++) {... */\n      iszero\n      tag_126\n      jumpi\n        /* \"contracts/Donate.sol\":2106:2112  boards */\n      0x03\n        /* \"contracts/Donate.sol\":2113:2114  i */\n      dup2\n        /* \"contracts/Donate.sol\":2106:2115  boards[i] */\n      dup2\n      sload\n      dup2\n      lt\n      tag_128\n      jumpi\n      tag_129\n      tag_70\n      jump\t// in\n    tag_129:\n    tag_128:\n      swap1\n      0x00\n      mstore\n      keccak256(0x00, 0x20)\n      swap1\n      0x08\n      mul\n      add\n        /* \"contracts/Donate.sol\":2106:2122  boards[i].expire */\n      0x07\n      add\n      0x00\n      swap1\n      sload\n      swap1\n      0x0100\n      exp\n      swap1\n      div\n      0xff\n      and\n        /* \"contracts/Donate.sol\":2103:2165  if(boards[i].expire){... */\n      iszero\n      tag_131\n      jumpi\n        /* \"contracts/Donate.sol\":2142:2149  ++count */\n      dup2\n      tag_132\n      swap1\n      tag_74\n      jump\t// in\n    tag_132:\n      swap2\n      pop\n        /* \"contracts/Donate.sol\":2103:2165  if(boards[i].expire){... */\n    tag_131:\n        /* \"contracts/Donate.sol\":2083:2086  i++ */\n      dup1\n      dup1\n      0x01\n      add\n      swap2\n      pop\n      pop\n        /* \"contracts/Donate.sol\":2044:2176  for (uint256 i = 0; i < boards.length; i++) {... */\n      jump(tag_125)\n    tag_126:\n      pop\n        /* \"contracts/Donate.sol\":2186:2208  Board[] memory _boards */\n      0x00\n        /* \"contracts/Donate.sol\":2221:2226  count */\n      dup2\n        /* \"contracts/Donate.sol\":2209:2227  new Board[](count) */\n      0xffffffffffffffff\n      dup2\n      gt\n      iszero\n      tag_133\n      jumpi\n      tag_134\n      tag_77\n      jump\t// in\n    tag_134:\n    tag_133:\n      mload(0x40)\n      swap1\n      dup1\n      dup3\n      mstore\n      dup1\n      0x20\n      mul\n      0x20\n      add\n      dup3\n      add\n      0x40\n      mstore\n      dup1\n      iszero\n      tag_135\n      jumpi\n      dup2\n      0x20\n      add\n    tag_136:\n      tag_137\n      tag_81\n      jump\t// in\n    tag_137:\n      dup2\n      mstore\n      0x20\n      add\n      swap1\n      0x01\n      swap1\n      sub\n      swap1\n      dup2\n      tag_136\n      jumpi\n      swap1\n      pop\n    tag_135:\n      pop\n        /* \"contracts/Donate.sol\":2186:2227  Board[] memory _boards=new Board[](count) */\n      swap1\n      pop\n        /* \"contracts/Donate.sol\":2238:2251  uint256 index */\n      0x00\n        /* \"contracts/Donate.sol\":2267:2276  uint256 i */\n      dup1\n        /* \"contracts/Donate.sol\":2279:2280  0 */\n      0x00\n        /* \"contracts/Donate.sol\":2267:2280  uint256 i = 0 */\n      swap1\n      pop\n        /* \"contracts/Donate.sol\":2262:2413  for (uint256 i = 0; i < boards.length; i++) {... */\n    tag_138:\n        /* \"contracts/Donate.sol\":2286:2292  boards */\n      0x03\n        /* \"contracts/Donate.sol\":2286:2299  boards.length */\n      dup1\n      sload\n      swap1\n      pop\n        /* \"contracts/Donate.sol\":2282:2283  i */\n      dup2\n        /* \"contracts/Donate.sol\":2282:2299  i < boards.length */\n      lt\n        /* \"contracts/Donate.sol\":2262:2413  for (uint256 i = 0; i < boards.length; i++) {... */\n      iszero\n      tag_139\n      jumpi\n        /* \"contracts/Donate.sol\":2324:2330  boards */\n      0x03\n        /* \"contracts/Donate.sol\":2331:2332  i */\n      dup2\n        /* \"contracts/Donate.sol\":2324:2333  boards[i] */\n      dup2\n      sload\n      dup2\n      lt\n      tag_141\n      jumpi\n      tag_142\n      tag_70\n      jump\t// in\n    tag_142:\n    tag_141:\n      swap1\n      0x00\n      mstore\n      keccak256(0x00, 0x20)\n      swap1\n      0x08\n      mul\n      add\n        /* \"contracts/Donate.sol\":2324:2340  boards[i].expire */\n      0x07\n      add\n      0x00\n      swap1\n      sload\n      swap1\n      0x0100\n      exp\n      swap1\n      div\n      0xff\n      and\n        /* \"contracts/Donate.sol\":2321:2402  if(boards[i].expire){... */\n      iszero\n      tag_144\n      jumpi\n        /* \"contracts/Donate.sol\":2377:2383  boards */\n      0x03\n        /* \"contracts/Donate.sol\":2384:2385  i */\n      dup2\n        /* \"contracts/Donate.sol\":2377:2386  boards[i] */\n      dup2\n      sload\n      dup2\n      lt\n      tag_145\n      jumpi\n      tag_146\n      tag_70\n      jump\t// in\n    tag_146:\n    tag_145:\n      swap1\n      0x00\n      mstore\n      keccak256(0x00, 0x20)\n      swap1\n      0x08\n      mul\n      add\n        /* \"contracts/Donate.sol\":2360:2386  _boards[index++]=boards[i] */\n      mload(0x40)\n      dup1\n      0x0100\n      add\n      0x40\n      mstore\n      swap1\n      dup2\n      0x00\n      dup3\n      add\n      sload\n      dup2\n      mstore\n      0x20\n      add\n      0x01\n      dup3\n      add\n      dup1\n      sload\n      tag_148\n      swap1\n      tag_93\n      jump\t// in\n    tag_148:\n      dup1\n      0x1f\n      add\n      0x20\n      dup1\n      swap2\n      div\n      mul\n      0x20\n      add\n      mload(0x40)\n      swap1\n      dup2\n      add\n      0x40\n      mstore\n      dup1\n      swap3\n      swap2\n      swap1\n      dup2\n      dup2\n      mstore\n      0x20\n      add\n      dup3\n      dup1\n      sload\n      tag_149\n      swap1\n      tag_93\n      jump\t// in\n    tag_149:\n      dup1\n      iszero\n      tag_150\n      jumpi\n      dup1\n      0x1f\n      lt\n      tag_151\n      jumpi\n      0x0100\n      dup1\n      dup4\n      sload\n      div\n      mul\n      dup4\n      mstore\n      swap2\n      0x20\n      add\n      swap2\n      jump(tag_150)\n    tag_151:\n      dup3\n      add\n      swap2\n      swap1\n      0x00\n      mstore\n      keccak256(0x00, 0x20)\n      swap1\n    tag_152:\n      dup2\n      sload\n      dup2\n      mstore\n      swap1\n      0x01\n      add\n      swap1\n      0x20\n      add\n      dup1\n      dup4\n      gt\n      tag_152\n      jumpi\n      dup3\n      swap1\n      sub\n      0x1f\n      and\n      dup3\n      add\n      swap2\n    tag_150:\n      pop\n      pop\n      pop\n      pop\n      pop\n      dup2\n      mstore\n      0x20\n      add\n      0x02\n      dup3\n      add\n      dup1\n      sload\n      tag_153\n      swap1\n      tag_93\n      jump\t// in\n    tag_153:\n      dup1\n      0x1f\n      add\n      0x20\n      dup1\n      swap2\n      div\n      mul\n      0x20\n      add\n      mload(0x40)\n      swap1\n      dup2\n      add\n      0x40\n      mstore\n      dup1\n      swap3\n      swap2\n      swap1\n      dup2\n      dup2\n      mstore\n      0x20\n      add\n      dup3\n      dup1\n      sload\n      tag_154\n      swap1\n      tag_93\n      jump\t// in\n    tag_154:\n      dup1\n      iszero\n      tag_155\n      jumpi\n      dup1\n      0x1f\n      lt\n      tag_156\n      jumpi\n      0x0100\n      dup1\n      dup4\n      sload\n      div\n      mul\n      dup4\n      mstore\n      swap2\n      0x20\n      add\n      swap2\n      jump(tag_155)\n    tag_156:\n      dup3\n      add\n      swap2\n      swap1\n      0x00\n      mstore\n      keccak256(0x00, 0x20)\n      swap1\n    tag_157:\n      dup2\n      sload\n      dup2\n      mstore\n      swap1\n      0x01\n      add\n      swap1\n      0x20\n      add\n      dup1\n      dup4\n      gt\n      tag_157\n      jumpi\n      dup3\n      swap1\n      sub\n      0x1f\n      and\n      dup3\n      add\n      swap2\n    tag_155:\n      pop\n      pop\n      pop\n      pop\n      pop\n      dup2\n      mstore\n      0x20\n      add\n      0x03\n      dup3\n      add\n      0x00\n      swap1\n      sload\n      swap1\n      0x0100\n      exp\n      swap1\n      div\n      0xffffffffffffffffffffffffffffffffffffffff\n      and\n      0xffffffffffffffffffffffffffffffffffffffff\n      and\n      0xffffffffffffffffffffffffffffffffffffffff\n      and\n      dup2\n      mstore\n      0x20\n      add\n      0x04\n      dup3\n      add\n      dup1\n      sload\n      tag_158\n      swap1\n      tag_93\n      jump\t// in\n    tag_158:\n      dup1\n      0x1f\n      add\n      0x20\n      dup1\n      swap2\n      div\n      mul\n      0x20\n      add\n      mload(0x40)\n      swap1\n      dup2\n      add\n      0x40\n      mstore\n      dup1\n      swap3\n      swap2\n      swap1\n      dup2\n      dup2\n      mstore\n      0x20\n      add\n      dup3\n      dup1\n      sload\n      tag_159\n      swap1\n      tag_93\n      jump\t// in\n    tag_159:\n      dup1\n      iszero\n      tag_160\n      jumpi\n      dup1\n      0x1f\n      lt\n      tag_161\n      jumpi\n      0x0100\n      dup1\n      dup4\n      sload\n      div\n      mul\n      dup4\n      mstore\n      swap2\n      0x20\n      add\n      swap2\n      jump(tag_160)\n    tag_161:\n      dup3\n      add\n      swap2\n      swap1\n      0x00\n      mstore\n      keccak256(0x00, 0x20)\n      swap1\n    tag_162:\n      dup2\n      sload\n      dup2\n      mstore\n      swap1\n      0x01\n      add\n      swap1\n      0x20\n      add\n      dup1\n      dup4\n      gt\n      tag_162\n      jumpi\n      dup3\n      swap1\n      sub\n      0x1f\n      and\n      dup3\n      add\n      swap2\n    tag_160:\n      pop\n      pop\n      pop\n      pop\n      pop\n      dup2\n      mstore\n      0x20\n      add\n      0x05\n      dup3\n      add\n      sload\n      dup2\n      mstore\n      0x20\n      add\n      0x06\n      dup3\n      add\n      sload\n      dup2\n      mstore\n      0x20\n      add\n      0x07\n      dup3\n      add\n      0x00\n      swap1\n      sload\n      swap1\n      0x0100\n      exp\n      swap1\n      div\n      0xff\n      and\n      iszero\n      iszero\n      iszero\n      iszero\n      dup2\n      mstore\n      pop\n      pop\n        /* \"contracts/Donate.sol\":2360:2367  _boards */\n      dup4\n        /* \"contracts/Donate.sol\":2368:2375  index++ */\n      dup4\n      dup1\n      tag_163\n      swap1\n      tag_74\n      jump\t// in\n    tag_163:\n      swap5\n      pop\n        /* \"contracts/Donate.sol\":2360:2376  _boards[index++] */\n      dup2\n      mload\n      dup2\n      lt\n      tag_164\n      jumpi\n      tag_165\n      tag_70\n      jump\t// in\n    tag_165:\n    tag_164:\n      0x20\n      mul\n      0x20\n      add\n      add\n        /* \"contracts/Donate.sol\":2360:2386  _boards[index++]=boards[i] */\n      dup2\n      swap1\n      mstore\n      pop\n        /* \"contracts/Donate.sol\":2321:2402  if(boards[i].expire){... */\n    tag_144:\n        /* \"contracts/Donate.sol\":2301:2304  i++ */\n      dup1\n      dup1\n      0x01\n      add\n      swap2\n      pop\n      pop\n        /* \"contracts/Donate.sol\":2262:2413  for (uint256 i = 0; i < boards.length; i++) {... */\n      jump(tag_138)\n    tag_139:\n      pop\n        /* \"contracts/Donate.sol\":2430:2437  _boards */\n      dup2\n        /* \"contracts/Donate.sol\":2423:2437  return _boards */\n      swap4\n      pop\n      pop\n      pop\n      pop\n        /* \"contracts/Donate.sol\":1919:2445  function getAllBoardsExpir() public view returns(Board[] memory)... */\n      swap1\n      jump\t// out\n        /* \"contracts/Donate.sol\":3066:3722  function getDonatorInfoByAddr(address _address) public view returns(Donator[] memory)... */\n    tag_33:\n        /* \"contracts/Donate.sol\":3134:3150  Donator[] memory */\n      0x60\n        /* \"contracts/Donate.sol\":3194:3195  0 */\n      0x00\n        /* \"contracts/Donate.sol\":3176:3196  _address!=address(0) */\n      0xffffffffffffffffffffffffffffffffffffffff\n      and\n        /* \"contracts/Donate.sol\":3176:3184  _address */\n      dup3\n        /* \"contracts/Donate.sol\":3176:3196  _address!=address(0) */\n      0xffffffffffffffffffffffffffffffffffffffff\n      and\n      sub\n        /* \"contracts/Donate.sol\":3168:3215  require(_address!=address(0),\"invalid address\") */\n      tag_167\n      jumpi\n      mload(0x40)\n      0x08c379a000000000000000000000000000000000000000000000000000000000\n      dup2\n      mstore\n      0x04\n      add\n      tag_168\n      swap1\n      tag_169\n      jump\t// in\n    tag_168:\n      mload(0x40)\n      dup1\n      swap2\n      sub\n      swap1\n      revert\n    tag_167:\n        /* \"contracts/Donate.sol\":3227:3240  uint256 count */\n      0x00\n        /* \"contracts/Donate.sol\":3256:3265  uint256 i */\n      dup1\n        /* \"contracts/Donate.sol\":3268:3269  0 */\n      0x00\n        /* \"contracts/Donate.sol\":3256:3269  uint256 i = 0 */\n      swap1\n      pop\n        /* \"contracts/Donate.sol\":3251:3403  for (uint256 i = 0; i < donators.length; i++) {... */\n    tag_170:\n        /* \"contracts/Donate.sol\":3275:3283  donators */\n      0x02\n        /* \"contracts/Donate.sol\":3275:3290  donators.length */\n      dup1\n      sload\n      swap1\n      pop\n        /* \"contracts/Donate.sol\":3271:3272  i */\n      dup2\n        /* \"contracts/Donate.sol\":3271:3290  i < donators.length */\n      lt\n        /* \"contracts/Donate.sol\":3251:3403  for (uint256 i = 0; i < donators.length; i++) {... */\n      iszero\n      tag_171\n      jumpi\n        /* \"contracts/Donate.sol\":3341:3349  _address */\n      dup4\n        /* \"contracts/Donate.sol\":3315:3349  donators[i].donator_addr==_address */\n      0xffffffffffffffffffffffffffffffffffffffff\n      and\n        /* \"contracts/Donate.sol\":3315:3323  donators */\n      0x02\n        /* \"contracts/Donate.sol\":3324:3325  i */\n      dup3\n        /* \"contracts/Donate.sol\":3315:3326  donators[i] */\n      dup2\n      sload\n      dup2\n      lt\n      tag_173\n      jumpi\n      tag_174\n      tag_70\n      jump\t// in\n    tag_174:\n    tag_173:\n      swap1\n      0x00\n      mstore\n      keccak256(0x00, 0x20)\n      swap1\n      0x04\n      mul\n      add\n        /* \"contracts/Donate.sol\":3315:3339  donators[i].donator_addr */\n      0x02\n      add\n      0x00\n      swap1\n      sload\n      swap1\n      0x0100\n      exp\n      swap1\n      div\n      0xffffffffffffffffffffffffffffffffffffffff\n      and\n        /* \"contracts/Donate.sol\":3315:3349  donators[i].donator_addr==_address */\n      0xffffffffffffffffffffffffffffffffffffffff\n      and\n      sub\n        /* \"contracts/Donate.sol\":3312:3392  if(donators[i].donator_addr==_address){... */\n      tag_176\n      jumpi\n        /* \"contracts/Donate.sol\":3369:3376  ++count */\n      dup2\n      tag_177\n      swap1\n      tag_74\n      jump\t// in\n    tag_177:\n      swap2\n      pop\n        /* \"contracts/Donate.sol\":3312:3392  if(donators[i].donator_addr==_address){... */\n    tag_176:\n        /* \"contracts/Donate.sol\":3292:3295  i++ */\n      dup1\n      dup1\n      0x01\n      add\n      swap2\n      pop\n      pop\n        /* \"contracts/Donate.sol\":3251:3403  for (uint256 i = 0; i < donators.length; i++) {... */\n      jump(tag_170)\n    tag_171:\n      pop\n        /* \"contracts/Donate.sol\":3413:3439  Donator[] memory _donators */\n      0x00\n        /* \"contracts/Donate.sol\":3454:3459  count */\n      dup2\n        /* \"contracts/Donate.sol\":3440:3460  new Donator[](count) */\n      0xffffffffffffffff\n      dup2\n      gt\n      iszero\n      tag_178\n      jumpi\n      tag_179\n      tag_77\n      jump\t// in\n    tag_179:\n    tag_178:\n      mload(0x40)\n      swap1\n      dup1\n      dup3\n      mstore\n      dup1\n      0x20\n      mul\n      0x20\n      add\n      dup3\n      add\n      0x40\n      mstore\n      dup1\n      iszero\n      tag_180\n      jumpi\n      dup2\n      0x20\n      add\n    tag_181:\n      tag_182\n      tag_183\n      jump\t// in\n    tag_182:\n      dup2\n      mstore\n      0x20\n      add\n      swap1\n      0x01\n      swap1\n      sub\n      swap1\n      dup2\n      tag_181\n      jumpi\n      swap1\n      pop\n    tag_180:\n      pop\n        /* \"contracts/Donate.sol\":3413:3460  Donator[] memory _donators=new Donator[](count) */\n      swap1\n      pop\n        /* \"contracts/Donate.sol\":3471:3484  uint256 index */\n      0x00\n        /* \"contracts/Donate.sol\":3500:3509  uint256 i */\n      dup1\n        /* \"contracts/Donate.sol\":3512:3513  0 */\n      0x00\n        /* \"contracts/Donate.sol\":3500:3513  uint256 i = 0 */\n      swap1\n      pop\n        /* \"contracts/Donate.sol\":3495:3688  for (uint256 i = 0; i < donators.length; i++) {... */\n    tag_184:\n        /* \"contracts/Donate.sol\":3519:3527  donators */\n      0x02\n        /* \"contracts/Donate.sol\":3519:3534  donators.length */\n      dup1\n      sload\n      swap1\n      pop\n        /* \"contracts/Donate.sol\":3515:3516  i */\n      dup2\n        /* \"contracts/Donate.sol\":3515:3534  i < donators.length */\n      lt\n        /* \"contracts/Donate.sol\":3495:3688  for (uint256 i = 0; i < donators.length; i++) {... */\n      iszero\n      tag_185\n      jumpi\n        /* \"contracts/Donate.sol\":3585:3593  _address */\n      dup6\n        /* \"contracts/Donate.sol\":3559:3593  donators[i].donator_addr==_address */\n      0xffffffffffffffffffffffffffffffffffffffff\n      and\n        /* \"contracts/Donate.sol\":3559:3567  donators */\n      0x02\n        /* \"contracts/Donate.sol\":3568:3569  i */\n      dup3\n        /* \"contracts/Donate.sol\":3559:3570  donators[i] */\n      dup2\n      sload\n      dup2\n      lt\n      tag_187\n      jumpi\n      tag_188\n      tag_70\n      jump\t// in\n    tag_188:\n    tag_187:\n      swap1\n      0x00\n      mstore\n      keccak256(0x00, 0x20)\n      swap1\n      0x04\n      mul\n      add\n        /* \"contracts/Donate.sol\":3559:3583  donators[i].donator_addr */\n      0x02\n      add\n      0x00\n      swap1\n      sload\n      swap1\n      0x0100\n      exp\n      swap1\n      div\n      0xffffffffffffffffffffffffffffffffffffffff\n      and\n        /* \"contracts/Donate.sol\":3559:3593  donators[i].donator_addr==_address */\n      0xffffffffffffffffffffffffffffffffffffffff\n      and\n      sub\n        /* \"contracts/Donate.sol\":3556:3677  if(donators[i].donator_addr==_address){... */\n      tag_190\n      jumpi\n        /* \"contracts/Donate.sol\":3632:3640  donators */\n      0x02\n        /* \"contracts/Donate.sol\":3641:3642  i */\n      dup2\n        /* \"contracts/Donate.sol\":3632:3643  donators[i] */\n      dup2\n      sload\n      dup2\n      lt\n      tag_191\n      jumpi\n      tag_192\n      tag_70\n      jump\t// in\n    tag_192:\n    tag_191:\n      swap1\n      0x00\n      mstore\n      keccak256(0x00, 0x20)\n      swap1\n      0x04\n      mul\n      add\n        /* \"contracts/Donate.sol\":3613:3643  _donators[index++]=donators[i] */\n      mload(0x40)\n      dup1\n      0x80\n      add\n      0x40\n      mstore\n      swap1\n      dup2\n      0x00\n      dup3\n      add\n      sload\n      dup2\n      mstore\n      0x20\n      add\n      0x01\n      dup3\n      add\n      dup1\n      sload\n      tag_194\n      swap1\n      tag_93\n      jump\t// in\n    tag_194:\n      dup1\n      0x1f\n      add\n      0x20\n      dup1\n      swap2\n      div\n      mul\n      0x20\n      add\n      mload(0x40)\n      swap1\n      dup2\n      add\n      0x40\n      mstore\n      dup1\n      swap3\n      swap2\n      swap1\n      dup2\n      dup2\n      mstore\n      0x20\n      add\n      dup3\n      dup1\n      sload\n      tag_195\n      swap1\n      tag_93\n      jump\t// in\n    tag_195:\n      dup1\n      iszero\n      tag_196\n      jumpi\n      dup1\n      0x1f\n      lt\n      tag_197\n      jumpi\n      0x0100\n      dup1\n      dup4\n      sload\n      div\n      mul\n      dup4\n      mstore\n      swap2\n      0x20\n      add\n      swap2\n      jump(tag_196)\n    tag_197:\n      dup3\n      add\n      swap2\n      swap1\n      0x00\n      mstore\n      keccak256(0x00, 0x20)\n      swap1\n    tag_198:\n      dup2\n      sload\n      dup2\n      mstore\n      swap1\n      0x01\n      add\n      swap1\n      0x20\n      add\n      dup1\n      dup4\n      gt\n      tag_198\n      jumpi\n      dup3\n      swap1\n      sub\n      0x1f\n      and\n      dup3\n      add\n      swap2\n    tag_196:\n      pop\n      pop\n      pop\n      pop\n      pop\n      dup2\n      mstore\n      0x20\n      add\n      0x02\n      dup3\n      add\n      0x00\n      swap1\n      sload\n      swap1\n      0x0100\n      exp\n      swap1\n      div\n      0xffffffffffffffffffffffffffffffffffffffff\n      and\n      0xffffffffffffffffffffffffffffffffffffffff\n      and\n      0xffffffffffffffffffffffffffffffffffffffff\n      and\n      dup2\n      mstore\n      0x20\n      add\n      0x03\n      dup3\n      add\n      sload\n      dup2\n      mstore\n      pop\n      pop\n        /* \"contracts/Donate.sol\":3613:3622  _donators */\n      dup4\n        /* \"contracts/Donate.sol\":3623:3630  index++ */\n      dup4\n      dup1\n      tag_199\n      swap1\n      tag_74\n      jump\t// in\n    tag_199:\n      swap5\n      pop\n        /* \"contracts/Donate.sol\":3613:3631  _donators[index++] */\n      dup2\n      mload\n      dup2\n      lt\n      tag_200\n      jumpi\n      tag_201\n      tag_70\n      jump\t// in\n    tag_201:\n    tag_200:\n      0x20\n      mul\n      0x20\n      add\n      add\n        /* \"contracts/Donate.sol\":3613:3643  _donators[index++]=donators[i] */\n      dup2\n      swap1\n      mstore\n      pop\n        /* \"contracts/Donate.sol\":3556:3677  if(donators[i].donator_addr==_address){... */\n    tag_190:\n        /* \"contracts/Donate.sol\":3536:3539  i++ */\n      dup1\n      dup1\n      0x01\n      add\n      swap2\n      pop\n      pop\n        /* \"contracts/Donate.sol\":3495:3688  for (uint256 i = 0; i < donators.length; i++) {... */\n      jump(tag_184)\n    tag_185:\n      pop\n        /* \"contracts/Donate.sol\":3705:3714  _donators */\n      dup2\n        /* \"contracts/Donate.sol\":3698:3714  return _donators */\n      swap4\n      pop\n      pop\n      pop\n      pop\n        /* \"contracts/Donate.sol\":3066:3722  function getDonatorInfoByAddr(address _address) public view returns(Donator[] memory)... */\n      swap2\n      swap1\n      pop\n      jump\t// out\n        /* \"contracts/Donate.sol\":541:562  Board[] public boards */\n    tag_39:\n      0x03\n      dup2\n      dup2\n      sload\n      dup2\n      lt\n      tag_202\n      jumpi\n      0x00\n      dup1\n      revert\n    tag_202:\n      swap1\n      0x00\n      mstore\n      keccak256(0x00, 0x20)\n      swap1\n      0x08\n      mul\n      add\n      0x00\n      swap2\n      pop\n      swap1\n      pop\n      dup1\n      0x00\n      add\n      sload\n      swap1\n      dup1\n      0x01\n      add\n      dup1\n      sload\n      tag_204\n      swap1\n      tag_93\n      jump\t// in\n    tag_204:\n      dup1\n      0x1f\n      add\n      0x20\n      dup1\n      swap2\n      div\n      mul\n      0x20\n      add\n      mload(0x40)\n      swap1\n      dup2\n      add\n      0x40\n      mstore\n      dup1\n      swap3\n      swap2\n      swap1\n      dup2\n      dup2\n      mstore\n      0x20\n      add\n      dup3\n      dup1\n      sload\n      tag_205\n      swap1\n      tag_93\n      jump\t// in\n    tag_205:\n      dup1\n      iszero\n      tag_206\n      jumpi\n      dup1\n      0x1f\n      lt\n      tag_207\n      jumpi\n      0x0100\n      dup1\n      dup4\n      sload\n      div\n      mul\n      dup4\n      mstore\n      swap2\n      0x20\n      add\n      swap2\n      jump(tag_206)\n    tag_207:\n      dup3\n      add\n      swap2\n      swap1\n      0x00\n      mstore\n      keccak256(0x00, 0x20)\n      swap1\n    tag_208:\n      dup2\n      sload\n      dup2\n      mstore\n      swap1\n      0x01\n      add\n      swap1\n      0x20\n      add\n      dup1\n      dup4\n      gt\n      tag_208\n      jumpi\n      dup3\n      swap1\n      sub\n      0x1f\n      and\n      dup3\n      add\n      swap2\n    tag_206:\n      pop\n      pop\n      pop\n      pop\n      pop\n      swap1\n      dup1\n      0x02\n      add\n      dup1\n      sload\n      tag_209\n      swap1\n      tag_93\n      jump\t// in\n    tag_209:\n      dup1\n      0x1f\n      add\n      0x20\n      dup1\n      swap2\n      div\n      mul\n      0x20\n      add\n      mload(0x40)\n      swap1\n      dup2\n      add\n      0x40\n      mstore\n      dup1\n      swap3\n      swap2\n      swap1\n      dup2\n      dup2\n      mstore\n      0x20\n      add\n      dup3\n      dup1\n      sload\n      tag_210\n      swap1\n      tag_93\n      jump\t// in\n    tag_210:\n      dup1\n      iszero\n      tag_211\n      jumpi\n      dup1\n      0x1f\n      lt\n      tag_212\n      jumpi\n      0x0100\n      dup1\n      dup4\n      sload\n      div\n      mul\n      dup4\n      mstore\n      swap2\n      0x20\n      add\n      swap2\n      jump(tag_211)\n    tag_212:\n      dup3\n      add\n      swap2\n      swap1\n      0x00\n      mstore\n      keccak256(0x00, 0x20)\n      swap1\n    tag_213:\n      dup2\n      sload\n      dup2\n      mstore\n      swap1\n      0x01\n      add\n      swap1\n      0x20\n      add\n      dup1\n      dup4\n      gt\n      tag_213\n      jumpi\n      dup3\n      swap1\n      sub\n      0x1f\n      and\n      dup3\n      add\n      swap2\n    tag_211:\n      pop\n      pop\n      pop\n      pop\n      pop\n      swap1\n      dup1\n      0x03\n      add\n      0x00\n      swap1\n      sload\n      swap1\n      0x0100\n      exp\n      swap1\n      div\n      0xffffffffffffffffffffffffffffffffffffffff\n      and\n      swap1\n      dup1\n      0x04\n      add\n      dup1\n      sload\n      tag_214\n      swap1\n      tag_93\n      jump\t// in\n    tag_214:\n      dup1\n      0x1f\n      add\n      0x20\n      dup1\n      swap2\n      div\n      mul\n      0x20\n      add\n      mload(0x40)\n      swap1\n      dup2\n      add\n      0x40\n      mstore\n      dup1\n      swap3\n      swap2\n      swap1\n      dup2\n      dup2\n      mstore\n      0x20\n      add\n      dup3\n      dup1\n      sload\n      tag_215\n      swap1\n      tag_93\n      jump\t// in\n    tag_215:\n      dup1\n      iszero\n      tag_216\n      jumpi\n      dup1\n      0x1f\n      lt\n      tag_217\n      jumpi\n      0x0100\n      dup1\n      dup4\n      sload\n      div\n      mul\n      dup4\n      mstore\n      swap2\n      0x20\n      add\n      swap2\n      jump(tag_216)\n    tag_217:\n      dup3\n      add\n      swap2\n      swap1\n      0x00\n      mstore\n      keccak256(0x00, 0x20)\n      swap1\n    tag_218:\n      dup2\n      sload\n      dup2\n      mstore\n      swap1\n      0x01\n      add\n      swap1\n      0x20\n      add\n      dup1\n      dup4\n      gt\n      tag_218\n      jumpi\n      dup3\n      swap1\n      sub\n      0x1f\n      and\n      dup3\n      add\n      swap2\n    tag_216:\n      pop\n      pop\n      pop\n      pop\n      pop\n      swap1\n      dup1\n      0x05\n      add\n      sload\n      swap1\n      dup1\n      0x06\n      add\n      sload\n      swap1\n      dup1\n      0x07\n      add\n      0x00\n      swap1\n      sload\n      swap1\n      0x0100\n      exp\n      swap1\n      div\n      0xff\n      and\n      swap1\n      pop\n      dup9\n      jump\t// out\n        /* \"contracts/Donate.sol\":452:469  bool public mutex */\n    tag_43:\n      0x00\n      dup1\n      sload\n      swap1\n      0x0100\n      exp\n      swap1\n      div\n      0xff\n      and\n      dup2\n      jump\t// out\n        /* \"contracts/Donate.sol\":2451:3060  function getDonatorInBoard(uint256 _boardIndex) public view returns(Donator[] memory)... */\n    tag_48:\n        /* \"contracts/Donate.sol\":2519:2535  Donator[] memory */\n      0x60\n        /* \"contracts/Donate.sol\":2563:2576  uint256 count */\n      0x00\n        /* \"contracts/Donate.sol\":2592:2601  uint256 i */\n      dup1\n        /* \"contracts/Donate.sol\":2604:2605  0 */\n      0x00\n        /* \"contracts/Donate.sol\":2592:2605  uint256 i = 0 */\n      swap1\n      pop\n        /* \"contracts/Donate.sol\":2587:2740  for (uint256 i = 0; i < donators.length; i++) {... */\n    tag_220:\n        /* \"contracts/Donate.sol\":2611:2619  donators */\n      0x02\n        /* \"contracts/Donate.sol\":2611:2626  donators.length */\n      dup1\n      sload\n      swap1\n      pop\n        /* \"contracts/Donate.sol\":2607:2608  i */\n      dup2\n        /* \"contracts/Donate.sol\":2607:2626  i < donators.length */\n      lt\n        /* \"contracts/Donate.sol\":2587:2740  for (uint256 i = 0; i < donators.length; i++) {... */\n      iszero\n      tag_221\n      jumpi\n        /* \"contracts/Donate.sol\":2675:2686  _boardIndex */\n      dup4\n        /* \"contracts/Donate.sol\":2651:2659  donators */\n      0x02\n        /* \"contracts/Donate.sol\":2660:2661  i */\n      dup3\n        /* \"contracts/Donate.sol\":2651:2662  donators[i] */\n      dup2\n      sload\n      dup2\n      lt\n      tag_223\n      jumpi\n      tag_224\n      tag_70\n      jump\t// in\n    tag_224:\n    tag_223:\n      swap1\n      0x00\n      mstore\n      keccak256(0x00, 0x20)\n      swap1\n      0x04\n      mul\n      add\n        /* \"contracts/Donate.sol\":2651:2671  donators[i].targetId */\n      0x00\n      add\n      sload\n        /* \"contracts/Donate.sol\":2651:2686  donators[i].targetId == _boardIndex */\n      sub\n        /* \"contracts/Donate.sol\":2648:2729  if(donators[i].targetId == _boardIndex){... */\n      tag_226\n      jumpi\n        /* \"contracts/Donate.sol\":2706:2713  ++count */\n      dup2\n      tag_227\n      swap1\n      tag_74\n      jump\t// in\n    tag_227:\n      swap2\n      pop\n        /* \"contracts/Donate.sol\":2648:2729  if(donators[i].targetId == _boardIndex){... */\n    tag_226:\n        /* \"contracts/Donate.sol\":2628:2631  i++ */\n      dup1\n      dup1\n      0x01\n      add\n      swap2\n      pop\n      pop\n        /* \"contracts/Donate.sol\":2587:2740  for (uint256 i = 0; i < donators.length; i++) {... */\n      jump(tag_220)\n    tag_221:\n      pop\n        /* \"contracts/Donate.sol\":2750:2776  Donator[] memory _donators */\n      0x00\n        /* \"contracts/Donate.sol\":2791:2796  count */\n      dup2\n        /* \"contracts/Donate.sol\":2777:2797  new Donator[](count) */\n      0xffffffffffffffff\n      dup2\n      gt\n      iszero\n      tag_228\n      jumpi\n      tag_229\n      tag_77\n      jump\t// in\n    tag_229:\n    tag_228:\n      mload(0x40)\n      swap1\n      dup1\n      dup3\n      mstore\n      dup1\n      0x20\n      mul\n      0x20\n      add\n      dup3\n      add\n      0x40\n      mstore\n      dup1\n      iszero\n      tag_230\n      jumpi\n      dup2\n      0x20\n      add\n    tag_231:\n      tag_232\n      tag_183\n      jump\t// in\n    tag_232:\n      dup2\n      mstore\n      0x20\n      add\n      swap1\n      0x01\n      swap1\n      sub\n      swap1\n      dup2\n      tag_231\n      jumpi\n      swap1\n      pop\n    tag_230:\n      pop\n        /* \"contracts/Donate.sol\":2750:2797  Donator[] memory _donators=new Donator[](count) */\n      swap1\n      pop\n        /* \"contracts/Donate.sol\":2808:2821  uint256 index */\n      0x00\n        /* \"contracts/Donate.sol\":2837:2846  uint256 i */\n      dup1\n        /* \"contracts/Donate.sol\":2849:2850  0 */\n      0x00\n        /* \"contracts/Donate.sol\":2837:2850  uint256 i = 0 */\n      swap1\n      pop\n        /* \"contracts/Donate.sol\":2832:3026  for (uint256 i = 0; i < donators.length; i++) {... */\n    tag_233:\n        /* \"contracts/Donate.sol\":2856:2864  donators */\n      0x02\n        /* \"contracts/Donate.sol\":2856:2871  donators.length */\n      dup1\n      sload\n      swap1\n      pop\n        /* \"contracts/Donate.sol\":2852:2853  i */\n      dup2\n        /* \"contracts/Donate.sol\":2852:2871  i < donators.length */\n      lt\n        /* \"contracts/Donate.sol\":2832:3026  for (uint256 i = 0; i < donators.length; i++) {... */\n      iszero\n      tag_234\n      jumpi\n        /* \"contracts/Donate.sol\":2920:2931  _boardIndex */\n      dup6\n        /* \"contracts/Donate.sol\":2896:2904  donators */\n      0x02\n        /* \"contracts/Donate.sol\":2905:2906  i */\n      dup3\n        /* \"contracts/Donate.sol\":2896:2907  donators[i] */\n      dup2\n      sload\n      dup2\n      lt\n      tag_236\n      jumpi\n      tag_237\n      tag_70\n      jump\t// in\n    tag_237:\n    tag_236:\n      swap1\n      0x00\n      mstore\n      keccak256(0x00, 0x20)\n      swap1\n      0x04\n      mul\n      add\n        /* \"contracts/Donate.sol\":2896:2916  donators[i].targetId */\n      0x00\n      add\n      sload\n        /* \"contracts/Donate.sol\":2896:2931  donators[i].targetId == _boardIndex */\n      sub\n        /* \"contracts/Donate.sol\":2893:3015  if(donators[i].targetId == _boardIndex){... */\n      tag_239\n      jumpi\n        /* \"contracts/Donate.sol\":2970:2978  donators */\n      0x02\n        /* \"contracts/Donate.sol\":2979:2980  i */\n      dup2\n        /* \"contracts/Donate.sol\":2970:2981  donators[i] */\n      dup2\n      sload\n      dup2\n      lt\n      tag_240\n      jumpi\n      tag_241\n      tag_70\n      jump\t// in\n    tag_241:\n    tag_240:\n      swap1\n      0x00\n      mstore\n      keccak256(0x00, 0x20)\n      swap1\n      0x04\n      mul\n      add\n        /* \"contracts/Donate.sol\":2951:2981  _donators[index++]=donators[i] */\n      mload(0x40)\n      dup1\n      0x80\n      add\n      0x40\n      mstore\n      swap1\n      dup2\n      0x00\n      dup3\n      add\n      sload\n      dup2\n      mstore\n      0x20\n      add\n      0x01\n      dup3\n      add\n      dup1\n      sload\n      tag_243\n      swap1\n      tag_93\n      jump\t// in\n    tag_243:\n      dup1\n      0x1f\n      add\n      0x20\n      dup1\n      swap2\n      div\n      mul\n      0x20\n      add\n      mload(0x40)\n      swap1\n      dup2\n      add\n      0x40\n      mstore\n      dup1\n      swap3\n      swap2\n      swap1\n      dup2\n      dup2\n      mstore\n      0x20\n      add\n      dup3\n      dup1\n      sload\n      tag_244\n      swap1\n      tag_93\n      jump\t// in\n    tag_244:\n      dup1\n      iszero\n      tag_245\n      jumpi\n      dup1\n      0x1f\n      lt\n      tag_246\n      jumpi\n      0x0100\n      dup1\n      dup4\n      sload\n      div\n      mul\n      dup4\n      mstore\n      swap2\n      0x20\n      add\n      swap2\n      jump(tag_245)\n    tag_246:\n      dup3\n      add\n      swap2\n      swap1\n      0x00\n      mstore\n      keccak256(0x00, 0x20)\n      swap1\n    tag_247:\n      dup2\n      sload\n      dup2\n      mstore\n      swap1\n      0x01\n      add\n      swap1\n      0x20\n      add\n      dup1\n      dup4\n      gt\n      tag_247\n      jumpi\n      dup3\n      swap1\n      sub\n      0x1f\n      and\n      dup3\n      add\n      swap2\n    tag_245:\n      pop\n      pop\n      pop\n      pop\n      pop\n      dup2\n      mstore\n      0x20\n      add\n      0x02\n      dup3\n      add\n      0x00\n      swap1\n      sload\n      swap1\n      0x0100\n      exp\n      swap1\n      div\n      0xffffffffffffffffffffffffffffffffffffffff\n      and\n      0xffffffffffffffffffffffffffffffffffffffff\n      and\n      0xffffffffffffffffffffffffffffffffffffffff\n      and\n      dup2\n      mstore\n      0x20\n      add\n      0x03\n      dup3\n      add\n      sload\n      dup2\n      mstore\n      pop\n      pop\n        /* \"contracts/Donate.sol\":2951:2960  _donators */\n      dup4\n        /* \"contracts/Donate.sol\":2961:2968  index++ */\n      dup4\n      dup1\n      tag_248\n      swap1\n      tag_74\n      jump\t// in\n    tag_248:\n      swap5\n      pop\n        /* \"contracts/Donate.sol\":2951:2969  _donators[index++] */\n      dup2\n      mload\n      dup2\n      lt\n      tag_249\n      jumpi\n      tag_250\n      tag_70\n      jump\t// in\n    tag_250:\n    tag_249:\n      0x20\n      mul\n      0x20\n      add\n      add\n        /* \"contracts/Donate.sol\":2951:2981  _donators[index++]=donators[i] */\n      dup2\n      swap1\n      mstore\n      pop\n        /* \"contracts/Donate.sol\":2893:3015  if(donators[i].targetId == _boardIndex){... */\n    tag_239:\n        /* \"contracts/Donate.sol\":2873:2876  i++ */\n      dup1\n      dup1\n      0x01\n      add\n      swap2\n      pop\n      pop\n        /* \"contracts/Donate.sol\":2832:3026  for (uint256 i = 0; i < donators.length; i++) {... */\n      jump(tag_233)\n    tag_234:\n      pop\n        /* \"contracts/Donate.sol\":3043:3052  _donators */\n      dup2\n        /* \"contracts/Donate.sol\":3036:3052  return _donators */\n      swap4\n      pop\n      pop\n      pop\n      pop\n        /* \"contracts/Donate.sol\":2451:3060  function getDonatorInBoard(uint256 _boardIndex) public view returns(Donator[] memory)... */\n      swap2\n      swap1\n      pop\n      jump\t// out\n        /* \"contracts/Donate.sol\":509:534  Donator[] public donators */\n    tag_52:\n      0x02\n      dup2\n      dup2\n      sload\n      dup2\n      lt\n      tag_251\n      jumpi\n      0x00\n      dup1\n      revert\n    tag_251:\n      swap1\n      0x00\n      mstore\n      keccak256(0x00, 0x20)\n      swap1\n      0x04\n      mul\n      add\n      0x00\n      swap2\n      pop\n      swap1\n      pop\n      dup1\n      0x00\n      add\n      sload\n      swap1\n      dup1\n      0x01\n      add\n      dup1\n      sload\n      tag_253\n      swap1\n      tag_93\n      jump\t// in\n    tag_253:\n      dup1\n      0x1f\n      add\n      0x20\n      dup1\n      swap2\n      div\n      mul\n      0x20\n      add\n      mload(0x40)\n      swap1\n      dup2\n      add\n      0x40\n      mstore\n      dup1\n      swap3\n      swap2\n      swap1\n      dup2\n      dup2\n      mstore\n      0x20\n      add\n      dup3\n      dup1\n      sload\n      tag_254\n      swap1\n      tag_93\n      jump\t// in\n    tag_254:\n      dup1\n      iszero\n      tag_255\n      jumpi\n      dup1\n      0x1f\n      lt\n      tag_256\n      jumpi\n      0x0100\n      dup1\n      dup4\n      sload\n      div\n      mul\n      dup4\n      mstore\n      swap2\n      0x20\n      add\n      swap2\n      jump(tag_255)\n    tag_256:\n      dup3\n      add\n      swap2\n      swap1\n      0x00\n      mstore\n      keccak256(0x00, 0x20)\n      swap1\n    tag_257:\n      dup2\n      sload\n      dup2\n      mstore\n      swap1\n      0x01\n      add\n      swap1\n      0x20\n      add\n      dup1\n      dup4\n      gt\n      tag_257\n      jumpi\n      dup3\n      swap1\n      sub\n      0x1f\n      and\n      dup3\n      add\n      swap2\n    tag_255:\n      pop\n      pop\n      pop\n      pop\n      pop\n      swap1\n      dup1\n      0x02\n      add\n      0x00\n      swap1\n      sload\n      swap1\n      0x0100\n      exp\n      swap1\n      div\n      0xffffffffffffffffffffffffffffffffffffffff\n      and\n      swap1\n      dup1\n      0x03\n      add\n      sload\n      swap1\n      pop\n      dup5\n      jump\t// out\n        /* \"contracts/Donate.sol\":3728:4375  function donate(uint256 _targetId,string calldata name,address _donator_addr,uint256 _amount) public {... */\n    tag_58:\n        /* \"contracts/Donate.sol\":3871:3872  0 */\n      0x00\n        /* \"contracts/Donate.sol\":3848:3873  _donator_addr!=address(0) */\n      0xffffffffffffffffffffffffffffffffffffffff\n      and\n        /* \"contracts/Donate.sol\":3848:3861  _donator_addr */\n      dup3\n        /* \"contracts/Donate.sol\":3848:3873  _donator_addr!=address(0) */\n      0xffffffffffffffffffffffffffffffffffffffff\n      and\n      sub\n        /* \"contracts/Donate.sol\":3840:3892  require(_donator_addr!=address(0),\"invalid address\") */\n      tag_259\n      jumpi\n      mload(0x40)\n      0x08c379a000000000000000000000000000000000000000000000000000000000\n      dup2\n      mstore\n      0x04\n      add\n      tag_260\n      swap1\n      tag_169\n      jump\t// in\n    tag_260:\n      mload(0x40)\n      dup1\n      swap2\n      sub\n      swap1\n      revert\n    tag_259:\n        /* \"contracts/Donate.sol\":3903:3926  Donator memory _donator */\n      0x00\n        /* \"contracts/Donate.sol\":3927:3972  Donator(_targetId,name,_donator_addr,_amount) */\n      mload(0x40)\n      dup1\n      0x80\n      add\n      0x40\n      mstore\n      dup1\n        /* \"contracts/Donate.sol\":3935:3944  _targetId */\n      dup8\n        /* \"contracts/Donate.sol\":3927:3972  Donator(_targetId,name,_donator_addr,_amount) */\n      dup2\n      mstore\n      0x20\n      add\n        /* \"contracts/Donate.sol\":3945:3949  name */\n      dup7\n      dup7\n        /* \"contracts/Donate.sol\":3927:3972  Donator(_targetId,name,_donator_addr,_amount) */\n      dup1\n      dup1\n      0x1f\n      add\n      0x20\n      dup1\n      swap2\n      div\n      mul\n      0x20\n      add\n      mload(0x40)\n      swap1\n      dup2\n      add\n      0x40\n      mstore\n      dup1\n      swap4\n      swap3\n      swap2\n      swap1\n      dup2\n      dup2\n      mstore\n      0x20\n      add\n      dup4\n      dup4\n      dup1\n      dup3\n      dup5\n      calldatacopy\n      0x00\n      dup2\n      dup5\n      add\n      mstore\n      not(0x1f)\n      0x1f\n      dup3\n      add\n      and\n      swap1\n      pop\n      dup1\n      dup4\n      add\n      swap3\n      pop\n      pop\n      pop\n      pop\n      pop\n      pop\n      pop\n      dup2\n      mstore\n      0x20\n      add\n        /* \"contracts/Donate.sol\":3950:3963  _donator_addr */\n      dup5\n        /* \"contracts/Donate.sol\":3927:3972  Donator(_targetId,name,_donator_addr,_amount) */\n      0xffffffffffffffffffffffffffffffffffffffff\n      and\n      dup2\n      mstore\n      0x20\n      add\n        /* \"contracts/Donate.sol\":3964:3971  _amount */\n      dup4\n        /* \"contracts/Donate.sol\":3927:3972  Donator(_targetId,name,_donator_addr,_amount) */\n      dup2\n      mstore\n      pop\n        /* \"contracts/Donate.sol\":3903:3972  Donator memory _donator=Donator(_targetId,name,_donator_addr,_amount) */\n      swap1\n      pop\n        /* \"contracts/Donate.sol\":3983:3991  donators */\n      0x02\n        /* \"contracts/Donate.sol\":3997:4005  _donator */\n      dup2\n        /* \"contracts/Donate.sol\":3983:4006  donators.push(_donator) */\n      swap1\n      dup1\n      0x01\n      dup2\n      sload\n      add\n      dup1\n      dup3\n      sstore\n      dup1\n      swap2\n      pop\n      pop\n      0x01\n      swap1\n      sub\n      swap1\n      0x00\n      mstore\n      keccak256(0x00, 0x20)\n      swap1\n      0x04\n      mul\n      add\n      0x00\n      swap1\n      swap2\n      swap1\n      swap2\n      swap1\n      swap2\n      pop\n      0x00\n      dup3\n      add\n      mload\n      dup2\n      0x00\n      add\n      sstore\n      0x20\n      dup3\n      add\n      mload\n      dup2\n      0x01\n      add\n      swap1\n      dup2\n      tag_262\n      swap2\n      swap1\n      tag_121\n      jump\t// in\n    tag_262:\n      pop\n      0x40\n      dup3\n      add\n      mload\n      dup2\n      0x02\n      add\n      exp(0x0100, 0x00)\n      dup2\n      sload\n      dup2\n      0xffffffffffffffffffffffffffffffffffffffff\n      mul\n      not\n      and\n      swap1\n      dup4\n      0xffffffffffffffffffffffffffffffffffffffff\n      and\n      mul\n      or\n      swap1\n      sstore\n      pop\n      0x60\n      dup3\n      add\n      mload\n      dup2\n      0x03\n      add\n      sstore\n      pop\n      pop\n        /* \"contracts/Donate.sol\":4021:4030  uint256 i */\n      0x00\n        /* \"contracts/Donate.sol\":4017:4368  for(uint256 i=0;i<boards.length;++i)... */\n    tag_263:\n        /* \"contracts/Donate.sol\":4035:4041  boards */\n      0x03\n        /* \"contracts/Donate.sol\":4035:4048  boards.length */\n      dup1\n      sload\n      swap1\n      pop\n        /* \"contracts/Donate.sol\":4033:4034  i */\n      dup2\n        /* \"contracts/Donate.sol\":4033:4048  i<boards.length */\n      lt\n        /* \"contracts/Donate.sol\":4017:4368  for(uint256 i=0;i<boards.length;++i)... */\n      iszero\n      tag_264\n      jumpi\n        /* \"contracts/Donate.sol\":4095:4104  _targetId */\n      dup7\n        /* \"contracts/Donate.sol\":4081:4087  boards */\n      0x03\n        /* \"contracts/Donate.sol\":4088:4089  i */\n      dup3\n        /* \"contracts/Donate.sol\":4081:4090  boards[i] */\n      dup2\n      sload\n      dup2\n      lt\n      tag_266\n      jumpi\n      tag_267\n      tag_70\n      jump\t// in\n    tag_267:\n    tag_266:\n      swap1\n      0x00\n      mstore\n      keccak256(0x00, 0x20)\n      swap1\n      0x08\n      mul\n      add\n        /* \"contracts/Donate.sol\":4081:4093  boards[i].id */\n      0x00\n      add\n      sload\n        /* \"contracts/Donate.sol\":4081:4104  boards[i].id==_targetId */\n      sub\n        /* \"contracts/Donate.sol\":4078:4357  if(boards[i].id==_targetId)... */\n      tag_269\n      jumpi\n        /* \"contracts/Donate.sol\":4161:4168  _amount */\n      dup3\n        /* \"contracts/Donate.sol\":4138:4144  boards */\n      0x03\n        /* \"contracts/Donate.sol\":4145:4146  i */\n      dup3\n        /* \"contracts/Donate.sol\":4138:4147  boards[i] */\n      dup2\n      sload\n      dup2\n      lt\n      tag_270\n      jumpi\n      tag_271\n      tag_70\n      jump\t// in\n    tag_271:\n    tag_270:\n      swap1\n      0x00\n      mstore\n      keccak256(0x00, 0x20)\n      swap1\n      0x08\n      mul\n      add\n        /* \"contracts/Donate.sol\":4138:4159  boards[i].totalAmount */\n      0x06\n      add\n      0x00\n        /* \"contracts/Donate.sol\":4138:4168  boards[i].totalAmount+=_amount */\n      dup3\n      dup3\n      sload\n      tag_273\n      swap2\n      swap1\n      tag_274\n      jump\t// in\n    tag_273:\n      swap3\n      pop\n      pop\n      dup2\n      swap1\n      sstore\n      pop\n        /* \"contracts/Donate.sol\":4213:4219  boards */\n      0x03\n        /* \"contracts/Donate.sol\":4220:4221  i */\n      dup2\n        /* \"contracts/Donate.sol\":4213:4222  boards[i] */\n      dup2\n      sload\n      dup2\n      lt\n      tag_275\n      jumpi\n      tag_276\n      tag_70\n      jump\t// in\n    tag_276:\n    tag_275:\n      swap1\n      0x00\n      mstore\n      keccak256(0x00, 0x20)\n      swap1\n      0x08\n      mul\n      add\n        /* \"contracts/Donate.sol\":4213:4235  boards[i].targetAmount */\n      0x05\n      add\n      sload\n        /* \"contracts/Donate.sol\":4190:4196  boards */\n      0x03\n        /* \"contracts/Donate.sol\":4197:4198  i */\n      dup3\n        /* \"contracts/Donate.sol\":4190:4199  boards[i] */\n      dup2\n      sload\n      dup2\n      lt\n      tag_278\n      jumpi\n      tag_279\n      tag_70\n      jump\t// in\n    tag_279:\n    tag_278:\n      swap1\n      0x00\n      mstore\n      keccak256(0x00, 0x20)\n      swap1\n      0x08\n      mul\n      add\n        /* \"contracts/Donate.sol\":4190:4211  boards[i].totalAmount */\n      0x06\n      add\n      sload\n        /* \"contracts/Donate.sol\":4190:4235  boards[i].totalAmount>=boards[i].targetAmount */\n      lt\n        /* \"contracts/Donate.sol\":4187:4318  if(boards[i].totalAmount>=boards[i].targetAmount)... */\n      tag_281\n      jumpi\n        /* \"contracts/Donate.sol\":4294:4298  true */\n      0x01\n        /* \"contracts/Donate.sol\":4277:4283  boards */\n      0x03\n        /* \"contracts/Donate.sol\":4284:4285  i */\n      dup3\n        /* \"contracts/Donate.sol\":4277:4286  boards[i] */\n      dup2\n      sload\n      dup2\n      lt\n      tag_282\n      jumpi\n      tag_283\n      tag_70\n      jump\t// in\n    tag_283:\n    tag_282:\n      swap1\n      0x00\n      mstore\n      keccak256(0x00, 0x20)\n      swap1\n      0x08\n      mul\n      add\n        /* \"contracts/Donate.sol\":4277:4293  boards[i].expire */\n      0x07\n      add\n      0x00\n        /* \"contracts/Donate.sol\":4277:4298  boards[i].expire=true */\n      0x0100\n      exp\n      dup2\n      sload\n      dup2\n      0xff\n      mul\n      not\n      and\n      swap1\n      dup4\n      iszero\n      iszero\n      mul\n      or\n      swap1\n      sstore\n      pop\n        /* \"contracts/Donate.sol\":4187:4318  if(boards[i].totalAmount>=boards[i].targetAmount)... */\n    tag_281:\n        /* \"contracts/Donate.sol\":4336:4341  break */\n      jump(tag_264)\n        /* \"contracts/Donate.sol\":4078:4357  if(boards[i].id==_targetId)... */\n    tag_269:\n        /* \"contracts/Donate.sol\":4049:4052  ++i */\n      dup1\n      0x01\n      add\n      swap1\n      pop\n        /* \"contracts/Donate.sol\":4017:4368  for(uint256 i=0;i<boards.length;++i)... */\n      jump(tag_263)\n    tag_264:\n      pop\n        /* \"contracts/Donate.sol\":3829:4375  {... */\n      pop\n        /* \"contracts/Donate.sol\":3728:4375  function donate(uint256 _targetId,string calldata name,address _donator_addr,uint256 _amount) public {... */\n      pop\n      pop\n      pop\n      pop\n      pop\n      jump\t// out\n        /* \"contracts/Donate.sol\":1160:1359  function getBoardInfo(uint256 _boardIndex) public view returns(Board memory)... */\n    tag_61:\n        /* \"contracts/Donate.sol\":1223:1235  Board memory */\n      tag_285\n      tag_81\n      jump\t// in\n    tag_285:\n        /* \"contracts/Donate.sol\":1262:1268  boards */\n      0x03\n        /* \"contracts/Donate.sol\":1269:1280  _boardIndex */\n      dup3\n        /* \"contracts/Donate.sol\":1262:1281  boards[_boardIndex] */\n      dup2\n      sload\n      dup2\n      lt\n      tag_287\n      jumpi\n      tag_288\n      tag_70\n      jump\t// in\n    tag_288:\n    tag_287:\n      swap1\n      0x00\n      mstore\n      keccak256(0x00, 0x20)\n      swap1\n      0x08\n      mul\n      add\n        /* \"contracts/Donate.sol\":1262:1288  boards[_boardIndex].expire */\n      0x07\n      add\n      0x00\n      swap1\n      sload\n      swap1\n      0x0100\n      exp\n      swap1\n      div\n      0xff\n      and\n        /* \"contracts/Donate.sol\":1261:1288  !boards[_boardIndex].expire */\n      iszero\n        /* \"contracts/Donate.sol\":1253:1314  require(!boards[_boardIndex].expire,\"This board has expired\") */\n      tag_290\n      jumpi\n      mload(0x40)\n      0x08c379a000000000000000000000000000000000000000000000000000000000\n      dup2\n      mstore\n      0x04\n      add\n      tag_291\n      swap1\n      tag_292\n      jump\t// in\n    tag_291:\n      mload(0x40)\n      dup1\n      swap2\n      sub\n      swap1\n      revert\n    tag_290:\n        /* \"contracts/Donate.sol\":1332:1338  boards */\n      0x03\n        /* \"contracts/Donate.sol\":1339:1350  _boardIndex */\n      dup3\n        /* \"contracts/Donate.sol\":1332:1351  boards[_boardIndex] */\n      dup2\n      sload\n      dup2\n      lt\n      tag_293\n      jumpi\n      tag_294\n      tag_70\n      jump\t// in\n    tag_294:\n    tag_293:\n      swap1\n      0x00\n      mstore\n      keccak256(0x00, 0x20)\n      swap1\n      0x08\n      mul\n      add\n        /* \"contracts/Donate.sol\":1325:1351  return boards[_boardIndex] */\n      mload(0x40)\n      dup1\n      0x0100\n      add\n      0x40\n      mstore\n      swap1\n      dup2\n      0x00\n      dup3\n      add\n      sload\n      dup2\n      mstore\n      0x20\n      add\n      0x01\n      dup3\n      add\n      dup1\n      sload\n      tag_296\n      swap1\n      tag_93\n      jump\t// in\n    tag_296:\n      dup1\n      0x1f\n      add\n      0x20\n      dup1\n      swap2\n      div\n      mul\n      0x20\n      add\n      mload(0x40)\n      swap1\n      dup2\n      add\n      0x40\n      mstore\n      dup1\n      swap3\n      swap2\n      swap1\n      dup2\n      dup2\n      mstore\n      0x20\n      add\n      dup3\n      dup1\n      sload\n      tag_297\n      swap1\n      tag_93\n      jump\t// in\n    tag_297:\n      dup1\n      iszero\n      tag_298\n      jumpi\n      dup1\n      0x1f\n      lt\n      tag_299\n      jumpi\n      0x0100\n      dup1\n      dup4\n      sload\n      div\n      mul\n      dup4\n      mstore\n      swap2\n      0x20\n      add\n      swap2\n      jump(tag_298)\n    tag_299:\n      dup3\n      add\n      swap2\n      swap1\n      0x00\n      mstore\n      keccak256(0x00, 0x20)\n      swap1\n    tag_300:\n      dup2\n      sload\n      dup2\n      mstore\n      swap1\n      0x01\n      add\n      swap1\n      0x20\n      add\n      dup1\n      dup4\n      gt\n      tag_300\n      jumpi\n      dup3\n      swap1\n      sub\n      0x1f\n      and\n      dup3\n      add\n      swap2\n    tag_298:\n      pop\n      pop\n      pop\n      pop\n      pop\n      dup2\n      mstore\n      0x20\n      add\n      0x02\n      dup3\n      add\n      dup1\n      sload\n      tag_301\n      swap1\n      tag_93\n      jump\t// in\n    tag_301:\n      dup1\n      0x1f\n      add\n      0x20\n      dup1\n      swap2\n      div\n      mul\n      0x20\n      add\n      mload(0x40)\n      swap1\n      dup2\n      add\n      0x40\n      mstore\n      dup1\n      swap3\n      swap2\n      swap1\n      dup2\n      dup2\n      mstore\n      0x20\n      add\n      dup3\n      dup1\n      sload\n      tag_302\n      swap1\n      tag_93\n      jump\t// in\n    tag_302:\n      dup1\n      iszero\n      tag_303\n      jumpi\n      dup1\n      0x1f\n      lt\n      tag_304\n      jumpi\n      0x0100\n      dup1\n      dup4\n      sload\n      div\n      mul\n      dup4\n      mstore\n      swap2\n      0x20\n      add\n      swap2\n      jump(tag_303)\n    tag_304:\n      dup3\n      add\n      swap2\n      swap1\n      0x00\n      mstore\n      keccak256(0x00, 0x20)\n      swap1\n    tag_305:\n      dup2\n      sload\n      dup2\n      mstore\n      swap1\n      0x01\n      add\n      swap1\n      0x20\n      add\n      dup1\n      dup4\n      gt\n      tag_305\n      jumpi\n      dup3\n      swap1\n      sub\n      0x1f\n      and\n      dup3\n      add\n      swap2\n    tag_303:\n      pop\n      pop\n      pop\n      pop\n      pop\n      dup2\n      mstore\n      0x20\n      add\n      0x03\n      dup3\n      add\n      0x00\n      swap1\n      sload\n      swap1\n      0x0100\n      exp\n      swap1\n      div\n      0xffffffffffffffffffffffffffffffffffffffff\n      and\n      0xffffffffffffffffffffffffffffffffffffffff\n      and\n      0xffffffffffffffffffffffffffffffffffffffff\n      and\n      dup2\n      mstore\n      0x20\n      add\n      0x04\n      dup3\n      add\n      dup1\n      sload\n      tag_306\n      swap1\n      tag_93\n      jump\t// in\n    tag_306:\n      dup1\n      0x1f\n      add\n      0x20\n      dup1\n      swap2\n      div\n      mul\n      0x20\n      add\n      mload(0x40)\n      swap1\n      dup2\n      add\n      0x40\n      mstore\n      dup1\n      swap3\n      swap2\n      swap1\n      dup2\n      dup2\n      mstore\n      0x20\n      add\n      dup3\n      dup1\n      sload\n      tag_307\n      swap1\n      tag_93\n      jump\t// in\n    tag_307:\n      dup1\n      iszero\n      tag_308\n      jumpi\n      dup1\n      0x1f\n      lt\n      tag_309\n      jumpi\n      0x0100\n      dup1\n      dup4\n      sload\n      div\n      mul\n      dup4\n      mstore\n      swap2\n      0x20\n      add\n      swap2\n      jump(tag_308)\n    tag_309:\n      dup3\n      add\n      swap2\n      swap1\n      0x00\n      mstore\n      keccak256(0x00, 0x20)\n      swap1\n    tag_310:\n      dup2\n      sload\n      dup2\n      mstore\n      swap1\n      0x01\n      add\n      swap1\n      0x20\n      add\n      dup1\n      dup4\n      gt\n      tag_310\n      jumpi\n      dup3\n      swap1\n      sub\n      0x1f\n      and\n      dup3\n      add\n      swap2\n    tag_308:\n      pop\n      pop\n      pop\n      pop\n      pop\n      dup2\n      mstore\n      0x20\n      add\n      0x05\n      dup3\n      add\n      sload\n      dup2\n      mstore\n      0x20\n      add\n      0x06\n      dup3\n      add\n      sload\n      dup2\n      mstore\n      0x20\n      add\n      0x07\n      dup3\n      add\n      0x00\n      swap1\n      sload\n      swap1\n      0x0100\n      exp\n      swap1\n      div\n      0xff\n      and\n      iszero\n      iszero\n      iszero\n      iszero\n      dup2\n      mstore\n      pop\n      pop\n      swap1\n      pop\n        /* \"contracts/Donate.sol\":1160:1359  function getBoardInfo(uint256 _boardIndex) public view returns(Board memory)... */\n      swap2\n      swap1\n      pop\n      jump\t// out\n    tag_81:\n      mload(0x40)\n      dup1\n      0x0100\n      add\n      0x40\n      mstore\n      dup1\n      0x00\n      dup2\n      mstore\n      0x20\n      add\n      0x60\n      dup2\n      mstore\n      0x20\n      add\n      0x60\n      dup2\n      mstore\n      0x20\n      add\n      and(0xffffffffffffffffffffffffffffffffffffffff, 0x00)\n      dup2\n      mstore\n      0x20\n      add\n      0x60\n      dup2\n      mstore\n      0x20\n      add\n      0x00\n      dup2\n      mstore\n      0x20\n      add\n      0x00\n      dup2\n      mstore\n      0x20\n      add\n      iszero(iszero(0x00))\n      dup2\n      mstore\n      pop\n      swap1\n      jump\t// out\n    tag_183:\n      mload(0x40)\n      dup1\n      0x80\n      add\n      0x40\n      mstore\n      dup1\n      0x00\n      dup2\n      mstore\n      0x20\n      add\n      0x60\n      dup2\n      mstore\n      0x20\n      add\n      and(0xffffffffffffffffffffffffffffffffffffffff, 0x00)\n      dup2\n      mstore\n      0x20\n      add\n      0x00\n      dup2\n      mstore\n      pop\n      swap1\n      jump\t// out\n        /* \"#utility.yul\":7:142   */\n    tag_311:\n        /* \"#utility.yul\":95:101   */\n      0x00\n        /* \"#utility.yul\":129:134   */\n      dup2\n        /* \"#utility.yul\":123:135   */\n      mload\n        /* \"#utility.yul\":113:135   */\n      swap1\n      pop\n        /* \"#utility.yul\":7:142   */\n      swap2\n      swap1\n      pop\n      jump\t// out\n        /* \"#utility.yul\":148:353   */\n    tag_312:\n        /* \"#utility.yul\":268:279   */\n      0x00\n        /* \"#utility.yul\":302:308   */\n      dup3\n        /* \"#utility.yul\":297:300   */\n      dup3\n        /* \"#utility.yul\":290:309   */\n      mstore\n        /* \"#utility.yul\":342:346   */\n      0x20\n        /* \"#utility.yul\":337:340   */\n      dup3\n        /* \"#utility.yul\":333:347   */\n      add\n        /* \"#utility.yul\":318:347   */\n      swap1\n      pop\n        /* \"#utility.yul\":148:353   */\n      swap3\n      swap2\n      pop\n      pop\n      jump\t// out\n        /* \"#utility.yul\":359:512   */\n    tag_313:\n        /* \"#utility.yul\":447:451   */\n      0x00\n        /* \"#utility.yul\":470:473   */\n      dup2\n        /* \"#utility.yul\":462:473   */\n      swap1\n      pop\n        /* \"#utility.yul\":500:504   */\n      0x20\n        /* \"#utility.yul\":495:498   */\n      dup3\n        /* \"#utility.yul\":491:505   */\n      add\n        /* \"#utility.yul\":483:505   */\n      swap1\n      pop\n        /* \"#utility.yul\":359:512   */\n      swap2\n      swap1\n      pop\n      jump\t// out\n        /* \"#utility.yul\":518:595   */\n    tag_314:\n        /* \"#utility.yul\":555:562   */\n      0x00\n        /* \"#utility.yul\":584:589   */\n      dup2\n        /* \"#utility.yul\":573:589   */\n      swap1\n      pop\n        /* \"#utility.yul\":518:595   */\n      swap2\n      swap1\n      pop\n      jump\t// out\n        /* \"#utility.yul\":601:709   */\n    tag_315:\n        /* \"#utility.yul\":678:702   */\n      tag_385\n        /* \"#utility.yul\":696:701   */\n      dup2\n        /* \"#utility.yul\":678:702   */\n      tag_314\n      jump\t// in\n    tag_385:\n        /* \"#utility.yul\":673:676   */\n      dup3\n        /* \"#utility.yul\":666:703   */\n      mstore\n        /* \"#utility.yul\":601:709   */\n      pop\n      pop\n      jump\t// out\n        /* \"#utility.yul\":715:814   */\n    tag_316:\n        /* \"#utility.yul\":767:773   */\n      0x00\n        /* \"#utility.yul\":801:806   */\n      dup2\n        /* \"#utility.yul\":795:807   */\n      mload\n        /* \"#utility.yul\":785:807   */\n      swap1\n      pop\n        /* \"#utility.yul\":715:814   */\n      swap2\n      swap1\n      pop\n      jump\t// out\n        /* \"#utility.yul\":820:979   */\n    tag_317:\n        /* \"#utility.yul\":894:905   */\n      0x00\n        /* \"#utility.yul\":928:934   */\n      dup3\n        /* \"#utility.yul\":923:926   */\n      dup3\n        /* \"#utility.yul\":916:935   */\n      mstore\n        /* \"#utility.yul\":968:972   */\n      0x20\n        /* \"#utility.yul\":963:966   */\n      dup3\n        /* \"#utility.yul\":959:973   */\n      add\n        /* \"#utility.yul\":944:973   */\n      swap1\n      pop\n        /* \"#utility.yul\":820:979   */\n      swap3\n      swap2\n      pop\n      pop\n      jump\t// out\n        /* \"#utility.yul\":985:1231   */\n    tag_318:\n        /* \"#utility.yul\":1066:1067   */\n      0x00\n        /* \"#utility.yul\":1076:1189   */\n    tag_389:\n        /* \"#utility.yul\":1090:1096   */\n      dup4\n        /* \"#utility.yul\":1087:1088   */\n      dup2\n        /* \"#utility.yul\":1084:1097   */\n      lt\n        /* \"#utility.yul\":1076:1189   */\n      iszero\n      tag_391\n      jumpi\n        /* \"#utility.yul\":1175:1176   */\n      dup1\n        /* \"#utility.yul\":1170:1173   */\n      dup3\n        /* \"#utility.yul\":1166:1177   */\n      add\n        /* \"#utility.yul\":1160:1178   */\n      mload\n        /* \"#utility.yul\":1156:1157   */\n      dup2\n        /* \"#utility.yul\":1151:1154   */\n      dup5\n        /* \"#utility.yul\":1147:1158   */\n      add\n        /* \"#utility.yul\":1140:1179   */\n      mstore\n        /* \"#utility.yul\":1112:1114   */\n      0x20\n        /* \"#utility.yul\":1109:1110   */\n      dup2\n        /* \"#utility.yul\":1105:1115   */\n      add\n        /* \"#utility.yul\":1100:1115   */\n      swap1\n      pop\n        /* \"#utility.yul\":1076:1189   */\n      jump(tag_389)\n    tag_391:\n        /* \"#utility.yul\":1223:1224   */\n      0x00\n        /* \"#utility.yul\":1214:1220   */\n      dup5\n        /* \"#utility.yul\":1209:1212   */\n      dup5\n        /* \"#utility.yul\":1205:1221   */\n      add\n        /* \"#utility.yul\":1198:1225   */\n      mstore\n        /* \"#utility.yul\":1047:1231   */\n      pop\n        /* \"#utility.yul\":985:1231   */\n      pop\n      pop\n      pop\n      jump\t// out\n        /* \"#utility.yul\":1237:1339   */\n    tag_319:\n        /* \"#utility.yul\":1278:1284   */\n      0x00\n        /* \"#utility.yul\":1329:1331   */\n      0x1f\n        /* \"#utility.yul\":1325:1332   */\n      not\n        /* \"#utility.yul\":1320:1322   */\n      0x1f\n        /* \"#utility.yul\":1313:1318   */\n      dup4\n        /* \"#utility.yul\":1309:1323   */\n      add\n        /* \"#utility.yul\":1305:1333   */\n      and\n        /* \"#utility.yul\":1295:1333   */\n      swap1\n      pop\n        /* \"#utility.yul\":1237:1339   */\n      swap2\n      swap1\n      pop\n      jump\t// out\n        /* \"#utility.yul\":1345:1702   */\n    tag_320:\n        /* \"#utility.yul\":1423:1426   */\n      0x00\n        /* \"#utility.yul\":1451:1490   */\n      tag_394\n        /* \"#utility.yul\":1484:1489   */\n      dup3\n        /* \"#utility.yul\":1451:1490   */\n      tag_316\n      jump\t// in\n    tag_394:\n        /* \"#utility.yul\":1506:1567   */\n      tag_395\n        /* \"#utility.yul\":1560:1566   */\n      dup2\n        /* \"#utility.yul\":1555:1558   */\n      dup6\n        /* \"#utility.yul\":1506:1567   */\n      tag_317\n      jump\t// in\n    tag_395:\n        /* \"#utility.yul\":1499:1567   */\n      swap4\n      pop\n        /* \"#utility.yul\":1576:1641   */\n      tag_396\n        /* \"#utility.yul\":1634:1640   */\n      dup2\n        /* \"#utility.yul\":1629:1632   */\n      dup6\n        /* \"#utility.yul\":1622:1626   */\n      0x20\n        /* \"#utility.yul\":1615:1620   */\n      dup7\n        /* \"#utility.yul\":1611:1627   */\n      add\n        /* \"#utility.yul\":1576:1641   */\n      tag_318\n      jump\t// in\n    tag_396:\n        /* \"#utility.yul\":1666:1695   */\n      tag_397\n        /* \"#utility.yul\":1688:1694   */\n      dup2\n        /* \"#utility.yul\":1666:1695   */\n      tag_319\n      jump\t// in\n    tag_397:\n        /* \"#utility.yul\":1661:1664   */\n      dup5\n        /* \"#utility.yul\":1657:1696   */\n      add\n        /* \"#utility.yul\":1650:1696   */\n      swap2\n      pop\n        /* \"#utility.yul\":1427:1702   */\n      pop\n        /* \"#utility.yul\":1345:1702   */\n      swap3\n      swap2\n      pop\n      pop\n      jump\t// out\n        /* \"#utility.yul\":1708:1834   */\n    tag_321:\n        /* \"#utility.yul\":1745:1752   */\n      0x00\n        /* \"#utility.yul\":1785:1827   */\n      0xffffffffffffffffffffffffffffffffffffffff\n        /* \"#utility.yul\":1778:1783   */\n      dup3\n        /* \"#utility.yul\":1774:1828   */\n      and\n        /* \"#utility.yul\":1763:1828   */\n      swap1\n      pop\n        /* \"#utility.yul\":1708:1834   */\n      swap2\n      swap1\n      pop\n      jump\t// out\n        /* \"#utility.yul\":1840:1936   */\n    tag_322:\n        /* \"#utility.yul\":1877:1884   */\n      0x00\n        /* \"#utility.yul\":1906:1930   */\n      tag_400\n        /* \"#utility.yul\":1924:1929   */\n      dup3\n        /* \"#utility.yul\":1906:1930   */\n      tag_321\n      jump\t// in\n    tag_400:\n        /* \"#utility.yul\":1895:1930   */\n      swap1\n      pop\n        /* \"#utility.yul\":1840:1936   */\n      swap2\n      swap1\n      pop\n      jump\t// out\n        /* \"#utility.yul\":1942:2050   */\n    tag_323:\n        /* \"#utility.yul\":2019:2043   */\n      tag_402\n        /* \"#utility.yul\":2037:2042   */\n      dup2\n        /* \"#utility.yul\":2019:2043   */\n      tag_322\n      jump\t// in\n    tag_402:\n        /* \"#utility.yul\":2014:2017   */\n      dup3\n        /* \"#utility.yul\":2007:2044   */\n      mstore\n        /* \"#utility.yul\":1942:2050   */\n      pop\n      pop\n      jump\t// out\n        /* \"#utility.yul\":2056:2146   */\n    tag_324:\n        /* \"#utility.yul\":2090:2097   */\n      0x00\n        /* \"#utility.yul\":2133:2138   */\n      dup2\n        /* \"#utility.yul\":2126:2139   */\n      iszero\n        /* \"#utility.yul\":2119:2140   */\n      iszero\n        /* \"#utility.yul\":2108:2140   */\n      swap1\n      pop\n        /* \"#utility.yul\":2056:2146   */\n      swap2\n      swap1\n      pop\n      jump\t// out\n        /* \"#utility.yul\":2152:2251   */\n    tag_325:\n        /* \"#utility.yul\":2223:2244   */\n      tag_405\n        /* \"#utility.yul\":2238:2243   */\n      dup2\n        /* \"#utility.yul\":2223:2244   */\n      tag_324\n      jump\t// in\n    tag_405:\n        /* \"#utility.yul\":2218:2221   */\n      dup3\n        /* \"#utility.yul\":2211:2245   */\n      mstore\n        /* \"#utility.yul\":2152:2251   */\n      pop\n      pop\n      jump\t// out\n        /* \"#utility.yul\":2307:4099   */\n    tag_326:\n        /* \"#utility.yul\":2408:2411   */\n      0x00\n        /* \"#utility.yul\":2444:2450   */\n      0x0100\n        /* \"#utility.yul\":2439:2442   */\n      dup4\n        /* \"#utility.yul\":2435:2451   */\n      add\n        /* \"#utility.yul\":2531:2535   */\n      0x00\n        /* \"#utility.yul\":2524:2529   */\n      dup4\n        /* \"#utility.yul\":2520:2536   */\n      add\n        /* \"#utility.yul\":2514:2537   */\n      mload\n        /* \"#utility.yul\":2550:2613   */\n      tag_407\n        /* \"#utility.yul\":2607:2611   */\n      0x00\n        /* \"#utility.yul\":2602:2605   */\n      dup7\n        /* \"#utility.yul\":2598:2612   */\n      add\n        /* \"#utility.yul\":2584:2596   */\n      dup3\n        /* \"#utility.yul\":2550:2613   */\n      tag_315\n      jump\t// in\n    tag_407:\n        /* \"#utility.yul\":2461:2623   */\n      pop\n        /* \"#utility.yul\":2705:2709   */\n      0x20\n        /* \"#utility.yul\":2698:2703   */\n      dup4\n        /* \"#utility.yul\":2694:2710   */\n      add\n        /* \"#utility.yul\":2688:2711   */\n      mload\n        /* \"#utility.yul\":2758:2761   */\n      dup5\n        /* \"#utility.yul\":2752:2756   */\n      dup3\n        /* \"#utility.yul\":2748:2762   */\n      sub\n        /* \"#utility.yul\":2741:2745   */\n      0x20\n        /* \"#utility.yul\":2736:2739   */\n      dup7\n        /* \"#utility.yul\":2732:2746   */\n      add\n        /* \"#utility.yul\":2725:2763   */\n      mstore\n        /* \"#utility.yul\":2784:2857   */\n      tag_408\n        /* \"#utility.yul\":2852:2856   */\n      dup3\n        /* \"#utility.yul\":2838:2850   */\n      dup3\n        /* \"#utility.yul\":2784:2857   */\n      tag_320\n      jump\t// in\n    tag_408:\n        /* \"#utility.yul\":2776:2857   */\n      swap2\n      pop\n        /* \"#utility.yul\":2633:2868   */\n      pop\n        /* \"#utility.yul\":2953:2957   */\n      0x40\n        /* \"#utility.yul\":2946:2951   */\n      dup4\n        /* \"#utility.yul\":2942:2958   */\n      add\n        /* \"#utility.yul\":2936:2959   */\n      mload\n        /* \"#utility.yul\":3006:3009   */\n      dup5\n        /* \"#utility.yul\":3000:3004   */\n      dup3\n        /* \"#utility.yul\":2996:3010   */\n      sub\n        /* \"#utility.yul\":2989:2993   */\n      0x40\n        /* \"#utility.yul\":2984:2987   */\n      dup7\n        /* \"#utility.yul\":2980:2994   */\n      add\n        /* \"#utility.yul\":2973:3011   */\n      mstore\n        /* \"#utility.yul\":3032:3105   */\n      tag_409\n        /* \"#utility.yul\":3100:3104   */\n      dup3\n        /* \"#utility.yul\":3086:3098   */\n      dup3\n        /* \"#utility.yul\":3032:3105   */\n      tag_320\n      jump\t// in\n    tag_409:\n        /* \"#utility.yul\":3024:3105   */\n      swap2\n      pop\n        /* \"#utility.yul\":2878:3116   */\n      pop\n        /* \"#utility.yul\":3198:3202   */\n      0x60\n        /* \"#utility.yul\":3191:3196   */\n      dup4\n        /* \"#utility.yul\":3187:3203   */\n      add\n        /* \"#utility.yul\":3181:3204   */\n      mload\n        /* \"#utility.yul\":3217:3280   */\n      tag_410\n        /* \"#utility.yul\":3274:3278   */\n      0x60\n        /* \"#utility.yul\":3269:3272   */\n      dup7\n        /* \"#utility.yul\":3265:3279   */\n      add\n        /* \"#utility.yul\":3251:3263   */\n      dup3\n        /* \"#utility.yul\":3217:3280   */\n      tag_323\n      jump\t// in\n    tag_410:\n        /* \"#utility.yul\":3126:3290   */\n      pop\n        /* \"#utility.yul\":3376:3380   */\n      0x80\n        /* \"#utility.yul\":3369:3374   */\n      dup4\n        /* \"#utility.yul\":3365:3381   */\n      add\n        /* \"#utility.yul\":3359:3382   */\n      mload\n        /* \"#utility.yul\":3429:3432   */\n      dup5\n        /* \"#utility.yul\":3423:3427   */\n      dup3\n        /* \"#utility.yul\":3419:3433   */\n      sub\n        /* \"#utility.yul\":3412:3416   */\n      0x80\n        /* \"#utility.yul\":3407:3410   */\n      dup7\n        /* \"#utility.yul\":3403:3417   */\n      add\n        /* \"#utility.yul\":3396:3434   */\n      mstore\n        /* \"#utility.yul\":3455:3528   */\n      tag_411\n        /* \"#utility.yul\":3523:3527   */\n      dup3\n        /* \"#utility.yul\":3509:3521   */\n      dup3\n        /* \"#utility.yul\":3455:3528   */\n      tag_320\n      jump\t// in\n    tag_411:\n        /* \"#utility.yul\":3447:3528   */\n      swap2\n      pop\n        /* \"#utility.yul\":3300:3539   */\n      pop\n        /* \"#utility.yul\":3629:3633   */\n      0xa0\n        /* \"#utility.yul\":3622:3627   */\n      dup4\n        /* \"#utility.yul\":3618:3634   */\n      add\n        /* \"#utility.yul\":3612:3635   */\n      mload\n        /* \"#utility.yul\":3648:3711   */\n      tag_412\n        /* \"#utility.yul\":3705:3709   */\n      0xa0\n        /* \"#utility.yul\":3700:3703   */\n      dup7\n        /* \"#utility.yul\":3696:3710   */\n      add\n        /* \"#utility.yul\":3682:3694   */\n      dup3\n        /* \"#utility.yul\":3648:3711   */\n      tag_315\n      jump\t// in\n    tag_412:\n        /* \"#utility.yul\":3549:3721   */\n      pop\n        /* \"#utility.yul\":3810:3814   */\n      0xc0\n        /* \"#utility.yul\":3803:3808   */\n      dup4\n        /* \"#utility.yul\":3799:3815   */\n      add\n        /* \"#utility.yul\":3793:3816   */\n      mload\n        /* \"#utility.yul\":3829:3892   */\n      tag_413\n        /* \"#utility.yul\":3886:3890   */\n      0xc0\n        /* \"#utility.yul\":3881:3884   */\n      dup7\n        /* \"#utility.yul\":3877:3891   */\n      add\n        /* \"#utility.yul\":3863:3875   */\n      dup3\n        /* \"#utility.yul\":3829:3892   */\n      tag_315\n      jump\t// in\n    tag_413:\n        /* \"#utility.yul\":3731:3902   */\n      pop\n        /* \"#utility.yul\":3986:3990   */\n      0xe0\n        /* \"#utility.yul\":3979:3984   */\n      dup4\n        /* \"#utility.yul\":3975:3991   */\n      add\n        /* \"#utility.yul\":3969:3992   */\n      mload\n        /* \"#utility.yul\":4005:4062   */\n      tag_414\n        /* \"#utility.yul\":4056:4060   */\n      0xe0\n        /* \"#utility.yul\":4051:4054   */\n      dup7\n        /* \"#utility.yul\":4047:4061   */\n      add\n        /* \"#utility.yul\":4033:4045   */\n      dup3\n        /* \"#utility.yul\":4005:4062   */\n      tag_325\n      jump\t// in\n    tag_414:\n        /* \"#utility.yul\":3912:4072   */\n      pop\n        /* \"#utility.yul\":4089:4093   */\n      dup1\n        /* \"#utility.yul\":4082:4093   */\n      swap2\n      pop\n        /* \"#utility.yul\":2413:4099   */\n      pop\n        /* \"#utility.yul\":2307:4099   */\n      swap3\n      swap2\n      pop\n      pop\n      jump\t// out\n        /* \"#utility.yul\":4105:4345   */\n    tag_327:\n        /* \"#utility.yul\":4216:4226   */\n      0x00\n        /* \"#utility.yul\":4251:4339   */\n      tag_416\n        /* \"#utility.yul\":4335:4338   */\n      dup4\n        /* \"#utility.yul\":4327:4333   */\n      dup4\n        /* \"#utility.yul\":4251:4339   */\n      tag_326\n      jump\t// in\n    tag_416:\n        /* \"#utility.yul\":4237:4339   */\n      swap1\n      pop\n        /* \"#utility.yul\":4105:4345   */\n      swap3\n      swap2\n      pop\n      pop\n      jump\t// out\n        /* \"#utility.yul\":4351:4485   */\n    tag_328:\n        /* \"#utility.yul\":4442:4446   */\n      0x00\n        /* \"#utility.yul\":4474:4478   */\n      0x20\n        /* \"#utility.yul\":4469:4472   */\n      dup3\n        /* \"#utility.yul\":4465:4479   */\n      add\n        /* \"#utility.yul\":4457:4479   */\n      swap1\n      pop\n        /* \"#utility.yul\":4351:4485   */\n      swap2\n      swap1\n      pop\n      jump\t// out\n        /* \"#utility.yul\":4545:5624   */\n    tag_329:\n        /* \"#utility.yul\":4706:4709   */\n      0x00\n        /* \"#utility.yul\":4735:4810   */\n      tag_419\n        /* \"#utility.yul\":4804:4809   */\n      dup3\n        /* \"#utility.yul\":4735:4810   */\n      tag_311\n      jump\t// in\n    tag_419:\n        /* \"#utility.yul\":4826:4933   */\n      tag_420\n        /* \"#utility.yul\":4926:4932   */\n      dup2\n        /* \"#utility.yul\":4921:4924   */\n      dup6\n        /* \"#utility.yul\":4826:4933   */\n      tag_312\n      jump\t// in\n    tag_420:\n        /* \"#utility.yul\":4819:4933   */\n      swap4\n      pop\n        /* \"#utility.yul\":4959:4962   */\n      dup4\n        /* \"#utility.yul\":5004:5008   */\n      0x20\n        /* \"#utility.yul\":4996:5002   */\n      dup3\n        /* \"#utility.yul\":4992:5009   */\n      mul\n        /* \"#utility.yul\":4987:4990   */\n      dup6\n        /* \"#utility.yul\":4983:5010   */\n      add\n        /* \"#utility.yul\":5034:5111   */\n      tag_421\n        /* \"#utility.yul\":5105:5110   */\n      dup6\n        /* \"#utility.yul\":5034:5111   */\n      tag_313\n      jump\t// in\n    tag_421:\n        /* \"#utility.yul\":5134:5141   */\n      dup1\n        /* \"#utility.yul\":5165:5166   */\n      0x00\n        /* \"#utility.yul\":5150:5579   */\n    tag_422:\n        /* \"#utility.yul\":5175:5181   */\n      dup6\n        /* \"#utility.yul\":5172:5173   */\n      dup2\n        /* \"#utility.yul\":5169:5182   */\n      lt\n        /* \"#utility.yul\":5150:5579   */\n      iszero\n      tag_424\n      jumpi\n        /* \"#utility.yul\":5246:5255   */\n      dup5\n        /* \"#utility.yul\":5240:5244   */\n      dup5\n        /* \"#utility.yul\":5236:5256   */\n      sub\n        /* \"#utility.yul\":5231:5234   */\n      dup10\n        /* \"#utility.yul\":5224:5257   */\n      mstore\n        /* \"#utility.yul\":5297:5303   */\n      dup2\n        /* \"#utility.yul\":5291:5304   */\n      mload\n        /* \"#utility.yul\":5325:5431   */\n      tag_425\n        /* \"#utility.yul\":5426:5430   */\n      dup6\n        /* \"#utility.yul\":5411:5424   */\n      dup3\n        /* \"#utility.yul\":5325:5431   */\n      tag_327\n      jump\t// in\n    tag_425:\n        /* \"#utility.yul\":5317:5431   */\n      swap5\n      pop\n        /* \"#utility.yul\":5454:5535   */\n      tag_426\n        /* \"#utility.yul\":5528:5534   */\n      dup4\n        /* \"#utility.yul\":5454:5535   */\n      tag_328\n      jump\t// in\n    tag_426:\n        /* \"#utility.yul\":5444:5535   */\n      swap3\n      pop\n        /* \"#utility.yul\":5564:5568   */\n      0x20\n        /* \"#utility.yul\":5559:5562   */\n      dup11\n        /* \"#utility.yul\":5555:5569   */\n      add\n        /* \"#utility.yul\":5548:5569   */\n      swap10\n      pop\n        /* \"#utility.yul\":5210:5579   */\n      pop\n        /* \"#utility.yul\":5197:5198   */\n      0x01\n        /* \"#utility.yul\":5194:5195   */\n      dup2\n        /* \"#utility.yul\":5190:5199   */\n      add\n        /* \"#utility.yul\":5185:5199   */\n      swap1\n      pop\n        /* \"#utility.yul\":5150:5579   */\n      jump(tag_422)\n    tag_424:\n        /* \"#utility.yul\":5154:5168   */\n      pop\n        /* \"#utility.yul\":5595:5599   */\n      dup3\n        /* \"#utility.yul\":5588:5599   */\n      swap8\n      pop\n        /* \"#utility.yul\":5615:5618   */\n      dup8\n        /* \"#utility.yul\":5608:5618   */\n      swap6\n      pop\n        /* \"#utility.yul\":4711:5624   */\n      pop\n      pop\n      pop\n      pop\n      pop\n        /* \"#utility.yul\":4545:5624   */\n      swap3\n      swap2\n      pop\n      pop\n      jump\t// out\n        /* \"#utility.yul\":5630:6087   */\n    tag_18:\n        /* \"#utility.yul\":5815:5819   */\n      0x00\n        /* \"#utility.yul\":5853:5855   */\n      0x20\n        /* \"#utility.yul\":5842:5851   */\n      dup3\n        /* \"#utility.yul\":5838:5856   */\n      add\n        /* \"#utility.yul\":5830:5856   */\n      swap1\n      pop\n        /* \"#utility.yul\":5902:5911   */\n      dup2\n        /* \"#utility.yul\":5896:5900   */\n      dup2\n        /* \"#utility.yul\":5892:5912   */\n      sub\n        /* \"#utility.yul\":5888:5889   */\n      0x00\n        /* \"#utility.yul\":5877:5886   */\n      dup4\n        /* \"#utility.yul\":5873:5890   */\n      add\n        /* \"#utility.yul\":5866:5913   */\n      mstore\n        /* \"#utility.yul\":5930:6080   */\n      tag_428\n        /* \"#utility.yul\":6075:6079   */\n      dup2\n        /* \"#utility.yul\":6066:6072   */\n      dup5\n        /* \"#utility.yul\":5930:6080   */\n      tag_329\n      jump\t// in\n    tag_428:\n        /* \"#utility.yul\":5922:6080   */\n      swap1\n      pop\n        /* \"#utility.yul\":5630:6087   */\n      swap3\n      swap2\n      pop\n      pop\n      jump\t// out\n        /* \"#utility.yul\":6093:6211   */\n    tag_330:\n        /* \"#utility.yul\":6180:6204   */\n      tag_430\n        /* \"#utility.yul\":6198:6203   */\n      dup2\n        /* \"#utility.yul\":6180:6204   */\n      tag_314\n      jump\t// in\n    tag_430:\n        /* \"#utility.yul\":6175:6178   */\n      dup3\n        /* \"#utility.yul\":6168:6205   */\n      mstore\n        /* \"#utility.yul\":6093:6211   */\n      pop\n      pop\n      jump\t// out\n        /* \"#utility.yul\":6217:6439   */\n    tag_22:\n        /* \"#utility.yul\":6310:6314   */\n      0x00\n        /* \"#utility.yul\":6348:6350   */\n      0x20\n        /* \"#utility.yul\":6337:6346   */\n      dup3\n        /* \"#utility.yul\":6333:6351   */\n      add\n        /* \"#utility.yul\":6325:6351   */\n      swap1\n      pop\n        /* \"#utility.yul\":6361:6432   */\n      tag_432\n        /* \"#utility.yul\":6429:6430   */\n      0x00\n        /* \"#utility.yul\":6418:6427   */\n      dup4\n        /* \"#utility.yul\":6414:6431   */\n      add\n        /* \"#utility.yul\":6405:6411   */\n      dup5\n        /* \"#utility.yul\":6361:6432   */\n      tag_330\n      jump\t// in\n    tag_432:\n        /* \"#utility.yul\":6217:6439   */\n      swap3\n      swap2\n      pop\n      pop\n      jump\t// out\n        /* \"#utility.yul\":6526:6643   */\n    tag_332:\n        /* \"#utility.yul\":6635:6636   */\n      0x00\n        /* \"#utility.yul\":6632:6633   */\n      dup1\n        /* \"#utility.yul\":6625:6637   */\n      revert\n        /* \"#utility.yul\":6649:6766   */\n    tag_333:\n        /* \"#utility.yul\":6758:6759   */\n      0x00\n        /* \"#utility.yul\":6755:6756   */\n      dup1\n        /* \"#utility.yul\":6748:6760   */\n      revert\n        /* \"#utility.yul\":6772:6889   */\n    tag_334:\n        /* \"#utility.yul\":6881:6882   */\n      0x00\n        /* \"#utility.yul\":6878:6879   */\n      dup1\n        /* \"#utility.yul\":6871:6883   */\n      revert\n        /* \"#utility.yul\":6895:7012   */\n    tag_335:\n        /* \"#utility.yul\":7004:7005   */\n      0x00\n        /* \"#utility.yul\":7001:7002   */\n      dup1\n        /* \"#utility.yul\":6994:7006   */\n      revert\n        /* \"#utility.yul\":7018:7135   */\n    tag_336:\n        /* \"#utility.yul\":7127:7128   */\n      0x00\n        /* \"#utility.yul\":7124:7125   */\n      dup1\n        /* \"#utility.yul\":7117:7129   */\n      revert\n        /* \"#utility.yul\":7155:7708   */\n    tag_337:\n        /* \"#utility.yul\":7213:7221   */\n      0x00\n        /* \"#utility.yul\":7223:7229   */\n      dup1\n        /* \"#utility.yul\":7273:7276   */\n      dup4\n        /* \"#utility.yul\":7266:7270   */\n      0x1f\n        /* \"#utility.yul\":7258:7264   */\n      dup5\n        /* \"#utility.yul\":7254:7271   */\n      add\n        /* \"#utility.yul\":7250:7277   */\n      slt\n        /* \"#utility.yul\":7240:7362   */\n      tag_440\n      jumpi\n        /* \"#utility.yul\":7281:7360   */\n      tag_441\n      tag_334\n      jump\t// in\n    tag_441:\n        /* \"#utility.yul\":7240:7362   */\n    tag_440:\n        /* \"#utility.yul\":7394:7400   */\n      dup3\n        /* \"#utility.yul\":7381:7401   */\n      calldataload\n        /* \"#utility.yul\":7371:7401   */\n      swap1\n      pop\n        /* \"#utility.yul\":7424:7442   */\n      0xffffffffffffffff\n        /* \"#utility.yul\":7416:7422   */\n      dup2\n        /* \"#utility.yul\":7413:7443   */\n      gt\n        /* \"#utility.yul\":7410:7527   */\n      iszero\n      tag_442\n      jumpi\n        /* \"#utility.yul\":7446:7525   */\n      tag_443\n      tag_335\n      jump\t// in\n    tag_443:\n        /* \"#utility.yul\":7410:7527   */\n    tag_442:\n        /* \"#utility.yul\":7560:7564   */\n      0x20\n        /* \"#utility.yul\":7552:7558   */\n      dup4\n        /* \"#utility.yul\":7548:7565   */\n      add\n        /* \"#utility.yul\":7536:7565   */\n      swap2\n      pop\n        /* \"#utility.yul\":7614:7617   */\n      dup4\n        /* \"#utility.yul\":7606:7610   */\n      0x01\n        /* \"#utility.yul\":7598:7604   */\n      dup3\n        /* \"#utility.yul\":7594:7611   */\n      mul\n        /* \"#utility.yul\":7584:7592   */\n      dup4\n        /* \"#utility.yul\":7580:7612   */\n      add\n        /* \"#utility.yul\":7577:7618   */\n      gt\n        /* \"#utility.yul\":7574:7702   */\n      iszero\n      tag_444\n      jumpi\n        /* \"#utility.yul\":7621:7700   */\n      tag_445\n      tag_336\n      jump\t// in\n    tag_445:\n        /* \"#utility.yul\":7574:7702   */\n    tag_444:\n        /* \"#utility.yul\":7155:7708   */\n      swap3\n      pop\n      swap3\n      swap1\n      pop\n      jump\t// out\n        /* \"#utility.yul\":7714:7836   */\n    tag_338:\n        /* \"#utility.yul\":7787:7811   */\n      tag_447\n        /* \"#utility.yul\":7805:7810   */\n      dup2\n        /* \"#utility.yul\":7787:7811   */\n      tag_322\n      jump\t// in\n    tag_447:\n        /* \"#utility.yul\":7780:7785   */\n      dup2\n        /* \"#utility.yul\":7777:7812   */\n      eq\n        /* \"#utility.yul\":7767:7830   */\n      tag_448\n      jumpi\n        /* \"#utility.yul\":7826:7827   */\n      0x00\n        /* \"#utility.yul\":7823:7824   */\n      dup1\n        /* \"#utility.yul\":7816:7828   */\n      revert\n        /* \"#utility.yul\":7767:7830   */\n    tag_448:\n        /* \"#utility.yul\":7714:7836   */\n      pop\n      jump\t// out\n        /* \"#utility.yul\":7842:7981   */\n    tag_339:\n        /* \"#utility.yul\":7888:7893   */\n      0x00\n        /* \"#utility.yul\":7926:7932   */\n      dup2\n        /* \"#utility.yul\":7913:7933   */\n      calldataload\n        /* \"#utility.yul\":7904:7933   */\n      swap1\n      pop\n        /* \"#utility.yul\":7942:7975   */\n      tag_450\n        /* \"#utility.yul\":7969:7974   */\n      dup2\n        /* \"#utility.yul\":7942:7975   */\n      tag_338\n      jump\t// in\n    tag_450:\n        /* \"#utility.yul\":7842:7981   */\n      swap3\n      swap2\n      pop\n      pop\n      jump\t// out\n        /* \"#utility.yul\":7987:8109   */\n    tag_340:\n        /* \"#utility.yul\":8060:8084   */\n      tag_452\n        /* \"#utility.yul\":8078:8083   */\n      dup2\n        /* \"#utility.yul\":8060:8084   */\n      tag_314\n      jump\t// in\n    tag_452:\n        /* \"#utility.yul\":8053:8058   */\n      dup2\n        /* \"#utility.yul\":8050:8085   */\n      eq\n        /* \"#utility.yul\":8040:8103   */\n      tag_453\n      jumpi\n        /* \"#utility.yul\":8099:8100   */\n      0x00\n        /* \"#utility.yul\":8096:8097   */\n      dup1\n        /* \"#utility.yul\":8089:8101   */\n      revert\n        /* \"#utility.yul\":8040:8103   */\n    tag_453:\n        /* \"#utility.yul\":7987:8109   */\n      pop\n      jump\t// out\n        /* \"#utility.yul\":8115:8254   */\n    tag_341:\n        /* \"#utility.yul\":8161:8166   */\n      0x00\n        /* \"#utility.yul\":8199:8205   */\n      dup2\n        /* \"#utility.yul\":8186:8206   */\n      calldataload\n        /* \"#utility.yul\":8177:8206   */\n      swap1\n      pop\n        /* \"#utility.yul\":8215:8248   */\n      tag_455\n        /* \"#utility.yul\":8242:8247   */\n      dup2\n        /* \"#utility.yul\":8215:8248   */\n      tag_340\n      jump\t// in\n    tag_455:\n        /* \"#utility.yul\":8115:8254   */\n      swap3\n      swap2\n      pop\n      pop\n      jump\t// out\n        /* \"#utility.yul\":8260:9771   */\n    tag_25:\n        /* \"#utility.yul\":8391:8397   */\n      0x00\n        /* \"#utility.yul\":8399:8405   */\n      dup1\n        /* \"#utility.yul\":8407:8413   */\n      0x00\n        /* \"#utility.yul\":8415:8421   */\n      dup1\n        /* \"#utility.yul\":8423:8429   */\n      0x00\n        /* \"#utility.yul\":8431:8437   */\n      dup1\n        /* \"#utility.yul\":8439:8445   */\n      0x00\n        /* \"#utility.yul\":8447:8453   */\n      dup1\n        /* \"#utility.yul\":8496:8499   */\n      0xa0\n        /* \"#utility.yul\":8484:8493   */\n      dup10\n        /* \"#utility.yul\":8475:8482   */\n      dup12\n        /* \"#utility.yul\":8471:8494   */\n      sub\n        /* \"#utility.yul\":8467:8500   */\n      slt\n        /* \"#utility.yul\":8464:8584   */\n      iszero\n      tag_457\n      jumpi\n        /* \"#utility.yul\":8503:8582   */\n      tag_458\n      tag_332\n      jump\t// in\n    tag_458:\n        /* \"#utility.yul\":8464:8584   */\n    tag_457:\n        /* \"#utility.yul\":8651:8652   */\n      0x00\n        /* \"#utility.yul\":8640:8649   */\n      dup10\n        /* \"#utility.yul\":8636:8653   */\n      add\n        /* \"#utility.yul\":8623:8654   */\n      calldataload\n        /* \"#utility.yul\":8681:8699   */\n      0xffffffffffffffff\n        /* \"#utility.yul\":8673:8679   */\n      dup2\n        /* \"#utility.yul\":8670:8700   */\n      gt\n        /* \"#utility.yul\":8667:8784   */\n      iszero\n      tag_459\n      jumpi\n        /* \"#utility.yul\":8703:8782   */\n      tag_460\n      tag_333\n      jump\t// in\n    tag_460:\n        /* \"#utility.yul\":8667:8784   */\n    tag_459:\n        /* \"#utility.yul\":8816:8881   */\n      tag_461\n        /* \"#utility.yul\":8873:8880   */\n      dup12\n        /* \"#utility.yul\":8864:8870   */\n      dup3\n        /* \"#utility.yul\":8853:8862   */\n      dup13\n        /* \"#utility.yul\":8849:8871   */\n      add\n        /* \"#utility.yul\":8816:8881   */\n      tag_337\n      jump\t// in\n    tag_461:\n        /* \"#utility.yul\":8798:8881   */\n      swap9\n      pop\n      swap9\n      pop\n        /* \"#utility.yul\":8594:8891   */\n      pop\n        /* \"#utility.yul\":8930:8932   */\n      0x20\n        /* \"#utility.yul\":8956:9009   */\n      tag_462\n        /* \"#utility.yul\":9001:9008   */\n      dup12\n        /* \"#utility.yul\":8992:8998   */\n      dup3\n        /* \"#utility.yul\":8981:8990   */\n      dup13\n        /* \"#utility.yul\":8977:8999   */\n      add\n        /* \"#utility.yul\":8956:9009   */\n      tag_339\n      jump\t// in\n    tag_462:\n        /* \"#utility.yul\":8946:9009   */\n      swap7\n      pop\n        /* \"#utility.yul\":8901:9019   */\n      pop\n        /* \"#utility.yul\":9086:9088   */\n      0x40\n        /* \"#utility.yul\":9075:9084   */\n      dup10\n        /* \"#utility.yul\":9071:9089   */\n      add\n        /* \"#utility.yul\":9058:9090   */\n      calldataload\n        /* \"#utility.yul\":9117:9135   */\n      0xffffffffffffffff\n        /* \"#utility.yul\":9109:9115   */\n      dup2\n        /* \"#utility.yul\":9106:9136   */\n      gt\n        /* \"#utility.yul\":9103:9220   */\n      iszero\n      tag_463\n      jumpi\n        /* \"#utility.yul\":9139:9218   */\n      tag_464\n      tag_333\n      jump\t// in\n    tag_464:\n        /* \"#utility.yul\":9103:9220   */\n    tag_463:\n        /* \"#utility.yul\":9252:9317   */\n      tag_465\n        /* \"#utility.yul\":9309:9316   */\n      dup12\n        /* \"#utility.yul\":9300:9306   */\n      dup3\n        /* \"#utility.yul\":9289:9298   */\n      dup13\n        /* \"#utility.yul\":9285:9307   */\n      add\n        /* \"#utility.yul\":9252:9317   */\n      tag_337\n      jump\t// in\n    tag_465:\n        /* \"#utility.yul\":9234:9317   */\n      swap6\n      pop\n      swap6\n      pop\n        /* \"#utility.yul\":9029:9327   */\n      pop\n        /* \"#utility.yul\":9394:9396   */\n      0x60\n        /* \"#utility.yul\":9383:9392   */\n      dup10\n        /* \"#utility.yul\":9379:9397   */\n      add\n        /* \"#utility.yul\":9366:9398   */\n      calldataload\n        /* \"#utility.yul\":9425:9443   */\n      0xffffffffffffffff\n        /* \"#utility.yul\":9417:9423   */\n      dup2\n        /* \"#utility.yul\":9414:9444   */\n      gt\n        /* \"#utility.yul\":9411:9528   */\n      iszero\n      tag_466\n      jumpi\n        /* \"#utility.yul\":9447:9526   */\n      tag_467\n      tag_333\n      jump\t// in\n    tag_467:\n        /* \"#utility.yul\":9411:9528   */\n    tag_466:\n        /* \"#utility.yul\":9560:9625   */\n      tag_468\n        /* \"#utility.yul\":9617:9624   */\n      dup12\n        /* \"#utility.yul\":9608:9614   */\n      dup3\n        /* \"#utility.yul\":9597:9606   */\n      dup13\n        /* \"#utility.yul\":9593:9615   */\n      add\n        /* \"#utility.yul\":9560:9625   */\n      tag_337\n      jump\t// in\n    tag_468:\n        /* \"#utility.yul\":9542:9625   */\n      swap4\n      pop\n      swap4\n      pop\n        /* \"#utility.yul\":9337:9635   */\n      pop\n        /* \"#utility.yul\":9674:9677   */\n      0x80\n        /* \"#utility.yul\":9701:9754   */\n      tag_469\n        /* \"#utility.yul\":9746:9753   */\n      dup12\n        /* \"#utility.yul\":9737:9743   */\n      dup3\n        /* \"#utility.yul\":9726:9735   */\n      dup13\n        /* \"#utility.yul\":9722:9744   */\n      add\n        /* \"#utility.yul\":9701:9754   */\n      tag_341\n      jump\t// in\n    tag_469:\n        /* \"#utility.yul\":9691:9754   */\n      swap2\n      pop\n        /* \"#utility.yul\":9645:9764   */\n      pop\n        /* \"#utility.yul\":8260:9771   */\n      swap3\n      swap6\n      swap9\n      pop\n      swap3\n      swap6\n      swap9\n      swap1\n      swap4\n      swap7\n      pop\n      jump\t// out\n        /* \"#utility.yul\":9777:10106   */\n    tag_32:\n        /* \"#utility.yul\":9836:9842   */\n      0x00\n        /* \"#utility.yul\":9885:9887   */\n      0x20\n        /* \"#utility.yul\":9873:9882   */\n      dup3\n        /* \"#utility.yul\":9864:9871   */\n      dup5\n        /* \"#utility.yul\":9860:9883   */\n      sub\n        /* \"#utility.yul\":9856:9888   */\n      slt\n        /* \"#utility.yul\":9853:9972   */\n      iszero\n      tag_471\n      jumpi\n        /* \"#utility.yul\":9891:9970   */\n      tag_472\n      tag_332\n      jump\t// in\n    tag_472:\n        /* \"#utility.yul\":9853:9972   */\n    tag_471:\n        /* \"#utility.yul\":10011:10012   */\n      0x00\n        /* \"#utility.yul\":10036:10089   */\n      tag_473\n        /* \"#utility.yul\":10081:10088   */\n      dup5\n        /* \"#utility.yul\":10072:10078   */\n      dup3\n        /* \"#utility.yul\":10061:10070   */\n      dup6\n        /* \"#utility.yul\":10057:10079   */\n      add\n        /* \"#utility.yul\":10036:10089   */\n      tag_339\n      jump\t// in\n    tag_473:\n        /* \"#utility.yul\":10026:10089   */\n      swap2\n      pop\n        /* \"#utility.yul\":9982:10099   */\n      pop\n        /* \"#utility.yul\":9777:10106   */\n      swap3\n      swap2\n      pop\n      pop\n      jump\t// out\n        /* \"#utility.yul\":10112:10249   */\n    tag_342:\n        /* \"#utility.yul\":10202:10208   */\n      0x00\n        /* \"#utility.yul\":10236:10241   */\n      dup2\n        /* \"#utility.yul\":10230:10242   */\n      mload\n        /* \"#utility.yul\":10220:10242   */\n      swap1\n      pop\n        /* \"#utility.yul\":10112:10249   */\n      swap2\n      swap1\n      pop\n      jump\t// out\n        /* \"#utility.yul\":10255:10462   */\n    tag_343:\n        /* \"#utility.yul\":10377:10388   */\n      0x00\n        /* \"#utility.yul\":10411:10417   */\n      dup3\n        /* \"#utility.yul\":10406:10409   */\n      dup3\n        /* \"#utility.yul\":10399:10418   */\n      mstore\n        /* \"#utility.yul\":10451:10455   */\n      0x20\n        /* \"#utility.yul\":10446:10449   */\n      dup3\n        /* \"#utility.yul\":10442:10456   */\n      add\n        /* \"#utility.yul\":10427:10456   */\n      swap1\n      pop\n        /* \"#utility.yul\":10255:10462   */\n      swap3\n      swap2\n      pop\n      pop\n      jump\t// out\n        /* \"#utility.yul\":10468:10623   */\n    tag_344:\n        /* \"#utility.yul\":10558:10562   */\n      0x00\n        /* \"#utility.yul\":10581:10584   */\n      dup2\n        /* \"#utility.yul\":10573:10584   */\n      swap1\n      pop\n        /* \"#utility.yul\":10611:10615   */\n      0x20\n        /* \"#utility.yul\":10606:10609   */\n      dup3\n        /* \"#utility.yul\":10602:10616   */\n      add\n        /* \"#utility.yul\":10594:10616   */\n      swap1\n      pop\n        /* \"#utility.yul\":10468:10623   */\n      swap2\n      swap1\n      pop\n      jump\t// out\n        /* \"#utility.yul\":10683:11637   */\n    tag_345:\n        /* \"#utility.yul\":10788:10791   */\n      0x00\n        /* \"#utility.yul\":10824:10828   */\n      0x80\n        /* \"#utility.yul\":10819:10822   */\n      dup4\n        /* \"#utility.yul\":10815:10829   */\n      add\n        /* \"#utility.yul\":10915:10919   */\n      0x00\n        /* \"#utility.yul\":10908:10913   */\n      dup4\n        /* \"#utility.yul\":10904:10920   */\n      add\n        /* \"#utility.yul\":10898:10921   */\n      mload\n        /* \"#utility.yul\":10934:10997   */\n      tag_478\n        /* \"#utility.yul\":10991:10995   */\n      0x00\n        /* \"#utility.yul\":10986:10989   */\n      dup7\n        /* \"#utility.yul\":10982:10996   */\n      add\n        /* \"#utility.yul\":10968:10980   */\n      dup3\n        /* \"#utility.yul\":10934:10997   */\n      tag_315\n      jump\t// in\n    tag_478:\n        /* \"#utility.yul\":10839:11007   */\n      pop\n        /* \"#utility.yul\":11089:11093   */\n      0x20\n        /* \"#utility.yul\":11082:11087   */\n      dup4\n        /* \"#utility.yul\":11078:11094   */\n      add\n        /* \"#utility.yul\":11072:11095   */\n      mload\n        /* \"#utility.yul\":11142:11145   */\n      dup5\n        /* \"#utility.yul\":11136:11140   */\n      dup3\n        /* \"#utility.yul\":11132:11146   */\n      sub\n        /* \"#utility.yul\":11125:11129   */\n      0x20\n        /* \"#utility.yul\":11120:11123   */\n      dup7\n        /* \"#utility.yul\":11116:11130   */\n      add\n        /* \"#utility.yul\":11109:11147   */\n      mstore\n        /* \"#utility.yul\":11168:11241   */\n      tag_479\n        /* \"#utility.yul\":11236:11240   */\n      dup3\n        /* \"#utility.yul\":11222:11234   */\n      dup3\n        /* \"#utility.yul\":11168:11241   */\n      tag_320\n      jump\t// in\n    tag_479:\n        /* \"#utility.yul\":11160:11241   */\n      swap2\n      pop\n        /* \"#utility.yul\":11017:11252   */\n      pop\n        /* \"#utility.yul\":11342:11346   */\n      0x40\n        /* \"#utility.yul\":11335:11340   */\n      dup4\n        /* \"#utility.yul\":11331:11347   */\n      add\n        /* \"#utility.yul\":11325:11348   */\n      mload\n        /* \"#utility.yul\":11361:11424   */\n      tag_480\n        /* \"#utility.yul\":11418:11422   */\n      0x40\n        /* \"#utility.yul\":11413:11416   */\n      dup7\n        /* \"#utility.yul\":11409:11423   */\n      add\n        /* \"#utility.yul\":11395:11407   */\n      dup3\n        /* \"#utility.yul\":11361:11424   */\n      tag_323\n      jump\t// in\n    tag_480:\n        /* \"#utility.yul\":11262:11434   */\n      pop\n        /* \"#utility.yul\":11518:11522   */\n      0x60\n        /* \"#utility.yul\":11511:11516   */\n      dup4\n        /* \"#utility.yul\":11507:11523   */\n      add\n        /* \"#utility.yul\":11501:11524   */\n      mload\n        /* \"#utility.yul\":11537:11600   */\n      tag_481\n        /* \"#utility.yul\":11594:11598   */\n      0x60\n        /* \"#utility.yul\":11589:11592   */\n      dup7\n        /* \"#utility.yul\":11585:11599   */\n      add\n        /* \"#utility.yul\":11571:11583   */\n      dup3\n        /* \"#utility.yul\":11537:11600   */\n      tag_315\n      jump\t// in\n    tag_481:\n        /* \"#utility.yul\":11444:11610   */\n      pop\n        /* \"#utility.yul\":11627:11631   */\n      dup1\n        /* \"#utility.yul\":11620:11631   */\n      swap2\n      pop\n        /* \"#utility.yul\":10793:11637   */\n      pop\n        /* \"#utility.yul\":10683:11637   */\n      swap3\n      swap2\n      pop\n      pop\n      jump\t// out\n        /* \"#utility.yul\":11643:11891   */\n    tag_346:\n        /* \"#utility.yul\":11758:11768   */\n      0x00\n        /* \"#utility.yul\":11793:11885   */\n      tag_483\n        /* \"#utility.yul\":11881:11884   */\n      dup4\n        /* \"#utility.yul\":11873:11879   */\n      dup4\n        /* \"#utility.yul\":11793:11885   */\n      tag_345\n      jump\t// in\n    tag_483:\n        /* \"#utility.yul\":11779:11885   */\n      swap1\n      pop\n        /* \"#utility.yul\":11643:11891   */\n      swap3\n      swap2\n      pop\n      pop\n      jump\t// out\n        /* \"#utility.yul\":11897:12033   */\n    tag_347:\n        /* \"#utility.yul\":11990:11994   */\n      0x00\n        /* \"#utility.yul\":12022:12026   */\n      0x20\n        /* \"#utility.yul\":12017:12020   */\n      dup3\n        /* \"#utility.yul\":12013:12027   */\n      add\n        /* \"#utility.yul\":12005:12027   */\n      swap1\n      pop\n        /* \"#utility.yul\":11897:12033   */\n      swap2\n      swap1\n      pop\n      jump\t// out\n        /* \"#utility.yul\":12097:13192   */\n    tag_348:\n        /* \"#utility.yul\":12262:12265   */\n      0x00\n        /* \"#utility.yul\":12291:12368   */\n      tag_486\n        /* \"#utility.yul\":12362:12367   */\n      dup3\n        /* \"#utility.yul\":12291:12368   */\n      tag_342\n      jump\t// in\n    tag_486:\n        /* \"#utility.yul\":12384:12493   */\n      tag_487\n        /* \"#utility.yul\":12486:12492   */\n      dup2\n        /* \"#utility.yul\":12481:12484   */\n      dup6\n        /* \"#utility.yul\":12384:12493   */\n      tag_343\n      jump\t// in\n    tag_487:\n        /* \"#utility.yul\":12377:12493   */\n      swap4\n      pop\n        /* \"#utility.yul\":12519:12522   */\n      dup4\n        /* \"#utility.yul\":12564:12568   */\n      0x20\n        /* \"#utility.yul\":12556:12562   */\n      dup3\n        /* \"#utility.yul\":12552:12569   */\n      mul\n        /* \"#utility.yul\":12547:12550   */\n      dup6\n        /* \"#utility.yul\":12543:12570   */\n      add\n        /* \"#utility.yul\":12594:12673   */\n      tag_488\n        /* \"#utility.yul\":12667:12672   */\n      dup6\n        /* \"#utility.yul\":12594:12673   */\n      tag_344\n      jump\t// in\n    tag_488:\n        /* \"#utility.yul\":12696:12703   */\n      dup1\n        /* \"#utility.yul\":12727:12728   */\n      0x00\n        /* \"#utility.yul\":12712:13147   */\n    tag_489:\n        /* \"#utility.yul\":12737:12743   */\n      dup6\n        /* \"#utility.yul\":12734:12735   */\n      dup2\n        /* \"#utility.yul\":12731:12744   */\n      lt\n        /* \"#utility.yul\":12712:13147   */\n      iszero\n      tag_491\n      jumpi\n        /* \"#utility.yul\":12808:12817   */\n      dup5\n        /* \"#utility.yul\":12802:12806   */\n      dup5\n        /* \"#utility.yul\":12798:12818   */\n      sub\n        /* \"#utility.yul\":12793:12796   */\n      dup10\n        /* \"#utility.yul\":12786:12819   */\n      mstore\n        /* \"#utility.yul\":12859:12865   */\n      dup2\n        /* \"#utility.yul\":12853:12866   */\n      mload\n        /* \"#utility.yul\":12887:12997   */\n      tag_492\n        /* \"#utility.yul\":12992:12996   */\n      dup6\n        /* \"#utility.yul\":12977:12990   */\n      dup3\n        /* \"#utility.yul\":12887:12997   */\n      tag_346\n      jump\t// in\n    tag_492:\n        /* \"#utility.yul\":12879:12997   */\n      swap5\n      pop\n        /* \"#utility.yul\":13020:13103   */\n      tag_493\n        /* \"#utility.yul\":13096:13102   */\n      dup4\n        /* \"#utility.yul\":13020:13103   */\n      tag_347\n      jump\t// in\n    tag_493:\n        /* \"#utility.yul\":13010:13103   */\n      swap3\n      pop\n        /* \"#utility.yul\":13132:13136   */\n      0x20\n        /* \"#utility.yul\":13127:13130   */\n      dup11\n        /* \"#utility.yul\":13123:13137   */\n      add\n        /* \"#utility.yul\":13116:13137   */\n      swap10\n      pop\n        /* \"#utility.yul\":12772:13147   */\n      pop\n        /* \"#utility.yul\":12759:12760   */\n      0x01\n        /* \"#utility.yul\":12756:12757   */\n      dup2\n        /* \"#utility.yul\":12752:12761   */\n      add\n        /* \"#utility.yul\":12747:12761   */\n      swap1\n      pop\n        /* \"#utility.yul\":12712:13147   */\n      jump(tag_489)\n    tag_491:\n        /* \"#utility.yul\":12716:12730   */\n      pop\n        /* \"#utility.yul\":13163:13167   */\n      dup3\n        /* \"#utility.yul\":13156:13167   */\n      swap8\n      pop\n        /* \"#utility.yul\":13183:13186   */\n      dup8\n        /* \"#utility.yul\":13176:13186   */\n      swap6\n      pop\n        /* \"#utility.yul\":12267:13192   */\n      pop\n      pop\n      pop\n      pop\n      pop\n        /* \"#utility.yul\":12097:13192   */\n      swap3\n      swap2\n      pop\n      pop\n      jump\t// out\n        /* \"#utility.yul\":13198:13663   */\n    tag_35:\n        /* \"#utility.yul\":13387:13391   */\n      0x00\n        /* \"#utility.yul\":13425:13427   */\n      0x20\n        /* \"#utility.yul\":13414:13423   */\n      dup3\n        /* \"#utility.yul\":13410:13428   */\n      add\n        /* \"#utility.yul\":13402:13428   */\n      swap1\n      pop\n        /* \"#utility.yul\":13474:13483   */\n      dup2\n        /* \"#utility.yul\":13468:13472   */\n      dup2\n        /* \"#utility.yul\":13464:13484   */\n      sub\n        /* \"#utility.yul\":13460:13461   */\n      0x00\n        /* \"#utility.yul\":13449:13458   */\n      dup4\n        /* \"#utility.yul\":13445:13462   */\n      add\n        /* \"#utility.yul\":13438:13485   */\n      mstore\n        /* \"#utility.yul\":13502:13656   */\n      tag_495\n        /* \"#utility.yul\":13651:13655   */\n      dup2\n        /* \"#utility.yul\":13642:13648   */\n      dup5\n        /* \"#utility.yul\":13502:13656   */\n      tag_348\n      jump\t// in\n    tag_495:\n        /* \"#utility.yul\":13494:13656   */\n      swap1\n      pop\n        /* \"#utility.yul\":13198:13663   */\n      swap3\n      swap2\n      pop\n      pop\n      jump\t// out\n        /* \"#utility.yul\":13669:13998   */\n    tag_38:\n        /* \"#utility.yul\":13728:13734   */\n      0x00\n        /* \"#utility.yul\":13777:13779   */\n      0x20\n        /* \"#utility.yul\":13765:13774   */\n      dup3\n        /* \"#utility.yul\":13756:13763   */\n      dup5\n        /* \"#utility.yul\":13752:13775   */\n      sub\n        /* \"#utility.yul\":13748:13780   */\n      slt\n        /* \"#utility.yul\":13745:13864   */\n      iszero\n      tag_497\n      jumpi\n        /* \"#utility.yul\":13783:13862   */\n      tag_498\n      tag_332\n      jump\t// in\n    tag_498:\n        /* \"#utility.yul\":13745:13864   */\n    tag_497:\n        /* \"#utility.yul\":13903:13904   */\n      0x00\n        /* \"#utility.yul\":13928:13981   */\n      tag_499\n        /* \"#utility.yul\":13973:13980   */\n      dup5\n        /* \"#utility.yul\":13964:13970   */\n      dup3\n        /* \"#utility.yul\":13953:13962   */\n      dup6\n        /* \"#utility.yul\":13949:13971   */\n      add\n        /* \"#utility.yul\":13928:13981   */\n      tag_341\n      jump\t// in\n    tag_499:\n        /* \"#utility.yul\":13918:13981   */\n      swap2\n      pop\n        /* \"#utility.yul\":13874:13991   */\n      pop\n        /* \"#utility.yul\":13669:13998   */\n      swap3\n      swap2\n      pop\n      pop\n      jump\t// out\n        /* \"#utility.yul\":14004:14173   */\n    tag_349:\n        /* \"#utility.yul\":14088:14099   */\n      0x00\n        /* \"#utility.yul\":14122:14128   */\n      dup3\n        /* \"#utility.yul\":14117:14120   */\n      dup3\n        /* \"#utility.yul\":14110:14129   */\n      mstore\n        /* \"#utility.yul\":14162:14166   */\n      0x20\n        /* \"#utility.yul\":14157:14160   */\n      dup3\n        /* \"#utility.yul\":14153:14167   */\n      add\n        /* \"#utility.yul\":14138:14167   */\n      swap1\n      pop\n        /* \"#utility.yul\":14004:14173   */\n      swap3\n      swap2\n      pop\n      pop\n      jump\t// out\n        /* \"#utility.yul\":14179:14556   */\n    tag_350:\n        /* \"#utility.yul\":14267:14270   */\n      0x00\n        /* \"#utility.yul\":14295:14334   */\n      tag_502\n        /* \"#utility.yul\":14328:14333   */\n      dup3\n        /* \"#utility.yul\":14295:14334   */\n      tag_316\n      jump\t// in\n    tag_502:\n        /* \"#utility.yul\":14350:14421   */\n      tag_503\n        /* \"#utility.yul\":14414:14420   */\n      dup2\n        /* \"#utility.yul\":14409:14412   */\n      dup6\n        /* \"#utility.yul\":14350:14421   */\n      tag_349\n      jump\t// in\n    tag_503:\n        /* \"#utility.yul\":14343:14421   */\n      swap4\n      pop\n        /* \"#utility.yul\":14430:14495   */\n      tag_504\n        /* \"#utility.yul\":14488:14494   */\n      dup2\n        /* \"#utility.yul\":14483:14486   */\n      dup6\n        /* \"#utility.yul\":14476:14480   */\n      0x20\n        /* \"#utility.yul\":14469:14474   */\n      dup7\n        /* \"#utility.yul\":14465:14481   */\n      add\n        /* \"#utility.yul\":14430:14495   */\n      tag_318\n      jump\t// in\n    tag_504:\n        /* \"#utility.yul\":14520:14549   */\n      tag_505\n        /* \"#utility.yul\":14542:14548   */\n      dup2\n        /* \"#utility.yul\":14520:14549   */\n      tag_319\n      jump\t// in\n    tag_505:\n        /* \"#utility.yul\":14515:14518   */\n      dup5\n        /* \"#utility.yul\":14511:14550   */\n      add\n        /* \"#utility.yul\":14504:14550   */\n      swap2\n      pop\n        /* \"#utility.yul\":14271:14556   */\n      pop\n        /* \"#utility.yul\":14179:14556   */\n      swap3\n      swap2\n      pop\n      pop\n      jump\t// out\n        /* \"#utility.yul\":14562:14680   */\n    tag_351:\n        /* \"#utility.yul\":14649:14673   */\n      tag_507\n        /* \"#utility.yul\":14667:14672   */\n      dup2\n        /* \"#utility.yul\":14649:14673   */\n      tag_322\n      jump\t// in\n    tag_507:\n        /* \"#utility.yul\":14644:14647   */\n      dup3\n        /* \"#utility.yul\":14637:14674   */\n      mstore\n        /* \"#utility.yul\":14562:14680   */\n      pop\n      pop\n      jump\t// out\n        /* \"#utility.yul\":14686:14795   */\n    tag_352:\n        /* \"#utility.yul\":14767:14788   */\n      tag_509\n        /* \"#utility.yul\":14782:14787   */\n      dup2\n        /* \"#utility.yul\":14767:14788   */\n      tag_324\n      jump\t// in\n    tag_509:\n        /* \"#utility.yul\":14762:14765   */\n      dup3\n        /* \"#utility.yul\":14755:14789   */\n      mstore\n        /* \"#utility.yul\":14686:14795   */\n      pop\n      pop\n      jump\t// out\n        /* \"#utility.yul\":14801:16059   */\n    tag_41:\n        /* \"#utility.yul\":15144:15148   */\n      0x00\n        /* \"#utility.yul\":15182:15185   */\n      0x0100\n        /* \"#utility.yul\":15171:15180   */\n      dup3\n        /* \"#utility.yul\":15167:15186   */\n      add\n        /* \"#utility.yul\":15159:15186   */\n      swap1\n      pop\n        /* \"#utility.yul\":15196:15267   */\n      tag_511\n        /* \"#utility.yul\":15264:15265   */\n      0x00\n        /* \"#utility.yul\":15253:15262   */\n      dup4\n        /* \"#utility.yul\":15249:15266   */\n      add\n        /* \"#utility.yul\":15240:15246   */\n      dup12\n        /* \"#utility.yul\":15196:15267   */\n      tag_330\n      jump\t// in\n    tag_511:\n        /* \"#utility.yul\":15314:15323   */\n      dup2\n        /* \"#utility.yul\":15308:15312   */\n      dup2\n        /* \"#utility.yul\":15304:15324   */\n      sub\n        /* \"#utility.yul\":15299:15301   */\n      0x20\n        /* \"#utility.yul\":15288:15297   */\n      dup4\n        /* \"#utility.yul\":15284:15302   */\n      add\n        /* \"#utility.yul\":15277:15325   */\n      mstore\n        /* \"#utility.yul\":15342:15420   */\n      tag_512\n        /* \"#utility.yul\":15415:15419   */\n      dup2\n        /* \"#utility.yul\":15406:15412   */\n      dup11\n        /* \"#utility.yul\":15342:15420   */\n      tag_350\n      jump\t// in\n    tag_512:\n        /* \"#utility.yul\":15334:15420   */\n      swap1\n      pop\n        /* \"#utility.yul\":15467:15476   */\n      dup2\n        /* \"#utility.yul\":15461:15465   */\n      dup2\n        /* \"#utility.yul\":15457:15477   */\n      sub\n        /* \"#utility.yul\":15452:15454   */\n      0x40\n        /* \"#utility.yul\":15441:15450   */\n      dup4\n        /* \"#utility.yul\":15437:15455   */\n      add\n        /* \"#utility.yul\":15430:15478   */\n      mstore\n        /* \"#utility.yul\":15495:15573   */\n      tag_513\n        /* \"#utility.yul\":15568:15572   */\n      dup2\n        /* \"#utility.yul\":15559:15565   */\n      dup10\n        /* \"#utility.yul\":15495:15573   */\n      tag_350\n      jump\t// in\n    tag_513:\n        /* \"#utility.yul\":15487:15573   */\n      swap1\n      pop\n        /* \"#utility.yul\":15583:15655   */\n      tag_514\n        /* \"#utility.yul\":15651:15653   */\n      0x60\n        /* \"#utility.yul\":15640:15649   */\n      dup4\n        /* \"#utility.yul\":15636:15654   */\n      add\n        /* \"#utility.yul\":15627:15633   */\n      dup9\n        /* \"#utility.yul\":15583:15655   */\n      tag_351\n      jump\t// in\n    tag_514:\n        /* \"#utility.yul\":15703:15712   */\n      dup2\n        /* \"#utility.yul\":15697:15701   */\n      dup2\n        /* \"#utility.yul\":15693:15713   */\n      sub\n        /* \"#utility.yul\":15687:15690   */\n      0x80\n        /* \"#utility.yul\":15676:15685   */\n      dup4\n        /* \"#utility.yul\":15672:15691   */\n      add\n        /* \"#utility.yul\":15665:15714   */\n      mstore\n        /* \"#utility.yul\":15731:15809   */\n      tag_515\n        /* \"#utility.yul\":15804:15808   */\n      dup2\n        /* \"#utility.yul\":15795:15801   */\n      dup8\n        /* \"#utility.yul\":15731:15809   */\n      tag_350\n      jump\t// in\n    tag_515:\n        /* \"#utility.yul\":15723:15809   */\n      swap1\n      pop\n        /* \"#utility.yul\":15819:15892   */\n      tag_516\n        /* \"#utility.yul\":15887:15890   */\n      0xa0\n        /* \"#utility.yul\":15876:15885   */\n      dup4\n        /* \"#utility.yul\":15872:15891   */\n      add\n        /* \"#utility.yul\":15863:15869   */\n      dup7\n        /* \"#utility.yul\":15819:15892   */\n      tag_330\n      jump\t// in\n    tag_516:\n        /* \"#utility.yul\":15902:15975   */\n      tag_517\n        /* \"#utility.yul\":15970:15973   */\n      0xc0\n        /* \"#utility.yul\":15959:15968   */\n      dup4\n        /* \"#utility.yul\":15955:15974   */\n      add\n        /* \"#utility.yul\":15946:15952   */\n      dup6\n        /* \"#utility.yul\":15902:15975   */\n      tag_330\n      jump\t// in\n    tag_517:\n        /* \"#utility.yul\":15985:16052   */\n      tag_518\n        /* \"#utility.yul\":16047:16050   */\n      0xe0\n        /* \"#utility.yul\":16036:16045   */\n      dup4\n        /* \"#utility.yul\":16032:16051   */\n      add\n        /* \"#utility.yul\":16023:16029   */\n      dup5\n        /* \"#utility.yul\":15985:16052   */\n      tag_352\n      jump\t// in\n    tag_518:\n        /* \"#utility.yul\":14801:16059   */\n      swap10\n      swap9\n      pop\n      pop\n      pop\n      pop\n      pop\n      pop\n      pop\n      pop\n      pop\n      jump\t// out\n        /* \"#utility.yul\":16065:16275   */\n    tag_45:\n        /* \"#utility.yul\":16152:16156   */\n      0x00\n        /* \"#utility.yul\":16190:16192   */\n      0x20\n        /* \"#utility.yul\":16179:16188   */\n      dup3\n        /* \"#utility.yul\":16175:16193   */\n      add\n        /* \"#utility.yul\":16167:16193   */\n      swap1\n      pop\n        /* \"#utility.yul\":16203:16268   */\n      tag_520\n        /* \"#utility.yul\":16265:16266   */\n      0x00\n        /* \"#utility.yul\":16254:16263   */\n      dup4\n        /* \"#utility.yul\":16250:16267   */\n      add\n        /* \"#utility.yul\":16241:16247   */\n      dup5\n        /* \"#utility.yul\":16203:16268   */\n      tag_352\n      jump\t// in\n    tag_520:\n        /* \"#utility.yul\":16065:16275   */\n      swap3\n      swap2\n      pop\n      pop\n      jump\t// out\n        /* \"#utility.yul\":16281:16925   */\n    tag_54:\n        /* \"#utility.yul\":16478:16482   */\n      0x00\n        /* \"#utility.yul\":16516:16519   */\n      0x80\n        /* \"#utility.yul\":16505:16514   */\n      dup3\n        /* \"#utility.yul\":16501:16520   */\n      add\n        /* \"#utility.yul\":16493:16520   */\n      swap1\n      pop\n        /* \"#utility.yul\":16530:16601   */\n      tag_522\n        /* \"#utility.yul\":16598:16599   */\n      0x00\n        /* \"#utility.yul\":16587:16596   */\n      dup4\n        /* \"#utility.yul\":16583:16600   */\n      add\n        /* \"#utility.yul\":16574:16580   */\n      dup8\n        /* \"#utility.yul\":16530:16601   */\n      tag_330\n      jump\t// in\n    tag_522:\n        /* \"#utility.yul\":16648:16657   */\n      dup2\n        /* \"#utility.yul\":16642:16646   */\n      dup2\n        /* \"#utility.yul\":16638:16658   */\n      sub\n        /* \"#utility.yul\":16633:16635   */\n      0x20\n        /* \"#utility.yul\":16622:16631   */\n      dup4\n        /* \"#utility.yul\":16618:16636   */\n      add\n        /* \"#utility.yul\":16611:16659   */\n      mstore\n        /* \"#utility.yul\":16676:16754   */\n      tag_523\n        /* \"#utility.yul\":16749:16753   */\n      dup2\n        /* \"#utility.yul\":16740:16746   */\n      dup7\n        /* \"#utility.yul\":16676:16754   */\n      tag_350\n      jump\t// in\n    tag_523:\n        /* \"#utility.yul\":16668:16754   */\n      swap1\n      pop\n        /* \"#utility.yul\":16764:16836   */\n      tag_524\n        /* \"#utility.yul\":16832:16834   */\n      0x40\n        /* \"#utility.yul\":16821:16830   */\n      dup4\n        /* \"#utility.yul\":16817:16835   */\n      add\n        /* \"#utility.yul\":16808:16814   */\n      dup6\n        /* \"#utility.yul\":16764:16836   */\n      tag_351\n      jump\t// in\n    tag_524:\n        /* \"#utility.yul\":16846:16918   */\n      tag_525\n        /* \"#utility.yul\":16914:16916   */\n      0x60\n        /* \"#utility.yul\":16903:16912   */\n      dup4\n        /* \"#utility.yul\":16899:16917   */\n      add\n        /* \"#utility.yul\":16890:16896   */\n      dup5\n        /* \"#utility.yul\":16846:16918   */\n      tag_330\n      jump\t// in\n    tag_525:\n        /* \"#utility.yul\":16281:16925   */\n      swap6\n      swap5\n      pop\n      pop\n      pop\n      pop\n      pop\n      jump\t// out\n        /* \"#utility.yul\":16931:17896   */\n    tag_57:\n        /* \"#utility.yul\":17029:17035   */\n      0x00\n        /* \"#utility.yul\":17037:17043   */\n      dup1\n        /* \"#utility.yul\":17045:17051   */\n      0x00\n        /* \"#utility.yul\":17053:17059   */\n      dup1\n        /* \"#utility.yul\":17061:17067   */\n      0x00\n        /* \"#utility.yul\":17110:17113   */\n      0x80\n        /* \"#utility.yul\":17098:17107   */\n      dup7\n        /* \"#utility.yul\":17089:17096   */\n      dup9\n        /* \"#utility.yul\":17085:17108   */\n      sub\n        /* \"#utility.yul\":17081:17114   */\n      slt\n        /* \"#utility.yul\":17078:17198   */\n      iszero\n      tag_527\n      jumpi\n        /* \"#utility.yul\":17117:17196   */\n      tag_528\n      tag_332\n      jump\t// in\n    tag_528:\n        /* \"#utility.yul\":17078:17198   */\n    tag_527:\n        /* \"#utility.yul\":17237:17238   */\n      0x00\n        /* \"#utility.yul\":17262:17315   */\n      tag_529\n        /* \"#utility.yul\":17307:17314   */\n      dup9\n        /* \"#utility.yul\":17298:17304   */\n      dup3\n        /* \"#utility.yul\":17287:17296   */\n      dup10\n        /* \"#utility.yul\":17283:17305   */\n      add\n        /* \"#utility.yul\":17262:17315   */\n      tag_341\n      jump\t// in\n    tag_529:\n        /* \"#utility.yul\":17252:17315   */\n      swap6\n      pop\n        /* \"#utility.yul\":17208:17325   */\n      pop\n        /* \"#utility.yul\":17392:17394   */\n      0x20\n        /* \"#utility.yul\":17381:17390   */\n      dup7\n        /* \"#utility.yul\":17377:17395   */\n      add\n        /* \"#utility.yul\":17364:17396   */\n      calldataload\n        /* \"#utility.yul\":17423:17441   */\n      0xffffffffffffffff\n        /* \"#utility.yul\":17415:17421   */\n      dup2\n        /* \"#utility.yul\":17412:17442   */\n      gt\n        /* \"#utility.yul\":17409:17526   */\n      iszero\n      tag_530\n      jumpi\n        /* \"#utility.yul\":17445:17524   */\n      tag_531\n      tag_333\n      jump\t// in\n    tag_531:\n        /* \"#utility.yul\":17409:17526   */\n    tag_530:\n        /* \"#utility.yul\":17558:17623   */\n      tag_532\n        /* \"#utility.yul\":17615:17622   */\n      dup9\n        /* \"#utility.yul\":17606:17612   */\n      dup3\n        /* \"#utility.yul\":17595:17604   */\n      dup10\n        /* \"#utility.yul\":17591:17613   */\n      add\n        /* \"#utility.yul\":17558:17623   */\n      tag_337\n      jump\t// in\n    tag_532:\n        /* \"#utility.yul\":17540:17623   */\n      swap5\n      pop\n      swap5\n      pop\n        /* \"#utility.yul\":17335:17633   */\n      pop\n        /* \"#utility.yul\":17672:17674   */\n      0x40\n        /* \"#utility.yul\":17698:17751   */\n      tag_533\n        /* \"#utility.yul\":17743:17750   */\n      dup9\n        /* \"#utility.yul\":17734:17740   */\n      dup3\n        /* \"#utility.yul\":17723:17732   */\n      dup10\n        /* \"#utility.yul\":17719:17741   */\n      add\n        /* \"#utility.yul\":17698:17751   */\n      tag_339\n      jump\t// in\n    tag_533:\n        /* \"#utility.yul\":17688:17751   */\n      swap3\n      pop\n        /* \"#utility.yul\":17643:17761   */\n      pop\n        /* \"#utility.yul\":17800:17802   */\n      0x60\n        /* \"#utility.yul\":17826:17879   */\n      tag_534\n        /* \"#utility.yul\":17871:17878   */\n      dup9\n        /* \"#utility.yul\":17862:17868   */\n      dup3\n        /* \"#utility.yul\":17851:17860   */\n      dup10\n        /* \"#utility.yul\":17847:17869   */\n      add\n        /* \"#utility.yul\":17826:17879   */\n      tag_341\n      jump\t// in\n    tag_534:\n        /* \"#utility.yul\":17816:17879   */\n      swap2\n      pop\n        /* \"#utility.yul\":17771:17889   */\n      pop\n        /* \"#utility.yul\":16931:17896   */\n      swap3\n      swap6\n      pop\n      swap3\n      swap6\n      swap1\n      swap4\n      pop\n      jump\t// out\n        /* \"#utility.yul\":17952:19754   */\n    tag_353:\n        /* \"#utility.yul\":18063:18066   */\n      0x00\n        /* \"#utility.yul\":18099:18105   */\n      0x0100\n        /* \"#utility.yul\":18094:18097   */\n      dup4\n        /* \"#utility.yul\":18090:18106   */\n      add\n        /* \"#utility.yul\":18186:18190   */\n      0x00\n        /* \"#utility.yul\":18179:18184   */\n      dup4\n        /* \"#utility.yul\":18175:18191   */\n      add\n        /* \"#utility.yul\":18169:18192   */\n      mload\n        /* \"#utility.yul\":18205:18268   */\n      tag_536\n        /* \"#utility.yul\":18262:18266   */\n      0x00\n        /* \"#utility.yul\":18257:18260   */\n      dup7\n        /* \"#utility.yul\":18253:18267   */\n      add\n        /* \"#utility.yul\":18239:18251   */\n      dup3\n        /* \"#utility.yul\":18205:18268   */\n      tag_315\n      jump\t// in\n    tag_536:\n        /* \"#utility.yul\":18116:18278   */\n      pop\n        /* \"#utility.yul\":18360:18364   */\n      0x20\n        /* \"#utility.yul\":18353:18358   */\n      dup4\n        /* \"#utility.yul\":18349:18365   */\n      add\n        /* \"#utility.yul\":18343:18366   */\n      mload\n        /* \"#utility.yul\":18413:18416   */\n      dup5\n        /* \"#utility.yul\":18407:18411   */\n      dup3\n        /* \"#utility.yul\":18403:18417   */\n      sub\n        /* \"#utility.yul\":18396:18400   */\n      0x20\n        /* \"#utility.yul\":18391:18394   */\n      dup7\n        /* \"#utility.yul\":18387:18401   */\n      add\n        /* \"#utility.yul\":18380:18418   */\n      mstore\n        /* \"#utility.yul\":18439:18512   */\n      tag_537\n        /* \"#utility.yul\":18507:18511   */\n      dup3\n        /* \"#utility.yul\":18493:18505   */\n      dup3\n        /* \"#utility.yul\":18439:18512   */\n      tag_320\n      jump\t// in\n    tag_537:\n        /* \"#utility.yul\":18431:18512   */\n      swap2\n      pop\n        /* \"#utility.yul\":18288:18523   */\n      pop\n        /* \"#utility.yul\":18608:18612   */\n      0x40\n        /* \"#utility.yul\":18601:18606   */\n      dup4\n        /* \"#utility.yul\":18597:18613   */\n      add\n        /* \"#utility.yul\":18591:18614   */\n      mload\n        /* \"#utility.yul\":18661:18664   */\n      dup5\n        /* \"#utility.yul\":18655:18659   */\n      dup3\n        /* \"#utility.yul\":18651:18665   */\n      sub\n        /* \"#utility.yul\":18644:18648   */\n      0x40\n        /* \"#utility.yul\":18639:18642   */\n      dup7\n        /* \"#utility.yul\":18635:18649   */\n      add\n        /* \"#utility.yul\":18628:18666   */\n      mstore\n        /* \"#utility.yul\":18687:18760   */\n      tag_538\n        /* \"#utility.yul\":18755:18759   */\n      dup3\n        /* \"#utility.yul\":18741:18753   */\n      dup3\n        /* \"#utility.yul\":18687:18760   */\n      tag_320\n      jump\t// in\n    tag_538:\n        /* \"#utility.yul\":18679:18760   */\n      swap2\n      pop\n        /* \"#utility.yul\":18533:18771   */\n      pop\n        /* \"#utility.yul\":18853:18857   */\n      0x60\n        /* \"#utility.yul\":18846:18851   */\n      dup4\n        /* \"#utility.yul\":18842:18858   */\n      add\n        /* \"#utility.yul\":18836:18859   */\n      mload\n        /* \"#utility.yul\":18872:18935   */\n      tag_539\n        /* \"#utility.yul\":18929:18933   */\n      0x60\n        /* \"#utility.yul\":18924:18927   */\n      dup7\n        /* \"#utility.yul\":18920:18934   */\n      add\n        /* \"#utility.yul\":18906:18918   */\n      dup3\n        /* \"#utility.yul\":18872:18935   */\n      tag_323\n      jump\t// in\n    tag_539:\n        /* \"#utility.yul\":18781:18945   */\n      pop\n        /* \"#utility.yul\":19031:19035   */\n      0x80\n        /* \"#utility.yul\":19024:19029   */\n      dup4\n        /* \"#utility.yul\":19020:19036   */\n      add\n        /* \"#utility.yul\":19014:19037   */\n      mload\n        /* \"#utility.yul\":19084:19087   */\n      dup5\n        /* \"#utility.yul\":19078:19082   */\n      dup3\n        /* \"#utility.yul\":19074:19088   */\n      sub\n        /* \"#utility.yul\":19067:19071   */\n      0x80\n        /* \"#utility.yul\":19062:19065   */\n      dup7\n        /* \"#utility.yul\":19058:19072   */\n      add\n        /* \"#utility.yul\":19051:19089   */\n      mstore\n        /* \"#utility.yul\":19110:19183   */\n      tag_540\n        /* \"#utility.yul\":19178:19182   */\n      dup3\n        /* \"#utility.yul\":19164:19176   */\n      dup3\n        /* \"#utility.yul\":19110:19183   */\n      tag_320\n      jump\t// in\n    tag_540:\n        /* \"#utility.yul\":19102:19183   */\n      swap2\n      pop\n        /* \"#utility.yul\":18955:19194   */\n      pop\n        /* \"#utility.yul\":19284:19288   */\n      0xa0\n        /* \"#utility.yul\":19277:19282   */\n      dup4\n        /* \"#utility.yul\":19273:19289   */\n      add\n        /* \"#utility.yul\":19267:19290   */\n      mload\n        /* \"#utility.yul\":19303:19366   */\n      tag_541\n        /* \"#utility.yul\":19360:19364   */\n      0xa0\n        /* \"#utility.yul\":19355:19358   */\n      dup7\n        /* \"#utility.yul\":19351:19365   */\n      add\n        /* \"#utility.yul\":19337:19349   */\n      dup3\n        /* \"#utility.yul\":19303:19366   */\n      tag_315\n      jump\t// in\n    tag_541:\n        /* \"#utility.yul\":19204:19376   */\n      pop\n        /* \"#utility.yul\":19465:19469   */\n      0xc0\n        /* \"#utility.yul\":19458:19463   */\n      dup4\n        /* \"#utility.yul\":19454:19470   */\n      add\n        /* \"#utility.yul\":19448:19471   */\n      mload\n        /* \"#utility.yul\":19484:19547   */\n      tag_542\n        /* \"#utility.yul\":19541:19545   */\n      0xc0\n        /* \"#utility.yul\":19536:19539   */\n      dup7\n        /* \"#utility.yul\":19532:19546   */\n      add\n        /* \"#utility.yul\":19518:19530   */\n      dup3\n        /* \"#utility.yul\":19484:19547   */\n      tag_315\n      jump\t// in\n    tag_542:\n        /* \"#utility.yul\":19386:19557   */\n      pop\n        /* \"#utility.yul\":19641:19645   */\n      0xe0\n        /* \"#utility.yul\":19634:19639   */\n      dup4\n        /* \"#utility.yul\":19630:19646   */\n      add\n        /* \"#utility.yul\":19624:19647   */\n      mload\n        /* \"#utility.yul\":19660:19717   */\n      tag_543\n        /* \"#utility.yul\":19711:19715   */\n      0xe0\n        /* \"#utility.yul\":19706:19709   */\n      dup7\n        /* \"#utility.yul\":19702:19716   */\n      add\n        /* \"#utility.yul\":19688:19700   */\n      dup3\n        /* \"#utility.yul\":19660:19717   */\n      tag_325\n      jump\t// in\n    tag_543:\n        /* \"#utility.yul\":19567:19727   */\n      pop\n        /* \"#utility.yul\":19744:19748   */\n      dup1\n        /* \"#utility.yul\":19737:19748   */\n      swap2\n      pop\n        /* \"#utility.yul\":18068:19754   */\n      pop\n        /* \"#utility.yul\":17952:19754   */\n      swap3\n      swap2\n      pop\n      pop\n      jump\t// out\n        /* \"#utility.yul\":19760:20117   */\n    tag_63:\n        /* \"#utility.yul\":19895:19899   */\n      0x00\n        /* \"#utility.yul\":19933:19935   */\n      0x20\n        /* \"#utility.yul\":19922:19931   */\n      dup3\n        /* \"#utility.yul\":19918:19936   */\n      add\n        /* \"#utility.yul\":19910:19936   */\n      swap1\n      pop\n        /* \"#utility.yul\":19982:19991   */\n      dup2\n        /* \"#utility.yul\":19976:19980   */\n      dup2\n        /* \"#utility.yul\":19972:19992   */\n      sub\n        /* \"#utility.yul\":19968:19969   */\n      0x00\n        /* \"#utility.yul\":19957:19966   */\n      dup4\n        /* \"#utility.yul\":19953:19970   */\n      add\n        /* \"#utility.yul\":19946:19993   */\n      mstore\n        /* \"#utility.yul\":20010:20110   */\n      tag_545\n        /* \"#utility.yul\":20105:20109   */\n      dup2\n        /* \"#utility.yul\":20096:20102   */\n      dup5\n        /* \"#utility.yul\":20010:20110   */\n      tag_353\n      jump\t// in\n    tag_545:\n        /* \"#utility.yul\":20002:20110   */\n      swap1\n      pop\n        /* \"#utility.yul\":19760:20117   */\n      swap3\n      swap2\n      pop\n      pop\n      jump\t// out\n        /* \"#utility.yul\":20123:20303   */\n    tag_70:\n        /* \"#utility.yul\":20171:20248   */\n      0x4e487b7100000000000000000000000000000000000000000000000000000000\n        /* \"#utility.yul\":20168:20169   */\n      0x00\n        /* \"#utility.yul\":20161:20249   */\n      mstore\n        /* \"#utility.yul\":20268:20272   */\n      0x32\n        /* \"#utility.yul\":20265:20266   */\n      0x04\n        /* \"#utility.yul\":20258:20273   */\n      mstore\n        /* \"#utility.yul\":20292:20296   */\n      0x24\n        /* \"#utility.yul\":20289:20290   */\n      0x00\n        /* \"#utility.yul\":20282:20297   */\n      revert\n        /* \"#utility.yul\":20309:20489   */\n    tag_354:\n        /* \"#utility.yul\":20357:20434   */\n      0x4e487b7100000000000000000000000000000000000000000000000000000000\n        /* \"#utility.yul\":20354:20355   */\n      0x00\n        /* \"#utility.yul\":20347:20435   */\n      mstore\n        /* \"#utility.yul\":20454:20458   */\n      0x11\n        /* \"#utility.yul\":20451:20452   */\n      0x04\n        /* \"#utility.yul\":20444:20459   */\n      mstore\n        /* \"#utility.yul\":20478:20482   */\n      0x24\n        /* \"#utility.yul\":20475:20476   */\n      0x00\n        /* \"#utility.yul\":20468:20483   */\n      revert\n        /* \"#utility.yul\":20495:20728   */\n    tag_74:\n        /* \"#utility.yul\":20534:20537   */\n      0x00\n        /* \"#utility.yul\":20557:20581   */\n      tag_549\n        /* \"#utility.yul\":20575:20580   */\n      dup3\n        /* \"#utility.yul\":20557:20581   */\n      tag_314\n      jump\t// in\n    tag_549:\n        /* \"#utility.yul\":20548:20581   */\n      swap2\n      pop\n        /* \"#utility.yul\":20603:20669   */\n      0xffffffffffffffffffffffffffffffffffffffffffffffffffffffffffffffff\n        /* \"#utility.yul\":20596:20601   */\n      dup3\n        /* \"#utility.yul\":20593:20670   */\n      sub\n        /* \"#utility.yul\":20590:20693   */\n      tag_550\n      jumpi\n        /* \"#utility.yul\":20673:20691   */\n      tag_551\n      tag_354\n      jump\t// in\n    tag_551:\n        /* \"#utility.yul\":20590:20693   */\n    tag_550:\n        /* \"#utility.yul\":20720:20721   */\n      0x01\n        /* \"#utility.yul\":20713:20718   */\n      dup3\n        /* \"#utility.yul\":20709:20722   */\n      add\n        /* \"#utility.yul\":20702:20722   */\n      swap1\n      pop\n        /* \"#utility.yul\":20495:20728   */\n      swap2\n      swap1\n      pop\n      jump\t// out\n        /* \"#utility.yul\":20734:20914   */\n    tag_77:\n        /* \"#utility.yul\":20782:20859   */\n      0x4e487b7100000000000000000000000000000000000000000000000000000000\n        /* \"#utility.yul\":20779:20780   */\n      0x00\n        /* \"#utility.yul\":20772:20860   */\n      mstore\n        /* \"#utility.yul\":20879:20883   */\n      0x41\n        /* \"#utility.yul\":20876:20877   */\n      0x04\n        /* \"#utility.yul\":20869:20884   */\n      mstore\n        /* \"#utility.yul\":20903:20907   */\n      0x24\n        /* \"#utility.yul\":20900:20901   */\n      0x00\n        /* \"#utility.yul\":20893:20908   */\n      revert\n        /* \"#utility.yul\":20920:21100   */\n    tag_355:\n        /* \"#utility.yul\":20968:21045   */\n      0x4e487b7100000000000000000000000000000000000000000000000000000000\n        /* \"#utility.yul\":20965:20966   */\n      0x00\n        /* \"#utility.yul\":20958:21046   */\n      mstore\n        /* \"#utility.yul\":21065:21069   */\n      0x22\n        /* \"#utility.yul\":21062:21063   */\n      0x04\n        /* \"#utility.yul\":21055:21070   */\n      mstore\n        /* \"#utility.yul\":21089:21093   */\n      0x24\n        /* \"#utility.yul\":21086:21087   */\n      0x00\n        /* \"#utility.yul\":21079:21094   */\n      revert\n        /* \"#utility.yul\":21106:21426   */\n    tag_93:\n        /* \"#utility.yul\":21150:21156   */\n      0x00\n        /* \"#utility.yul\":21187:21188   */\n      0x02\n        /* \"#utility.yul\":21181:21185   */\n      dup3\n        /* \"#utility.yul\":21177:21189   */\n      div\n        /* \"#utility.yul\":21167:21189   */\n      swap1\n      pop\n        /* \"#utility.yul\":21234:21235   */\n      0x01\n        /* \"#utility.yul\":21228:21232   */\n      dup3\n        /* \"#utility.yul\":21224:21236   */\n      and\n        /* \"#utility.yul\":21255:21273   */\n      dup1\n        /* \"#utility.yul\":21245:21326   */\n      tag_555\n      jumpi\n        /* \"#utility.yul\":21311:21315   */\n      0x7f\n        /* \"#utility.yul\":21303:21309   */\n      dup3\n        /* \"#utility.yul\":21299:21316   */\n      and\n        /* \"#utility.yul\":21289:21316   */\n      swap2\n      pop\n        /* \"#utility.yul\":21245:21326   */\n    tag_555:\n        /* \"#utility.yul\":21373:21375   */\n      0x20\n        /* \"#utility.yul\":21365:21371   */\n      dup3\n        /* \"#utility.yul\":21362:21376   */\n      lt\n        /* \"#utility.yul\":21342:21360   */\n      dup2\n        /* \"#utility.yul\":21339:21377   */\n      sub\n        /* \"#utility.yul\":21336:21420   */\n      tag_556\n      jumpi\n        /* \"#utility.yul\":21392:21410   */\n      tag_557\n      tag_355\n      jump\t// in\n    tag_557:\n        /* \"#utility.yul\":21336:21420   */\n    tag_556:\n        /* \"#utility.yul\":21157:21426   */\n      pop\n        /* \"#utility.yul\":21106:21426   */\n      swap2\n      swap1\n      pop\n      jump\t// out\n        /* \"#utility.yul\":21432:21602   */\n    tag_356:\n        /* \"#utility.yul\":21572:21594   */\n      0x696e76616c696420686f73742061646472657373000000000000000000000000\n        /* \"#utility.yul\":21568:21569   */\n      0x00\n        /* \"#utility.yul\":21560:21566   */\n      dup3\n        /* \"#utility.yul\":21556:21570   */\n      add\n        /* \"#utility.yul\":21549:21595   */\n      mstore\n        /* \"#utility.yul\":21432:21602   */\n      pop\n      jump\t// out\n        /* \"#utility.yul\":21608:21974   */\n    tag_357:\n        /* \"#utility.yul\":21750:21753   */\n      0x00\n        /* \"#utility.yul\":21771:21838   */\n      tag_560\n        /* \"#utility.yul\":21835:21837   */\n      0x14\n        /* \"#utility.yul\":21830:21833   */\n      dup4\n        /* \"#utility.yul\":21771:21838   */\n      tag_349\n      jump\t// in\n    tag_560:\n        /* \"#utility.yul\":21764:21838   */\n      swap2\n      pop\n        /* \"#utility.yul\":21847:21940   */\n      tag_561\n        /* \"#utility.yul\":21936:21939   */\n      dup3\n        /* \"#utility.yul\":21847:21940   */\n      tag_356\n      jump\t// in\n    tag_561:\n        /* \"#utility.yul\":21965:21967   */\n      0x20\n        /* \"#utility.yul\":21960:21963   */\n      dup3\n        /* \"#utility.yul\":21956:21968   */\n      add\n        /* \"#utility.yul\":21949:21968   */\n      swap1\n      pop\n        /* \"#utility.yul\":21608:21974   */\n      swap2\n      swap1\n      pop\n      jump\t// out\n        /* \"#utility.yul\":21980:22399   */\n    tag_114:\n        /* \"#utility.yul\":22146:22150   */\n      0x00\n        /* \"#utility.yul\":22184:22186   */\n      0x20\n        /* \"#utility.yul\":22173:22182   */\n      dup3\n        /* \"#utility.yul\":22169:22187   */\n      add\n        /* \"#utility.yul\":22161:22187   */\n      swap1\n      pop\n        /* \"#utility.yul\":22233:22242   */\n      dup2\n        /* \"#utility.yul\":22227:22231   */\n      dup2\n        /* \"#utility.yul\":22223:22243   */\n      sub\n        /* \"#utility.yul\":22219:22220   */\n      0x00\n        /* \"#utility.yul\":22208:22217   */\n      dup4\n        /* \"#utility.yul\":22204:22221   */\n      add\n        /* \"#utility.yul\":22197:22244   */\n      mstore\n        /* \"#utility.yul\":22261:22392   */\n      tag_563\n        /* \"#utility.yul\":22387:22391   */\n      dup2\n        /* \"#utility.yul\":22261:22392   */\n      tag_357\n      jump\t// in\n    tag_563:\n        /* \"#utility.yul\":22253:22392   */\n      swap1\n      pop\n        /* \"#utility.yul\":21980:22399   */\n      swap2\n      swap1\n      pop\n      jump\t// out\n        /* \"#utility.yul\":22405:22697   */\n    tag_358:\n        /* \"#utility.yul\":22545:22579   */\n      0x536f7272792c20736f6d656f6e65206973206372656174696e67207468652062\n        /* \"#utility.yul\":22541:22542   */\n      0x00\n        /* \"#utility.yul\":22533:22539   */\n      dup3\n        /* \"#utility.yul\":22529:22543   */\n      add\n        /* \"#utility.yul\":22522:22580   */\n      mstore\n        /* \"#utility.yul\":22614:22648   */\n      0x6f6172642e20506c65617320776169742061206d696e75746520616e64207265\n        /* \"#utility.yul\":22609:22611   */\n      0x20\n        /* \"#utility.yul\":22601:22607   */\n      dup3\n        /* \"#utility.yul\":22597:22612   */\n      add\n        /* \"#utility.yul\":22590:22649   */\n      mstore\n        /* \"#utility.yul\":22683:22689   */\n      0x7065617400000000000000000000000000000000000000000000000000000000\n        /* \"#utility.yul\":22678:22680   */\n      0x40\n        /* \"#utility.yul\":22670:22676   */\n      dup3\n        /* \"#utility.yul\":22666:22681   */\n      add\n        /* \"#utility.yul\":22659:22690   */\n      mstore\n        /* \"#utility.yul\":22405:22697   */\n      pop\n      jump\t// out\n        /* \"#utility.yul\":22703:23069   */\n    tag_359:\n        /* \"#utility.yul\":22845:22848   */\n      0x00\n        /* \"#utility.yul\":22866:22933   */\n      tag_566\n        /* \"#utility.yul\":22930:22932   */\n      0x44\n        /* \"#utility.yul\":22925:22928   */\n      dup4\n        /* \"#utility.yul\":22866:22933   */\n      tag_349\n      jump\t// in\n    tag_566:\n        /* \"#utility.yul\":22859:22933   */\n      swap2\n      pop\n        /* \"#utility.yul\":22942:23035   */\n      tag_567\n        /* \"#utility.yul\":23031:23034   */\n      dup3\n        /* \"#utility.yul\":22942:23035   */\n      tag_358\n      jump\t// in\n    tag_567:\n        /* \"#utility.yul\":23060:23062   */\n      0x60\n        /* \"#utility.yul\":23055:23058   */\n      dup3\n        /* \"#utility.yul\":23051:23063   */\n      add\n        /* \"#utility.yul\":23044:23063   */\n      swap1\n      pop\n        /* \"#utility.yul\":22703:23069   */\n      swap2\n      swap1\n      pop\n      jump\t// out\n        /* \"#utility.yul\":23075:23494   */\n    tag_117:\n        /* \"#utility.yul\":23241:23245   */\n      0x00\n        /* \"#utility.yul\":23279:23281   */\n      0x20\n        /* \"#utility.yul\":23268:23277   */\n      dup3\n        /* \"#utility.yul\":23264:23282   */\n      add\n        /* \"#utility.yul\":23256:23282   */\n      swap1\n      pop\n        /* \"#utility.yul\":23328:23337   */\n      dup2\n        /* \"#utility.yul\":23322:23326   */\n      dup2\n        /* \"#utility.yul\":23318:23338   */\n      sub\n        /* \"#utility.yul\":23314:23315   */\n      0x00\n        /* \"#utility.yul\":23303:23312   */\n      dup4\n        /* \"#utility.yul\":23299:23316   */\n      add\n        /* \"#utility.yul\":23292:23339   */\n      mstore\n        /* \"#utility.yul\":23356:23487   */\n      tag_569\n        /* \"#utility.yul\":23482:23486   */\n      dup2\n        /* \"#utility.yul\":23356:23487   */\n      tag_359\n      jump\t// in\n    tag_569:\n        /* \"#utility.yul\":23348:23487   */\n      swap1\n      pop\n        /* \"#utility.yul\":23075:23494   */\n      swap2\n      swap1\n      pop\n      jump\t// out\n        /* \"#utility.yul\":23500:23641   */\n    tag_360:\n        /* \"#utility.yul\":23549:23553   */\n      0x00\n        /* \"#utility.yul\":23572:23575   */\n      dup2\n        /* \"#utility.yul\":23564:23575   */\n      swap1\n      pop\n        /* \"#utility.yul\":23595:23598   */\n      dup2\n        /* \"#utility.yul\":23592:23593   */\n      0x00\n        /* \"#utility.yul\":23585:23599   */\n      mstore\n        /* \"#utility.yul\":23629:23633   */\n      0x20\n        /* \"#utility.yul\":23626:23627   */\n      0x00\n        /* \"#utility.yul\":23616:23634   */\n      keccak256\n        /* \"#utility.yul\":23608:23634   */\n      swap1\n      pop\n        /* \"#utility.yul\":23500:23641   */\n      swap2\n      swap1\n      pop\n      jump\t// out\n        /* \"#utility.yul\":23647:23740   */\n    tag_361:\n        /* \"#utility.yul\":23684:23690   */\n      0x00\n        /* \"#utility.yul\":23731:23733   */\n      0x20\n        /* \"#utility.yul\":23726:23728   */\n      0x1f\n        /* \"#utility.yul\":23719:23724   */\n      dup4\n        /* \"#utility.yul\":23715:23729   */\n      add\n        /* \"#utility.yul\":23711:23734   */\n      div\n        /* \"#utility.yul\":23701:23734   */\n      swap1\n      pop\n        /* \"#utility.yul\":23647:23740   */\n      swap2\n      swap1\n      pop\n      jump\t// out\n        /* \"#utility.yul\":23746:23853   */\n    tag_362:\n        /* \"#utility.yul\":23790:23798   */\n      0x00\n        /* \"#utility.yul\":23840:23845   */\n      dup3\n        /* \"#utility.yul\":23834:23838   */\n      dup3\n        /* \"#utility.yul\":23830:23846   */\n      shl\n        /* \"#utility.yul\":23809:23846   */\n      swap1\n      pop\n        /* \"#utility.yul\":23746:23853   */\n      swap3\n      swap2\n      pop\n      pop\n      jump\t// out\n        /* \"#utility.yul\":23859:24252   */\n    tag_363:\n        /* \"#utility.yul\":23928:23934   */\n      0x00\n        /* \"#utility.yul\":23978:23979   */\n      0x08\n        /* \"#utility.yul\":23966:23976   */\n      dup4\n        /* \"#utility.yul\":23962:23980   */\n      mul\n        /* \"#utility.yul\":24001:24098   */\n      tag_574\n        /* \"#utility.yul\":24031:24097   */\n      0xffffffffffffffffffffffffffffffffffffffffffffffffffffffffffffffff\n        /* \"#utility.yul\":24020:24029   */\n      dup3\n        /* \"#utility.yul\":24001:24098   */\n      tag_362\n      jump\t// in\n    tag_574:\n        /* \"#utility.yul\":24119:24158   */\n      tag_575\n        /* \"#utility.yul\":24149:24157   */\n      dup7\n        /* \"#utility.yul\":24138:24147   */\n      dup4\n        /* \"#utility.yul\":24119:24158   */\n      tag_362\n      jump\t// in\n    tag_575:\n        /* \"#utility.yul\":24107:24158   */\n      swap6\n      pop\n        /* \"#utility.yul\":24191:24195   */\n      dup1\n        /* \"#utility.yul\":24187:24196   */\n      not\n        /* \"#utility.yul\":24180:24185   */\n      dup5\n        /* \"#utility.yul\":24176:24197   */\n      and\n        /* \"#utility.yul\":24167:24197   */\n      swap4\n      pop\n        /* \"#utility.yul\":24240:24244   */\n      dup1\n        /* \"#utility.yul\":24230:24238   */\n      dup7\n        /* \"#utility.yul\":24226:24245   */\n      and\n        /* \"#utility.yul\":24219:24224   */\n      dup5\n        /* \"#utility.yul\":24216:24246   */\n      or\n        /* \"#utility.yul\":24206:24246   */\n      swap3\n      pop\n        /* \"#utility.yul\":23935:24252   */\n      pop\n      pop\n        /* \"#utility.yul\":23859:24252   */\n      swap4\n      swap3\n      pop\n      pop\n      pop\n      jump\t// out\n        /* \"#utility.yul\":24258:24318   */\n    tag_364:\n        /* \"#utility.yul\":24286:24289   */\n      0x00\n        /* \"#utility.yul\":24307:24312   */\n      dup2\n        /* \"#utility.yul\":24300:24312   */\n      swap1\n      pop\n        /* \"#utility.yul\":24258:24318   */\n      swap2\n      swap1\n      pop\n      jump\t// out\n        /* \"#utility.yul\":24324:24466   */\n    tag_365:\n        /* \"#utility.yul\":24374:24383   */\n      0x00\n        /* \"#utility.yul\":24407:24460   */\n      tag_578\n        /* \"#utility.yul\":24425:24459   */\n      tag_579\n        /* \"#utility.yul\":24434:24458   */\n      tag_580\n        /* \"#utility.yul\":24452:24457   */\n      dup5\n        /* \"#utility.yul\":24434:24458   */\n      tag_314\n      jump\t// in\n    tag_580:\n        /* \"#utility.yul\":24425:24459   */\n      tag_364\n      jump\t// in\n    tag_579:\n        /* \"#utility.yul\":24407:24460   */\n      tag_314\n      jump\t// in\n    tag_578:\n        /* \"#utility.yul\":24394:24460   */\n      swap1\n      pop\n        /* \"#utility.yul\":24324:24466   */\n      swap2\n      swap1\n      pop\n      jump\t// out\n        /* \"#utility.yul\":24472:24547   */\n    tag_366:\n        /* \"#utility.yul\":24515:24518   */\n      0x00\n        /* \"#utility.yul\":24536:24541   */\n      dup2\n        /* \"#utility.yul\":24529:24541   */\n      swap1\n      pop\n        /* \"#utility.yul\":24472:24547   */\n      swap2\n      swap1\n      pop\n      jump\t// out\n        /* \"#utility.yul\":24553:24822   */\n    tag_367:\n        /* \"#utility.yul\":24663:24702   */\n      tag_583\n        /* \"#utility.yul\":24694:24701   */\n      dup4\n        /* \"#utility.yul\":24663:24702   */\n      tag_365\n      jump\t// in\n    tag_583:\n        /* \"#utility.yul\":24724:24815   */\n      tag_584\n        /* \"#utility.yul\":24773:24814   */\n      tag_585\n        /* \"#utility.yul\":24797:24813   */\n      dup3\n        /* \"#utility.yul\":24773:24814   */\n      tag_366\n      jump\t// in\n    tag_585:\n        /* \"#utility.yul\":24765:24771   */\n      dup5\n        /* \"#utility.yul\":24758:24762   */\n      dup5\n        /* \"#utility.yul\":24752:24763   */\n      sload\n        /* \"#utility.yul\":24724:24815   */\n      tag_363\n      jump\t// in\n    tag_584:\n        /* \"#utility.yul\":24718:24722   */\n      dup3\n        /* \"#utility.yul\":24711:24816   */\n      sstore\n        /* \"#utility.yul\":24629:24822   */\n      pop\n        /* \"#utility.yul\":24553:24822   */\n      pop\n      pop\n      pop\n      jump\t// out\n        /* \"#utility.yul\":24828:24901   */\n    tag_368:\n        /* \"#utility.yul\":24873:24876   */\n      0x00\n        /* \"#utility.yul\":24828:24901   */\n      swap1\n      jump\t// out\n        /* \"#utility.yul\":24907:25096   */\n    tag_369:\n        /* \"#utility.yul\":24984:25016   */\n      tag_588\n      tag_368\n      jump\t// in\n    tag_588:\n        /* \"#utility.yul\":25025:25090   */\n      tag_589\n        /* \"#utility.yul\":25083:25089   */\n      dup2\n        /* \"#utility.yul\":25075:25081   */\n      dup5\n        /* \"#utility.yul\":25069:25073   */\n      dup5\n        /* \"#utility.yul\":25025:25090   */\n      tag_367\n      jump\t// in\n    tag_589:\n        /* \"#utility.yul\":24960:25096   */\n      pop\n        /* \"#utility.yul\":24907:25096   */\n      pop\n      pop\n      jump\t// out\n        /* \"#utility.yul\":25102:25288   */\n    tag_370:\n        /* \"#utility.yul\":25162:25282   */\n    tag_591:\n        /* \"#utility.yul\":25179:25182   */\n      dup2\n        /* \"#utility.yul\":25172:25177   */\n      dup2\n        /* \"#utility.yul\":25169:25183   */\n      lt\n        /* \"#utility.yul\":25162:25282   */\n      iszero\n      tag_593\n      jumpi\n        /* \"#utility.yul\":25233:25272   */\n      tag_594\n        /* \"#utility.yul\":25270:25271   */\n      0x00\n        /* \"#utility.yul\":25263:25268   */\n      dup3\n        /* \"#utility.yul\":25233:25272   */\n      tag_369\n      jump\t// in\n    tag_594:\n        /* \"#utility.yul\":25206:25207   */\n      0x01\n        /* \"#utility.yul\":25199:25204   */\n      dup2\n        /* \"#utility.yul\":25195:25208   */\n      add\n        /* \"#utility.yul\":25186:25208   */\n      swap1\n      pop\n        /* \"#utility.yul\":25162:25282   */\n      jump(tag_591)\n    tag_593:\n        /* \"#utility.yul\":25102:25288   */\n      pop\n      pop\n      jump\t// out\n        /* \"#utility.yul\":25294:25837   */\n    tag_371:\n        /* \"#utility.yul\":25395:25397   */\n      0x1f\n        /* \"#utility.yul\":25390:25393   */\n      dup3\n        /* \"#utility.yul\":25387:25398   */\n      gt\n        /* \"#utility.yul\":25384:25830   */\n      iszero\n      tag_596\n      jumpi\n        /* \"#utility.yul\":25429:25467   */\n      tag_597\n        /* \"#utility.yul\":25461:25466   */\n      dup2\n        /* \"#utility.yul\":25429:25467   */\n      tag_360\n      jump\t// in\n    tag_597:\n        /* \"#utility.yul\":25513:25542   */\n      tag_598\n        /* \"#utility.yul\":25531:25541   */\n      dup5\n        /* \"#utility.yul\":25513:25542   */\n      tag_361\n      jump\t// in\n    tag_598:\n        /* \"#utility.yul\":25503:25511   */\n      dup2\n        /* \"#utility.yul\":25499:25543   */\n      add\n        /* \"#utility.yul\":25696:25698   */\n      0x20\n        /* \"#utility.yul\":25684:25694   */\n      dup6\n        /* \"#utility.yul\":25681:25699   */\n      lt\n        /* \"#utility.yul\":25678:25727   */\n      iszero\n      tag_599\n      jumpi\n        /* \"#utility.yul\":25717:25725   */\n      dup2\n        /* \"#utility.yul\":25702:25725   */\n      swap1\n      pop\n        /* \"#utility.yul\":25678:25727   */\n    tag_599:\n        /* \"#utility.yul\":25740:25820   */\n      tag_600\n        /* \"#utility.yul\":25796:25818   */\n      tag_601\n        /* \"#utility.yul\":25814:25817   */\n      dup6\n        /* \"#utility.yul\":25796:25818   */\n      tag_361\n      jump\t// in\n    tag_601:\n        /* \"#utility.yul\":25786:25794   */\n      dup4\n        /* \"#utility.yul\":25782:25819   */\n      add\n        /* \"#utility.yul\":25769:25780   */\n      dup3\n        /* \"#utility.yul\":25740:25820   */\n      tag_370\n      jump\t// in\n    tag_600:\n        /* \"#utility.yul\":25399:25830   */\n      pop\n      pop\n        /* \"#utility.yul\":25384:25830   */\n    tag_596:\n        /* \"#utility.yul\":25294:25837   */\n      pop\n      pop\n      pop\n      jump\t// out\n        /* \"#utility.yul\":25843:25960   */\n    tag_372:\n        /* \"#utility.yul\":25897:25905   */\n      0x00\n        /* \"#utility.yul\":25947:25952   */\n      dup3\n        /* \"#utility.yul\":25941:25945   */\n      dup3\n        /* \"#utility.yul\":25937:25953   */\n      shr\n        /* \"#utility.yul\":25916:25953   */\n      swap1\n      pop\n        /* \"#utility.yul\":25843:25960   */\n      swap3\n      swap2\n      pop\n      pop\n      jump\t// out\n        /* \"#utility.yul\":25966:26135   */\n    tag_373:\n        /* \"#utility.yul\":26010:26016   */\n      0x00\n        /* \"#utility.yul\":26043:26094   */\n      tag_604\n        /* \"#utility.yul\":26091:26092   */\n      0x00\n        /* \"#utility.yul\":26087:26093   */\n      not\n        /* \"#utility.yul\":26079:26084   */\n      dup5\n        /* \"#utility.yul\":26076:26077   */\n      0x08\n        /* \"#utility.yul\":26072:26085   */\n      mul\n        /* \"#utility.yul\":26043:26094   */\n      tag_372\n      jump\t// in\n    tag_604:\n        /* \"#utility.yul\":26039:26095   */\n      not\n        /* \"#utility.yul\":26124:26128   */\n      dup1\n        /* \"#utility.yul\":26118:26122   */\n      dup4\n        /* \"#utility.yul\":26114:26129   */\n      and\n        /* \"#utility.yul\":26104:26129   */\n      swap2\n      pop\n        /* \"#utility.yul\":26017:26135   */\n      pop\n        /* \"#utility.yul\":25966:26135   */\n      swap3\n      swap2\n      pop\n      pop\n      jump\t// out\n        /* \"#utility.yul\":26140:26435   */\n    tag_374:\n        /* \"#utility.yul\":26216:26220   */\n      0x00\n        /* \"#utility.yul\":26362:26391   */\n      tag_606\n        /* \"#utility.yul\":26387:26390   */\n      dup4\n        /* \"#utility.yul\":26381:26385   */\n      dup4\n        /* \"#utility.yul\":26362:26391   */\n      tag_373\n      jump\t// in\n    tag_606:\n        /* \"#utility.yul\":26354:26391   */\n      swap2\n      pop\n        /* \"#utility.yul\":26424:26427   */\n      dup3\n        /* \"#utility.yul\":26421:26422   */\n      0x02\n        /* \"#utility.yul\":26417:26428   */\n      mul\n        /* \"#utility.yul\":26411:26415   */\n      dup3\n        /* \"#utility.yul\":26408:26429   */\n      or\n        /* \"#utility.yul\":26400:26429   */\n      swap1\n      pop\n        /* \"#utility.yul\":26140:26435   */\n      swap3\n      swap2\n      pop\n      pop\n      jump\t// out\n        /* \"#utility.yul\":26440:27835   */\n    tag_121:\n        /* \"#utility.yul\":26557:26594   */\n      tag_608\n        /* \"#utility.yul\":26590:26593   */\n      dup3\n        /* \"#utility.yul\":26557:26594   */\n      tag_316\n      jump\t// in\n    tag_608:\n        /* \"#utility.yul\":26659:26677   */\n      0xffffffffffffffff\n        /* \"#utility.yul\":26651:26657   */\n      dup2\n        /* \"#utility.yul\":26648:26678   */\n      gt\n        /* \"#utility.yul\":26645:26701   */\n      iszero\n      tag_609\n      jumpi\n        /* \"#utility.yul\":26681:26699   */\n      tag_610\n      tag_77\n      jump\t// in\n    tag_610:\n        /* \"#utility.yul\":26645:26701   */\n    tag_609:\n        /* \"#utility.yul\":26725:26763   */\n      tag_611\n        /* \"#utility.yul\":26757:26761   */\n      dup3\n        /* \"#utility.yul\":26751:26762   */\n      sload\n        /* \"#utility.yul\":26725:26763   */\n      tag_93\n      jump\t// in\n    tag_611:\n        /* \"#utility.yul\":26810:26877   */\n      tag_612\n        /* \"#utility.yul\":26870:26876   */\n      dup3\n        /* \"#utility.yul\":26862:26868   */\n      dup3\n        /* \"#utility.yul\":26856:26860   */\n      dup6\n        /* \"#utility.yul\":26810:26877   */\n      tag_371\n      jump\t// in\n    tag_612:\n        /* \"#utility.yul\":26904:26905   */\n      0x00\n        /* \"#utility.yul\":26928:26932   */\n      0x20\n        /* \"#utility.yul\":26915:26932   */\n      swap1\n      pop\n        /* \"#utility.yul\":26960:26962   */\n      0x1f\n        /* \"#utility.yul\":26952:26958   */\n      dup4\n        /* \"#utility.yul\":26949:26963   */\n      gt\n        /* \"#utility.yul\":26977:26978   */\n      0x01\n        /* \"#utility.yul\":26972:27590   */\n      dup2\n      eq\n      tag_614\n      jumpi\n        /* \"#utility.yul\":27634:27635   */\n      0x00\n        /* \"#utility.yul\":27651:27657   */\n      dup5\n        /* \"#utility.yul\":27648:27725   */\n      iszero\n      tag_615\n      jumpi\n        /* \"#utility.yul\":27700:27709   */\n      dup3\n        /* \"#utility.yul\":27695:27698   */\n      dup8\n        /* \"#utility.yul\":27691:27710   */\n      add\n        /* \"#utility.yul\":27685:27711   */\n      mload\n        /* \"#utility.yul\":27676:27711   */\n      swap1\n      pop\n        /* \"#utility.yul\":27648:27725   */\n    tag_615:\n        /* \"#utility.yul\":27751:27818   */\n      tag_616\n        /* \"#utility.yul\":27811:27817   */\n      dup6\n        /* \"#utility.yul\":27804:27809   */\n      dup3\n        /* \"#utility.yul\":27751:27818   */\n      tag_374\n      jump\t// in\n    tag_616:\n        /* \"#utility.yul\":27745:27749   */\n      dup7\n        /* \"#utility.yul\":27738:27819   */\n      sstore\n        /* \"#utility.yul\":27607:27829   */\n      pop\n        /* \"#utility.yul\":26942:27829   */\n      jump(tag_613)\n        /* \"#utility.yul\":26972:27590   */\n    tag_614:\n        /* \"#utility.yul\":27024:27028   */\n      0x1f\n        /* \"#utility.yul\":27020:27029   */\n      not\n        /* \"#utility.yul\":27012:27018   */\n      dup5\n        /* \"#utility.yul\":27008:27030   */\n      and\n        /* \"#utility.yul\":27058:27095   */\n      tag_617\n        /* \"#utility.yul\":27090:27094   */\n      dup7\n        /* \"#utility.yul\":27058:27095   */\n      tag_360\n      jump\t// in\n    tag_617:\n        /* \"#utility.yul\":27117:27118   */\n      0x00\n        /* \"#utility.yul\":27131:27339   */\n    tag_618:\n        /* \"#utility.yul\":27145:27152   */\n      dup3\n        /* \"#utility.yul\":27142:27143   */\n      dup2\n        /* \"#utility.yul\":27139:27153   */\n      lt\n        /* \"#utility.yul\":27131:27339   */\n      iszero\n      tag_620\n      jumpi\n        /* \"#utility.yul\":27224:27233   */\n      dup5\n        /* \"#utility.yul\":27219:27222   */\n      dup10\n        /* \"#utility.yul\":27215:27234   */\n      add\n        /* \"#utility.yul\":27209:27235   */\n      mload\n        /* \"#utility.yul\":27201:27207   */\n      dup3\n        /* \"#utility.yul\":27194:27236   */\n      sstore\n        /* \"#utility.yul\":27275:27276   */\n      0x01\n        /* \"#utility.yul\":27267:27273   */\n      dup3\n        /* \"#utility.yul\":27263:27277   */\n      add\n        /* \"#utility.yul\":27253:27277   */\n      swap2\n      pop\n        /* \"#utility.yul\":27322:27324   */\n      0x20\n        /* \"#utility.yul\":27311:27320   */\n      dup6\n        /* \"#utility.yul\":27307:27325   */\n      add\n        /* \"#utility.yul\":27294:27325   */\n      swap5\n      pop\n        /* \"#utility.yul\":27168:27172   */\n      0x20\n        /* \"#utility.yul\":27165:27166   */\n      dup2\n        /* \"#utility.yul\":27161:27173   */\n      add\n        /* \"#utility.yul\":27156:27173   */\n      swap1\n      pop\n        /* \"#utility.yul\":27131:27339   */\n      jump(tag_618)\n    tag_620:\n        /* \"#utility.yul\":27367:27373   */\n      dup7\n        /* \"#utility.yul\":27358:27365   */\n      dup4\n        /* \"#utility.yul\":27355:27374   */\n      lt\n        /* \"#utility.yul\":27352:27531   */\n      iszero\n      tag_621\n      jumpi\n        /* \"#utility.yul\":27425:27434   */\n      dup5\n        /* \"#utility.yul\":27420:27423   */\n      dup10\n        /* \"#utility.yul\":27416:27435   */\n      add\n        /* \"#utility.yul\":27410:27436   */\n      mload\n        /* \"#utility.yul\":27468:27516   */\n      tag_622\n        /* \"#utility.yul\":27510:27514   */\n      0x1f\n        /* \"#utility.yul\":27502:27508   */\n      dup10\n        /* \"#utility.yul\":27498:27515   */\n      and\n        /* \"#utility.yul\":27487:27496   */\n      dup3\n        /* \"#utility.yul\":27468:27516   */\n      tag_373\n      jump\t// in\n    tag_622:\n        /* \"#utility.yul\":27460:27466   */\n      dup4\n        /* \"#utility.yul\":27453:27517   */\n      sstore\n        /* \"#utility.yul\":27375:27531   */\n      pop\n        /* \"#utility.yul\":27352:27531   */\n    tag_621:\n        /* \"#utility.yul\":27577:27578   */\n      0x01\n        /* \"#utility.yul\":27573:27574   */\n      0x02\n        /* \"#utility.yul\":27565:27571   */\n      dup9\n        /* \"#utility.yul\":27561:27575   */\n      mul\n        /* \"#utility.yul\":27557:27579   */\n      add\n        /* \"#utility.yul\":27551:27555   */\n      dup9\n        /* \"#utility.yul\":27544:27580   */\n      sstore\n        /* \"#utility.yul\":26979:27590   */\n      pop\n      pop\n      pop\n        /* \"#utility.yul\":26942:27829   */\n    tag_613:\n      pop\n        /* \"#utility.yul\":26532:27835   */\n      pop\n      pop\n      pop\n        /* \"#utility.yul\":26440:27835   */\n      pop\n      pop\n      jump\t// out\n        /* \"#utility.yul\":27841:28006   */\n    tag_375:\n        /* \"#utility.yul\":27981:27998   */\n      0x696e76616c696420616464726573730000000000000000000000000000000000\n        /* \"#utility.yul\":27977:27978   */\n      0x00\n        /* \"#utility.yul\":27969:27975   */\n      dup3\n        /* \"#utility.yul\":27965:27979   */\n      add\n        /* \"#utility.yul\":27958:27999   */\n      mstore\n        /* \"#utility.yul\":27841:28006   */\n      pop\n      jump\t// out\n        /* \"#utility.yul\":28012:28378   */\n    tag_376:\n        /* \"#utility.yul\":28154:28157   */\n      0x00\n        /* \"#utility.yul\":28175:28242   */\n      tag_625\n        /* \"#utility.yul\":28239:28241   */\n      0x0f\n        /* \"#utility.yul\":28234:28237   */\n      dup4\n        /* \"#utility.yul\":28175:28242   */\n      tag_349\n      jump\t// in\n    tag_625:\n        /* \"#utility.yul\":28168:28242   */\n      swap2\n      pop\n        /* \"#utility.yul\":28251:28344   */\n      tag_626\n        /* \"#utility.yul\":28340:28343   */\n      dup3\n        /* \"#utility.yul\":28251:28344   */\n      tag_375\n      jump\t// in\n    tag_626:\n        /* \"#utility.yul\":28369:28371   */\n      0x20\n        /* \"#utility.yul\":28364:28367   */\n      dup3\n        /* \"#utility.yul\":28360:28372   */\n      add\n        /* \"#utility.yul\":28353:28372   */\n      swap1\n      pop\n        /* \"#utility.yul\":28012:28378   */\n      swap2\n      swap1\n      pop\n      jump\t// out\n        /* \"#utility.yul\":28384:28803   */\n    tag_169:\n        /* \"#utility.yul\":28550:28554   */\n      0x00\n        /* \"#utility.yul\":28588:28590   */\n      0x20\n        /* \"#utility.yul\":28577:28586   */\n      dup3\n        /* \"#utility.yul\":28573:28591   */\n      add\n        /* \"#utility.yul\":28565:28591   */\n      swap1\n      pop\n        /* \"#utility.yul\":28637:28646   */\n      dup2\n        /* \"#utility.yul\":28631:28635   */\n      dup2\n        /* \"#utility.yul\":28627:28647   */\n      sub\n        /* \"#utility.yul\":28623:28624   */\n      0x00\n        /* \"#utility.yul\":28612:28621   */\n      dup4\n        /* \"#utility.yul\":28608:28625   */\n      add\n        /* \"#utility.yul\":28601:28648   */\n      mstore\n        /* \"#utility.yul\":28665:28796   */\n      tag_628\n        /* \"#utility.yul\":28791:28795   */\n      dup2\n        /* \"#utility.yul\":28665:28796   */\n      tag_376\n      jump\t// in\n    tag_628:\n        /* \"#utility.yul\":28657:28796   */\n      swap1\n      pop\n        /* \"#utility.yul\":28384:28803   */\n      swap2\n      swap1\n      pop\n      jump\t// out\n        /* \"#utility.yul\":28809:29000   */\n    tag_274:\n        /* \"#utility.yul\":28849:28852   */\n      0x00\n        /* \"#utility.yul\":28868:28888   */\n      tag_630\n        /* \"#utility.yul\":28886:28887   */\n      dup3\n        /* \"#utility.yul\":28868:28888   */\n      tag_314\n      jump\t// in\n    tag_630:\n        /* \"#utility.yul\":28863:28888   */\n      swap2\n      pop\n        /* \"#utility.yul\":28902:28922   */\n      tag_631\n        /* \"#utility.yul\":28920:28921   */\n      dup4\n        /* \"#utility.yul\":28902:28922   */\n      tag_314\n      jump\t// in\n    tag_631:\n        /* \"#utility.yul\":28897:28922   */\n      swap3\n      pop\n        /* \"#utility.yul\":28945:28946   */\n      dup3\n        /* \"#utility.yul\":28942:28943   */\n      dup3\n        /* \"#utility.yul\":28938:28947   */\n      add\n        /* \"#utility.yul\":28931:28947   */\n      swap1\n      pop\n        /* \"#utility.yul\":28966:28969   */\n      dup1\n        /* \"#utility.yul\":28963:28964   */\n      dup3\n        /* \"#utility.yul\":28960:28970   */\n      gt\n        /* \"#utility.yul\":28957:28993   */\n      iszero\n      tag_632\n      jumpi\n        /* \"#utility.yul\":28973:28991   */\n      tag_633\n      tag_354\n      jump\t// in\n    tag_633:\n        /* \"#utility.yul\":28957:28993   */\n    tag_632:\n        /* \"#utility.yul\":28809:29000   */\n      swap3\n      swap2\n      pop\n      pop\n      jump\t// out\n        /* \"#utility.yul\":29006:29178   */\n    tag_377:\n        /* \"#utility.yul\":29146:29170   */\n      0x5468697320626f61726420686173206578706972656400000000000000000000\n        /* \"#utility.yul\":29142:29143   */\n      0x00\n        /* \"#utility.yul\":29134:29140   */\n      dup3\n        /* \"#utility.yul\":29130:29144   */\n      add\n        /* \"#utility.yul\":29123:29171   */\n      mstore\n        /* \"#utility.yul\":29006:29178   */\n      pop\n      jump\t// out\n        /* \"#utility.yul\":29184:29550   */\n    tag_378:\n        /* \"#utility.yul\":29326:29329   */\n      0x00\n        /* \"#utility.yul\":29347:29414   */\n      tag_636\n        /* \"#utility.yul\":29411:29413   */\n      0x16\n        /* \"#utility.yul\":29406:29409   */\n      dup4\n        /* \"#utility.yul\":29347:29414   */\n      tag_349\n      jump\t// in\n    tag_636:\n        /* \"#utility.yul\":29340:29414   */\n      swap2\n      pop\n        /* \"#utility.yul\":29423:29516   */\n      tag_637\n        /* \"#utility.yul\":29512:29515   */\n      dup3\n        /* \"#utility.yul\":29423:29516   */\n      tag_377\n      jump\t// in\n    tag_637:\n        /* \"#utility.yul\":29541:29543   */\n      0x20\n        /* \"#utility.yul\":29536:29539   */\n      dup3\n        /* \"#utility.yul\":29532:29544   */\n      add\n        /* \"#utility.yul\":29525:29544   */\n      swap1\n      pop\n        /* \"#utility.yul\":29184:29550   */\n      swap2\n      swap1\n      pop\n      jump\t// out\n        /* \"#utility.yul\":29556:29975   */\n    tag_292:\n        /* \"#utility.yul\":29722:29726   */\n      0x00\n        /* \"#utility.yul\":29760:29762   */\n      0x20\n        /* \"#utility.yul\":29749:29758   */\n      dup3\n        /* \"#utility.yul\":29745:29763   */\n      add\n        /* \"#utility.yul\":29737:29763   */\n      swap1\n      pop\n        /* \"#utility.yul\":29809:29818   */\n      dup2\n        /* \"#utility.yul\":29803:29807   */\n      dup2\n        /* \"#utility.yul\":29799:29819   */\n      sub\n        /* \"#utility.yul\":29795:29796   */\n      0x00\n        /* \"#utility.yul\":29784:29793   */\n      dup4\n        /* \"#utility.yul\":29780:29797   */\n      add\n        /* \"#utility.yul\":29773:29820   */\n      mstore\n        /* \"#utility.yul\":29837:29968   */\n      tag_639\n        /* \"#utility.yul\":29963:29967   */\n      dup2\n        /* \"#utility.yul\":29837:29968   */\n      tag_378\n      jump\t// in\n    tag_639:\n        /* \"#utility.yul\":29829:29968   */\n      swap1\n      pop\n        /* \"#utility.yul\":29556:29975   */\n      swap2\n      swap1\n      pop\n      jump\t// out\n\n    auxdata: 0xa264697066735822122094c9db42a50a4b0d35c3083c94d0c9b4034dfb6b2bf722b73dbb21caa4b22c2664736f6c63430008180033\n}\n",
				"bytecode": {
					"linkReferences": {},
					"object": "608060405234801561000f575f80fd5b505f6001819055505f805f6101000a81548160ff021916908315150217905550612a0f8061003c5f395ff3fe608060405234801561000f575f80fd5b50600436106100a7575f3560e01c80639a7083f91161006f5780639a7083f914610151578063a572077014610188578063ac467355146101a6578063ac62f566146101d6578063c985e77314610209578063d1fb28bb14610225576100a7565b80630f0e609c146100ab5780632277c26f146100c95780633276be61146100e7578063334576d9146101035780635488d56b14610121575b5f80fd5b6100b3610255565b6040516100c09190611dfd565b60405180910390f35b6100d1610601565b6040516100de9190611e2c565b60405180910390f35b61010160048036038101906100fc9190611f02565b610607565b005b61010b610921565b6040516101189190611dfd565b60405180910390f35b61013b60048036038101906101369190611fd9565b610ccf565b604051610148919061211f565b60405180910390f35b61016b6004803603810190610166919061213f565b611028565b60405161017f9897969594939291906121d0565b60405180910390f35b610190611238565b60405161019d9190612261565b60405180910390f35b6101c060048036038101906101bb919061213f565b611248565b6040516101cd919061211f565b60405180910390f35b6101f060048036038101906101eb919061213f565b61149b565b604051610200949392919061227a565b60405180910390f35b610223600480360381019061021e91906122c4565b61157b565b005b61023f600480360381019061023a919061213f565b611812565b60405161024c9190612403565b60405180910390f35b60605f805f90505b6003805490508110156102b8576003818154811061027e5761027d612423565b5b905f5260205f2090600802016007015f9054906101000a900460ff166102ab57816102a89061247d565b91505b808060010191505061025d565b505f8167ffffffffffffffff8111156102d4576102d36124c4565b5b60405190808252806020026020018201604052801561030d57816020015b6102fa611af9565b8152602001906001900390816102f25790505b5090505f805f90505b6003805490508110156105f7576003818154811061033757610336612423565b5b905f5260205f2090600802016007015f9054906101000a900460ff166105ea576003818154811061036b5761036a612423565b5b905f5260205f209060080201604051806101000160405290815f820154815260200160018201805461039c9061251e565b80601f01602080910402602001604051908101604052809291908181526020018280546103c89061251e565b80156104135780601f106103ea57610100808354040283529160200191610413565b820191905f5260205f20905b8154815290600101906020018083116103f657829003601f168201915b5050505050815260200160028201805461042c9061251e565b80601f01602080910402602001604051908101604052809291908181526020018280546104589061251e565b80156104a35780601f1061047a576101008083540402835291602001916104a3565b820191905f5260205f20905b81548152906001019060200180831161048657829003601f168201915b50505050508152602001600382015f9054906101000a900473ffffffffffffffffffffffffffffffffffffffff1673ffffffffffffffffffffffffffffffffffffffff1673ffffffffffffffffffffffffffffffffffffffff1681526020016004820180546105119061251e565b80601f016020809104026020016040519081016040528092919081815260200182805461053d9061251e565b80156105885780601f1061055f57610100808354040283529160200191610588565b820191905f5260205f20905b81548152906001019060200180831161056b57829003601f168201915b505050505081526020016005820154815260200160068201548152602001600782015f9054906101000a900460ff1615151515815250508383806105cb9061247d565b9450815181106105de576105dd612423565b5b60200260200101819052505b8080600101915050610316565b5081935050505090565b60015481565b5f73ffffffffffffffffffffffffffffffffffffffff168673ffffffffffffffffffffffffffffffffffffffff1603610675576040517f08c379a000000000000000000000000000000000000000000000000000000000815260040161066c90612598565b60405180910390fd5b5f8054906101000a900460ff16156106c2576040517f08c379a00000000000000000000000000000000000000000000000000000000081526004016106b99061264c565b60405180910390fd5b60015f806101000a81548160ff0219169083151502179055505f604051806101000160405280600154815260200187878080601f0160208091040260200160405190810160405280939291908181526020018383808284375f81840152601f19601f82011690508083019250505050505050815260200185858080601f0160208091040260200160405190810160405280939291908181526020018383808284375f81840152601f19601f8201169050808301925050505050505081526020018873ffffffffffffffffffffffffffffffffffffffff1681526020018a8a8080601f0160208091040260200160405190810160405280939291908181526020018383808284375f81840152601f19601f8201169050808301925050505050505081526020018381526020015f81526020015f1515815250905060015f81546108099061247d565b91905081905550600381908060018154018082558091505060019003905f5260205f2090600802015f909190919091505f820151815f015560208201518160010190816108569190612807565b50604082015181600201908161086c9190612807565b506060820151816003015f6101000a81548173ffffffffffffffffffffffffffffffffffffffff021916908373ffffffffffffffffffffffffffffffffffffffff16021790555060808201518160040190816108c89190612807565b5060a0820151816005015560c0820151816006015560e0820151816007015f6101000a81548160ff02191690831515021790555050505f805f6101000a81548160ff021916908315150217905550505050505050505050565b60605f805f90505b600380549050811015610985576003818154811061094a57610949612423565b5b905f5260205f2090600802016007015f9054906101000a900460ff161561097857816109759061247d565b91505b8080600101915050610929565b505f8167ffffffffffffffff8111156109a1576109a06124c4565b5b6040519080825280602002602001820160405280156109da57816020015b6109c7611af9565b8152602001906001900390816109bf5790505b5090505f805f90505b600380549050811015610cc55760038181548110610a0457610a03612423565b5b905f5260205f2090600802016007015f9054906101000a900460ff1615610cb85760038181548110610a3957610a38612423565b5b905f5260205f209060080201604051806101000160405290815f8201548152602001600182018054610a6a9061251e565b80601f0160208091040260200160405190810160405280929190818152602001828054610a969061251e565b8015610ae15780601f10610ab857610100808354040283529160200191610ae1565b820191905f5260205f20905b815481529060010190602001808311610ac457829003601f168201915b50505050508152602001600282018054610afa9061251e565b80601f0160208091040260200160405190810160405280929190818152602001828054610b269061251e565b8015610b715780601f10610b4857610100808354040283529160200191610b71565b820191905f5260205f20905b815481529060010190602001808311610b5457829003601f168201915b50505050508152602001600382015f9054906101000a900473ffffffffffffffffffffffffffffffffffffffff1673ffffffffffffffffffffffffffffffffffffffff1673ffffffffffffffffffffffffffffffffffffffff168152602001600482018054610bdf9061251e565b80601f0160208091040260200160405190810160405280929190818152602001828054610c0b9061251e565b8015610c565780601f10610c2d57610100808354040283529160200191610c56565b820191905f5260205f20905b815481529060010190602001808311610c3957829003601f168201915b505050505081526020016005820154815260200160068201548152602001600782015f9054906101000a900460ff161515151581525050838380610c999061247d565b945081518110610cac57610cab612423565b5b60200260200101819052505b80806001019150506109e3565b5081935050505090565b60605f73ffffffffffffffffffffffffffffffffffffffff168273ffffffffffffffffffffffffffffffffffffffff1603610d3f576040517f08c379a0000000000000000000000000000000000000000000000000000000008152600401610d3690612920565b60405180910390fd5b5f805f90505b600280549050811015610de1578373ffffffffffffffffffffffffffffffffffffffff1660028281548110610d7d57610d7c612423565b5b905f5260205f2090600402016002015f9054906101000a900473ffffffffffffffffffffffffffffffffffffffff1673ffffffffffffffffffffffffffffffffffffffff1603610dd45781610dd19061247d565b91505b8080600101915050610d45565b505f8167ffffffffffffffff811115610dfd57610dfc6124c4565b5b604051908082528060200260200182016040528015610e3657816020015b610e23611b51565b815260200190600190039081610e1b5790505b5090505f805f90505b60028054905081101561101c578573ffffffffffffffffffffffffffffffffffffffff1660028281548110610e7757610e76612423565b5b905f5260205f2090600402016002015f9054906101000a900473ffffffffffffffffffffffffffffffffffffffff1673ffffffffffffffffffffffffffffffffffffffff160361100f5760028181548110610ed557610ed4612423565b5b905f5260205f2090600402016040518060800160405290815f8201548152602001600182018054610f059061251e565b80601f0160208091040260200160405190810160405280929190818152602001828054610f319061251e565b8015610f7c5780601f10610f5357610100808354040283529160200191610f7c565b820191905f5260205f20905b815481529060010190602001808311610f5f57829003601f168201915b50505050508152602001600282015f9054906101000a900473ffffffffffffffffffffffffffffffffffffffff1673ffffffffffffffffffffffffffffffffffffffff1673ffffffffffffffffffffffffffffffffffffffff168152602001600382015481525050838380610ff09061247d565b94508151811061100357611002612423565b5b60200260200101819052505b8080600101915050610e3f565b50819350505050919050565b60038181548110611037575f80fd5b905f5260205f2090600802015f91509050805f01549080600101805461105c9061251e565b80601f01602080910402602001604051908101604052809291908181526020018280546110889061251e565b80156110d35780601f106110aa576101008083540402835291602001916110d3565b820191905f5260205f20905b8154815290600101906020018083116110b657829003601f168201915b5050505050908060020180546110e89061251e565b80601f01602080910402602001604051908101604052809291908181526020018280546111149061251e565b801561115f5780601f106111365761010080835404028352916020019161115f565b820191905f5260205f20905b81548152906001019060200180831161114257829003601f168201915b505050505090806003015f9054906101000a900473ffffffffffffffffffffffffffffffffffffffff16908060040180546111999061251e565b80601f01602080910402602001604051908101604052809291908181526020018280546111c59061251e565b80156112105780601f106111e757610100808354040283529160200191611210565b820191905f5260205f20905b8154815290600101906020018083116111f357829003601f168201915b505050505090806005015490806006015490806007015f9054906101000a900460ff16905088565b5f8054906101000a900460ff1681565b60605f805f90505b6002805490508110156112a057836002828154811061127257611271612423565b5b905f5260205f2090600402015f01540361129357816112909061247d565b91505b8080600101915050611250565b505f8167ffffffffffffffff8111156112bc576112bb6124c4565b5b6040519080825280602002602001820160405280156112f557816020015b6112e2611b51565b8152602001906001900390816112da5790505b5090505f805f90505b60028054905081101561148f5785600282815481106113205761131f612423565b5b905f5260205f2090600402015f015403611482576002818154811061134857611347612423565b5b905f5260205f2090600402016040518060800160405290815f82015481526020016001820180546113789061251e565b80601f01602080910402602001604051908101604052809291908181526020018280546113a49061251e565b80156113ef5780601f106113c6576101008083540402835291602001916113ef565b820191905f5260205f20905b8154815290600101906020018083116113d257829003601f168201915b50505050508152602001600282015f9054906101000a900473ffffffffffffffffffffffffffffffffffffffff1673ffffffffffffffffffffffffffffffffffffffff1673ffffffffffffffffffffffffffffffffffffffff1681526020016003820154815250508383806114639061247d565b94508151811061147657611475612423565b5b60200260200101819052505b80806001019150506112fe565b50819350505050919050565b600281815481106114aa575f80fd5b905f5260205f2090600402015f91509050805f0154908060010180546114cf9061251e565b80601f01602080910402602001604051908101604052809291908181526020018280546114fb9061251e565b80156115465780601f1061151d57610100808354040283529160200191611546565b820191905f5260205f20905b81548152906001019060200180831161152957829003601f168201915b505050505090806002015f9054906101000a900473ffffffffffffffffffffffffffffffffffffffff16908060030154905084565b5f73ffffffffffffffffffffffffffffffffffffffff168273ffffffffffffffffffffffffffffffffffffffff16036115e9576040517f08c379a00000000000000000000000000000000000000000000000000000000081526004016115e090612920565b60405180910390fd5b5f604051806080016040528087815260200186868080601f0160208091040260200160405190810160405280939291908181526020018383808284375f81840152601f19601f8201169050808301925050505050505081526020018473ffffffffffffffffffffffffffffffffffffffff168152602001838152509050600281908060018154018082558091505060019003905f5260205f2090600402015f909190919091505f820151815f015560208201518160010190816116ac9190612807565b506040820151816002015f6101000a81548173ffffffffffffffffffffffffffffffffffffffff021916908373ffffffffffffffffffffffffffffffffffffffff1602179055506060820151816003015550505f5b60038054905081101561180957866003828154811061172357611722612423565b5b905f5260205f2090600802015f0154036117fe57826003828154811061174c5761174b612423565b5b905f5260205f2090600802016006015f828254611769919061293e565b925050819055506003818154811061178457611783612423565b5b905f5260205f20906008020160050154600382815481106117a8576117a7612423565b5b905f5260205f20906008020160060154106117f9576001600382815481106117d3576117d2612423565b5b905f5260205f2090600802016007015f6101000a81548160ff0219169083151502179055505b611809565b806001019050611701565b50505050505050565b61181a611af9565b6003828154811061182e5761182d612423565b5b905f5260205f2090600802016007015f9054906101000a900460ff161561188a576040517f08c379a0000000000000000000000000000000000000000000000000000000008152600401611881906129bb565b60405180910390fd5b6003828154811061189e5761189d612423565b5b905f5260205f209060080201604051806101000160405290815f82015481526020016001820180546118cf9061251e565b80601f01602080910402602001604051908101604052809291908181526020018280546118fb9061251e565b80156119465780601f1061191d57610100808354040283529160200191611946565b820191905f5260205f20905b81548152906001019060200180831161192957829003601f168201915b5050505050815260200160028201805461195f9061251e565b80601f016020809104026020016040519081016040528092919081815260200182805461198b9061251e565b80156119d65780601f106119ad576101008083540402835291602001916119d6565b820191905f5260205f20905b8154815290600101906020018083116119b957829003601f168201915b50505050508152602001600382015f9054906101000a900473ffffffffffffffffffffffffffffffffffffffff1673ffffffffffffffffffffffffffffffffffffffff1673ffffffffffffffffffffffffffffffffffffffff168152602001600482018054611a449061251e565b80601f0160208091040260200160405190810160405280929190818152602001828054611a709061251e565b8015611abb5780601f10611a9257610100808354040283529160200191611abb565b820191905f5260205f20905b815481529060010190602001808311611a9e57829003601f168201915b505050505081526020016005820154815260200160068201548152602001600782015f9054906101000a900460ff1615151515815250509050919050565b6040518061010001604052805f815260200160608152602001606081526020015f73ffffffffffffffffffffffffffffffffffffffff168152602001606081526020015f81526020015f81526020015f151581525090565b60405180608001604052805f8152602001606081526020015f73ffffffffffffffffffffffffffffffffffffffff1681526020015f81525090565b5f81519050919050565b5f82825260208201905092915050565b5f819050602082019050919050565b5f819050919050565b611bc781611bb5565b82525050565b5f81519050919050565b5f82825260208201905092915050565b5f5b83811015611c04578082015181840152602081019050611be9565b5f8484015250505050565b5f601f19601f8301169050919050565b5f611c2982611bcd565b611c338185611bd7565b9350611c43818560208601611be7565b611c4c81611c0f565b840191505092915050565b5f73ffffffffffffffffffffffffffffffffffffffff82169050919050565b5f611c8082611c57565b9050919050565b611c9081611c76565b82525050565b5f8115159050919050565b611caa81611c96565b82525050565b5f61010083015f830151611cc65f860182611bbe565b5060208301518482036020860152611cde8282611c1f565b91505060408301518482036040860152611cf88282611c1f565b9150506060830151611d0d6060860182611c87565b5060808301518482036080860152611d258282611c1f565b91505060a0830151611d3a60a0860182611bbe565b5060c0830151611d4d60c0860182611bbe565b5060e0830151611d6060e0860182611ca1565b508091505092915050565b5f611d768383611cb0565b905092915050565b5f602082019050919050565b5f611d9482611b8c565b611d9e8185611b96565b935083602082028501611db085611ba6565b805f5b85811015611deb5784840389528151611dcc8582611d6b565b9450611dd783611d7e565b925060208a01995050600181019050611db3565b50829750879550505050505092915050565b5f6020820190508181035f830152611e158184611d8a565b905092915050565b611e2681611bb5565b82525050565b5f602082019050611e3f5f830184611e1d565b92915050565b5f80fd5b5f80fd5b5f80fd5b5f80fd5b5f80fd5b5f8083601f840112611e6e57611e6d611e4d565b5b8235905067ffffffffffffffff811115611e8b57611e8a611e51565b5b602083019150836001820283011115611ea757611ea6611e55565b5b9250929050565b611eb781611c76565b8114611ec1575f80fd5b50565b5f81359050611ed281611eae565b92915050565b611ee181611bb5565b8114611eeb575f80fd5b50565b5f81359050611efc81611ed8565b92915050565b5f805f805f805f8060a0898b031215611f1e57611f1d611e45565b5b5f89013567ffffffffffffffff811115611f3b57611f3a611e49565b5b611f478b828c01611e59565b98509850506020611f5a8b828c01611ec4565b965050604089013567ffffffffffffffff811115611f7b57611f7a611e49565b5b611f878b828c01611e59565b9550955050606089013567ffffffffffffffff811115611faa57611fa9611e49565b5b611fb68b828c01611e59565b93509350506080611fc98b828c01611eee565b9150509295985092959890939650565b5f60208284031215611fee57611fed611e45565b5b5f611ffb84828501611ec4565b91505092915050565b5f81519050919050565b5f82825260208201905092915050565b5f819050602082019050919050565b5f608083015f8301516120425f860182611bbe565b506020830151848203602086015261205a8282611c1f565b915050604083015161206f6040860182611c87565b5060608301516120826060860182611bbe565b508091505092915050565b5f612098838361202d565b905092915050565b5f602082019050919050565b5f6120b682612004565b6120c0818561200e565b9350836020820285016120d28561201e565b805f5b8581101561210d57848403895281516120ee858261208d565b94506120f9836120a0565b925060208a019950506001810190506120d5565b50829750879550505050505092915050565b5f6020820190508181035f83015261213781846120ac565b905092915050565b5f6020828403121561215457612153611e45565b5b5f61216184828501611eee565b91505092915050565b5f82825260208201905092915050565b5f61218482611bcd565b61218e818561216a565b935061219e818560208601611be7565b6121a781611c0f565b840191505092915050565b6121bb81611c76565b82525050565b6121ca81611c96565b82525050565b5f610100820190506121e45f83018b611e1d565b81810360208301526121f6818a61217a565b9050818103604083015261220a818961217a565b905061221960608301886121b2565b818103608083015261222b818761217a565b905061223a60a0830186611e1d565b61224760c0830185611e1d565b61225460e08301846121c1565b9998505050505050505050565b5f6020820190506122745f8301846121c1565b92915050565b5f60808201905061228d5f830187611e1d565b818103602083015261229f818661217a565b90506122ae60408301856121b2565b6122bb6060830184611e1d565b95945050505050565b5f805f805f608086880312156122dd576122dc611e45565b5b5f6122ea88828901611eee565b955050602086013567ffffffffffffffff81111561230b5761230a611e49565b5b61231788828901611e59565b9450945050604061232a88828901611ec4565b925050606061233b88828901611eee565b9150509295509295909350565b5f61010083015f83015161235e5f860182611bbe565b50602083015184820360208601526123768282611c1f565b915050604083015184820360408601526123908282611c1f565b91505060608301516123a56060860182611c87565b50608083015184820360808601526123bd8282611c1f565b91505060a08301516123d260a0860182611bbe565b5060c08301516123e560c0860182611bbe565b5060e08301516123f860e0860182611ca1565b508091505092915050565b5f6020820190508181035f83015261241b8184612348565b905092915050565b7f4e487b71000000000000000000000000000000000000000000000000000000005f52603260045260245ffd5b7f4e487b71000000000000000000000000000000000000000000000000000000005f52601160045260245ffd5b5f61248782611bb5565b91507fffffffffffffffffffffffffffffffffffffffffffffffffffffffffffffffff82036124b9576124b8612450565b5b600182019050919050565b7f4e487b71000000000000000000000000000000000000000000000000000000005f52604160045260245ffd5b7f4e487b71000000000000000000000000000000000000000000000000000000005f52602260045260245ffd5b5f600282049050600182168061253557607f821691505b602082108103612548576125476124f1565b5b50919050565b7f696e76616c696420686f737420616464726573730000000000000000000000005f82015250565b5f61258260148361216a565b915061258d8261254e565b602082019050919050565b5f6020820190508181035f8301526125af81612576565b9050919050565b7f536f7272792c20736f6d656f6e65206973206372656174696e672074686520625f8201527f6f6172642e20506c65617320776169742061206d696e75746520616e6420726560208201527f7065617400000000000000000000000000000000000000000000000000000000604082015250565b5f61263660448361216a565b9150612641826125b6565b606082019050919050565b5f6020820190508181035f8301526126638161262a565b9050919050565b5f819050815f5260205f209050919050565b5f6020601f8301049050919050565b5f82821b905092915050565b5f600883026126c67fffffffffffffffffffffffffffffffffffffffffffffffffffffffffffffffff8261268b565b6126d0868361268b565b95508019841693508086168417925050509392505050565b5f819050919050565b5f61270b61270661270184611bb5565b6126e8565b611bb5565b9050919050565b5f819050919050565b612724836126f1565b61273861273082612712565b848454612697565b825550505050565b5f90565b61274c612740565b61275781848461271b565b505050565b5b8181101561277a5761276f5f82612744565b60018101905061275d565b5050565b601f8211156127bf576127908161266a565b6127998461267c565b810160208510156127a8578190505b6127bc6127b48561267c565b83018261275c565b50505b505050565b5f82821c905092915050565b5f6127df5f19846008026127c4565b1980831691505092915050565b5f6127f783836127d0565b9150826002028217905092915050565b61281082611bcd565b67ffffffffffffffff811115612829576128286124c4565b5b612833825461251e565b61283e82828561277e565b5f60209050601f83116001811461286f575f841561285d578287015190505b61286785826127ec565b8655506128ce565b601f19841661287d8661266a565b5f5b828110156128a45784890151825560018201915060208501945060208101905061287f565b868310156128c157848901516128bd601f8916826127d0565b8355505b6001600288020188555050505b505050505050565b7f696e76616c6964206164647265737300000000000000000000000000000000005f82015250565b5f61290a600f8361216a565b9150612915826128d6565b602082019050919050565b5f6020820190508181035f830152612937816128fe565b9050919050565b5f61294882611bb5565b915061295383611bb5565b925082820190508082111561296b5761296a612450565b5b92915050565b7f5468697320626f617264206861732065787069726564000000000000000000005f82015250565b5f6129a560168361216a565b91506129b082612971565b602082019050919050565b5f6020820190508181035f8301526129d281612999565b905091905056fea264697066735822122094c9db42a50a4b0d35c3083c94d0c9b4034dfb6b2bf722b73dbb21caa4b22c2664736f6c63430008180033",
					"opcodes": "PUSH1 0x80 PUSH1 0x40 MSTORE CALLVALUE DUP1 ISZERO PUSH2 0xF JUMPI PUSH0 DUP1 REVERT JUMPDEST POP PUSH0 PUSH1 0x1 DUP2 SWAP1 SSTORE POP PUSH0 DUP1 PUSH0 PUSH2 0x100 EXP DUP2 SLOAD DUP2 PUSH1 0xFF MUL NOT AND SWAP1 DUP4 ISZERO ISZERO MUL OR SWAP1 SSTORE POP PUSH2 0x2A0F DUP1 PUSH2 0x3C PUSH0 CODECOPY PUSH0 RETURN INVALID PUSH1 0x80 PUSH1 0x40 MSTORE CALLVALUE DUP1 ISZERO PUSH2 0xF JUMPI PUSH0 DUP1 REVERT JUMPDEST POP PUSH1 0x4 CALLDATASIZE LT PUSH2 0xA7 JUMPI PUSH0 CALLDATALOAD PUSH1 0xE0 SHR DUP1 PUSH4 0x9A7083F9 GT PUSH2 0x6F JUMPI DUP1 PUSH4 0x9A7083F9 EQ PUSH2 0x151 JUMPI DUP1 PUSH4 0xA5720770 EQ PUSH2 0x188 JUMPI DUP1 PUSH4 0xAC467355 EQ PUSH2 0x1A6 JUMPI DUP1 PUSH4 0xAC62F566 EQ PUSH2 0x1D6 JUMPI DUP1 PUSH4 0xC985E773 EQ PUSH2 0x209 JUMPI DUP1 PUSH4 0xD1FB28BB EQ PUSH2 0x225 JUMPI PUSH2 0xA7 JUMP JUMPDEST DUP1 PUSH4 0xF0E609C EQ PUSH2 0xAB JUMPI DUP1 PUSH4 0x2277C26F EQ PUSH2 0xC9 JUMPI DUP1 PUSH4 0x3276BE61 EQ PUSH2 0xE7 JUMPI DUP1 PUSH4 0x334576D9 EQ PUSH2 0x103 JUMPI DUP1 PUSH4 0x5488D56B EQ PUSH2 0x121 JUMPI JUMPDEST PUSH0 DUP1 REVERT JUMPDEST PUSH2 0xB3 PUSH2 0x255 JUMP JUMPDEST PUSH1 0x40 MLOAD PUSH2 0xC0 SWAP2 SWAP1 PUSH2 0x1DFD JUMP JUMPDEST PUSH1 0x40 MLOAD DUP1 SWAP2 SUB SWAP1 RETURN JUMPDEST PUSH2 0xD1 PUSH2 0x601 JUMP JUMPDEST PUSH1 0x40 MLOAD PUSH2 0xDE SWAP2 SWAP1 PUSH2 0x1E2C JUMP JUMPDEST PUSH1 0x40 MLOAD DUP1 SWAP2 SUB SWAP1 RETURN JUMPDEST PUSH2 0x101 PUSH1 0x4 DUP1 CALLDATASIZE SUB DUP2 ADD SWAP1 PUSH2 0xFC SWAP2 SWAP1 PUSH2 0x1F02 JUMP JUMPDEST PUSH2 0x607 JUMP JUMPDEST STOP JUMPDEST PUSH2 0x10B PUSH2 0x921 JUMP JUMPDEST PUSH1 0x40 MLOAD PUSH2 0x118 SWAP2 SWAP1 PUSH2 0x1DFD JUMP JUMPDEST PUSH1 0x40 MLOAD DUP1 SWAP2 SUB SWAP1 RETURN JUMPDEST PUSH2 0x13B PUSH1 0x4 DUP1 CALLDATASIZE SUB DUP2 ADD SWAP1 PUSH2 0x136 SWAP2 SWAP1 PUSH2 0x1FD9 JUMP JUMPDEST PUSH2 0xCCF JUMP JUMPDEST PUSH1 0x40 MLOAD PUSH2 0x148 SWAP2 SWAP1 PUSH2 0x211F JUMP JUMPDEST PUSH1 0x40 MLOAD DUP1 SWAP2 SUB SWAP1 RETURN JUMPDEST PUSH2 0x16B PUSH1 0x4 DUP1 CALLDATASIZE SUB DUP2 ADD SWAP1 PUSH2 0x166 SWAP2 SWAP1 PUSH2 0x213F JUMP JUMPDEST PUSH2 0x1028 JUMP JUMPDEST PUSH1 0x40 MLOAD PUSH2 0x17F SWAP9 SWAP8 SWAP7 SWAP6 SWAP5 SWAP4 SWAP3 SWAP2 SWAP1 PUSH2 0x21D0 JUMP JUMPDEST PUSH1 0x40 MLOAD DUP1 SWAP2 SUB SWAP1 RETURN JUMPDEST PUSH2 0x190 PUSH2 0x1238 JUMP JUMPDEST PUSH1 0x40 MLOAD PUSH2 0x19D SWAP2 SWAP1 PUSH2 0x2261 JUMP JUMPDEST PUSH1 0x40 MLOAD DUP1 SWAP2 SUB SWAP1 RETURN JUMPDEST PUSH2 0x1C0 PUSH1 0x4 DUP1 CALLDATASIZE SUB DUP2 ADD SWAP1 PUSH2 0x1BB SWAP2 SWAP1 PUSH2 0x213F JUMP JUMPDEST PUSH2 0x1248 JUMP JUMPDEST PUSH1 0x40 MLOAD PUSH2 0x1CD SWAP2 SWAP1 PUSH2 0x211F JUMP JUMPDEST PUSH1 0x40 MLOAD DUP1 SWAP2 SUB SWAP1 RETURN JUMPDEST PUSH2 0x1F0 PUSH1 0x4 DUP1 CALLDATASIZE SUB DUP2 ADD SWAP1 PUSH2 0x1EB SWAP2 SWAP1 PUSH2 0x213F JUMP JUMPDEST PUSH2 0x149B JUMP JUMPDEST PUSH1 0x40 MLOAD PUSH2 0x200 SWAP5 SWAP4 SWAP3 SWAP2 SWAP1 PUSH2 0x227A JUMP JUMPDEST PUSH1 0x40 MLOAD DUP1 SWAP2 SUB SWAP1 RETURN JUMPDEST PUSH2 0x223 PUSH1 0x4 DUP1 CALLDATASIZE SUB DUP2 ADD SWAP1 PUSH2 0x21E SWAP2 SWAP1 PUSH2 0x22C4 JUMP JUMPDEST PUSH2 0x157B JUMP JUMPDEST STOP JUMPDEST PUSH2 0x23F PUSH1 0x4 DUP1 CALLDATASIZE SUB DUP2 ADD SWAP1 PUSH2 0x23A SWAP2 SWAP1 PUSH2 0x213F JUMP JUMPDEST PUSH2 0x1812 JUMP JUMPDEST PUSH1 0x40 MLOAD PUSH2 0x24C SWAP2 SWAP1 PUSH2 0x2403 JUMP JUMPDEST PUSH1 0x40 MLOAD DUP1 SWAP2 SUB SWAP1 RETURN JUMPDEST PUSH1 0x60 PUSH0 DUP1 PUSH0 SWAP1 POP JUMPDEST PUSH1 0x3 DUP1 SLOAD SWAP1 POP DUP2 LT ISZERO PUSH2 0x2B8 JUMPI PUSH1 0x3 DUP2 DUP2 SLOAD DUP2 LT PUSH2 0x27E JUMPI PUSH2 0x27D PUSH2 0x2423 JUMP JUMPDEST JUMPDEST SWAP1 PUSH0 MSTORE PUSH1 0x20 PUSH0 KECCAK256 SWAP1 PUSH1 0x8 MUL ADD PUSH1 0x7 ADD PUSH0 SWAP1 SLOAD SWAP1 PUSH2 0x100 EXP SWAP1 DIV PUSH1 0xFF AND PUSH2 0x2AB JUMPI DUP2 PUSH2 0x2A8 SWAP1 PUSH2 0x247D JUMP JUMPDEST SWAP2 POP JUMPDEST DUP1 DUP1 PUSH1 0x1 ADD SWAP2 POP POP PUSH2 0x25D JUMP JUMPDEST POP PUSH0 DUP2 PUSH8 0xFFFFFFFFFFFFFFFF DUP2 GT ISZERO PUSH2 0x2D4 JUMPI PUSH2 0x2D3 PUSH2 0x24C4 JUMP JUMPDEST JUMPDEST PUSH1 0x40 MLOAD SWAP1 DUP1 DUP3 MSTORE DUP1 PUSH1 0x20 MUL PUSH1 0x20 ADD DUP3 ADD PUSH1 0x40 MSTORE DUP1 ISZERO PUSH2 0x30D JUMPI DUP2 PUSH1 0x20 ADD JUMPDEST PUSH2 0x2FA PUSH2 0x1AF9 JUMP JUMPDEST DUP2 MSTORE PUSH1 0x20 ADD SWAP1 PUSH1 0x1 SWAP1 SUB SWAP1 DUP2 PUSH2 0x2F2 JUMPI SWAP1 POP JUMPDEST POP SWAP1 POP PUSH0 DUP1 PUSH0 SWAP1 POP JUMPDEST PUSH1 0x3 DUP1 SLOAD SWAP1 POP DUP2 LT ISZERO PUSH2 0x5F7 JUMPI PUSH1 0x3 DUP2 DUP2 SLOAD DUP2 LT PUSH2 0x337 JUMPI PUSH2 0x336 PUSH2 0x2423 JUMP JUMPDEST JUMPDEST SWAP1 PUSH0 MSTORE PUSH1 0x20 PUSH0 KECCAK256 SWAP1 PUSH1 0x8 MUL ADD PUSH1 0x7 ADD PUSH0 SWAP1 SLOAD SWAP1 PUSH2 0x100 EXP SWAP1 DIV PUSH1 0xFF AND PUSH2 0x5EA JUMPI PUSH1 0x3 DUP2 DUP2 SLOAD DUP2 LT PUSH2 0x36B JUMPI PUSH2 0x36A PUSH2 0x2423 JUMP JUMPDEST JUMPDEST SWAP1 PUSH0 MSTORE PUSH1 0x20 PUSH0 KECCAK256 SWAP1 PUSH1 0x8 MUL ADD PUSH1 0x40 MLOAD DUP1 PUSH2 0x100 ADD PUSH1 0x40 MSTORE SWAP1 DUP2 PUSH0 DUP3 ADD SLOAD DUP2 MSTORE PUSH1 0x20 ADD PUSH1 0x1 DUP3 ADD DUP1 SLOAD PUSH2 0x39C SWAP1 PUSH2 0x251E JUMP JUMPDEST DUP1 PUSH1 0x1F ADD PUSH1 0x20 DUP1 SWAP2 DIV MUL PUSH1 0x20 ADD PUSH1 0x40 MLOAD SWAP1 DUP2 ADD PUSH1 0x40 MSTORE DUP1 SWAP3 SWAP2 SWAP1 DUP2 DUP2 MSTORE PUSH1 0x20 ADD DUP3 DUP1 SLOAD PUSH2 0x3C8 SWAP1 PUSH2 0x251E JUMP JUMPDEST DUP1 ISZERO PUSH2 0x413 JUMPI DUP1 PUSH1 0x1F LT PUSH2 0x3EA JUMPI PUSH2 0x100 DUP1 DUP4 SLOAD DIV MUL DUP4 MSTORE SWAP2 PUSH1 0x20 ADD SWAP2 PUSH2 0x413 JUMP JUMPDEST DUP3 ADD SWAP2 SWAP1 PUSH0 MSTORE PUSH1 0x20 PUSH0 KECCAK256 SWAP1 JUMPDEST DUP2 SLOAD DUP2 MSTORE SWAP1 PUSH1 0x1 ADD SWAP1 PUSH1 0x20 ADD DUP1 DUP4 GT PUSH2 0x3F6 JUMPI DUP3 SWAP1 SUB PUSH1 0x1F AND DUP3 ADD SWAP2 JUMPDEST POP POP POP POP POP DUP2 MSTORE PUSH1 0x20 ADD PUSH1 0x2 DUP3 ADD DUP1 SLOAD PUSH2 0x42C SWAP1 PUSH2 0x251E JUMP JUMPDEST DUP1 PUSH1 0x1F ADD PUSH1 0x20 DUP1 SWAP2 DIV MUL PUSH1 0x20 ADD PUSH1 0x40 MLOAD SWAP1 DUP2 ADD PUSH1 0x40 MSTORE DUP1 SWAP3 SWAP2 SWAP1 DUP2 DUP2 MSTORE PUSH1 0x20 ADD DUP3 DUP1 SLOAD PUSH2 0x458 SWAP1 PUSH2 0x251E JUMP JUMPDEST DUP1 ISZERO PUSH2 0x4A3 JUMPI DUP1 PUSH1 0x1F LT PUSH2 0x47A JUMPI PUSH2 0x100 DUP1 DUP4 SLOAD DIV MUL DUP4 MSTORE SWAP2 PUSH1 0x20 ADD SWAP2 PUSH2 0x4A3 JUMP JUMPDEST DUP3 ADD SWAP2 SWAP1 PUSH0 MSTORE PUSH1 0x20 PUSH0 KECCAK256 SWAP1 JUMPDEST DUP2 SLOAD DUP2 MSTORE SWAP1 PUSH1 0x1 ADD SWAP1 PUSH1 0x20 ADD DUP1 DUP4 GT PUSH2 0x486 JUMPI DUP3 SWAP1 SUB PUSH1 0x1F AND DUP3 ADD SWAP2 JUMPDEST POP POP POP POP POP DUP2 MSTORE PUSH1 0x20 ADD PUSH1 0x3 DUP3 ADD PUSH0 SWAP1 SLOAD SWAP1 PUSH2 0x100 EXP SWAP1 DIV PUSH20 0xFFFFFFFFFFFFFFFFFFFFFFFFFFFFFFFFFFFFFFFF AND PUSH20 0xFFFFFFFFFFFFFFFFFFFFFFFFFFFFFFFFFFFFFFFF AND PUSH20 0xFFFFFFFFFFFFFFFFFFFFFFFFFFFFFFFFFFFFFFFF AND DUP2 MSTORE PUSH1 0x20 ADD PUSH1 0x4 DUP3 ADD DUP1 SLOAD PUSH2 0x511 SWAP1 PUSH2 0x251E JUMP JUMPDEST DUP1 PUSH1 0x1F ADD PUSH1 0x20 DUP1 SWAP2 DIV MUL PUSH1 0x20 ADD PUSH1 0x40 MLOAD SWAP1 DUP2 ADD PUSH1 0x40 MSTORE DUP1 SWAP3 SWAP2 SWAP1 DUP2 DUP2 MSTORE PUSH1 0x20 ADD DUP3 DUP1 SLOAD PUSH2 0x53D SWAP1 PUSH2 0x251E JUMP JUMPDEST DUP1 ISZERO PUSH2 0x588 JUMPI DUP1 PUSH1 0x1F LT PUSH2 0x55F JUMPI PUSH2 0x100 DUP1 DUP4 SLOAD DIV MUL DUP4 MSTORE SWAP2 PUSH1 0x20 ADD SWAP2 PUSH2 0x588 JUMP JUMPDEST DUP3 ADD SWAP2 SWAP1 PUSH0 MSTORE PUSH1 0x20 PUSH0 KECCAK256 SWAP1 JUMPDEST DUP2 SLOAD DUP2 MSTORE SWAP1 PUSH1 0x1 ADD SWAP1 PUSH1 0x20 ADD DUP1 DUP4 GT PUSH2 0x56B JUMPI DUP3 SWAP1 SUB PUSH1 0x1F AND DUP3 ADD SWAP2 JUMPDEST POP POP POP POP POP DUP2 MSTORE PUSH1 0x20 ADD PUSH1 0x5 DUP3 ADD SLOAD DUP2 MSTORE PUSH1 0x20 ADD PUSH1 0x6 DUP3 ADD SLOAD DUP2 MSTORE PUSH1 0x20 ADD PUSH1 0x7 DUP3 ADD PUSH0 SWAP1 SLOAD SWAP1 PUSH2 0x100 EXP SWAP1 DIV PUSH1 0xFF AND ISZERO ISZERO ISZERO ISZERO DUP2 MSTORE POP POP DUP4 DUP4 DUP1 PUSH2 0x5CB SWAP1 PUSH2 0x247D JUMP JUMPDEST SWAP5 POP DUP2 MLOAD DUP2 LT PUSH2 0x5DE JUMPI PUSH2 0x5DD PUSH2 0x2423 JUMP JUMPDEST JUMPDEST PUSH1 0x20 MUL PUSH1 0x20 ADD ADD DUP2 SWAP1 MSTORE POP JUMPDEST DUP1 DUP1 PUSH1 0x1 ADD SWAP2 POP POP PUSH2 0x316 JUMP JUMPDEST POP DUP2 SWAP4 POP POP POP POP SWAP1 JUMP JUMPDEST PUSH1 0x1 SLOAD DUP2 JUMP JUMPDEST PUSH0 PUSH20 0xFFFFFFFFFFFFFFFFFFFFFFFFFFFFFFFFFFFFFFFF AND DUP7 PUSH20 0xFFFFFFFFFFFFFFFFFFFFFFFFFFFFFFFFFFFFFFFF AND SUB PUSH2 0x675 JUMPI PUSH1 0x40 MLOAD PUSH32 0x8C379A000000000000000000000000000000000000000000000000000000000 DUP2 MSTORE PUSH1 0x4 ADD PUSH2 0x66C SWAP1 PUSH2 0x2598 JUMP JUMPDEST PUSH1 0x40 MLOAD DUP1 SWAP2 SUB SWAP1 REVERT JUMPDEST PUSH0 DUP1 SLOAD SWAP1 PUSH2 0x100 EXP SWAP1 DIV PUSH1 0xFF AND ISZERO PUSH2 0x6C2 JUMPI PUSH1 0x40 MLOAD PUSH32 0x8C379A000000000000000000000000000000000000000000000000000000000 DUP2 MSTORE PUSH1 0x4 ADD PUSH2 0x6B9 SWAP1 PUSH2 0x264C JUMP JUMPDEST PUSH1 0x40 MLOAD DUP1 SWAP2 SUB SWAP1 REVERT JUMPDEST PUSH1 0x1 PUSH0 DUP1 PUSH2 0x100 EXP DUP2 SLOAD DUP2 PUSH1 0xFF MUL NOT AND SWAP1 DUP4 ISZERO ISZERO MUL OR SWAP1 SSTORE POP PUSH0 PUSH1 0x40 MLOAD DUP1 PUSH2 0x100 ADD PUSH1 0x40 MSTORE DUP1 PUSH1 0x1 SLOAD DUP2 MSTORE PUSH1 0x20 ADD DUP8 DUP8 DUP1 DUP1 PUSH1 0x1F ADD PUSH1 0x20 DUP1 SWAP2 DIV MUL PUSH1 0x20 ADD PUSH1 0x40 MLOAD SWAP1 DUP2 ADD PUSH1 0x40 MSTORE DUP1 SWAP4 SWAP3 SWAP2 SWAP1 DUP2 DUP2 MSTORE PUSH1 0x20 ADD DUP4 DUP4 DUP1 DUP3 DUP5 CALLDATACOPY PUSH0 DUP2 DUP5 ADD MSTORE PUSH1 0x1F NOT PUSH1 0x1F DUP3 ADD AND SWAP1 POP DUP1 DUP4 ADD SWAP3 POP POP POP POP POP POP POP DUP2 MSTORE PUSH1 0x20 ADD DUP6 DUP6 DUP1 DUP1 PUSH1 0x1F ADD PUSH1 0x20 DUP1 SWAP2 DIV MUL PUSH1 0x20 ADD PUSH1 0x40 MLOAD SWAP1 DUP2 ADD PUSH1 0x40 MSTORE DUP1 SWAP4 SWAP3 SWAP2 SWAP1 DUP2 DUP2 MSTORE PUSH1 0x20 ADD DUP4 DUP4 DUP1 DUP3 DUP5 CALLDATACOPY PUSH0 DUP2 DUP5 ADD MSTORE PUSH1 0x1F NOT PUSH1 0x1F DUP3 ADD AND SWAP1 POP DUP1 DUP4 ADD SWAP3 POP POP POP POP POP POP POP DUP2 MSTORE PUSH1 0x20 ADD DUP9 PUSH20 0xFFFFFFFFFFFFFFFFFFFFFFFFFFFFFFFFFFFFFFFF AND DUP2 MSTORE PUSH1 0x20 ADD DUP11 DUP11 DUP1 DUP1 PUSH1 0x1F ADD PUSH1 0x20 DUP1 SWAP2 DIV MUL PUSH1 0x20 ADD PUSH1 0x40 MLOAD SWAP1 DUP2 ADD PUSH1 0x40 MSTORE DUP1 SWAP4 SWAP3 SWAP2 SWAP1 DUP2 DUP2 MSTORE PUSH1 0x20 ADD DUP4 DUP4 DUP1 DUP3 DUP5 CALLDATACOPY PUSH0 DUP2 DUP5 ADD MSTORE PUSH1 0x1F NOT PUSH1 0x1F DUP3 ADD AND SWAP1 POP DUP1 DUP4 ADD SWAP3 POP POP POP POP POP POP POP DUP2 MSTORE PUSH1 0x20 ADD DUP4 DUP2 MSTORE PUSH1 0x20 ADD PUSH0 DUP2 MSTORE PUSH1 0x20 ADD PUSH0 ISZERO ISZERO DUP2 MSTORE POP SWAP1 POP PUSH1 0x1 PUSH0 DUP2 SLOAD PUSH2 0x809 SWAP1 PUSH2 0x247D JUMP JUMPDEST SWAP2 SWAP1 POP DUP2 SWAP1 SSTORE POP PUSH1 0x3 DUP2 SWAP1 DUP1 PUSH1 0x1 DUP2 SLOAD ADD DUP1 DUP3 SSTORE DUP1 SWAP2 POP POP PUSH1 0x1 SWAP1 SUB SWAP1 PUSH0 MSTORE PUSH1 0x20 PUSH0 KECCAK256 SWAP1 PUSH1 0x8 MUL ADD PUSH0 SWAP1 SWAP2 SWAP1 SWAP2 SWAP1 SWAP2 POP PUSH0 DUP3 ADD MLOAD DUP2 PUSH0 ADD SSTORE PUSH1 0x20 DUP3 ADD MLOAD DUP2 PUSH1 0x1 ADD SWAP1 DUP2 PUSH2 0x856 SWAP2 SWAP1 PUSH2 0x2807 JUMP JUMPDEST POP PUSH1 0x40 DUP3 ADD MLOAD DUP2 PUSH1 0x2 ADD SWAP1 DUP2 PUSH2 0x86C SWAP2 SWAP1 PUSH2 0x2807 JUMP JUMPDEST POP PUSH1 0x60 DUP3 ADD MLOAD DUP2 PUSH1 0x3 ADD PUSH0 PUSH2 0x100 EXP DUP2 SLOAD DUP2 PUSH20 0xFFFFFFFFFFFFFFFFFFFFFFFFFFFFFFFFFFFFFFFF MUL NOT AND SWAP1 DUP4 PUSH20 0xFFFFFFFFFFFFFFFFFFFFFFFFFFFFFFFFFFFFFFFF AND MUL OR SWAP1 SSTORE POP PUSH1 0x80 DUP3 ADD MLOAD DUP2 PUSH1 0x4 ADD SWAP1 DUP2 PUSH2 0x8C8 SWAP2 SWAP1 PUSH2 0x2807 JUMP JUMPDEST POP PUSH1 0xA0 DUP3 ADD MLOAD DUP2 PUSH1 0x5 ADD SSTORE PUSH1 0xC0 DUP3 ADD MLOAD DUP2 PUSH1 0x6 ADD SSTORE PUSH1 0xE0 DUP3 ADD MLOAD DUP2 PUSH1 0x7 ADD PUSH0 PUSH2 0x100 EXP DUP2 SLOAD DUP2 PUSH1 0xFF MUL NOT AND SWAP1 DUP4 ISZERO ISZERO MUL OR SWAP1 SSTORE POP POP POP PUSH0 DUP1 PUSH0 PUSH2 0x100 EXP DUP2 SLOAD DUP2 PUSH1 0xFF MUL NOT AND SWAP1 DUP4 ISZERO ISZERO MUL OR SWAP1 SSTORE POP POP POP POP POP POP POP POP POP POP JUMP JUMPDEST PUSH1 0x60 PUSH0 DUP1 PUSH0 SWAP1 POP JUMPDEST PUSH1 0x3 DUP1 SLOAD SWAP1 POP DUP2 LT ISZERO PUSH2 0x985 JUMPI PUSH1 0x3 DUP2 DUP2 SLOAD DUP2 LT PUSH2 0x94A JUMPI PUSH2 0x949 PUSH2 0x2423 JUMP JUMPDEST JUMPDEST SWAP1 PUSH0 MSTORE PUSH1 0x20 PUSH0 KECCAK256 SWAP1 PUSH1 0x8 MUL ADD PUSH1 0x7 ADD PUSH0 SWAP1 SLOAD SWAP1 PUSH2 0x100 EXP SWAP1 DIV PUSH1 0xFF AND ISZERO PUSH2 0x978 JUMPI DUP2 PUSH2 0x975 SWAP1 PUSH2 0x247D JUMP JUMPDEST SWAP2 POP JUMPDEST DUP1 DUP1 PUSH1 0x1 ADD SWAP2 POP POP PUSH2 0x929 JUMP JUMPDEST POP PUSH0 DUP2 PUSH8 0xFFFFFFFFFFFFFFFF DUP2 GT ISZERO PUSH2 0x9A1 JUMPI PUSH2 0x9A0 PUSH2 0x24C4 JUMP JUMPDEST JUMPDEST PUSH1 0x40 MLOAD SWAP1 DUP1 DUP3 MSTORE DUP1 PUSH1 0x20 MUL PUSH1 0x20 ADD DUP3 ADD PUSH1 0x40 MSTORE DUP1 ISZERO PUSH2 0x9DA JUMPI DUP2 PUSH1 0x20 ADD JUMPDEST PUSH2 0x9C7 PUSH2 0x1AF9 JUMP JUMPDEST DUP2 MSTORE PUSH1 0x20 ADD SWAP1 PUSH1 0x1 SWAP1 SUB SWAP1 DUP2 PUSH2 0x9BF JUMPI SWAP1 POP JUMPDEST POP SWAP1 POP PUSH0 DUP1 PUSH0 SWAP1 POP JUMPDEST PUSH1 0x3 DUP1 SLOAD SWAP1 POP DUP2 LT ISZERO PUSH2 0xCC5 JUMPI PUSH1 0x3 DUP2 DUP2 SLOAD DUP2 LT PUSH2 0xA04 JUMPI PUSH2 0xA03 PUSH2 0x2423 JUMP JUMPDEST JUMPDEST SWAP1 PUSH0 MSTORE PUSH1 0x20 PUSH0 KECCAK256 SWAP1 PUSH1 0x8 MUL ADD PUSH1 0x7 ADD PUSH0 SWAP1 SLOAD SWAP1 PUSH2 0x100 EXP SWAP1 DIV PUSH1 0xFF AND ISZERO PUSH2 0xCB8 JUMPI PUSH1 0x3 DUP2 DUP2 SLOAD DUP2 LT PUSH2 0xA39 JUMPI PUSH2 0xA38 PUSH2 0x2423 JUMP JUMPDEST JUMPDEST SWAP1 PUSH0 MSTORE PUSH1 0x20 PUSH0 KECCAK256 SWAP1 PUSH1 0x8 MUL ADD PUSH1 0x40 MLOAD DUP1 PUSH2 0x100 ADD PUSH1 0x40 MSTORE SWAP1 DUP2 PUSH0 DUP3 ADD SLOAD DUP2 MSTORE PUSH1 0x20 ADD PUSH1 0x1 DUP3 ADD DUP1 SLOAD PUSH2 0xA6A SWAP1 PUSH2 0x251E JUMP JUMPDEST DUP1 PUSH1 0x1F ADD PUSH1 0x20 DUP1 SWAP2 DIV MUL PUSH1 0x20 ADD PUSH1 0x40 MLOAD SWAP1 DUP2 ADD PUSH1 0x40 MSTORE DUP1 SWAP3 SWAP2 SWAP1 DUP2 DUP2 MSTORE PUSH1 0x20 ADD DUP3 DUP1 SLOAD PUSH2 0xA96 SWAP1 PUSH2 0x251E JUMP JUMPDEST DUP1 ISZERO PUSH2 0xAE1 JUMPI DUP1 PUSH1 0x1F LT PUSH2 0xAB8 JUMPI PUSH2 0x100 DUP1 DUP4 SLOAD DIV MUL DUP4 MSTORE SWAP2 PUSH1 0x20 ADD SWAP2 PUSH2 0xAE1 JUMP JUMPDEST DUP3 ADD SWAP2 SWAP1 PUSH0 MSTORE PUSH1 0x20 PUSH0 KECCAK256 SWAP1 JUMPDEST DUP2 SLOAD DUP2 MSTORE SWAP1 PUSH1 0x1 ADD SWAP1 PUSH1 0x20 ADD DUP1 DUP4 GT PUSH2 0xAC4 JUMPI DUP3 SWAP1 SUB PUSH1 0x1F AND DUP3 ADD SWAP2 JUMPDEST POP POP POP POP POP DUP2 MSTORE PUSH1 0x20 ADD PUSH1 0x2 DUP3 ADD DUP1 SLOAD PUSH2 0xAFA SWAP1 PUSH2 0x251E JUMP JUMPDEST DUP1 PUSH1 0x1F ADD PUSH1 0x20 DUP1 SWAP2 DIV MUL PUSH1 0x20 ADD PUSH1 0x40 MLOAD SWAP1 DUP2 ADD PUSH1 0x40 MSTORE DUP1 SWAP3 SWAP2 SWAP1 DUP2 DUP2 MSTORE PUSH1 0x20 ADD DUP3 DUP1 SLOAD PUSH2 0xB26 SWAP1 PUSH2 0x251E JUMP JUMPDEST DUP1 ISZERO PUSH2 0xB71 JUMPI DUP1 PUSH1 0x1F LT PUSH2 0xB48 JUMPI PUSH2 0x100 DUP1 DUP4 SLOAD DIV MUL DUP4 MSTORE SWAP2 PUSH1 0x20 ADD SWAP2 PUSH2 0xB71 JUMP JUMPDEST DUP3 ADD SWAP2 SWAP1 PUSH0 MSTORE PUSH1 0x20 PUSH0 KECCAK256 SWAP1 JUMPDEST DUP2 SLOAD DUP2 MSTORE SWAP1 PUSH1 0x1 ADD SWAP1 PUSH1 0x20 ADD DUP1 DUP4 GT PUSH2 0xB54 JUMPI DUP3 SWAP1 SUB PUSH1 0x1F AND DUP3 ADD SWAP2 JUMPDEST POP POP POP POP POP DUP2 MSTORE PUSH1 0x20 ADD PUSH1 0x3 DUP3 ADD PUSH0 SWAP1 SLOAD SWAP1 PUSH2 0x100 EXP SWAP1 DIV PUSH20 0xFFFFFFFFFFFFFFFFFFFFFFFFFFFFFFFFFFFFFFFF AND PUSH20 0xFFFFFFFFFFFFFFFFFFFFFFFFFFFFFFFFFFFFFFFF AND PUSH20 0xFFFFFFFFFFFFFFFFFFFFFFFFFFFFFFFFFFFFFFFF AND DUP2 MSTORE PUSH1 0x20 ADD PUSH1 0x4 DUP3 ADD DUP1 SLOAD PUSH2 0xBDF SWAP1 PUSH2 0x251E JUMP JUMPDEST DUP1 PUSH1 0x1F ADD PUSH1 0x20 DUP1 SWAP2 DIV MUL PUSH1 0x20 ADD PUSH1 0x40 MLOAD SWAP1 DUP2 ADD PUSH1 0x40 MSTORE DUP1 SWAP3 SWAP2 SWAP1 DUP2 DUP2 MSTORE PUSH1 0x20 ADD DUP3 DUP1 SLOAD PUSH2 0xC0B SWAP1 PUSH2 0x251E JUMP JUMPDEST DUP1 ISZERO PUSH2 0xC56 JUMPI DUP1 PUSH1 0x1F LT PUSH2 0xC2D JUMPI PUSH2 0x100 DUP1 DUP4 SLOAD DIV MUL DUP4 MSTORE SWAP2 PUSH1 0x20 ADD SWAP2 PUSH2 0xC56 JUMP JUMPDEST DUP3 ADD SWAP2 SWAP1 PUSH0 MSTORE PUSH1 0x20 PUSH0 KECCAK256 SWAP1 JUMPDEST DUP2 SLOAD DUP2 MSTORE SWAP1 PUSH1 0x1 ADD SWAP1 PUSH1 0x20 ADD DUP1 DUP4 GT PUSH2 0xC39 JUMPI DUP3 SWAP1 SUB PUSH1 0x1F AND DUP3 ADD SWAP2 JUMPDEST POP POP POP POP POP DUP2 MSTORE PUSH1 0x20 ADD PUSH1 0x5 DUP3 ADD SLOAD DUP2 MSTORE PUSH1 0x20 ADD PUSH1 0x6 DUP3 ADD SLOAD DUP2 MSTORE PUSH1 0x20 ADD PUSH1 0x7 DUP3 ADD PUSH0 SWAP1 SLOAD SWAP1 PUSH2 0x100 EXP SWAP1 DIV PUSH1 0xFF AND ISZERO ISZERO ISZERO ISZERO DUP2 MSTORE POP POP DUP4 DUP4 DUP1 PUSH2 0xC99 SWAP1 PUSH2 0x247D JUMP JUMPDEST SWAP5 POP DUP2 MLOAD DUP2 LT PUSH2 0xCAC JUMPI PUSH2 0xCAB PUSH2 0x2423 JUMP JUMPDEST JUMPDEST PUSH1 0x20 MUL PUSH1 0x20 ADD ADD DUP2 SWAP1 MSTORE POP JUMPDEST DUP1 DUP1 PUSH1 0x1 ADD SWAP2 POP POP PUSH2 0x9E3 JUMP JUMPDEST POP DUP2 SWAP4 POP POP POP POP SWAP1 JUMP JUMPDEST PUSH1 0x60 PUSH0 PUSH20 0xFFFFFFFFFFFFFFFFFFFFFFFFFFFFFFFFFFFFFFFF AND DUP3 PUSH20 0xFFFFFFFFFFFFFFFFFFFFFFFFFFFFFFFFFFFFFFFF AND SUB PUSH2 0xD3F JUMPI PUSH1 0x40 MLOAD PUSH32 0x8C379A000000000000000000000000000000000000000000000000000000000 DUP2 MSTORE PUSH1 0x4 ADD PUSH2 0xD36 SWAP1 PUSH2 0x2920 JUMP JUMPDEST PUSH1 0x40 MLOAD DUP1 SWAP2 SUB SWAP1 REVERT JUMPDEST PUSH0 DUP1 PUSH0 SWAP1 POP JUMPDEST PUSH1 0x2 DUP1 SLOAD SWAP1 POP DUP2 LT ISZERO PUSH2 0xDE1 JUMPI DUP4 PUSH20 0xFFFFFFFFFFFFFFFFFFFFFFFFFFFFFFFFFFFFFFFF AND PUSH1 0x2 DUP3 DUP2 SLOAD DUP2 LT PUSH2 0xD7D JUMPI PUSH2 0xD7C PUSH2 0x2423 JUMP JUMPDEST JUMPDEST SWAP1 PUSH0 MSTORE PUSH1 0x20 PUSH0 KECCAK256 SWAP1 PUSH1 0x4 MUL ADD PUSH1 0x2 ADD PUSH0 SWAP1 SLOAD SWAP1 PUSH2 0x100 EXP SWAP1 DIV PUSH20 0xFFFFFFFFFFFFFFFFFFFFFFFFFFFFFFFFFFFFFFFF AND PUSH20 0xFFFFFFFFFFFFFFFFFFFFFFFFFFFFFFFFFFFFFFFF AND SUB PUSH2 0xDD4 JUMPI DUP2 PUSH2 0xDD1 SWAP1 PUSH2 0x247D JUMP JUMPDEST SWAP2 POP JUMPDEST DUP1 DUP1 PUSH1 0x1 ADD SWAP2 POP POP PUSH2 0xD45 JUMP JUMPDEST POP PUSH0 DUP2 PUSH8 0xFFFFFFFFFFFFFFFF DUP2 GT ISZERO PUSH2 0xDFD JUMPI PUSH2 0xDFC PUSH2 0x24C4 JUMP JUMPDEST JUMPDEST PUSH1 0x40 MLOAD SWAP1 DUP1 DUP3 MSTORE DUP1 PUSH1 0x20 MUL PUSH1 0x20 ADD DUP3 ADD PUSH1 0x40 MSTORE DUP1 ISZERO PUSH2 0xE36 JUMPI DUP2 PUSH1 0x20 ADD JUMPDEST PUSH2 0xE23 PUSH2 0x1B51 JUMP JUMPDEST DUP2 MSTORE PUSH1 0x20 ADD SWAP1 PUSH1 0x1 SWAP1 SUB SWAP1 DUP2 PUSH2 0xE1B JUMPI SWAP1 POP JUMPDEST POP SWAP1 POP PUSH0 DUP1 PUSH0 SWAP1 POP JUMPDEST PUSH1 0x2 DUP1 SLOAD SWAP1 POP DUP2 LT ISZERO PUSH2 0x101C JUMPI DUP6 PUSH20 0xFFFFFFFFFFFFFFFFFFFFFFFFFFFFFFFFFFFFFFFF AND PUSH1 0x2 DUP3 DUP2 SLOAD DUP2 LT PUSH2 0xE77 JUMPI PUSH2 0xE76 PUSH2 0x2423 JUMP JUMPDEST JUMPDEST SWAP1 PUSH0 MSTORE PUSH1 0x20 PUSH0 KECCAK256 SWAP1 PUSH1 0x4 MUL ADD PUSH1 0x2 ADD PUSH0 SWAP1 SLOAD SWAP1 PUSH2 0x100 EXP SWAP1 DIV PUSH20 0xFFFFFFFFFFFFFFFFFFFFFFFFFFFFFFFFFFFFFFFF AND PUSH20 0xFFFFFFFFFFFFFFFFFFFFFFFFFFFFFFFFFFFFFFFF AND SUB PUSH2 0x100F JUMPI PUSH1 0x2 DUP2 DUP2 SLOAD DUP2 LT PUSH2 0xED5 JUMPI PUSH2 0xED4 PUSH2 0x2423 JUMP JUMPDEST JUMPDEST SWAP1 PUSH0 MSTORE PUSH1 0x20 PUSH0 KECCAK256 SWAP1 PUSH1 0x4 MUL ADD PUSH1 0x40 MLOAD DUP1 PUSH1 0x80 ADD PUSH1 0x40 MSTORE SWAP1 DUP2 PUSH0 DUP3 ADD SLOAD DUP2 MSTORE PUSH1 0x20 ADD PUSH1 0x1 DUP3 ADD DUP1 SLOAD PUSH2 0xF05 SWAP1 PUSH2 0x251E JUMP JUMPDEST DUP1 PUSH1 0x1F ADD PUSH1 0x20 DUP1 SWAP2 DIV MUL PUSH1 0x20 ADD PUSH1 0x40 MLOAD SWAP1 DUP2 ADD PUSH1 0x40 MSTORE DUP1 SWAP3 SWAP2 SWAP1 DUP2 DUP2 MSTORE PUSH1 0x20 ADD DUP3 DUP1 SLOAD PUSH2 0xF31 SWAP1 PUSH2 0x251E JUMP JUMPDEST DUP1 ISZERO PUSH2 0xF7C JUMPI DUP1 PUSH1 0x1F LT PUSH2 0xF53 JUMPI PUSH2 0x100 DUP1 DUP4 SLOAD DIV MUL DUP4 MSTORE SWAP2 PUSH1 0x20 ADD SWAP2 PUSH2 0xF7C JUMP JUMPDEST DUP3 ADD SWAP2 SWAP1 PUSH0 MSTORE PUSH1 0x20 PUSH0 KECCAK256 SWAP1 JUMPDEST DUP2 SLOAD DUP2 MSTORE SWAP1 PUSH1 0x1 ADD SWAP1 PUSH1 0x20 ADD DUP1 DUP4 GT PUSH2 0xF5F JUMPI DUP3 SWAP1 SUB PUSH1 0x1F AND DUP3 ADD SWAP2 JUMPDEST POP POP POP POP POP DUP2 MSTORE PUSH1 0x20 ADD PUSH1 0x2 DUP3 ADD PUSH0 SWAP1 SLOAD SWAP1 PUSH2 0x100 EXP SWAP1 DIV PUSH20 0xFFFFFFFFFFFFFFFFFFFFFFFFFFFFFFFFFFFFFFFF AND PUSH20 0xFFFFFFFFFFFFFFFFFFFFFFFFFFFFFFFFFFFFFFFF AND PUSH20 0xFFFFFFFFFFFFFFFFFFFFFFFFFFFFFFFFFFFFFFFF AND DUP2 MSTORE PUSH1 0x20 ADD PUSH1 0x3 DUP3 ADD SLOAD DUP2 MSTORE POP POP DUP4 DUP4 DUP1 PUSH2 0xFF0 SWAP1 PUSH2 0x247D JUMP JUMPDEST SWAP5 POP DUP2 MLOAD DUP2 LT PUSH2 0x1003 JUMPI PUSH2 0x1002 PUSH2 0x2423 JUMP JUMPDEST JUMPDEST PUSH1 0x20 MUL PUSH1 0x20 ADD ADD DUP2 SWAP1 MSTORE POP JUMPDEST DUP1 DUP1 PUSH1 0x1 ADD SWAP2 POP POP PUSH2 0xE3F JUMP JUMPDEST POP DUP2 SWAP4 POP POP POP POP SWAP2 SWAP1 POP JUMP JUMPDEST PUSH1 0x3 DUP2 DUP2 SLOAD DUP2 LT PUSH2 0x1037 JUMPI PUSH0 DUP1 REVERT JUMPDEST SWAP1 PUSH0 MSTORE PUSH1 0x20 PUSH0 KECCAK256 SWAP1 PUSH1 0x8 MUL ADD PUSH0 SWAP2 POP SWAP1 POP DUP1 PUSH0 ADD SLOAD SWAP1 DUP1 PUSH1 0x1 ADD DUP1 SLOAD PUSH2 0x105C SWAP1 PUSH2 0x251E JUMP JUMPDEST DUP1 PUSH1 0x1F ADD PUSH1 0x20 DUP1 SWAP2 DIV MUL PUSH1 0x20 ADD PUSH1 0x40 MLOAD SWAP1 DUP2 ADD PUSH1 0x40 MSTORE DUP1 SWAP3 SWAP2 SWAP1 DUP2 DUP2 MSTORE PUSH1 0x20 ADD DUP3 DUP1 SLOAD PUSH2 0x1088 SWAP1 PUSH2 0x251E JUMP JUMPDEST DUP1 ISZERO PUSH2 0x10D3 JUMPI DUP1 PUSH1 0x1F LT PUSH2 0x10AA JUMPI PUSH2 0x100 DUP1 DUP4 SLOAD DIV MUL DUP4 MSTORE SWAP2 PUSH1 0x20 ADD SWAP2 PUSH2 0x10D3 JUMP JUMPDEST DUP3 ADD SWAP2 SWAP1 PUSH0 MSTORE PUSH1 0x20 PUSH0 KECCAK256 SWAP1 JUMPDEST DUP2 SLOAD DUP2 MSTORE SWAP1 PUSH1 0x1 ADD SWAP1 PUSH1 0x20 ADD DUP1 DUP4 GT PUSH2 0x10B6 JUMPI DUP3 SWAP1 SUB PUSH1 0x1F AND DUP3 ADD SWAP2 JUMPDEST POP POP POP POP POP SWAP1 DUP1 PUSH1 0x2 ADD DUP1 SLOAD PUSH2 0x10E8 SWAP1 PUSH2 0x251E JUMP JUMPDEST DUP1 PUSH1 0x1F ADD PUSH1 0x20 DUP1 SWAP2 DIV MUL PUSH1 0x20 ADD PUSH1 0x40 MLOAD SWAP1 DUP2 ADD PUSH1 0x40 MSTORE DUP1 SWAP3 SWAP2 SWAP1 DUP2 DUP2 MSTORE PUSH1 0x20 ADD DUP3 DUP1 SLOAD PUSH2 0x1114 SWAP1 PUSH2 0x251E JUMP JUMPDEST DUP1 ISZERO PUSH2 0x115F JUMPI DUP1 PUSH1 0x1F LT PUSH2 0x1136 JUMPI PUSH2 0x100 DUP1 DUP4 SLOAD DIV MUL DUP4 MSTORE SWAP2 PUSH1 0x20 ADD SWAP2 PUSH2 0x115F JUMP JUMPDEST DUP3 ADD SWAP2 SWAP1 PUSH0 MSTORE PUSH1 0x20 PUSH0 KECCAK256 SWAP1 JUMPDEST DUP2 SLOAD DUP2 MSTORE SWAP1 PUSH1 0x1 ADD SWAP1 PUSH1 0x20 ADD DUP1 DUP4 GT PUSH2 0x1142 JUMPI DUP3 SWAP1 SUB PUSH1 0x1F AND DUP3 ADD SWAP2 JUMPDEST POP POP POP POP POP SWAP1 DUP1 PUSH1 0x3 ADD PUSH0 SWAP1 SLOAD SWAP1 PUSH2 0x100 EXP SWAP1 DIV PUSH20 0xFFFFFFFFFFFFFFFFFFFFFFFFFFFFFFFFFFFFFFFF AND SWAP1 DUP1 PUSH1 0x4 ADD DUP1 SLOAD PUSH2 0x1199 SWAP1 PUSH2 0x251E JUMP JUMPDEST DUP1 PUSH1 0x1F ADD PUSH1 0x20 DUP1 SWAP2 DIV MUL PUSH1 0x20 ADD PUSH1 0x40 MLOAD SWAP1 DUP2 ADD PUSH1 0x40 MSTORE DUP1 SWAP3 SWAP2 SWAP1 DUP2 DUP2 MSTORE PUSH1 0x20 ADD DUP3 DUP1 SLOAD PUSH2 0x11C5 SWAP1 PUSH2 0x251E JUMP JUMPDEST DUP1 ISZERO PUSH2 0x1210 JUMPI DUP1 PUSH1 0x1F LT PUSH2 0x11E7 JUMPI PUSH2 0x100 DUP1 DUP4 SLOAD DIV MUL DUP4 MSTORE SWAP2 PUSH1 0x20 ADD SWAP2 PUSH2 0x1210 JUMP JUMPDEST DUP3 ADD SWAP2 SWAP1 PUSH0 MSTORE PUSH1 0x20 PUSH0 KECCAK256 SWAP1 JUMPDEST DUP2 SLOAD DUP2 MSTORE SWAP1 PUSH1 0x1 ADD SWAP1 PUSH1 0x20 ADD DUP1 DUP4 GT PUSH2 0x11F3 JUMPI DUP3 SWAP1 SUB PUSH1 0x1F AND DUP3 ADD SWAP2 JUMPDEST POP POP POP POP POP SWAP1 DUP1 PUSH1 0x5 ADD SLOAD SWAP1 DUP1 PUSH1 0x6 ADD SLOAD SWAP1 DUP1 PUSH1 0x7 ADD PUSH0 SWAP1 SLOAD SWAP1 PUSH2 0x100 EXP SWAP1 DIV PUSH1 0xFF AND SWAP1 POP DUP9 JUMP JUMPDEST PUSH0 DUP1 SLOAD SWAP1 PUSH2 0x100 EXP SWAP1 DIV PUSH1 0xFF AND DUP2 JUMP JUMPDEST PUSH1 0x60 PUSH0 DUP1 PUSH0 SWAP1 POP JUMPDEST PUSH1 0x2 DUP1 SLOAD SWAP1 POP DUP2 LT ISZERO PUSH2 0x12A0 JUMPI DUP4 PUSH1 0x2 DUP3 DUP2 SLOAD DUP2 LT PUSH2 0x1272 JUMPI PUSH2 0x1271 PUSH2 0x2423 JUMP JUMPDEST JUMPDEST SWAP1 PUSH0 MSTORE PUSH1 0x20 PUSH0 KECCAK256 SWAP1 PUSH1 0x4 MUL ADD PUSH0 ADD SLOAD SUB PUSH2 0x1293 JUMPI DUP2 PUSH2 0x1290 SWAP1 PUSH2 0x247D JUMP JUMPDEST SWAP2 POP JUMPDEST DUP1 DUP1 PUSH1 0x1 ADD SWAP2 POP POP PUSH2 0x1250 JUMP JUMPDEST POP PUSH0 DUP2 PUSH8 0xFFFFFFFFFFFFFFFF DUP2 GT ISZERO PUSH2 0x12BC JUMPI PUSH2 0x12BB PUSH2 0x24C4 JUMP JUMPDEST JUMPDEST PUSH1 0x40 MLOAD SWAP1 DUP1 DUP3 MSTORE DUP1 PUSH1 0x20 MUL PUSH1 0x20 ADD DUP3 ADD PUSH1 0x40 MSTORE DUP1 ISZERO PUSH2 0x12F5 JUMPI DUP2 PUSH1 0x20 ADD JUMPDEST PUSH2 0x12E2 PUSH2 0x1B51 JUMP JUMPDEST DUP2 MSTORE PUSH1 0x20 ADD SWAP1 PUSH1 0x1 SWAP1 SUB SWAP1 DUP2 PUSH2 0x12DA JUMPI SWAP1 POP JUMPDEST POP SWAP1 POP PUSH0 DUP1 PUSH0 SWAP1 POP JUMPDEST PUSH1 0x2 DUP1 SLOAD SWAP1 POP DUP2 LT ISZERO PUSH2 0x148F JUMPI DUP6 PUSH1 0x2 DUP3 DUP2 SLOAD DUP2 LT PUSH2 0x1320 JUMPI PUSH2 0x131F PUSH2 0x2423 JUMP JUMPDEST JUMPDEST SWAP1 PUSH0 MSTORE PUSH1 0x20 PUSH0 KECCAK256 SWAP1 PUSH1 0x4 MUL ADD PUSH0 ADD SLOAD SUB PUSH2 0x1482 JUMPI PUSH1 0x2 DUP2 DUP2 SLOAD DUP2 LT PUSH2 0x1348 JUMPI PUSH2 0x1347 PUSH2 0x2423 JUMP JUMPDEST JUMPDEST SWAP1 PUSH0 MSTORE PUSH1 0x20 PUSH0 KECCAK256 SWAP1 PUSH1 0x4 MUL ADD PUSH1 0x40 MLOAD DUP1 PUSH1 0x80 ADD PUSH1 0x40 MSTORE SWAP1 DUP2 PUSH0 DUP3 ADD SLOAD DUP2 MSTORE PUSH1 0x20 ADD PUSH1 0x1 DUP3 ADD DUP1 SLOAD PUSH2 0x1378 SWAP1 PUSH2 0x251E JUMP JUMPDEST DUP1 PUSH1 0x1F ADD PUSH1 0x20 DUP1 SWAP2 DIV MUL PUSH1 0x20 ADD PUSH1 0x40 MLOAD SWAP1 DUP2 ADD PUSH1 0x40 MSTORE DUP1 SWAP3 SWAP2 SWAP1 DUP2 DUP2 MSTORE PUSH1 0x20 ADD DUP3 DUP1 SLOAD PUSH2 0x13A4 SWAP1 PUSH2 0x251E JUMP JUMPDEST DUP1 ISZERO PUSH2 0x13EF JUMPI DUP1 PUSH1 0x1F LT PUSH2 0x13C6 JUMPI PUSH2 0x100 DUP1 DUP4 SLOAD DIV MUL DUP4 MSTORE SWAP2 PUSH1 0x20 ADD SWAP2 PUSH2 0x13EF JUMP JUMPDEST DUP3 ADD SWAP2 SWAP1 PUSH0 MSTORE PUSH1 0x20 PUSH0 KECCAK256 SWAP1 JUMPDEST DUP2 SLOAD DUP2 MSTORE SWAP1 PUSH1 0x1 ADD SWAP1 PUSH1 0x20 ADD DUP1 DUP4 GT PUSH2 0x13D2 JUMPI DUP3 SWAP1 SUB PUSH1 0x1F AND DUP3 ADD SWAP2 JUMPDEST POP POP POP POP POP DUP2 MSTORE PUSH1 0x20 ADD PUSH1 0x2 DUP3 ADD PUSH0 SWAP1 SLOAD SWAP1 PUSH2 0x100 EXP SWAP1 DIV PUSH20 0xFFFFFFFFFFFFFFFFFFFFFFFFFFFFFFFFFFFFFFFF AND PUSH20 0xFFFFFFFFFFFFFFFFFFFFFFFFFFFFFFFFFFFFFFFF AND PUSH20 0xFFFFFFFFFFFFFFFFFFFFFFFFFFFFFFFFFFFFFFFF AND DUP2 MSTORE PUSH1 0x20 ADD PUSH1 0x3 DUP3 ADD SLOAD DUP2 MSTORE POP POP DUP4 DUP4 DUP1 PUSH2 0x1463 SWAP1 PUSH2 0x247D JUMP JUMPDEST SWAP5 POP DUP2 MLOAD DUP2 LT PUSH2 0x1476 JUMPI PUSH2 0x1475 PUSH2 0x2423 JUMP JUMPDEST JUMPDEST PUSH1 0x20 MUL PUSH1 0x20 ADD ADD DUP2 SWAP1 MSTORE POP JUMPDEST DUP1 DUP1 PUSH1 0x1 ADD SWAP2 POP POP PUSH2 0x12FE JUMP JUMPDEST POP DUP2 SWAP4 POP POP POP POP SWAP2 SWAP1 POP JUMP JUMPDEST PUSH1 0x2 DUP2 DUP2 SLOAD DUP2 LT PUSH2 0x14AA JUMPI PUSH0 DUP1 REVERT JUMPDEST SWAP1 PUSH0 MSTORE PUSH1 0x20 PUSH0 KECCAK256 SWAP1 PUSH1 0x4 MUL ADD PUSH0 SWAP2 POP SWAP1 POP DUP1 PUSH0 ADD SLOAD SWAP1 DUP1 PUSH1 0x1 ADD DUP1 SLOAD PUSH2 0x14CF SWAP1 PUSH2 0x251E JUMP JUMPDEST DUP1 PUSH1 0x1F ADD PUSH1 0x20 DUP1 SWAP2 DIV MUL PUSH1 0x20 ADD PUSH1 0x40 MLOAD SWAP1 DUP2 ADD PUSH1 0x40 MSTORE DUP1 SWAP3 SWAP2 SWAP1 DUP2 DUP2 MSTORE PUSH1 0x20 ADD DUP3 DUP1 SLOAD PUSH2 0x14FB SWAP1 PUSH2 0x251E JUMP JUMPDEST DUP1 ISZERO PUSH2 0x1546 JUMPI DUP1 PUSH1 0x1F LT PUSH2 0x151D JUMPI PUSH2 0x100 DUP1 DUP4 SLOAD DIV MUL DUP4 MSTORE SWAP2 PUSH1 0x20 ADD SWAP2 PUSH2 0x1546 JUMP JUMPDEST DUP3 ADD SWAP2 SWAP1 PUSH0 MSTORE PUSH1 0x20 PUSH0 KECCAK256 SWAP1 JUMPDEST DUP2 SLOAD DUP2 MSTORE SWAP1 PUSH1 0x1 ADD SWAP1 PUSH1 0x20 ADD DUP1 DUP4 GT PUSH2 0x1529 JUMPI DUP3 SWAP1 SUB PUSH1 0x1F AND DUP3 ADD SWAP2 JUMPDEST POP POP POP POP POP SWAP1 DUP1 PUSH1 0x2 ADD PUSH0 SWAP1 SLOAD SWAP1 PUSH2 0x100 EXP SWAP1 DIV PUSH20 0xFFFFFFFFFFFFFFFFFFFFFFFFFFFFFFFFFFFFFFFF AND SWAP1 DUP1 PUSH1 0x3 ADD SLOAD SWAP1 POP DUP5 JUMP JUMPDEST PUSH0 PUSH20 0xFFFFFFFFFFFFFFFFFFFFFFFFFFFFFFFFFFFFFFFF AND DUP3 PUSH20 0xFFFFFFFFFFFFFFFFFFFFFFFFFFFFFFFFFFFFFFFF AND SUB PUSH2 0x15E9 JUMPI PUSH1 0x40 MLOAD PUSH32 0x8C379A000000000000000000000000000000000000000000000000000000000 DUP2 MSTORE PUSH1 0x4 ADD PUSH2 0x15E0 SWAP1 PUSH2 0x2920 JUMP JUMPDEST PUSH1 0x40 MLOAD DUP1 SWAP2 SUB SWAP1 REVERT JUMPDEST PUSH0 PUSH1 0x40 MLOAD DUP1 PUSH1 0x80 ADD PUSH1 0x40 MSTORE DUP1 DUP8 DUP2 MSTORE PUSH1 0x20 ADD DUP7 DUP7 DUP1 DUP1 PUSH1 0x1F ADD PUSH1 0x20 DUP1 SWAP2 DIV MUL PUSH1 0x20 ADD PUSH1 0x40 MLOAD SWAP1 DUP2 ADD PUSH1 0x40 MSTORE DUP1 SWAP4 SWAP3 SWAP2 SWAP1 DUP2 DUP2 MSTORE PUSH1 0x20 ADD DUP4 DUP4 DUP1 DUP3 DUP5 CALLDATACOPY PUSH0 DUP2 DUP5 ADD MSTORE PUSH1 0x1F NOT PUSH1 0x1F DUP3 ADD AND SWAP1 POP DUP1 DUP4 ADD SWAP3 POP POP POP POP POP POP POP DUP2 MSTORE PUSH1 0x20 ADD DUP5 PUSH20 0xFFFFFFFFFFFFFFFFFFFFFFFFFFFFFFFFFFFFFFFF AND DUP2 MSTORE PUSH1 0x20 ADD DUP4 DUP2 MSTORE POP SWAP1 POP PUSH1 0x2 DUP2 SWAP1 DUP1 PUSH1 0x1 DUP2 SLOAD ADD DUP1 DUP3 SSTORE DUP1 SWAP2 POP POP PUSH1 0x1 SWAP1 SUB SWAP1 PUSH0 MSTORE PUSH1 0x20 PUSH0 KECCAK256 SWAP1 PUSH1 0x4 MUL ADD PUSH0 SWAP1 SWAP2 SWAP1 SWAP2 SWAP1 SWAP2 POP PUSH0 DUP3 ADD MLOAD DUP2 PUSH0 ADD SSTORE PUSH1 0x20 DUP3 ADD MLOAD DUP2 PUSH1 0x1 ADD SWAP1 DUP2 PUSH2 0x16AC SWAP2 SWAP1 PUSH2 0x2807 JUMP JUMPDEST POP PUSH1 0x40 DUP3 ADD MLOAD DUP2 PUSH1 0x2 ADD PUSH0 PUSH2 0x100 EXP DUP2 SLOAD DUP2 PUSH20 0xFFFFFFFFFFFFFFFFFFFFFFFFFFFFFFFFFFFFFFFF MUL NOT AND SWAP1 DUP4 PUSH20 0xFFFFFFFFFFFFFFFFFFFFFFFFFFFFFFFFFFFFFFFF AND MUL OR SWAP1 SSTORE POP PUSH1 0x60 DUP3 ADD MLOAD DUP2 PUSH1 0x3 ADD SSTORE POP POP PUSH0 JUMPDEST PUSH1 0x3 DUP1 SLOAD SWAP1 POP DUP2 LT ISZERO PUSH2 0x1809 JUMPI DUP7 PUSH1 0x3 DUP3 DUP2 SLOAD DUP2 LT PUSH2 0x1723 JUMPI PUSH2 0x1722 PUSH2 0x2423 JUMP JUMPDEST JUMPDEST SWAP1 PUSH0 MSTORE PUSH1 0x20 PUSH0 KECCAK256 SWAP1 PUSH1 0x8 MUL ADD PUSH0 ADD SLOAD SUB PUSH2 0x17FE JUMPI DUP3 PUSH1 0x3 DUP3 DUP2 SLOAD DUP2 LT PUSH2 0x174C JUMPI PUSH2 0x174B PUSH2 0x2423 JUMP JUMPDEST JUMPDEST SWAP1 PUSH0 MSTORE PUSH1 0x20 PUSH0 KECCAK256 SWAP1 PUSH1 0x8 MUL ADD PUSH1 0x6 ADD PUSH0 DUP3 DUP3 SLOAD PUSH2 0x1769 SWAP2 SWAP1 PUSH2 0x293E JUMP JUMPDEST SWAP3 POP POP DUP2 SWAP1 SSTORE POP PUSH1 0x3 DUP2 DUP2 SLOAD DUP2 LT PUSH2 0x1784 JUMPI PUSH2 0x1783 PUSH2 0x2423 JUMP JUMPDEST JUMPDEST SWAP1 PUSH0 MSTORE PUSH1 0x20 PUSH0 KECCAK256 SWAP1 PUSH1 0x8 MUL ADD PUSH1 0x5 ADD SLOAD PUSH1 0x3 DUP3 DUP2 SLOAD DUP2 LT PUSH2 0x17A8 JUMPI PUSH2 0x17A7 PUSH2 0x2423 JUMP JUMPDEST JUMPDEST SWAP1 PUSH0 MSTORE PUSH1 0x20 PUSH0 KECCAK256 SWAP1 PUSH1 0x8 MUL ADD PUSH1 0x6 ADD SLOAD LT PUSH2 0x17F9 JUMPI PUSH1 0x1 PUSH1 0x3 DUP3 DUP2 SLOAD DUP2 LT PUSH2 0x17D3 JUMPI PUSH2 0x17D2 PUSH2 0x2423 JUMP JUMPDEST JUMPDEST SWAP1 PUSH0 MSTORE PUSH1 0x20 PUSH0 KECCAK256 SWAP1 PUSH1 0x8 MUL ADD PUSH1 0x7 ADD PUSH0 PUSH2 0x100 EXP DUP2 SLOAD DUP2 PUSH1 0xFF MUL NOT AND SWAP1 DUP4 ISZERO ISZERO MUL OR SWAP1 SSTORE POP JUMPDEST PUSH2 0x1809 JUMP JUMPDEST DUP1 PUSH1 0x1 ADD SWAP1 POP PUSH2 0x1701 JUMP JUMPDEST POP POP POP POP POP POP POP JUMP JUMPDEST PUSH2 0x181A PUSH2 0x1AF9 JUMP JUMPDEST PUSH1 0x3 DUP3 DUP2 SLOAD DUP2 LT PUSH2 0x182E JUMPI PUSH2 0x182D PUSH2 0x2423 JUMP JUMPDEST JUMPDEST SWAP1 PUSH0 MSTORE PUSH1 0x20 PUSH0 KECCAK256 SWAP1 PUSH1 0x8 MUL ADD PUSH1 0x7 ADD PUSH0 SWAP1 SLOAD SWAP1 PUSH2 0x100 EXP SWAP1 DIV PUSH1 0xFF AND ISZERO PUSH2 0x188A JUMPI PUSH1 0x40 MLOAD PUSH32 0x8C379A000000000000000000000000000000000000000000000000000000000 DUP2 MSTORE PUSH1 0x4 ADD PUSH2 0x1881 SWAP1 PUSH2 0x29BB JUMP JUMPDEST PUSH1 0x40 MLOAD DUP1 SWAP2 SUB SWAP1 REVERT JUMPDEST PUSH1 0x3 DUP3 DUP2 SLOAD DUP2 LT PUSH2 0x189E JUMPI PUSH2 0x189D PUSH2 0x2423 JUMP JUMPDEST JUMPDEST SWAP1 PUSH0 MSTORE PUSH1 0x20 PUSH0 KECCAK256 SWAP1 PUSH1 0x8 MUL ADD PUSH1 0x40 MLOAD DUP1 PUSH2 0x100 ADD PUSH1 0x40 MSTORE SWAP1 DUP2 PUSH0 DUP3 ADD SLOAD DUP2 MSTORE PUSH1 0x20 ADD PUSH1 0x1 DUP3 ADD DUP1 SLOAD PUSH2 0x18CF SWAP1 PUSH2 0x251E JUMP JUMPDEST DUP1 PUSH1 0x1F ADD PUSH1 0x20 DUP1 SWAP2 DIV MUL PUSH1 0x20 ADD PUSH1 0x40 MLOAD SWAP1 DUP2 ADD PUSH1 0x40 MSTORE DUP1 SWAP3 SWAP2 SWAP1 DUP2 DUP2 MSTORE PUSH1 0x20 ADD DUP3 DUP1 SLOAD PUSH2 0x18FB SWAP1 PUSH2 0x251E JUMP JUMPDEST DUP1 ISZERO PUSH2 0x1946 JUMPI DUP1 PUSH1 0x1F LT PUSH2 0x191D JUMPI PUSH2 0x100 DUP1 DUP4 SLOAD DIV MUL DUP4 MSTORE SWAP2 PUSH1 0x20 ADD SWAP2 PUSH2 0x1946 JUMP JUMPDEST DUP3 ADD SWAP2 SWAP1 PUSH0 MSTORE PUSH1 0x20 PUSH0 KECCAK256 SWAP1 JUMPDEST DUP2 SLOAD DUP2 MSTORE SWAP1 PUSH1 0x1 ADD SWAP1 PUSH1 0x20 ADD DUP1 DUP4 GT PUSH2 0x1929 JUMPI DUP3 SWAP1 SUB PUSH1 0x1F AND DUP3 ADD SWAP2 JUMPDEST POP POP POP POP POP DUP2 MSTORE PUSH1 0x20 ADD PUSH1 0x2 DUP3 ADD DUP1 SLOAD PUSH2 0x195F SWAP1 PUSH2 0x251E JUMP JUMPDEST DUP1 PUSH1 0x1F ADD PUSH1 0x20 DUP1 SWAP2 DIV MUL PUSH1 0x20 ADD PUSH1 0x40 MLOAD SWAP1 DUP2 ADD PUSH1 0x40 MSTORE DUP1 SWAP3 SWAP2 SWAP1 DUP2 DUP2 MSTORE PUSH1 0x20 ADD DUP3 DUP1 SLOAD PUSH2 0x198B SWAP1 PUSH2 0x251E JUMP JUMPDEST DUP1 ISZERO PUSH2 0x19D6 JUMPI DUP1 PUSH1 0x1F LT PUSH2 0x19AD JUMPI PUSH2 0x100 DUP1 DUP4 SLOAD DIV MUL DUP4 MSTORE SWAP2 PUSH1 0x20 ADD SWAP2 PUSH2 0x19D6 JUMP JUMPDEST DUP3 ADD SWAP2 SWAP1 PUSH0 MSTORE PUSH1 0x20 PUSH0 KECCAK256 SWAP1 JUMPDEST DUP2 SLOAD DUP2 MSTORE SWAP1 PUSH1 0x1 ADD SWAP1 PUSH1 0x20 ADD DUP1 DUP4 GT PUSH2 0x19B9 JUMPI DUP3 SWAP1 SUB PUSH1 0x1F AND DUP3 ADD SWAP2 JUMPDEST POP POP POP POP POP DUP2 MSTORE PUSH1 0x20 ADD PUSH1 0x3 DUP3 ADD PUSH0 SWAP1 SLOAD SWAP1 PUSH2 0x100 EXP SWAP1 DIV PUSH20 0xFFFFFFFFFFFFFFFFFFFFFFFFFFFFFFFFFFFFFFFF AND PUSH20 0xFFFFFFFFFFFFFFFFFFFFFFFFFFFFFFFFFFFFFFFF AND PUSH20 0xFFFFFFFFFFFFFFFFFFFFFFFFFFFFFFFFFFFFFFFF AND DUP2 MSTORE PUSH1 0x20 ADD PUSH1 0x4 DUP3 ADD DUP1 SLOAD PUSH2 0x1A44 SWAP1 PUSH2 0x251E JUMP JUMPDEST DUP1 PUSH1 0x1F ADD PUSH1 0x20 DUP1 SWAP2 DIV MUL PUSH1 0x20 ADD PUSH1 0x40 MLOAD SWAP1 DUP2 ADD PUSH1 0x40 MSTORE DUP1 SWAP3 SWAP2 SWAP1 DUP2 DUP2 MSTORE PUSH1 0x20 ADD DUP3 DUP1 SLOAD PUSH2 0x1A70 SWAP1 PUSH2 0x251E JUMP JUMPDEST DUP1 ISZERO PUSH2 0x1ABB JUMPI DUP1 PUSH1 0x1F LT PUSH2 0x1A92 JUMPI PUSH2 0x100 DUP1 DUP4 SLOAD DIV MUL DUP4 MSTORE SWAP2 PUSH1 0x20 ADD SWAP2 PUSH2 0x1ABB JUMP JUMPDEST DUP3 ADD SWAP2 SWAP1 PUSH0 MSTORE PUSH1 0x20 PUSH0 KECCAK256 SWAP1 JUMPDEST DUP2 SLOAD DUP2 MSTORE SWAP1 PUSH1 0x1 ADD SWAP1 PUSH1 0x20 ADD DUP1 DUP4 GT PUSH2 0x1A9E JUMPI DUP3 SWAP1 SUB PUSH1 0x1F AND DUP3 ADD SWAP2 JUMPDEST POP POP POP POP POP DUP2 MSTORE PUSH1 0x20 ADD PUSH1 0x5 DUP3 ADD SLOAD DUP2 MSTORE PUSH1 0x20 ADD PUSH1 0x6 DUP3 ADD SLOAD DUP2 MSTORE PUSH1 0x20 ADD PUSH1 0x7 DUP3 ADD PUSH0 SWAP1 SLOAD SWAP1 PUSH2 0x100 EXP SWAP1 DIV PUSH1 0xFF AND ISZERO ISZERO ISZERO ISZERO DUP2 MSTORE POP POP SWAP1 POP SWAP2 SWAP1 POP JUMP JUMPDEST PUSH1 0x40 MLOAD DUP1 PUSH2 0x100 ADD PUSH1 0x40 MSTORE DUP1 PUSH0 DUP2 MSTORE PUSH1 0x20 ADD PUSH1 0x60 DUP2 MSTORE PUSH1 0x20 ADD PUSH1 0x60 DUP2 MSTORE PUSH1 0x20 ADD PUSH0 PUSH20 0xFFFFFFFFFFFFFFFFFFFFFFFFFFFFFFFFFFFFFFFF AND DUP2 MSTORE PUSH1 0x20 ADD PUSH1 0x60 DUP2 MSTORE PUSH1 0x20 ADD PUSH0 DUP2 MSTORE PUSH1 0x20 ADD PUSH0 DUP2 MSTORE PUSH1 0x20 ADD PUSH0 ISZERO ISZERO DUP2 MSTORE POP SWAP1 JUMP JUMPDEST PUSH1 0x40 MLOAD DUP1 PUSH1 0x80 ADD PUSH1 0x40 MSTORE DUP1 PUSH0 DUP2 MSTORE PUSH1 0x20 ADD PUSH1 0x60 DUP2 MSTORE PUSH1 0x20 ADD PUSH0 PUSH20 0xFFFFFFFFFFFFFFFFFFFFFFFFFFFFFFFFFFFFFFFF AND DUP2 MSTORE PUSH1 0x20 ADD PUSH0 DUP2 MSTORE POP SWAP1 JUMP JUMPDEST PUSH0 DUP2 MLOAD SWAP1 POP SWAP2 SWAP1 POP JUMP JUMPDEST PUSH0 DUP3 DUP3 MSTORE PUSH1 0x20 DUP3 ADD SWAP1 POP SWAP3 SWAP2 POP POP JUMP JUMPDEST PUSH0 DUP2 SWAP1 POP PUSH1 0x20 DUP3 ADD SWAP1 POP SWAP2 SWAP1 POP JUMP JUMPDEST PUSH0 DUP2 SWAP1 POP SWAP2 SWAP1 POP JUMP JUMPDEST PUSH2 0x1BC7 DUP2 PUSH2 0x1BB5 JUMP JUMPDEST DUP3 MSTORE POP POP JUMP JUMPDEST PUSH0 DUP2 MLOAD SWAP1 POP SWAP2 SWAP1 POP JUMP JUMPDEST PUSH0 DUP3 DUP3 MSTORE PUSH1 0x20 DUP3 ADD SWAP1 POP SWAP3 SWAP2 POP POP JUMP JUMPDEST PUSH0 JUMPDEST DUP4 DUP2 LT ISZERO PUSH2 0x1C04 JUMPI DUP1 DUP3 ADD MLOAD DUP2 DUP5 ADD MSTORE PUSH1 0x20 DUP2 ADD SWAP1 POP PUSH2 0x1BE9 JUMP JUMPDEST PUSH0 DUP5 DUP5 ADD MSTORE POP POP POP POP JUMP JUMPDEST PUSH0 PUSH1 0x1F NOT PUSH1 0x1F DUP4 ADD AND SWAP1 POP SWAP2 SWAP1 POP JUMP JUMPDEST PUSH0 PUSH2 0x1C29 DUP3 PUSH2 0x1BCD JUMP JUMPDEST PUSH2 0x1C33 DUP2 DUP6 PUSH2 0x1BD7 JUMP JUMPDEST SWAP4 POP PUSH2 0x1C43 DUP2 DUP6 PUSH1 0x20 DUP7 ADD PUSH2 0x1BE7 JUMP JUMPDEST PUSH2 0x1C4C DUP2 PUSH2 0x1C0F JUMP JUMPDEST DUP5 ADD SWAP2 POP POP SWAP3 SWAP2 POP POP JUMP JUMPDEST PUSH0 PUSH20 0xFFFFFFFFFFFFFFFFFFFFFFFFFFFFFFFFFFFFFFFF DUP3 AND SWAP1 POP SWAP2 SWAP1 POP JUMP JUMPDEST PUSH0 PUSH2 0x1C80 DUP3 PUSH2 0x1C57 JUMP JUMPDEST SWAP1 POP SWAP2 SWAP1 POP JUMP JUMPDEST PUSH2 0x1C90 DUP2 PUSH2 0x1C76 JUMP JUMPDEST DUP3 MSTORE POP POP JUMP JUMPDEST PUSH0 DUP2 ISZERO ISZERO SWAP1 POP SWAP2 SWAP1 POP JUMP JUMPDEST PUSH2 0x1CAA DUP2 PUSH2 0x1C96 JUMP JUMPDEST DUP3 MSTORE POP POP JUMP JUMPDEST PUSH0 PUSH2 0x100 DUP4 ADD PUSH0 DUP4 ADD MLOAD PUSH2 0x1CC6 PUSH0 DUP7 ADD DUP3 PUSH2 0x1BBE JUMP JUMPDEST POP PUSH1 0x20 DUP4 ADD MLOAD DUP5 DUP3 SUB PUSH1 0x20 DUP7 ADD MSTORE PUSH2 0x1CDE DUP3 DUP3 PUSH2 0x1C1F JUMP JUMPDEST SWAP2 POP POP PUSH1 0x40 DUP4 ADD MLOAD DUP5 DUP3 SUB PUSH1 0x40 DUP7 ADD MSTORE PUSH2 0x1CF8 DUP3 DUP3 PUSH2 0x1C1F JUMP JUMPDEST SWAP2 POP POP PUSH1 0x60 DUP4 ADD MLOAD PUSH2 0x1D0D PUSH1 0x60 DUP7 ADD DUP3 PUSH2 0x1C87 JUMP JUMPDEST POP PUSH1 0x80 DUP4 ADD MLOAD DUP5 DUP3 SUB PUSH1 0x80 DUP7 ADD MSTORE PUSH2 0x1D25 DUP3 DUP3 PUSH2 0x1C1F JUMP JUMPDEST SWAP2 POP POP PUSH1 0xA0 DUP4 ADD MLOAD PUSH2 0x1D3A PUSH1 0xA0 DUP7 ADD DUP3 PUSH2 0x1BBE JUMP JUMPDEST POP PUSH1 0xC0 DUP4 ADD MLOAD PUSH2 0x1D4D PUSH1 0xC0 DUP7 ADD DUP3 PUSH2 0x1BBE JUMP JUMPDEST POP PUSH1 0xE0 DUP4 ADD MLOAD PUSH2 0x1D60 PUSH1 0xE0 DUP7 ADD DUP3 PUSH2 0x1CA1 JUMP JUMPDEST POP DUP1 SWAP2 POP POP SWAP3 SWAP2 POP POP JUMP JUMPDEST PUSH0 PUSH2 0x1D76 DUP4 DUP4 PUSH2 0x1CB0 JUMP JUMPDEST SWAP1 POP SWAP3 SWAP2 POP POP JUMP JUMPDEST PUSH0 PUSH1 0x20 DUP3 ADD SWAP1 POP SWAP2 SWAP1 POP JUMP JUMPDEST PUSH0 PUSH2 0x1D94 DUP3 PUSH2 0x1B8C JUMP JUMPDEST PUSH2 0x1D9E DUP2 DUP6 PUSH2 0x1B96 JUMP JUMPDEST SWAP4 POP DUP4 PUSH1 0x20 DUP3 MUL DUP6 ADD PUSH2 0x1DB0 DUP6 PUSH2 0x1BA6 JUMP JUMPDEST DUP1 PUSH0 JUMPDEST DUP6 DUP2 LT ISZERO PUSH2 0x1DEB JUMPI DUP5 DUP5 SUB DUP10 MSTORE DUP2 MLOAD PUSH2 0x1DCC DUP6 DUP3 PUSH2 0x1D6B JUMP JUMPDEST SWAP5 POP PUSH2 0x1DD7 DUP4 PUSH2 0x1D7E JUMP JUMPDEST SWAP3 POP PUSH1 0x20 DUP11 ADD SWAP10 POP POP PUSH1 0x1 DUP2 ADD SWAP1 POP PUSH2 0x1DB3 JUMP JUMPDEST POP DUP3 SWAP8 POP DUP8 SWAP6 POP POP POP POP POP POP SWAP3 SWAP2 POP POP JUMP JUMPDEST PUSH0 PUSH1 0x20 DUP3 ADD SWAP1 POP DUP2 DUP2 SUB PUSH0 DUP4 ADD MSTORE PUSH2 0x1E15 DUP2 DUP5 PUSH2 0x1D8A JUMP JUMPDEST SWAP1 POP SWAP3 SWAP2 POP POP JUMP JUMPDEST PUSH2 0x1E26 DUP2 PUSH2 0x1BB5 JUMP JUMPDEST DUP3 MSTORE POP POP JUMP JUMPDEST PUSH0 PUSH1 0x20 DUP3 ADD SWAP1 POP PUSH2 0x1E3F PUSH0 DUP4 ADD DUP5 PUSH2 0x1E1D JUMP JUMPDEST SWAP3 SWAP2 POP POP JUMP JUMPDEST PUSH0 DUP1 REVERT JUMPDEST PUSH0 DUP1 REVERT JUMPDEST PUSH0 DUP1 REVERT JUMPDEST PUSH0 DUP1 REVERT JUMPDEST PUSH0 DUP1 REVERT JUMPDEST PUSH0 DUP1 DUP4 PUSH1 0x1F DUP5 ADD SLT PUSH2 0x1E6E JUMPI PUSH2 0x1E6D PUSH2 0x1E4D JUMP JUMPDEST JUMPDEST DUP3 CALLDATALOAD SWAP1 POP PUSH8 0xFFFFFFFFFFFFFFFF DUP2 GT ISZERO PUSH2 0x1E8B JUMPI PUSH2 0x1E8A PUSH2 0x1E51 JUMP JUMPDEST JUMPDEST PUSH1 0x20 DUP4 ADD SWAP2 POP DUP4 PUSH1 0x1 DUP3 MUL DUP4 ADD GT ISZERO PUSH2 0x1EA7 JUMPI PUSH2 0x1EA6 PUSH2 0x1E55 JUMP JUMPDEST JUMPDEST SWAP3 POP SWAP3 SWAP1 POP JUMP JUMPDEST PUSH2 0x1EB7 DUP2 PUSH2 0x1C76 JUMP JUMPDEST DUP2 EQ PUSH2 0x1EC1 JUMPI PUSH0 DUP1 REVERT JUMPDEST POP JUMP JUMPDEST PUSH0 DUP2 CALLDATALOAD SWAP1 POP PUSH2 0x1ED2 DUP2 PUSH2 0x1EAE JUMP JUMPDEST SWAP3 SWAP2 POP POP JUMP JUMPDEST PUSH2 0x1EE1 DUP2 PUSH2 0x1BB5 JUMP JUMPDEST DUP2 EQ PUSH2 0x1EEB JUMPI PUSH0 DUP1 REVERT JUMPDEST POP JUMP JUMPDEST PUSH0 DUP2 CALLDATALOAD SWAP1 POP PUSH2 0x1EFC DUP2 PUSH2 0x1ED8 JUMP JUMPDEST SWAP3 SWAP2 POP POP JUMP JUMPDEST PUSH0 DUP1 PUSH0 DUP1 PUSH0 DUP1 PUSH0 DUP1 PUSH1 0xA0 DUP10 DUP12 SUB SLT ISZERO PUSH2 0x1F1E JUMPI PUSH2 0x1F1D PUSH2 0x1E45 JUMP JUMPDEST JUMPDEST PUSH0 DUP10 ADD CALLDATALOAD PUSH8 0xFFFFFFFFFFFFFFFF DUP2 GT ISZERO PUSH2 0x1F3B JUMPI PUSH2 0x1F3A PUSH2 0x1E49 JUMP JUMPDEST JUMPDEST PUSH2 0x1F47 DUP12 DUP3 DUP13 ADD PUSH2 0x1E59 JUMP JUMPDEST SWAP9 POP SWAP9 POP POP PUSH1 0x20 PUSH2 0x1F5A DUP12 DUP3 DUP13 ADD PUSH2 0x1EC4 JUMP JUMPDEST SWAP7 POP POP PUSH1 0x40 DUP10 ADD CALLDATALOAD PUSH8 0xFFFFFFFFFFFFFFFF DUP2 GT ISZERO PUSH2 0x1F7B JUMPI PUSH2 0x1F7A PUSH2 0x1E49 JUMP JUMPDEST JUMPDEST PUSH2 0x1F87 DUP12 DUP3 DUP13 ADD PUSH2 0x1E59 JUMP JUMPDEST SWAP6 POP SWAP6 POP POP PUSH1 0x60 DUP10 ADD CALLDATALOAD PUSH8 0xFFFFFFFFFFFFFFFF DUP2 GT ISZERO PUSH2 0x1FAA JUMPI PUSH2 0x1FA9 PUSH2 0x1E49 JUMP JUMPDEST JUMPDEST PUSH2 0x1FB6 DUP12 DUP3 DUP13 ADD PUSH2 0x1E59 JUMP JUMPDEST SWAP4 POP SWAP4 POP POP PUSH1 0x80 PUSH2 0x1FC9 DUP12 DUP3 DUP13 ADD PUSH2 0x1EEE JUMP JUMPDEST SWAP2 POP POP SWAP3 SWAP6 SWAP9 POP SWAP3 SWAP6 SWAP9 SWAP1 SWAP4 SWAP7 POP JUMP JUMPDEST PUSH0 PUSH1 0x20 DUP3 DUP5 SUB SLT ISZERO PUSH2 0x1FEE JUMPI PUSH2 0x1FED PUSH2 0x1E45 JUMP JUMPDEST JUMPDEST PUSH0 PUSH2 0x1FFB DUP5 DUP3 DUP6 ADD PUSH2 0x1EC4 JUMP JUMPDEST SWAP2 POP POP SWAP3 SWAP2 POP POP JUMP JUMPDEST PUSH0 DUP2 MLOAD SWAP1 POP SWAP2 SWAP1 POP JUMP JUMPDEST PUSH0 DUP3 DUP3 MSTORE PUSH1 0x20 DUP3 ADD SWAP1 POP SWAP3 SWAP2 POP POP JUMP JUMPDEST PUSH0 DUP2 SWAP1 POP PUSH1 0x20 DUP3 ADD SWAP1 POP SWAP2 SWAP1 POP JUMP JUMPDEST PUSH0 PUSH1 0x80 DUP4 ADD PUSH0 DUP4 ADD MLOAD PUSH2 0x2042 PUSH0 DUP7 ADD DUP3 PUSH2 0x1BBE JUMP JUMPDEST POP PUSH1 0x20 DUP4 ADD MLOAD DUP5 DUP3 SUB PUSH1 0x20 DUP7 ADD MSTORE PUSH2 0x205A DUP3 DUP3 PUSH2 0x1C1F JUMP JUMPDEST SWAP2 POP POP PUSH1 0x40 DUP4 ADD MLOAD PUSH2 0x206F PUSH1 0x40 DUP7 ADD DUP3 PUSH2 0x1C87 JUMP JUMPDEST POP PUSH1 0x60 DUP4 ADD MLOAD PUSH2 0x2082 PUSH1 0x60 DUP7 ADD DUP3 PUSH2 0x1BBE JUMP JUMPDEST POP DUP1 SWAP2 POP POP SWAP3 SWAP2 POP POP JUMP JUMPDEST PUSH0 PUSH2 0x2098 DUP4 DUP4 PUSH2 0x202D JUMP JUMPDEST SWAP1 POP SWAP3 SWAP2 POP POP JUMP JUMPDEST PUSH0 PUSH1 0x20 DUP3 ADD SWAP1 POP SWAP2 SWAP1 POP JUMP JUMPDEST PUSH0 PUSH2 0x20B6 DUP3 PUSH2 0x2004 JUMP JUMPDEST PUSH2 0x20C0 DUP2 DUP6 PUSH2 0x200E JUMP JUMPDEST SWAP4 POP DUP4 PUSH1 0x20 DUP3 MUL DUP6 ADD PUSH2 0x20D2 DUP6 PUSH2 0x201E JUMP JUMPDEST DUP1 PUSH0 JUMPDEST DUP6 DUP2 LT ISZERO PUSH2 0x210D JUMPI DUP5 DUP5 SUB DUP10 MSTORE DUP2 MLOAD PUSH2 0x20EE DUP6 DUP3 PUSH2 0x208D JUMP JUMPDEST SWAP5 POP PUSH2 0x20F9 DUP4 PUSH2 0x20A0 JUMP JUMPDEST SWAP3 POP PUSH1 0x20 DUP11 ADD SWAP10 POP POP PUSH1 0x1 DUP2 ADD SWAP1 POP PUSH2 0x20D5 JUMP JUMPDEST POP DUP3 SWAP8 POP DUP8 SWAP6 POP POP POP POP POP POP SWAP3 SWAP2 POP POP JUMP JUMPDEST PUSH0 PUSH1 0x20 DUP3 ADD SWAP1 POP DUP2 DUP2 SUB PUSH0 DUP4 ADD MSTORE PUSH2 0x2137 DUP2 DUP5 PUSH2 0x20AC JUMP JUMPDEST SWAP1 POP SWAP3 SWAP2 POP POP JUMP JUMPDEST PUSH0 PUSH1 0x20 DUP3 DUP5 SUB SLT ISZERO PUSH2 0x2154 JUMPI PUSH2 0x2153 PUSH2 0x1E45 JUMP JUMPDEST JUMPDEST PUSH0 PUSH2 0x2161 DUP5 DUP3 DUP6 ADD PUSH2 0x1EEE JUMP JUMPDEST SWAP2 POP POP SWAP3 SWAP2 POP POP JUMP JUMPDEST PUSH0 DUP3 DUP3 MSTORE PUSH1 0x20 DUP3 ADD SWAP1 POP SWAP3 SWAP2 POP POP JUMP JUMPDEST PUSH0 PUSH2 0x2184 DUP3 PUSH2 0x1BCD JUMP JUMPDEST PUSH2 0x218E DUP2 DUP6 PUSH2 0x216A JUMP JUMPDEST SWAP4 POP PUSH2 0x219E DUP2 DUP6 PUSH1 0x20 DUP7 ADD PUSH2 0x1BE7 JUMP JUMPDEST PUSH2 0x21A7 DUP2 PUSH2 0x1C0F JUMP JUMPDEST DUP5 ADD SWAP2 POP POP SWAP3 SWAP2 POP POP JUMP JUMPDEST PUSH2 0x21BB DUP2 PUSH2 0x1C76 JUMP JUMPDEST DUP3 MSTORE POP POP JUMP JUMPDEST PUSH2 0x21CA DUP2 PUSH2 0x1C96 JUMP JUMPDEST DUP3 MSTORE POP POP JUMP JUMPDEST PUSH0 PUSH2 0x100 DUP3 ADD SWAP1 POP PUSH2 0x21E4 PUSH0 DUP4 ADD DUP12 PUSH2 0x1E1D JUMP JUMPDEST DUP2 DUP2 SUB PUSH1 0x20 DUP4 ADD MSTORE PUSH2 0x21F6 DUP2 DUP11 PUSH2 0x217A JUMP JUMPDEST SWAP1 POP DUP2 DUP2 SUB PUSH1 0x40 DUP4 ADD MSTORE PUSH2 0x220A DUP2 DUP10 PUSH2 0x217A JUMP JUMPDEST SWAP1 POP PUSH2 0x2219 PUSH1 0x60 DUP4 ADD DUP9 PUSH2 0x21B2 JUMP JUMPDEST DUP2 DUP2 SUB PUSH1 0x80 DUP4 ADD MSTORE PUSH2 0x222B DUP2 DUP8 PUSH2 0x217A JUMP JUMPDEST SWAP1 POP PUSH2 0x223A PUSH1 0xA0 DUP4 ADD DUP7 PUSH2 0x1E1D JUMP JUMPDEST PUSH2 0x2247 PUSH1 0xC0 DUP4 ADD DUP6 PUSH2 0x1E1D JUMP JUMPDEST PUSH2 0x2254 PUSH1 0xE0 DUP4 ADD DUP5 PUSH2 0x21C1 JUMP JUMPDEST SWAP10 SWAP9 POP POP POP POP POP POP POP POP POP JUMP JUMPDEST PUSH0 PUSH1 0x20 DUP3 ADD SWAP1 POP PUSH2 0x2274 PUSH0 DUP4 ADD DUP5 PUSH2 0x21C1 JUMP JUMPDEST SWAP3 SWAP2 POP POP JUMP JUMPDEST PUSH0 PUSH1 0x80 DUP3 ADD SWAP1 POP PUSH2 0x228D PUSH0 DUP4 ADD DUP8 PUSH2 0x1E1D JUMP JUMPDEST DUP2 DUP2 SUB PUSH1 0x20 DUP4 ADD MSTORE PUSH2 0x229F DUP2 DUP7 PUSH2 0x217A JUMP JUMPDEST SWAP1 POP PUSH2 0x22AE PUSH1 0x40 DUP4 ADD DUP6 PUSH2 0x21B2 JUMP JUMPDEST PUSH2 0x22BB PUSH1 0x60 DUP4 ADD DUP5 PUSH2 0x1E1D JUMP JUMPDEST SWAP6 SWAP5 POP POP POP POP POP JUMP JUMPDEST PUSH0 DUP1 PUSH0 DUP1 PUSH0 PUSH1 0x80 DUP7 DUP9 SUB SLT ISZERO PUSH2 0x22DD JUMPI PUSH2 0x22DC PUSH2 0x1E45 JUMP JUMPDEST JUMPDEST PUSH0 PUSH2 0x22EA DUP9 DUP3 DUP10 ADD PUSH2 0x1EEE JUMP JUMPDEST SWAP6 POP POP PUSH1 0x20 DUP7 ADD CALLDATALOAD PUSH8 0xFFFFFFFFFFFFFFFF DUP2 GT ISZERO PUSH2 0x230B JUMPI PUSH2 0x230A PUSH2 0x1E49 JUMP JUMPDEST JUMPDEST PUSH2 0x2317 DUP9 DUP3 DUP10 ADD PUSH2 0x1E59 JUMP JUMPDEST SWAP5 POP SWAP5 POP POP PUSH1 0x40 PUSH2 0x232A DUP9 DUP3 DUP10 ADD PUSH2 0x1EC4 JUMP JUMPDEST SWAP3 POP POP PUSH1 0x60 PUSH2 0x233B DUP9 DUP3 DUP10 ADD PUSH2 0x1EEE JUMP JUMPDEST SWAP2 POP POP SWAP3 SWAP6 POP SWAP3 SWAP6 SWAP1 SWAP4 POP JUMP JUMPDEST PUSH0 PUSH2 0x100 DUP4 ADD PUSH0 DUP4 ADD MLOAD PUSH2 0x235E PUSH0 DUP7 ADD DUP3 PUSH2 0x1BBE JUMP JUMPDEST POP PUSH1 0x20 DUP4 ADD MLOAD DUP5 DUP3 SUB PUSH1 0x20 DUP7 ADD MSTORE PUSH2 0x2376 DUP3 DUP3 PUSH2 0x1C1F JUMP JUMPDEST SWAP2 POP POP PUSH1 0x40 DUP4 ADD MLOAD DUP5 DUP3 SUB PUSH1 0x40 DUP7 ADD MSTORE PUSH2 0x2390 DUP3 DUP3 PUSH2 0x1C1F JUMP JUMPDEST SWAP2 POP POP PUSH1 0x60 DUP4 ADD MLOAD PUSH2 0x23A5 PUSH1 0x60 DUP7 ADD DUP3 PUSH2 0x1C87 JUMP JUMPDEST POP PUSH1 0x80 DUP4 ADD MLOAD DUP5 DUP3 SUB PUSH1 0x80 DUP7 ADD MSTORE PUSH2 0x23BD DUP3 DUP3 PUSH2 0x1C1F JUMP JUMPDEST SWAP2 POP POP PUSH1 0xA0 DUP4 ADD MLOAD PUSH2 0x23D2 PUSH1 0xA0 DUP7 ADD DUP3 PUSH2 0x1BBE JUMP JUMPDEST POP PUSH1 0xC0 DUP4 ADD MLOAD PUSH2 0x23E5 PUSH1 0xC0 DUP7 ADD DUP3 PUSH2 0x1BBE JUMP JUMPDEST POP PUSH1 0xE0 DUP4 ADD MLOAD PUSH2 0x23F8 PUSH1 0xE0 DUP7 ADD DUP3 PUSH2 0x1CA1 JUMP JUMPDEST POP DUP1 SWAP2 POP POP SWAP3 SWAP2 POP POP JUMP JUMPDEST PUSH0 PUSH1 0x20 DUP3 ADD SWAP1 POP DUP2 DUP2 SUB PUSH0 DUP4 ADD MSTORE PUSH2 0x241B DUP2 DUP5 PUSH2 0x2348 JUMP JUMPDEST SWAP1 POP SWAP3 SWAP2 POP POP JUMP JUMPDEST PUSH32 0x4E487B7100000000000000000000000000000000000000000000000000000000 PUSH0 MSTORE PUSH1 0x32 PUSH1 0x4 MSTORE PUSH1 0x24 PUSH0 REVERT JUMPDEST PUSH32 0x4E487B7100000000000000000000000000000000000000000000000000000000 PUSH0 MSTORE PUSH1 0x11 PUSH1 0x4 MSTORE PUSH1 0x24 PUSH0 REVERT JUMPDEST PUSH0 PUSH2 0x2487 DUP3 PUSH2 0x1BB5 JUMP JUMPDEST SWAP2 POP PUSH32 0xFFFFFFFFFFFFFFFFFFFFFFFFFFFFFFFFFFFFFFFFFFFFFFFFFFFFFFFFFFFFFFFF DUP3 SUB PUSH2 0x24B9 JUMPI PUSH2 0x24B8 PUSH2 0x2450 JUMP JUMPDEST JUMPDEST PUSH1 0x1 DUP3 ADD SWAP1 POP SWAP2 SWAP1 POP JUMP JUMPDEST PUSH32 0x4E487B7100000000000000000000000000000000000000000000000000000000 PUSH0 MSTORE PUSH1 0x41 PUSH1 0x4 MSTORE PUSH1 0x24 PUSH0 REVERT JUMPDEST PUSH32 0x4E487B7100000000000000000000000000000000000000000000000000000000 PUSH0 MSTORE PUSH1 0x22 PUSH1 0x4 MSTORE PUSH1 0x24 PUSH0 REVERT JUMPDEST PUSH0 PUSH1 0x2 DUP3 DIV SWAP1 POP PUSH1 0x1 DUP3 AND DUP1 PUSH2 0x2535 JUMPI PUSH1 0x7F DUP3 AND SWAP2 POP JUMPDEST PUSH1 0x20 DUP3 LT DUP2 SUB PUSH2 0x2548 JUMPI PUSH2 0x2547 PUSH2 0x24F1 JUMP JUMPDEST JUMPDEST POP SWAP2 SWAP1 POP JUMP JUMPDEST PUSH32 0x696E76616C696420686F73742061646472657373000000000000000000000000 PUSH0 DUP3 ADD MSTORE POP JUMP JUMPDEST PUSH0 PUSH2 0x2582 PUSH1 0x14 DUP4 PUSH2 0x216A JUMP JUMPDEST SWAP2 POP PUSH2 0x258D DUP3 PUSH2 0x254E JUMP JUMPDEST PUSH1 0x20 DUP3 ADD SWAP1 POP SWAP2 SWAP1 POP JUMP JUMPDEST PUSH0 PUSH1 0x20 DUP3 ADD SWAP1 POP DUP2 DUP2 SUB PUSH0 DUP4 ADD MSTORE PUSH2 0x25AF DUP2 PUSH2 0x2576 JUMP JUMPDEST SWAP1 POP SWAP2 SWAP1 POP JUMP JUMPDEST PUSH32 0x536F7272792C20736F6D656F6E65206973206372656174696E67207468652062 PUSH0 DUP3 ADD MSTORE PUSH32 0x6F6172642E20506C65617320776169742061206D696E75746520616E64207265 PUSH1 0x20 DUP3 ADD MSTORE PUSH32 0x7065617400000000000000000000000000000000000000000000000000000000 PUSH1 0x40 DUP3 ADD MSTORE POP JUMP JUMPDEST PUSH0 PUSH2 0x2636 PUSH1 0x44 DUP4 PUSH2 0x216A JUMP JUMPDEST SWAP2 POP PUSH2 0x2641 DUP3 PUSH2 0x25B6 JUMP JUMPDEST PUSH1 0x60 DUP3 ADD SWAP1 POP SWAP2 SWAP1 POP JUMP JUMPDEST PUSH0 PUSH1 0x20 DUP3 ADD SWAP1 POP DUP2 DUP2 SUB PUSH0 DUP4 ADD MSTORE PUSH2 0x2663 DUP2 PUSH2 0x262A JUMP JUMPDEST SWAP1 POP SWAP2 SWAP1 POP JUMP JUMPDEST PUSH0 DUP2 SWAP1 POP DUP2 PUSH0 MSTORE PUSH1 0x20 PUSH0 KECCAK256 SWAP1 POP SWAP2 SWAP1 POP JUMP JUMPDEST PUSH0 PUSH1 0x20 PUSH1 0x1F DUP4 ADD DIV SWAP1 POP SWAP2 SWAP1 POP JUMP JUMPDEST PUSH0 DUP3 DUP3 SHL SWAP1 POP SWAP3 SWAP2 POP POP JUMP JUMPDEST PUSH0 PUSH1 0x8 DUP4 MUL PUSH2 0x26C6 PUSH32 0xFFFFFFFFFFFFFFFFFFFFFFFFFFFFFFFFFFFFFFFFFFFFFFFFFFFFFFFFFFFFFFFF DUP3 PUSH2 0x268B JUMP JUMPDEST PUSH2 0x26D0 DUP7 DUP4 PUSH2 0x268B JUMP JUMPDEST SWAP6 POP DUP1 NOT DUP5 AND SWAP4 POP DUP1 DUP7 AND DUP5 OR SWAP3 POP POP POP SWAP4 SWAP3 POP POP POP JUMP JUMPDEST PUSH0 DUP2 SWAP1 POP SWAP2 SWAP1 POP JUMP JUMPDEST PUSH0 PUSH2 0x270B PUSH2 0x2706 PUSH2 0x2701 DUP5 PUSH2 0x1BB5 JUMP JUMPDEST PUSH2 0x26E8 JUMP JUMPDEST PUSH2 0x1BB5 JUMP JUMPDEST SWAP1 POP SWAP2 SWAP1 POP JUMP JUMPDEST PUSH0 DUP2 SWAP1 POP SWAP2 SWAP1 POP JUMP JUMPDEST PUSH2 0x2724 DUP4 PUSH2 0x26F1 JUMP JUMPDEST PUSH2 0x2738 PUSH2 0x2730 DUP3 PUSH2 0x2712 JUMP JUMPDEST DUP5 DUP5 SLOAD PUSH2 0x2697 JUMP JUMPDEST DUP3 SSTORE POP POP POP POP JUMP JUMPDEST PUSH0 SWAP1 JUMP JUMPDEST PUSH2 0x274C PUSH2 0x2740 JUMP JUMPDEST PUSH2 0x2757 DUP2 DUP5 DUP5 PUSH2 0x271B JUMP JUMPDEST POP POP POP JUMP JUMPDEST JUMPDEST DUP2 DUP2 LT ISZERO PUSH2 0x277A JUMPI PUSH2 0x276F PUSH0 DUP3 PUSH2 0x2744 JUMP JUMPDEST PUSH1 0x1 DUP2 ADD SWAP1 POP PUSH2 0x275D JUMP JUMPDEST POP POP JUMP JUMPDEST PUSH1 0x1F DUP3 GT ISZERO PUSH2 0x27BF JUMPI PUSH2 0x2790 DUP2 PUSH2 0x266A JUMP JUMPDEST PUSH2 0x2799 DUP5 PUSH2 0x267C JUMP JUMPDEST DUP2 ADD PUSH1 0x20 DUP6 LT ISZERO PUSH2 0x27A8 JUMPI DUP2 SWAP1 POP JUMPDEST PUSH2 0x27BC PUSH2 0x27B4 DUP6 PUSH2 0x267C JUMP JUMPDEST DUP4 ADD DUP3 PUSH2 0x275C JUMP JUMPDEST POP POP JUMPDEST POP POP POP JUMP JUMPDEST PUSH0 DUP3 DUP3 SHR SWAP1 POP SWAP3 SWAP2 POP POP JUMP JUMPDEST PUSH0 PUSH2 0x27DF PUSH0 NOT DUP5 PUSH1 0x8 MUL PUSH2 0x27C4 JUMP JUMPDEST NOT DUP1 DUP4 AND SWAP2 POP POP SWAP3 SWAP2 POP POP JUMP JUMPDEST PUSH0 PUSH2 0x27F7 DUP4 DUP4 PUSH2 0x27D0 JUMP JUMPDEST SWAP2 POP DUP3 PUSH1 0x2 MUL DUP3 OR SWAP1 POP SWAP3 SWAP2 POP POP JUMP JUMPDEST PUSH2 0x2810 DUP3 PUSH2 0x1BCD JUMP JUMPDEST PUSH8 0xFFFFFFFFFFFFFFFF DUP2 GT ISZERO PUSH2 0x2829 JUMPI PUSH2 0x2828 PUSH2 0x24C4 JUMP JUMPDEST JUMPDEST PUSH2 0x2833 DUP3 SLOAD PUSH2 0x251E JUMP JUMPDEST PUSH2 0x283E DUP3 DUP3 DUP6 PUSH2 0x277E JUMP JUMPDEST PUSH0 PUSH1 0x20 SWAP1 POP PUSH1 0x1F DUP4 GT PUSH1 0x1 DUP2 EQ PUSH2 0x286F JUMPI PUSH0 DUP5 ISZERO PUSH2 0x285D JUMPI DUP3 DUP8 ADD MLOAD SWAP1 POP JUMPDEST PUSH2 0x2867 DUP6 DUP3 PUSH2 0x27EC JUMP JUMPDEST DUP7 SSTORE POP PUSH2 0x28CE JUMP JUMPDEST PUSH1 0x1F NOT DUP5 AND PUSH2 0x287D DUP7 PUSH2 0x266A JUMP JUMPDEST PUSH0 JUMPDEST DUP3 DUP2 LT ISZERO PUSH2 0x28A4 JUMPI DUP5 DUP10 ADD MLOAD DUP3 SSTORE PUSH1 0x1 DUP3 ADD SWAP2 POP PUSH1 0x20 DUP6 ADD SWAP5 POP PUSH1 0x20 DUP2 ADD SWAP1 POP PUSH2 0x287F JUMP JUMPDEST DUP7 DUP4 LT ISZERO PUSH2 0x28C1 JUMPI DUP5 DUP10 ADD MLOAD PUSH2 0x28BD PUSH1 0x1F DUP10 AND DUP3 PUSH2 0x27D0 JUMP JUMPDEST DUP4 SSTORE POP JUMPDEST PUSH1 0x1 PUSH1 0x2 DUP9 MUL ADD DUP9 SSTORE POP POP POP JUMPDEST POP POP POP POP POP POP JUMP JUMPDEST PUSH32 0x696E76616C696420616464726573730000000000000000000000000000000000 PUSH0 DUP3 ADD MSTORE POP JUMP JUMPDEST PUSH0 PUSH2 0x290A PUSH1 0xF DUP4 PUSH2 0x216A JUMP JUMPDEST SWAP2 POP PUSH2 0x2915 DUP3 PUSH2 0x28D6 JUMP JUMPDEST PUSH1 0x20 DUP3 ADD SWAP1 POP SWAP2 SWAP1 POP JUMP JUMPDEST PUSH0 PUSH1 0x20 DUP3 ADD SWAP1 POP DUP2 DUP2 SUB PUSH0 DUP4 ADD MSTORE PUSH2 0x2937 DUP2 PUSH2 0x28FE JUMP JUMPDEST SWAP1 POP SWAP2 SWAP1 POP JUMP JUMPDEST PUSH0 PUSH2 0x2948 DUP3 PUSH2 0x1BB5 JUMP JUMPDEST SWAP2 POP PUSH2 0x2953 DUP4 PUSH2 0x1BB5 JUMP JUMPDEST SWAP3 POP DUP3 DUP3 ADD SWAP1 POP DUP1 DUP3 GT ISZERO PUSH2 0x296B JUMPI PUSH2 0x296A PUSH2 0x2450 JUMP JUMPDEST JUMPDEST SWAP3 SWAP2 POP POP JUMP JUMPDEST PUSH32 0x5468697320626F61726420686173206578706972656400000000000000000000 PUSH0 DUP3 ADD MSTORE POP JUMP JUMPDEST PUSH0 PUSH2 0x29A5 PUSH1 0x16 DUP4 PUSH2 0x216A JUMP JUMPDEST SWAP2 POP PUSH2 0x29B0 DUP3 PUSH2 0x2971 JUMP JUMPDEST PUSH1 0x20 DUP3 ADD SWAP1 POP SWAP2 SWAP1 POP JUMP JUMPDEST PUSH0 PUSH1 0x20 DUP3 ADD SWAP1 POP DUP2 DUP2 SUB PUSH0 DUP4 ADD MSTORE PUSH2 0x29D2 DUP2 PUSH2 0x2999 JUMP JUMPDEST SWAP1 POP SWAP2 SWAP1 POP JUMP INVALID LOG2 PUSH5 0x6970667358 0x22 SLT KECCAK256 SWAP5 0xC9 0xDB TIMESTAMP 0xA5 EXP 0x4B 0xD CALLDATALOAD 0xC3 ADDMOD EXTCODECOPY SWAP5 0xD0 0xC9 0xB4 SUB 0x4D 0xFB PUSH12 0x2BF722B73DBB21CAA4B22C26 PUSH5 0x736F6C6343 STOP ADDMOD XOR STOP CALLER "
				},
				"gasEstimates": {
					"creation": {
						"codeDepositCost": "2153400",
						"executionCost": "31570",
						"totalCost": "2184970"
					},
					"external": {
						"boardIndex()": "2448",
						"boards(uint256)": "infinite",
						"createBoard(string,address,string,string,uint256)": "infinite",
						"donate(uint256,string,address,uint256)": "infinite",
						"donators(uint256)": "infinite",
						"getAllBoardsExpir()": "infinite",
						"getAllBoardsUnExpir()": "infinite",
						"getBoardInfo(uint256)": "infinite",
						"getDonatorInBoard(uint256)": "infinite",
						"getDonatorInfoByAddr(address)": "infinite",
						"mutex()": "2485"
					}
				},
				"methodIdentifiers": {
					"boardIndex()": "2277c26f",
					"boards(uint256)": "9a7083f9",
					"createBoard(string,address,string,string,uint256)": "3276be61",
					"donate(uint256,string,address,uint256)": "c985e773",
					"donators(uint256)": "ac62f566",
					"getAllBoardsExpir()": "334576d9",
					"getAllBoardsUnExpir()": "0f0e609c",
					"getBoardInfo(uint256)": "d1fb28bb",
					"getDonatorInBoard(uint256)": "ac467355",
					"getDonatorInfoByAddr(address)": "5488d56b",
					"mutex()": "a5720770"
				}
			},
			"storageLayout": {
				"storage": [
					{
						"astId": 29,
						"contract": "contracts/Donate.sol:Donate",
						"label": "mutex",
						"offset": 0,
						"slot": "0",
						"type": "t_bool"
					},
					{
						"astId": 31,
						"contract": "contracts/Donate.sol:Donate",
						"label": "boardIndex",
						"offset": 0,
						"slot": "1",
						"type": "t_uint256"
					},
					{
						"astId": 35,
						"contract": "contracts/Donate.sol:Donate",
						"label": "donators",
						"offset": 0,
						"slot": "2",
						"type": "t_array(t_struct(Donator)10_storage)dyn_storage"
					},
					{
						"astId": 39,
						"contract": "contracts/Donate.sol:Donate",
						"label": "boards",
						"offset": 0,
						"slot": "3",
						"type": "t_array(t_struct(Board)27_storage)dyn_storage"
					}
				],
				"types": {
					"t_address": {
						"encoding": "inplace",
						"label": "address",
						"numberOfBytes": "20"
					},
					"t_array(t_struct(Board)27_storage)dyn_storage": {
						"base": "t_struct(Board)27_storage",
						"encoding": "dynamic_array",
						"label": "struct Donate.Board[]",
						"numberOfBytes": "32"
					},
					"t_array(t_struct(Donator)10_storage)dyn_storage": {
						"base": "t_struct(Donator)10_storage",
						"encoding": "dynamic_array",
						"label": "struct Donate.Donator[]",
						"numberOfBytes": "32"
					},
					"t_bool": {
						"encoding": "inplace",
						"label": "bool",
						"numberOfBytes": "1"
					},
					"t_string_storage": {
						"encoding": "bytes",
						"label": "string",
						"numberOfBytes": "32"
					},
					"t_struct(Board)27_storage": {
						"encoding": "inplace",
						"label": "struct Donate.Board",
						"members": [
							{
								"astId": 12,
								"contract": "contracts/Donate.sol:Donate",
								"label": "id",
								"offset": 0,
								"slot": "0",
								"type": "t_uint256"
							},
							{
								"astId": 14,
								"contract": "contracts/Donate.sol:Donate",
								"label": "name",
								"offset": 0,
								"slot": "1",
								"type": "t_string_storage"
							},
							{
								"astId": 16,
								"contract": "contracts/Donate.sol:Donate",
								"label": "context",
								"offset": 0,
								"slot": "2",
								"type": "t_string_storage"
							},
							{
								"astId": 18,
								"contract": "contracts/Donate.sol:Donate",
								"label": "host",
								"offset": 0,
								"slot": "3",
								"type": "t_address"
							},
							{
								"astId": 20,
								"contract": "contracts/Donate.sol:Donate",
								"label": "hostname",
								"offset": 0,
								"slot": "4",
								"type": "t_string_storage"
							},
							{
								"astId": 22,
								"contract": "contracts/Donate.sol:Donate",
								"label": "targetAmount",
								"offset": 0,
								"slot": "5",
								"type": "t_uint256"
							},
							{
								"astId": 24,
								"contract": "contracts/Donate.sol:Donate",
								"label": "totalAmount",
								"offset": 0,
								"slot": "6",
								"type": "t_uint256"
							},
							{
								"astId": 26,
								"contract": "contracts/Donate.sol:Donate",
								"label": "expire",
								"offset": 0,
								"slot": "7",
								"type": "t_bool"
							}
						],
						"numberOfBytes": "256"
					},
					"t_struct(Donator)10_storage": {
						"encoding": "inplace",
						"label": "struct Donate.Donator",
						"members": [
							{
								"astId": 3,
								"contract": "contracts/Donate.sol:Donate",
								"label": "targetId",
								"offset": 0,
								"slot": "0",
								"type": "t_uint256"
							},
							{
								"astId": 5,
								"contract": "contracts/Donate.sol:Donate",
								"label": "name",
								"offset": 0,
								"slot": "1",
								"type": "t_string_storage"
							},
							{
								"astId": 7,
								"contract": "contracts/Donate.sol:Donate",
								"label": "donator_addr",
								"offset": 0,
								"slot": "2",
								"type": "t_address"
							},
							{
								"astId": 9,
								"contract": "contracts/Donate.sol:Donate",
								"label": "amount",
								"offset": 0,
								"slot": "3",
								"type": "t_uint256"
							}
						],
						"numberOfBytes": "128"
					},
					"t_uint256": {
						"encoding": "inplace",
						"label": "uint256",
						"numberOfBytes": "32"
					}
				}
			},
			"userdoc": {
				"kind": "user",
				"methods": {},
				"version": 1
			}
		}
	}
}