{
	"contracts/Donate.sol": {
		"Donate": {
			"abi": [
				{
					"inputs": [],
					"stateMutability": "nonpayable",
					"type": "constructor"
				},
				{
					"inputs": [],
					"name": "boardIndex",
					"outputs": [
						{
							"internalType": "uint256",
							"name": "",
							"type": "uint256"
						}
					],
					"stateMutability": "view",
					"type": "function"
				},
				{
					"inputs": [
						{
							"internalType": "uint256",
							"name": "",
							"type": "uint256"
						}
					],
					"name": "boards",
					"outputs": [
						{
							"internalType": "uint256",
							"name": "id",
							"type": "uint256"
						},
						{
							"internalType": "string",
							"name": "name",
							"type": "string"
						},
						{
							"internalType": "string",
							"name": "context",
							"type": "string"
						},
						{
							"internalType": "address",
							"name": "host",
							"type": "address"
						},
						{
							"internalType": "string",
							"name": "hostname",
							"type": "string"
						},
						{
							"internalType": "uint256",
							"name": "targetAmount",
							"type": "uint256"
						},
						{
							"internalType": "uint256",
							"name": "totalAmount",
							"type": "uint256"
						},
						{
							"internalType": "bool",
							"name": "expire",
							"type": "bool"
						}
					],
					"stateMutability": "view",
					"type": "function"
				},
				{
					"inputs": [
						{
							"internalType": "string",
							"name": "hostname",
							"type": "string"
						},
						{
							"internalType": "address",
							"name": "host",
							"type": "address"
						},
						{
							"internalType": "string",
							"name": "_name",
							"type": "string"
						},
						{
							"internalType": "string",
							"name": "_context",
							"type": "string"
						},
						{
							"internalType": "uint256",
							"name": "_targetAmount",
							"type": "uint256"
						}
					],
					"name": "createBoard",
					"outputs": [],
					"stateMutability": "nonpayable",
					"type": "function"
				},
				{
					"inputs": [
						{
							"internalType": "uint256",
							"name": "_targetId",
							"type": "uint256"
						},
						{
							"internalType": "string",
							"name": "name",
							"type": "string"
						},
						{
							"internalType": "address",
							"name": "_donator_addr",
							"type": "address"
						},
						{
							"internalType": "uint256",
							"name": "_amount",
							"type": "uint256"
						}
					],
					"name": "donate",
					"outputs": [],
					"stateMutability": "nonpayable",
					"type": "function"
				},
				{
					"inputs": [
						{
							"internalType": "uint256",
							"name": "",
							"type": "uint256"
						}
					],
					"name": "donators",
					"outputs": [
						{
							"internalType": "uint256",
							"name": "targetId",
							"type": "uint256"
						},
						{
							"internalType": "string",
							"name": "name",
							"type": "string"
						},
						{
							"internalType": "address",
							"name": "donator_addr",
							"type": "address"
						},
						{
							"internalType": "uint256",
							"name": "amount",
							"type": "uint256"
						}
					],
					"stateMutability": "view",
					"type": "function"
				},
				{
					"inputs": [],
					"name": "getAllBoardsExpir",
					"outputs": [
						{
							"components": [
								{
									"internalType": "uint256",
									"name": "id",
									"type": "uint256"
								},
								{
									"internalType": "string",
									"name": "name",
									"type": "string"
								},
								{
									"internalType": "string",
									"name": "context",
									"type": "string"
								},
								{
									"internalType": "address",
									"name": "host",
									"type": "address"
								},
								{
									"internalType": "string",
									"name": "hostname",
									"type": "string"
								},
								{
									"internalType": "uint256",
									"name": "targetAmount",
									"type": "uint256"
								},
								{
									"internalType": "uint256",
									"name": "totalAmount",
									"type": "uint256"
								},
								{
									"internalType": "bool",
									"name": "expire",
									"type": "bool"
								}
							],
							"internalType": "struct Donate.Board[]",
							"name": "",
							"type": "tuple[]"
						}
					],
					"stateMutability": "view",
					"type": "function"
				},
				{
					"inputs": [],
					"name": "getAllBoardsUnExpir",
					"outputs": [
						{
							"components": [
								{
									"internalType": "uint256",
									"name": "id",
									"type": "uint256"
								},
								{
									"internalType": "string",
									"name": "name",
									"type": "string"
								},
								{
									"internalType": "string",
									"name": "context",
									"type": "string"
								},
								{
									"internalType": "address",
									"name": "host",
									"type": "address"
								},
								{
									"internalType": "string",
									"name": "hostname",
									"type": "string"
								},
								{
									"internalType": "uint256",
									"name": "targetAmount",
									"type": "uint256"
								},
								{
									"internalType": "uint256",
									"name": "totalAmount",
									"type": "uint256"
								},
								{
									"internalType": "bool",
									"name": "expire",
									"type": "bool"
								}
							],
							"internalType": "struct Donate.Board[]",
							"name": "",
							"type": "tuple[]"
						}
					],
					"stateMutability": "view",
					"type": "function"
				},
				{
					"inputs": [
						{
							"internalType": "uint256",
							"name": "_boardIndex",
							"type": "uint256"
						}
					],
					"name": "getBoardInfo",
					"outputs": [
						{
							"components": [
								{
									"internalType": "uint256",
									"name": "id",
									"type": "uint256"
								},
								{
									"internalType": "string",
									"name": "name",
									"type": "string"
								},
								{
									"internalType": "string",
									"name": "context",
									"type": "string"
								},
								{
									"internalType": "address",
									"name": "host",
									"type": "address"
								},
								{
									"internalType": "string",
									"name": "hostname",
									"type": "string"
								},
								{
									"internalType": "uint256",
									"name": "targetAmount",
									"type": "uint256"
								},
								{
									"internalType": "uint256",
									"name": "totalAmount",
									"type": "uint256"
								},
								{
									"internalType": "bool",
									"name": "expire",
									"type": "bool"
								}
							],
							"internalType": "struct Donate.Board",
							"name": "",
							"type": "tuple"
						}
					],
					"stateMutability": "view",
					"type": "function"
				},
				{
					"inputs": [
						{
							"internalType": "address",
							"name": "_hostAddr",
							"type": "address"
						}
					],
					"name": "getBoardsByAddr",
					"outputs": [
						{
							"components": [
								{
									"internalType": "uint256",
									"name": "id",
									"type": "uint256"
								},
								{
									"internalType": "string",
									"name": "name",
									"type": "string"
								},
								{
									"internalType": "string",
									"name": "context",
									"type": "string"
								},
								{
									"internalType": "address",
									"name": "host",
									"type": "address"
								},
								{
									"internalType": "string",
									"name": "hostname",
									"type": "string"
								},
								{
									"internalType": "uint256",
									"name": "targetAmount",
									"type": "uint256"
								},
								{
									"internalType": "uint256",
									"name": "totalAmount",
									"type": "uint256"
								},
								{
									"internalType": "bool",
									"name": "expire",
									"type": "bool"
								}
							],
							"internalType": "struct Donate.Board[]",
							"name": "",
							"type": "tuple[]"
						}
					],
					"stateMutability": "view",
					"type": "function"
				},
				{
					"inputs": [
						{
							"internalType": "uint256",
							"name": "_boardIndex",
							"type": "uint256"
						}
					],
					"name": "getDonatorInBoard",
					"outputs": [
						{
							"components": [
								{
									"internalType": "uint256",
									"name": "targetId",
									"type": "uint256"
								},
								{
									"internalType": "string",
									"name": "name",
									"type": "string"
								},
								{
									"internalType": "address",
									"name": "donator_addr",
									"type": "address"
								},
								{
									"internalType": "uint256",
									"name": "amount",
									"type": "uint256"
								}
							],
							"internalType": "struct Donate.Donator[]",
							"name": "",
							"type": "tuple[]"
						}
					],
					"stateMutability": "view",
					"type": "function"
				},
				{
					"inputs": [
						{
							"internalType": "address",
							"name": "_address",
							"type": "address"
						}
					],
					"name": "getDonatorInfoByAddr",
					"outputs": [
						{
							"components": [
								{
									"internalType": "uint256",
									"name": "targetId",
									"type": "uint256"
								},
								{
									"internalType": "string",
									"name": "name",
									"type": "string"
								},
								{
									"internalType": "address",
									"name": "donator_addr",
									"type": "address"
								},
								{
									"internalType": "uint256",
									"name": "amount",
									"type": "uint256"
								}
							],
							"internalType": "struct Donate.Donator[]",
							"name": "",
							"type": "tuple[]"
						}
					],
					"stateMutability": "view",
					"type": "function"
				},
				{
					"inputs": [],
					"name": "mutex",
					"outputs": [
						{
							"internalType": "bool",
							"name": "",
							"type": "bool"
						}
					],
					"stateMutability": "view",
					"type": "function"
				}
			],
			"devdoc": {
				"kind": "dev",
				"methods": {},
				"version": 1
			},
			"evm": {
				"assembly": "    /* \"contracts/Donate.sol\":59:5693  contract Donate{... */\n  mstore(0x40, 0x80)\n    /* \"contracts/Donate.sol\":679:745  constructor(){... */\n  callvalue\n  dup1\n  iszero\n  tag_1\n  jumpi\n  0x00\n  dup1\n  revert\ntag_1:\n  pop\n    /* \"contracts/Donate.sol\":714:715  0 */\n  0x00\n    /* \"contracts/Donate.sol\":703:713  boardIndex */\n  0x01\n    /* \"contracts/Donate.sol\":703:715  boardIndex=0 */\n  dup2\n  swap1\n  sstore\n  pop\n    /* \"contracts/Donate.sol\":732:737  false */\n  0x00\n    /* \"contracts/Donate.sol\":726:731  mutex */\n  dup1\n  0x00\n    /* \"contracts/Donate.sol\":726:737  mutex=false */\n  0x0100\n  exp\n  dup2\n  sload\n  dup2\n  0xff\n  mul\n  not\n  and\n  swap1\n  dup4\n  iszero\n  iszero\n  mul\n  or\n  swap1\n  sstore\n  pop\n    /* \"contracts/Donate.sol\":59:5693  contract Donate{... */\n  dataSize(sub_0)\n  dup1\n  dataOffset(sub_0)\n  0x00\n  codecopy\n  0x00\n  return\nstop\n\nsub_0: assembly {\n        /* \"contracts/Donate.sol\":59:5693  contract Donate{... */\n      mstore(0x40, 0x80)\n      callvalue\n      dup1\n      iszero\n      tag_1\n      jumpi\n      0x00\n      dup1\n      revert\n    tag_1:\n      pop\n      jumpi(tag_2, lt(calldatasize, 0x04))\n      shr(0xe0, calldataload(0x00))\n      dup1\n      0xa5720770\n      gt\n      tag_15\n      jumpi\n      dup1\n      0xa5720770\n      eq\n      tag_9\n      jumpi\n      dup1\n      0xac467355\n      eq\n      tag_10\n      jumpi\n      dup1\n      0xac62f566\n      eq\n      tag_11\n      jumpi\n      dup1\n      0xc985e773\n      eq\n      tag_12\n      jumpi\n      dup1\n      0xd1fb28bb\n      eq\n      tag_13\n      jumpi\n      dup1\n      0xe4360055\n      eq\n      tag_14\n      jumpi\n      jump(tag_2)\n    tag_15:\n      dup1\n      0x0f0e609c\n      eq\n      tag_3\n      jumpi\n      dup1\n      0x2277c26f\n      eq\n      tag_4\n      jumpi\n      dup1\n      0x3276be61\n      eq\n      tag_5\n      jumpi\n      dup1\n      0x334576d9\n      eq\n      tag_6\n      jumpi\n      dup1\n      0x5488d56b\n      eq\n      tag_7\n      jumpi\n      dup1\n      0x9a7083f9\n      eq\n      tag_8\n      jumpi\n    tag_2:\n      0x00\n      dup1\n      revert\n        /* \"contracts/Donate.sol\":2269:2817  function getAllBoardsUnExpir() public view returns(Board[] memory)... */\n    tag_3:\n      tag_16\n      tag_17\n      jump\t// in\n    tag_16:\n      mload(0x40)\n      tag_18\n      swap2\n      swap1\n      tag_19\n      jump\t// in\n    tag_18:\n      mload(0x40)\n      dup1\n      swap2\n      sub\n      swap1\n      return\n        /* \"contracts/Donate.sol\":539:565  uint256  public boardIndex */\n    tag_4:\n      tag_20\n      tag_21\n      jump\t// in\n    tag_20:\n      mload(0x40)\n      tag_22\n      swap2\n      swap1\n      tag_23\n      jump\t// in\n    tag_22:\n      mload(0x40)\n      dup1\n      swap2\n      sub\n      swap1\n      return\n        /* \"contracts/Donate.sol\":781:1294  function createBoard(string calldata hostname,address  host,string calldata _name,string calldata _context,uint256  _targetAmount) public {... */\n    tag_5:\n      tag_24\n      0x04\n      dup1\n      calldatasize\n      sub\n      dup2\n      add\n      swap1\n      tag_25\n      swap2\n      swap1\n      tag_26\n      jump\t// in\n    tag_25:\n      tag_27\n      jump\t// in\n    tag_24:\n      stop\n        /* \"contracts/Donate.sol\":2859:3385  function getAllBoardsExpir() public view returns(Board[] memory)... */\n    tag_6:\n      tag_28\n      tag_29\n      jump\t// in\n    tag_28:\n      mload(0x40)\n      tag_30\n      swap2\n      swap1\n      tag_19\n      jump\t// in\n    tag_30:\n      mload(0x40)\n      dup1\n      swap2\n      sub\n      swap1\n      return\n        /* \"contracts/Donate.sol\":4138:4876  function getDonatorInfoByAddr(address _address) public view returns(Donator[] memory)... */\n    tag_7:\n      tag_31\n      0x04\n      dup1\n      calldatasize\n      sub\n      dup2\n      add\n      swap1\n      tag_32\n      swap2\n      swap1\n      tag_33\n      jump\t// in\n    tag_32:\n      tag_34\n      jump\t// in\n    tag_31:\n      mload(0x40)\n      tag_35\n      swap2\n      swap1\n      tag_36\n      jump\t// in\n    tag_35:\n      mload(0x40)\n      dup1\n      swap2\n      sub\n      swap1\n      return\n        /* \"contracts/Donate.sol\":651:672  Board[] public boards */\n    tag_8:\n      tag_37\n      0x04\n      dup1\n      calldatasize\n      sub\n      dup2\n      add\n      swap1\n      tag_38\n      swap2\n      swap1\n      tag_39\n      jump\t// in\n    tag_38:\n      tag_40\n      jump\t// in\n    tag_37:\n      mload(0x40)\n      tag_41\n      swap9\n      swap8\n      swap7\n      swap6\n      swap5\n      swap4\n      swap3\n      swap2\n      swap1\n      tag_42\n      jump\t// in\n    tag_41:\n      mload(0x40)\n      dup1\n      swap2\n      sub\n      swap1\n      return\n        /* \"contracts/Donate.sol\":515:532  bool public mutex */\n    tag_9:\n      tag_43\n      tag_44\n      jump\t// in\n    tag_43:\n      mload(0x40)\n      tag_45\n      swap2\n      swap1\n      tag_46\n      jump\t// in\n    tag_45:\n      mload(0x40)\n      dup1\n      swap2\n      sub\n      swap1\n      return\n        /* \"contracts/Donate.sol\":3461:4070  function getDonatorInBoard(uint256 _boardIndex) public view returns(Donator[] memory)... */\n    tag_10:\n      tag_47\n      0x04\n      dup1\n      calldatasize\n      sub\n      dup2\n      add\n      swap1\n      tag_48\n      swap2\n      swap1\n      tag_39\n      jump\t// in\n    tag_48:\n      tag_49\n      jump\t// in\n    tag_47:\n      mload(0x40)\n      tag_50\n      swap2\n      swap1\n      tag_36\n      jump\t// in\n    tag_50:\n      mload(0x40)\n      dup1\n      swap2\n      sub\n      swap1\n      return\n        /* \"contracts/Donate.sol\":619:644  Donator[] public donators */\n    tag_11:\n      tag_51\n      0x04\n      dup1\n      calldatasize\n      sub\n      dup2\n      add\n      swap1\n      tag_52\n      swap2\n      swap1\n      tag_39\n      jump\t// in\n    tag_52:\n      tag_53\n      jump\t// in\n    tag_51:\n      mload(0x40)\n      tag_54\n      swap5\n      swap4\n      swap3\n      swap2\n      swap1\n      tag_55\n      jump\t// in\n    tag_54:\n      mload(0x40)\n      dup1\n      swap2\n      sub\n      swap1\n      return\n        /* \"contracts/Donate.sol\":4905:5688  function donate(uint256 _targetId,string calldata name,address _donator_addr,uint256 _amount) public {... */\n    tag_12:\n      tag_56\n      0x04\n      dup1\n      calldatasize\n      sub\n      dup2\n      add\n      swap1\n      tag_57\n      swap2\n      swap1\n      tag_58\n      jump\t// in\n    tag_57:\n      tag_59\n      jump\t// in\n    tag_56:\n      stop\n        /* \"contracts/Donate.sol\":1385:1584  function getBoardInfo(uint256 _boardIndex) public view returns(Board memory)... */\n    tag_13:\n      tag_60\n      0x04\n      dup1\n      calldatasize\n      sub\n      dup2\n      add\n      swap1\n      tag_61\n      swap2\n      swap1\n      tag_39\n      jump\t// in\n    tag_61:\n      tag_62\n      jump\t// in\n    tag_60:\n      mload(0x40)\n      tag_63\n      swap2\n      swap1\n      tag_64\n      jump\t// in\n    tag_63:\n      mload(0x40)\n      dup1\n      swap2\n      sub\n      swap1\n      return\n        /* \"contracts/Donate.sol\":1667:2225  function getBoardsByAddr(address _hostAddr) public view returns (Board[] memory)... */\n    tag_14:\n      tag_65\n      0x04\n      dup1\n      calldatasize\n      sub\n      dup2\n      add\n      swap1\n      tag_66\n      swap2\n      swap1\n      tag_33\n      jump\t// in\n    tag_66:\n      tag_67\n      jump\t// in\n    tag_65:\n      mload(0x40)\n      tag_68\n      swap2\n      swap1\n      tag_19\n      jump\t// in\n    tag_68:\n      mload(0x40)\n      dup1\n      swap2\n      sub\n      swap1\n      return\n        /* \"contracts/Donate.sol\":2269:2817  function getAllBoardsUnExpir() public view returns(Board[] memory)... */\n    tag_17:\n        /* \"contracts/Donate.sol\":2320:2334  Board[] memory */\n      0x60\n        /* \"contracts/Donate.sol\":2372:2385  uint256 count */\n      0x00\n        /* \"contracts/Donate.sol\":2401:2410  uint256 i */\n      dup1\n        /* \"contracts/Donate.sol\":2413:2414  0 */\n      0x00\n        /* \"contracts/Donate.sol\":2401:2414  uint256 i = 0 */\n      swap1\n      pop\n        /* \"contracts/Donate.sol\":2396:2529  for (uint256 i = 0; i < boards.length; i++) {... */\n    tag_70:\n        /* \"contracts/Donate.sol\":2420:2426  boards */\n      0x04\n        /* \"contracts/Donate.sol\":2420:2433  boards.length */\n      dup1\n      sload\n      swap1\n      pop\n        /* \"contracts/Donate.sol\":2416:2417  i */\n      dup2\n        /* \"contracts/Donate.sol\":2416:2433  i < boards.length */\n      lt\n        /* \"contracts/Donate.sol\":2396:2529  for (uint256 i = 0; i < boards.length; i++) {... */\n      iszero\n      tag_71\n      jumpi\n        /* \"contracts/Donate.sol\":2459:2465  boards */\n      0x04\n        /* \"contracts/Donate.sol\":2466:2467  i */\n      dup2\n        /* \"contracts/Donate.sol\":2459:2468  boards[i] */\n      dup2\n      sload\n      dup2\n      lt\n      tag_73\n      jumpi\n      tag_74\n      tag_75\n      jump\t// in\n    tag_74:\n    tag_73:\n      swap1\n      0x00\n      mstore\n      keccak256(0x00, 0x20)\n      swap1\n      0x08\n      mul\n      add\n        /* \"contracts/Donate.sol\":2459:2475  boards[i].expire */\n      0x07\n      add\n      0x00\n      swap1\n      sload\n      swap1\n      0x0100\n      exp\n      swap1\n      div\n      0xff\n      and\n        /* \"contracts/Donate.sol\":2455:2518  if(!boards[i].expire){... */\n      tag_77\n      jumpi\n        /* \"contracts/Donate.sol\":2495:2502  ++count */\n      dup2\n      tag_78\n      swap1\n      tag_79\n      jump\t// in\n    tag_78:\n      swap2\n      pop\n        /* \"contracts/Donate.sol\":2455:2518  if(!boards[i].expire){... */\n    tag_77:\n        /* \"contracts/Donate.sol\":2435:2438  i++ */\n      dup1\n      dup1\n      0x01\n      add\n      swap2\n      pop\n      pop\n        /* \"contracts/Donate.sol\":2396:2529  for (uint256 i = 0; i < boards.length; i++) {... */\n      jump(tag_70)\n    tag_71:\n      pop\n        /* \"contracts/Donate.sol\":2539:2561  Board[] memory _boards */\n      0x00\n        /* \"contracts/Donate.sol\":2574:2579  count */\n      dup2\n        /* \"contracts/Donate.sol\":2562:2580  new Board[](count) */\n      0xffffffffffffffff\n      dup2\n      gt\n      iszero\n      tag_80\n      jumpi\n      tag_81\n      tag_82\n      jump\t// in\n    tag_81:\n    tag_80:\n      mload(0x40)\n      swap1\n      dup1\n      dup3\n      mstore\n      dup1\n      0x20\n      mul\n      0x20\n      add\n      dup3\n      add\n      0x40\n      mstore\n      dup1\n      iszero\n      tag_83\n      jumpi\n      dup2\n      0x20\n      add\n    tag_84:\n      tag_85\n      tag_86\n      jump\t// in\n    tag_85:\n      dup2\n      mstore\n      0x20\n      add\n      swap1\n      0x01\n      swap1\n      sub\n      swap1\n      dup2\n      tag_84\n      jumpi\n      swap1\n      pop\n    tag_83:\n      pop\n        /* \"contracts/Donate.sol\":2539:2580  Board[] memory _boards=new Board[](count) */\n      swap1\n      pop\n        /* \"contracts/Donate.sol\":2591:2604  uint256 index */\n      0x00\n        /* \"contracts/Donate.sol\":2620:2629  uint256 i */\n      dup1\n        /* \"contracts/Donate.sol\":2632:2633  0 */\n      0x00\n        /* \"contracts/Donate.sol\":2620:2633  uint256 i = 0 */\n      swap1\n      pop\n        /* \"contracts/Donate.sol\":2615:2785  for (uint256 i = 0; i < boards.length; i++) {... */\n    tag_87:\n        /* \"contracts/Donate.sol\":2639:2645  boards */\n      0x04\n        /* \"contracts/Donate.sol\":2639:2652  boards.length */\n      dup1\n      sload\n      swap1\n      pop\n        /* \"contracts/Donate.sol\":2635:2636  i */\n      dup2\n        /* \"contracts/Donate.sol\":2635:2652  i < boards.length */\n      lt\n        /* \"contracts/Donate.sol\":2615:2785  for (uint256 i = 0; i < boards.length; i++) {... */\n      iszero\n      tag_88\n      jumpi\n        /* \"contracts/Donate.sol\":2678:2684  boards */\n      0x04\n        /* \"contracts/Donate.sol\":2685:2686  i */\n      dup2\n        /* \"contracts/Donate.sol\":2678:2687  boards[i] */\n      dup2\n      sload\n      dup2\n      lt\n      tag_90\n      jumpi\n      tag_91\n      tag_75\n      jump\t// in\n    tag_91:\n    tag_90:\n      swap1\n      0x00\n      mstore\n      keccak256(0x00, 0x20)\n      swap1\n      0x08\n      mul\n      add\n        /* \"contracts/Donate.sol\":2678:2694  boards[i].expire */\n      0x07\n      add\n      0x00\n      swap1\n      sload\n      swap1\n      0x0100\n      exp\n      swap1\n      div\n      0xff\n      and\n        /* \"contracts/Donate.sol\":2674:2774  if(!boards[i].expire){... */\n      tag_93\n      jumpi\n        /* \"contracts/Donate.sol\":2731:2737  boards */\n      0x04\n        /* \"contracts/Donate.sol\":2738:2739  i */\n      dup2\n        /* \"contracts/Donate.sol\":2731:2740  boards[i] */\n      dup2\n      sload\n      dup2\n      lt\n      tag_94\n      jumpi\n      tag_95\n      tag_75\n      jump\t// in\n    tag_95:\n    tag_94:\n      swap1\n      0x00\n      mstore\n      keccak256(0x00, 0x20)\n      swap1\n      0x08\n      mul\n      add\n        /* \"contracts/Donate.sol\":2714:2740  _boards[index++]=boards[i] */\n      mload(0x40)\n      dup1\n      0x0100\n      add\n      0x40\n      mstore\n      swap1\n      dup2\n      0x00\n      dup3\n      add\n      sload\n      dup2\n      mstore\n      0x20\n      add\n      0x01\n      dup3\n      add\n      dup1\n      sload\n      tag_97\n      swap1\n      tag_98\n      jump\t// in\n    tag_97:\n      dup1\n      0x1f\n      add\n      0x20\n      dup1\n      swap2\n      div\n      mul\n      0x20\n      add\n      mload(0x40)\n      swap1\n      dup2\n      add\n      0x40\n      mstore\n      dup1\n      swap3\n      swap2\n      swap1\n      dup2\n      dup2\n      mstore\n      0x20\n      add\n      dup3\n      dup1\n      sload\n      tag_99\n      swap1\n      tag_98\n      jump\t// in\n    tag_99:\n      dup1\n      iszero\n      tag_100\n      jumpi\n      dup1\n      0x1f\n      lt\n      tag_101\n      jumpi\n      0x0100\n      dup1\n      dup4\n      sload\n      div\n      mul\n      dup4\n      mstore\n      swap2\n      0x20\n      add\n      swap2\n      jump(tag_100)\n    tag_101:\n      dup3\n      add\n      swap2\n      swap1\n      0x00\n      mstore\n      keccak256(0x00, 0x20)\n      swap1\n    tag_102:\n      dup2\n      sload\n      dup2\n      mstore\n      swap1\n      0x01\n      add\n      swap1\n      0x20\n      add\n      dup1\n      dup4\n      gt\n      tag_102\n      jumpi\n      dup3\n      swap1\n      sub\n      0x1f\n      and\n      dup3\n      add\n      swap2\n    tag_100:\n      pop\n      pop\n      pop\n      pop\n      pop\n      dup2\n      mstore\n      0x20\n      add\n      0x02\n      dup3\n      add\n      dup1\n      sload\n      tag_103\n      swap1\n      tag_98\n      jump\t// in\n    tag_103:\n      dup1\n      0x1f\n      add\n      0x20\n      dup1\n      swap2\n      div\n      mul\n      0x20\n      add\n      mload(0x40)\n      swap1\n      dup2\n      add\n      0x40\n      mstore\n      dup1\n      swap3\n      swap2\n      swap1\n      dup2\n      dup2\n      mstore\n      0x20\n      add\n      dup3\n      dup1\n      sload\n      tag_104\n      swap1\n      tag_98\n      jump\t// in\n    tag_104:\n      dup1\n      iszero\n      tag_105\n      jumpi\n      dup1\n      0x1f\n      lt\n      tag_106\n      jumpi\n      0x0100\n      dup1\n      dup4\n      sload\n      div\n      mul\n      dup4\n      mstore\n      swap2\n      0x20\n      add\n      swap2\n      jump(tag_105)\n    tag_106:\n      dup3\n      add\n      swap2\n      swap1\n      0x00\n      mstore\n      keccak256(0x00, 0x20)\n      swap1\n    tag_107:\n      dup2\n      sload\n      dup2\n      mstore\n      swap1\n      0x01\n      add\n      swap1\n      0x20\n      add\n      dup1\n      dup4\n      gt\n      tag_107\n      jumpi\n      dup3\n      swap1\n      sub\n      0x1f\n      and\n      dup3\n      add\n      swap2\n    tag_105:\n      pop\n      pop\n      pop\n      pop\n      pop\n      dup2\n      mstore\n      0x20\n      add\n      0x03\n      dup3\n      add\n      0x00\n      swap1\n      sload\n      swap1\n      0x0100\n      exp\n      swap1\n      div\n      0xffffffffffffffffffffffffffffffffffffffff\n      and\n      0xffffffffffffffffffffffffffffffffffffffff\n      and\n      0xffffffffffffffffffffffffffffffffffffffff\n      and\n      dup2\n      mstore\n      0x20\n      add\n      0x04\n      dup3\n      add\n      dup1\n      sload\n      tag_108\n      swap1\n      tag_98\n      jump\t// in\n    tag_108:\n      dup1\n      0x1f\n      add\n      0x20\n      dup1\n      swap2\n      div\n      mul\n      0x20\n      add\n      mload(0x40)\n      swap1\n      dup2\n      add\n      0x40\n      mstore\n      dup1\n      swap3\n      swap2\n      swap1\n      dup2\n      dup2\n      mstore\n      0x20\n      add\n      dup3\n      dup1\n      sload\n      tag_109\n      swap1\n      tag_98\n      jump\t// in\n    tag_109:\n      dup1\n      iszero\n      tag_110\n      jumpi\n      dup1\n      0x1f\n      lt\n      tag_111\n      jumpi\n      0x0100\n      dup1\n      dup4\n      sload\n      div\n      mul\n      dup4\n      mstore\n      swap2\n      0x20\n      add\n      swap2\n      jump(tag_110)\n    tag_111:\n      dup3\n      add\n      swap2\n      swap1\n      0x00\n      mstore\n      keccak256(0x00, 0x20)\n      swap1\n    tag_112:\n      dup2\n      sload\n      dup2\n      mstore\n      swap1\n      0x01\n      add\n      swap1\n      0x20\n      add\n      dup1\n      dup4\n      gt\n      tag_112\n      jumpi\n      dup3\n      swap1\n      sub\n      0x1f\n      and\n      dup3\n      add\n      swap2\n    tag_110:\n      pop\n      pop\n      pop\n      pop\n      pop\n      dup2\n      mstore\n      0x20\n      add\n      0x05\n      dup3\n      add\n      sload\n      dup2\n      mstore\n      0x20\n      add\n      0x06\n      dup3\n      add\n      sload\n      dup2\n      mstore\n      0x20\n      add\n      0x07\n      dup3\n      add\n      0x00\n      swap1\n      sload\n      swap1\n      0x0100\n      exp\n      swap1\n      div\n      0xff\n      and\n      iszero\n      iszero\n      iszero\n      iszero\n      dup2\n      mstore\n      pop\n      pop\n        /* \"contracts/Donate.sol\":2714:2721  _boards */\n      dup4\n        /* \"contracts/Donate.sol\":2722:2729  index++ */\n      dup4\n      dup1\n      tag_113\n      swap1\n      tag_79\n      jump\t// in\n    tag_113:\n      swap5\n      pop\n        /* \"contracts/Donate.sol\":2714:2730  _boards[index++] */\n      dup2\n      mload\n      dup2\n      lt\n      tag_114\n      jumpi\n      tag_115\n      tag_75\n      jump\t// in\n    tag_115:\n    tag_114:\n      0x20\n      mul\n      0x20\n      add\n      add\n        /* \"contracts/Donate.sol\":2714:2740  _boards[index++]=boards[i] */\n      dup2\n      swap1\n      mstore\n      pop\n        /* \"contracts/Donate.sol\":2674:2774  if(!boards[i].expire){... */\n    tag_93:\n        /* \"contracts/Donate.sol\":2654:2657  i++ */\n      dup1\n      dup1\n      0x01\n      add\n      swap2\n      pop\n      pop\n        /* \"contracts/Donate.sol\":2615:2785  for (uint256 i = 0; i < boards.length; i++) {... */\n      jump(tag_87)\n    tag_88:\n      pop\n        /* \"contracts/Donate.sol\":2802:2809  _boards */\n      dup2\n        /* \"contracts/Donate.sol\":2795:2809  return _boards */\n      swap4\n      pop\n      pop\n      pop\n      pop\n        /* \"contracts/Donate.sol\":2269:2817  function getAllBoardsUnExpir() public view returns(Board[] memory)... */\n      swap1\n      jump\t// out\n        /* \"contracts/Donate.sol\":539:565  uint256  public boardIndex */\n    tag_21:\n      sload(0x01)\n      dup2\n      jump\t// out\n        /* \"contracts/Donate.sol\":781:1294  function createBoard(string calldata hostname,address  host,string calldata _name,string calldata _context,uint256  _targetAmount) public {... */\n    tag_27:\n        /* \"contracts/Donate.sol\":952:953  0 */\n      0x00\n        /* \"contracts/Donate.sol\":938:954  host!=address(0) */\n      0xffffffffffffffffffffffffffffffffffffffff\n      and\n        /* \"contracts/Donate.sol\":938:942  host */\n      dup7\n        /* \"contracts/Donate.sol\":938:954  host!=address(0) */\n      0xffffffffffffffffffffffffffffffffffffffff\n      and\n      sub\n        /* \"contracts/Donate.sol\":930:978  require(host!=address(0),\"invalid host address\") */\n      tag_117\n      jumpi\n      mload(0x40)\n      0x08c379a000000000000000000000000000000000000000000000000000000000\n      dup2\n      mstore\n      0x04\n      add\n      tag_118\n      swap1\n      tag_119\n      jump\t// in\n    tag_118:\n      mload(0x40)\n      dup1\n      swap2\n      sub\n      swap1\n      revert\n    tag_117:\n        /* \"contracts/Donate.sol\":998:1003  mutex */\n      0x00\n      dup1\n      sload\n      swap1\n      0x0100\n      exp\n      swap1\n      div\n      0xff\n      and\n        /* \"contracts/Donate.sol\":997:1003  !mutex */\n      iszero\n        /* \"contracts/Donate.sol\":989:1075  require(!mutex,\"Sorry, someone is creating the board. Pleas wait a minute and repeat\") */\n      tag_120\n      jumpi\n      mload(0x40)\n      0x08c379a000000000000000000000000000000000000000000000000000000000\n      dup2\n      mstore\n      0x04\n      add\n      tag_121\n      swap1\n      tag_122\n      jump\t// in\n    tag_121:\n      mload(0x40)\n      dup1\n      swap2\n      sub\n      swap1\n      revert\n    tag_120:\n        /* \"contracts/Donate.sol\":1092:1096  true */\n      0x01\n        /* \"contracts/Donate.sol\":1086:1091  mutex */\n      0x00\n      dup1\n        /* \"contracts/Donate.sol\":1086:1096  mutex=true */\n      0x0100\n      exp\n      dup2\n      sload\n      dup2\n      0xff\n      mul\n      not\n      and\n      swap1\n      dup4\n      iszero\n      iszero\n      mul\n      or\n      swap1\n      sstore\n      pop\n        /* \"contracts/Donate.sol\":1107:1129  Board memory boardItem */\n      0x00\n        /* \"contracts/Donate.sol\":1130:1198  Board(boardIndex,_name,_context,host,hostname,_targetAmount,0,false) */\n      mload(0x40)\n      dup1\n      0x0100\n      add\n      0x40\n      mstore\n      dup1\n        /* \"contracts/Donate.sol\":1136:1146  boardIndex */\n      sload(0x01)\n        /* \"contracts/Donate.sol\":1130:1198  Board(boardIndex,_name,_context,host,hostname,_targetAmount,0,false) */\n      dup2\n      mstore\n      0x20\n      add\n        /* \"contracts/Donate.sol\":1147:1152  _name */\n      dup8\n      dup8\n        /* \"contracts/Donate.sol\":1130:1198  Board(boardIndex,_name,_context,host,hostname,_targetAmount,0,false) */\n      dup1\n      dup1\n      0x1f\n      add\n      0x20\n      dup1\n      swap2\n      div\n      mul\n      0x20\n      add\n      mload(0x40)\n      swap1\n      dup2\n      add\n      0x40\n      mstore\n      dup1\n      swap4\n      swap3\n      swap2\n      swap1\n      dup2\n      dup2\n      mstore\n      0x20\n      add\n      dup4\n      dup4\n      dup1\n      dup3\n      dup5\n      calldatacopy\n      0x00\n      dup2\n      dup5\n      add\n      mstore\n      not(0x1f)\n      0x1f\n      dup3\n      add\n      and\n      swap1\n      pop\n      dup1\n      dup4\n      add\n      swap3\n      pop\n      pop\n      pop\n      pop\n      pop\n      pop\n      pop\n      dup2\n      mstore\n      0x20\n      add\n        /* \"contracts/Donate.sol\":1153:1161  _context */\n      dup6\n      dup6\n        /* \"contracts/Donate.sol\":1130:1198  Board(boardIndex,_name,_context,host,hostname,_targetAmount,0,false) */\n      dup1\n      dup1\n      0x1f\n      add\n      0x20\n      dup1\n      swap2\n      div\n      mul\n      0x20\n      add\n      mload(0x40)\n      swap1\n      dup2\n      add\n      0x40\n      mstore\n      dup1\n      swap4\n      swap3\n      swap2\n      swap1\n      dup2\n      dup2\n      mstore\n      0x20\n      add\n      dup4\n      dup4\n      dup1\n      dup3\n      dup5\n      calldatacopy\n      0x00\n      dup2\n      dup5\n      add\n      mstore\n      not(0x1f)\n      0x1f\n      dup3\n      add\n      and\n      swap1\n      pop\n      dup1\n      dup4\n      add\n      swap3\n      pop\n      pop\n      pop\n      pop\n      pop\n      pop\n      pop\n      dup2\n      mstore\n      0x20\n      add\n        /* \"contracts/Donate.sol\":1162:1166  host */\n      dup9\n        /* \"contracts/Donate.sol\":1130:1198  Board(boardIndex,_name,_context,host,hostname,_targetAmount,0,false) */\n      0xffffffffffffffffffffffffffffffffffffffff\n      and\n      dup2\n      mstore\n      0x20\n      add\n        /* \"contracts/Donate.sol\":1167:1175  hostname */\n      dup11\n      dup11\n        /* \"contracts/Donate.sol\":1130:1198  Board(boardIndex,_name,_context,host,hostname,_targetAmount,0,false) */\n      dup1\n      dup1\n      0x1f\n      add\n      0x20\n      dup1\n      swap2\n      div\n      mul\n      0x20\n      add\n      mload(0x40)\n      swap1\n      dup2\n      add\n      0x40\n      mstore\n      dup1\n      swap4\n      swap3\n      swap2\n      swap1\n      dup2\n      dup2\n      mstore\n      0x20\n      add\n      dup4\n      dup4\n      dup1\n      dup3\n      dup5\n      calldatacopy\n      0x00\n      dup2\n      dup5\n      add\n      mstore\n      not(0x1f)\n      0x1f\n      dup3\n      add\n      and\n      swap1\n      pop\n      dup1\n      dup4\n      add\n      swap3\n      pop\n      pop\n      pop\n      pop\n      pop\n      pop\n      pop\n      dup2\n      mstore\n      0x20\n      add\n        /* \"contracts/Donate.sol\":1176:1189  _targetAmount */\n      dup4\n        /* \"contracts/Donate.sol\":1130:1198  Board(boardIndex,_name,_context,host,hostname,_targetAmount,0,false) */\n      dup2\n      mstore\n      0x20\n      add\n        /* \"contracts/Donate.sol\":1190:1191  0 */\n      0x00\n        /* \"contracts/Donate.sol\":1130:1198  Board(boardIndex,_name,_context,host,hostname,_targetAmount,0,false) */\n      dup2\n      mstore\n      0x20\n      add\n        /* \"contracts/Donate.sol\":1192:1197  false */\n      0x00\n        /* \"contracts/Donate.sol\":1130:1198  Board(boardIndex,_name,_context,host,hostname,_targetAmount,0,false) */\n      iszero\n      iszero\n      dup2\n      mstore\n      pop\n        /* \"contracts/Donate.sol\":1107:1198  Board memory boardItem=Board(boardIndex,_name,_context,host,hostname,_targetAmount,0,false) */\n      swap1\n      pop\n        /* \"contracts/Donate.sol\":1211:1221  boardIndex */\n      0x01\n      0x00\n        /* \"contracts/Donate.sol\":1209:1221  ++boardIndex */\n      dup2\n      sload\n      tag_123\n      swap1\n      tag_79\n      jump\t// in\n    tag_123:\n      swap2\n      swap1\n      pop\n      dup2\n      swap1\n      sstore\n      pop\n        /* \"contracts/Donate.sol\":1232:1238  boards */\n      0x04\n        /* \"contracts/Donate.sol\":1244:1253  boardItem */\n      dup2\n        /* \"contracts/Donate.sol\":1232:1254  boards.push(boardItem) */\n      swap1\n      dup1\n      0x01\n      dup2\n      sload\n      add\n      dup1\n      dup3\n      sstore\n      dup1\n      swap2\n      pop\n      pop\n      0x01\n      swap1\n      sub\n      swap1\n      0x00\n      mstore\n      keccak256(0x00, 0x20)\n      swap1\n      0x08\n      mul\n      add\n      0x00\n      swap1\n      swap2\n      swap1\n      swap2\n      swap1\n      swap2\n      pop\n      0x00\n      dup3\n      add\n      mload\n      dup2\n      0x00\n      add\n      sstore\n      0x20\n      dup3\n      add\n      mload\n      dup2\n      0x01\n      add\n      swap1\n      dup2\n      tag_125\n      swap2\n      swap1\n      tag_126\n      jump\t// in\n    tag_125:\n      pop\n      0x40\n      dup3\n      add\n      mload\n      dup2\n      0x02\n      add\n      swap1\n      dup2\n      tag_127\n      swap2\n      swap1\n      tag_126\n      jump\t// in\n    tag_127:\n      pop\n      0x60\n      dup3\n      add\n      mload\n      dup2\n      0x03\n      add\n      exp(0x0100, 0x00)\n      dup2\n      sload\n      dup2\n      0xffffffffffffffffffffffffffffffffffffffff\n      mul\n      not\n      and\n      swap1\n      dup4\n      0xffffffffffffffffffffffffffffffffffffffff\n      and\n      mul\n      or\n      swap1\n      sstore\n      pop\n      0x80\n      dup3\n      add\n      mload\n      dup2\n      0x04\n      add\n      swap1\n      dup2\n      tag_128\n      swap2\n      swap1\n      tag_126\n      jump\t// in\n    tag_128:\n      pop\n      0xa0\n      dup3\n      add\n      mload\n      dup2\n      0x05\n      add\n      sstore\n      0xc0\n      dup3\n      add\n      mload\n      dup2\n      0x06\n      add\n      sstore\n      0xe0\n      dup3\n      add\n      mload\n      dup2\n      0x07\n      add\n      exp(0x0100, 0x00)\n      dup2\n      sload\n      dup2\n      0xff\n      mul\n      not\n      and\n      swap1\n      dup4\n      iszero\n      iszero\n      mul\n      or\n      swap1\n      sstore\n      pop\n      pop\n      pop\n        /* \"contracts/Donate.sol\":1271:1276  false */\n      0x00\n        /* \"contracts/Donate.sol\":1265:1270  mutex */\n      dup1\n      0x00\n        /* \"contracts/Donate.sol\":1265:1276  mutex=false */\n      0x0100\n      exp\n      dup2\n      sload\n      dup2\n      0xff\n      mul\n      not\n      and\n      swap1\n      dup4\n      iszero\n      iszero\n      mul\n      or\n      swap1\n      sstore\n      pop\n        /* \"contracts/Donate.sol\":919:1294  {... */\n      pop\n        /* \"contracts/Donate.sol\":781:1294  function createBoard(string calldata hostname,address  host,string calldata _name,string calldata _context,uint256  _targetAmount) public {... */\n      pop\n      pop\n      pop\n      pop\n      pop\n      pop\n      pop\n      pop\n      jump\t// out\n        /* \"contracts/Donate.sol\":2859:3385  function getAllBoardsExpir() public view returns(Board[] memory)... */\n    tag_29:\n        /* \"contracts/Donate.sol\":2908:2922  Board[] memory */\n      0x60\n        /* \"contracts/Donate.sol\":2960:2973  uint256 count */\n      0x00\n        /* \"contracts/Donate.sol\":2989:2998  uint256 i */\n      dup1\n        /* \"contracts/Donate.sol\":3001:3002  0 */\n      0x00\n        /* \"contracts/Donate.sol\":2989:3002  uint256 i = 0 */\n      swap1\n      pop\n        /* \"contracts/Donate.sol\":2984:3116  for (uint256 i = 0; i < boards.length; i++) {... */\n    tag_130:\n        /* \"contracts/Donate.sol\":3008:3014  boards */\n      0x04\n        /* \"contracts/Donate.sol\":3008:3021  boards.length */\n      dup1\n      sload\n      swap1\n      pop\n        /* \"contracts/Donate.sol\":3004:3005  i */\n      dup2\n        /* \"contracts/Donate.sol\":3004:3021  i < boards.length */\n      lt\n        /* \"contracts/Donate.sol\":2984:3116  for (uint256 i = 0; i < boards.length; i++) {... */\n      iszero\n      tag_131\n      jumpi\n        /* \"contracts/Donate.sol\":3046:3052  boards */\n      0x04\n        /* \"contracts/Donate.sol\":3053:3054  i */\n      dup2\n        /* \"contracts/Donate.sol\":3046:3055  boards[i] */\n      dup2\n      sload\n      dup2\n      lt\n      tag_133\n      jumpi\n      tag_134\n      tag_75\n      jump\t// in\n    tag_134:\n    tag_133:\n      swap1\n      0x00\n      mstore\n      keccak256(0x00, 0x20)\n      swap1\n      0x08\n      mul\n      add\n        /* \"contracts/Donate.sol\":3046:3062  boards[i].expire */\n      0x07\n      add\n      0x00\n      swap1\n      sload\n      swap1\n      0x0100\n      exp\n      swap1\n      div\n      0xff\n      and\n        /* \"contracts/Donate.sol\":3043:3105  if(boards[i].expire){... */\n      iszero\n      tag_136\n      jumpi\n        /* \"contracts/Donate.sol\":3082:3089  ++count */\n      dup2\n      tag_137\n      swap1\n      tag_79\n      jump\t// in\n    tag_137:\n      swap2\n      pop\n        /* \"contracts/Donate.sol\":3043:3105  if(boards[i].expire){... */\n    tag_136:\n        /* \"contracts/Donate.sol\":3023:3026  i++ */\n      dup1\n      dup1\n      0x01\n      add\n      swap2\n      pop\n      pop\n        /* \"contracts/Donate.sol\":2984:3116  for (uint256 i = 0; i < boards.length; i++) {... */\n      jump(tag_130)\n    tag_131:\n      pop\n        /* \"contracts/Donate.sol\":3126:3148  Board[] memory _boards */\n      0x00\n        /* \"contracts/Donate.sol\":3161:3166  count */\n      dup2\n        /* \"contracts/Donate.sol\":3149:3167  new Board[](count) */\n      0xffffffffffffffff\n      dup2\n      gt\n      iszero\n      tag_138\n      jumpi\n      tag_139\n      tag_82\n      jump\t// in\n    tag_139:\n    tag_138:\n      mload(0x40)\n      swap1\n      dup1\n      dup3\n      mstore\n      dup1\n      0x20\n      mul\n      0x20\n      add\n      dup3\n      add\n      0x40\n      mstore\n      dup1\n      iszero\n      tag_140\n      jumpi\n      dup2\n      0x20\n      add\n    tag_141:\n      tag_142\n      tag_86\n      jump\t// in\n    tag_142:\n      dup2\n      mstore\n      0x20\n      add\n      swap1\n      0x01\n      swap1\n      sub\n      swap1\n      dup2\n      tag_141\n      jumpi\n      swap1\n      pop\n    tag_140:\n      pop\n        /* \"contracts/Donate.sol\":3126:3167  Board[] memory _boards=new Board[](count) */\n      swap1\n      pop\n        /* \"contracts/Donate.sol\":3178:3191  uint256 index */\n      0x00\n        /* \"contracts/Donate.sol\":3207:3216  uint256 i */\n      dup1\n        /* \"contracts/Donate.sol\":3219:3220  0 */\n      0x00\n        /* \"contracts/Donate.sol\":3207:3220  uint256 i = 0 */\n      swap1\n      pop\n        /* \"contracts/Donate.sol\":3202:3353  for (uint256 i = 0; i < boards.length; i++) {... */\n    tag_143:\n        /* \"contracts/Donate.sol\":3226:3232  boards */\n      0x04\n        /* \"contracts/Donate.sol\":3226:3239  boards.length */\n      dup1\n      sload\n      swap1\n      pop\n        /* \"contracts/Donate.sol\":3222:3223  i */\n      dup2\n        /* \"contracts/Donate.sol\":3222:3239  i < boards.length */\n      lt\n        /* \"contracts/Donate.sol\":3202:3353  for (uint256 i = 0; i < boards.length; i++) {... */\n      iszero\n      tag_144\n      jumpi\n        /* \"contracts/Donate.sol\":3264:3270  boards */\n      0x04\n        /* \"contracts/Donate.sol\":3271:3272  i */\n      dup2\n        /* \"contracts/Donate.sol\":3264:3273  boards[i] */\n      dup2\n      sload\n      dup2\n      lt\n      tag_146\n      jumpi\n      tag_147\n      tag_75\n      jump\t// in\n    tag_147:\n    tag_146:\n      swap1\n      0x00\n      mstore\n      keccak256(0x00, 0x20)\n      swap1\n      0x08\n      mul\n      add\n        /* \"contracts/Donate.sol\":3264:3280  boards[i].expire */\n      0x07\n      add\n      0x00\n      swap1\n      sload\n      swap1\n      0x0100\n      exp\n      swap1\n      div\n      0xff\n      and\n        /* \"contracts/Donate.sol\":3261:3342  if(boards[i].expire){... */\n      iszero\n      tag_149\n      jumpi\n        /* \"contracts/Donate.sol\":3317:3323  boards */\n      0x04\n        /* \"contracts/Donate.sol\":3324:3325  i */\n      dup2\n        /* \"contracts/Donate.sol\":3317:3326  boards[i] */\n      dup2\n      sload\n      dup2\n      lt\n      tag_150\n      jumpi\n      tag_151\n      tag_75\n      jump\t// in\n    tag_151:\n    tag_150:\n      swap1\n      0x00\n      mstore\n      keccak256(0x00, 0x20)\n      swap1\n      0x08\n      mul\n      add\n        /* \"contracts/Donate.sol\":3300:3326  _boards[index++]=boards[i] */\n      mload(0x40)\n      dup1\n      0x0100\n      add\n      0x40\n      mstore\n      swap1\n      dup2\n      0x00\n      dup3\n      add\n      sload\n      dup2\n      mstore\n      0x20\n      add\n      0x01\n      dup3\n      add\n      dup1\n      sload\n      tag_153\n      swap1\n      tag_98\n      jump\t// in\n    tag_153:\n      dup1\n      0x1f\n      add\n      0x20\n      dup1\n      swap2\n      div\n      mul\n      0x20\n      add\n      mload(0x40)\n      swap1\n      dup2\n      add\n      0x40\n      mstore\n      dup1\n      swap3\n      swap2\n      swap1\n      dup2\n      dup2\n      mstore\n      0x20\n      add\n      dup3\n      dup1\n      sload\n      tag_154\n      swap1\n      tag_98\n      jump\t// in\n    tag_154:\n      dup1\n      iszero\n      tag_155\n      jumpi\n      dup1\n      0x1f\n      lt\n      tag_156\n      jumpi\n      0x0100\n      dup1\n      dup4\n      sload\n      div\n      mul\n      dup4\n      mstore\n      swap2\n      0x20\n      add\n      swap2\n      jump(tag_155)\n    tag_156:\n      dup3\n      add\n      swap2\n      swap1\n      0x00\n      mstore\n      keccak256(0x00, 0x20)\n      swap1\n    tag_157:\n      dup2\n      sload\n      dup2\n      mstore\n      swap1\n      0x01\n      add\n      swap1\n      0x20\n      add\n      dup1\n      dup4\n      gt\n      tag_157\n      jumpi\n      dup3\n      swap1\n      sub\n      0x1f\n      and\n      dup3\n      add\n      swap2\n    tag_155:\n      pop\n      pop\n      pop\n      pop\n      pop\n      dup2\n      mstore\n      0x20\n      add\n      0x02\n      dup3\n      add\n      dup1\n      sload\n      tag_158\n      swap1\n      tag_98\n      jump\t// in\n    tag_158:\n      dup1\n      0x1f\n      add\n      0x20\n      dup1\n      swap2\n      div\n      mul\n      0x20\n      add\n      mload(0x40)\n      swap1\n      dup2\n      add\n      0x40\n      mstore\n      dup1\n      swap3\n      swap2\n      swap1\n      dup2\n      dup2\n      mstore\n      0x20\n      add\n      dup3\n      dup1\n      sload\n      tag_159\n      swap1\n      tag_98\n      jump\t// in\n    tag_159:\n      dup1\n      iszero\n      tag_160\n      jumpi\n      dup1\n      0x1f\n      lt\n      tag_161\n      jumpi\n      0x0100\n      dup1\n      dup4\n      sload\n      div\n      mul\n      dup4\n      mstore\n      swap2\n      0x20\n      add\n      swap2\n      jump(tag_160)\n    tag_161:\n      dup3\n      add\n      swap2\n      swap1\n      0x00\n      mstore\n      keccak256(0x00, 0x20)\n      swap1\n    tag_162:\n      dup2\n      sload\n      dup2\n      mstore\n      swap1\n      0x01\n      add\n      swap1\n      0x20\n      add\n      dup1\n      dup4\n      gt\n      tag_162\n      jumpi\n      dup3\n      swap1\n      sub\n      0x1f\n      and\n      dup3\n      add\n      swap2\n    tag_160:\n      pop\n      pop\n      pop\n      pop\n      pop\n      dup2\n      mstore\n      0x20\n      add\n      0x03\n      dup3\n      add\n      0x00\n      swap1\n      sload\n      swap1\n      0x0100\n      exp\n      swap1\n      div\n      0xffffffffffffffffffffffffffffffffffffffff\n      and\n      0xffffffffffffffffffffffffffffffffffffffff\n      and\n      0xffffffffffffffffffffffffffffffffffffffff\n      and\n      dup2\n      mstore\n      0x20\n      add\n      0x04\n      dup3\n      add\n      dup1\n      sload\n      tag_163\n      swap1\n      tag_98\n      jump\t// in\n    tag_163:\n      dup1\n      0x1f\n      add\n      0x20\n      dup1\n      swap2\n      div\n      mul\n      0x20\n      add\n      mload(0x40)\n      swap1\n      dup2\n      add\n      0x40\n      mstore\n      dup1\n      swap3\n      swap2\n      swap1\n      dup2\n      dup2\n      mstore\n      0x20\n      add\n      dup3\n      dup1\n      sload\n      tag_164\n      swap1\n      tag_98\n      jump\t// in\n    tag_164:\n      dup1\n      iszero\n      tag_165\n      jumpi\n      dup1\n      0x1f\n      lt\n      tag_166\n      jumpi\n      0x0100\n      dup1\n      dup4\n      sload\n      div\n      mul\n      dup4\n      mstore\n      swap2\n      0x20\n      add\n      swap2\n      jump(tag_165)\n    tag_166:\n      dup3\n      add\n      swap2\n      swap1\n      0x00\n      mstore\n      keccak256(0x00, 0x20)\n      swap1\n    tag_167:\n      dup2\n      sload\n      dup2\n      mstore\n      swap1\n      0x01\n      add\n      swap1\n      0x20\n      add\n      dup1\n      dup4\n      gt\n      tag_167\n      jumpi\n      dup3\n      swap1\n      sub\n      0x1f\n      and\n      dup3\n      add\n      swap2\n    tag_165:\n      pop\n      pop\n      pop\n      pop\n      pop\n      dup2\n      mstore\n      0x20\n      add\n      0x05\n      dup3\n      add\n      sload\n      dup2\n      mstore\n      0x20\n      add\n      0x06\n      dup3\n      add\n      sload\n      dup2\n      mstore\n      0x20\n      add\n      0x07\n      dup3\n      add\n      0x00\n      swap1\n      sload\n      swap1\n      0x0100\n      exp\n      swap1\n      div\n      0xff\n      and\n      iszero\n      iszero\n      iszero\n      iszero\n      dup2\n      mstore\n      pop\n      pop\n        /* \"contracts/Donate.sol\":3300:3307  _boards */\n      dup4\n        /* \"contracts/Donate.sol\":3308:3315  index++ */\n      dup4\n      dup1\n      tag_168\n      swap1\n      tag_79\n      jump\t// in\n    tag_168:\n      swap5\n      pop\n        /* \"contracts/Donate.sol\":3300:3316  _boards[index++] */\n      dup2\n      mload\n      dup2\n      lt\n      tag_169\n      jumpi\n      tag_170\n      tag_75\n      jump\t// in\n    tag_170:\n    tag_169:\n      0x20\n      mul\n      0x20\n      add\n      add\n        /* \"contracts/Donate.sol\":3300:3326  _boards[index++]=boards[i] */\n      dup2\n      swap1\n      mstore\n      pop\n        /* \"contracts/Donate.sol\":3261:3342  if(boards[i].expire){... */\n    tag_149:\n        /* \"contracts/Donate.sol\":3241:3244  i++ */\n      dup1\n      dup1\n      0x01\n      add\n      swap2\n      pop\n      pop\n        /* \"contracts/Donate.sol\":3202:3353  for (uint256 i = 0; i < boards.length; i++) {... */\n      jump(tag_143)\n    tag_144:\n      pop\n        /* \"contracts/Donate.sol\":3370:3377  _boards */\n      dup2\n        /* \"contracts/Donate.sol\":3363:3377  return _boards */\n      swap4\n      pop\n      pop\n      pop\n      pop\n        /* \"contracts/Donate.sol\":2859:3385  function getAllBoardsExpir() public view returns(Board[] memory)... */\n      swap1\n      jump\t// out\n        /* \"contracts/Donate.sol\":4138:4876  function getDonatorInfoByAddr(address _address) public view returns(Donator[] memory)... */\n    tag_34:\n        /* \"contracts/Donate.sol\":4206:4222  Donator[] memory */\n      0x60\n        /* \"contracts/Donate.sol\":4266:4267  0 */\n      0x00\n        /* \"contracts/Donate.sol\":4248:4268  _address!=address(0) */\n      0xffffffffffffffffffffffffffffffffffffffff\n      and\n        /* \"contracts/Donate.sol\":4248:4256  _address */\n      dup3\n        /* \"contracts/Donate.sol\":4248:4268  _address!=address(0) */\n      0xffffffffffffffffffffffffffffffffffffffff\n      and\n      sub\n        /* \"contracts/Donate.sol\":4240:4287  require(_address!=address(0),\"invalid address\") */\n      tag_172\n      jumpi\n      mload(0x40)\n      0x08c379a000000000000000000000000000000000000000000000000000000000\n      dup2\n      mstore\n      0x04\n      add\n      tag_173\n      swap1\n      tag_174\n      jump\t// in\n    tag_173:\n      mload(0x40)\n      dup1\n      swap2\n      sub\n      swap1\n      revert\n    tag_172:\n        /* \"contracts/Donate.sol\":4846:4858  donator_info */\n      0x02\n        /* \"contracts/Donate.sol\":4846:4868  donator_info[_address] */\n      0x00\n        /* \"contracts/Donate.sol\":4859:4867  _address */\n      dup4\n        /* \"contracts/Donate.sol\":4846:4868  donator_info[_address] */\n      0xffffffffffffffffffffffffffffffffffffffff\n      and\n      0xffffffffffffffffffffffffffffffffffffffff\n      and\n      dup2\n      mstore\n      0x20\n      add\n      swap1\n      dup2\n      mstore\n      0x20\n      add\n      0x00\n      keccak256\n        /* \"contracts/Donate.sol\":4839:4868  return donator_info[_address] */\n      dup1\n      sload\n      dup1\n      0x20\n      mul\n      0x20\n      add\n      mload(0x40)\n      swap1\n      dup2\n      add\n      0x40\n      mstore\n      dup1\n      swap3\n      swap2\n      swap1\n      dup2\n      dup2\n      mstore\n      0x20\n      add\n      0x00\n      swap1\n    tag_175:\n      dup3\n      dup3\n      lt\n      iszero\n      tag_176\n      jumpi\n      dup4\n      dup3\n      swap1\n      0x00\n      mstore\n      keccak256(0x00, 0x20)\n      swap1\n      0x04\n      mul\n      add\n      mload(0x40)\n      dup1\n      0x80\n      add\n      0x40\n      mstore\n      swap1\n      dup2\n      0x00\n      dup3\n      add\n      sload\n      dup2\n      mstore\n      0x20\n      add\n      0x01\n      dup3\n      add\n      dup1\n      sload\n      tag_178\n      swap1\n      tag_98\n      jump\t// in\n    tag_178:\n      dup1\n      0x1f\n      add\n      0x20\n      dup1\n      swap2\n      div\n      mul\n      0x20\n      add\n      mload(0x40)\n      swap1\n      dup2\n      add\n      0x40\n      mstore\n      dup1\n      swap3\n      swap2\n      swap1\n      dup2\n      dup2\n      mstore\n      0x20\n      add\n      dup3\n      dup1\n      sload\n      tag_179\n      swap1\n      tag_98\n      jump\t// in\n    tag_179:\n      dup1\n      iszero\n      tag_180\n      jumpi\n      dup1\n      0x1f\n      lt\n      tag_181\n      jumpi\n      0x0100\n      dup1\n      dup4\n      sload\n      div\n      mul\n      dup4\n      mstore\n      swap2\n      0x20\n      add\n      swap2\n      jump(tag_180)\n    tag_181:\n      dup3\n      add\n      swap2\n      swap1\n      0x00\n      mstore\n      keccak256(0x00, 0x20)\n      swap1\n    tag_182:\n      dup2\n      sload\n      dup2\n      mstore\n      swap1\n      0x01\n      add\n      swap1\n      0x20\n      add\n      dup1\n      dup4\n      gt\n      tag_182\n      jumpi\n      dup3\n      swap1\n      sub\n      0x1f\n      and\n      dup3\n      add\n      swap2\n    tag_180:\n      pop\n      pop\n      pop\n      pop\n      pop\n      dup2\n      mstore\n      0x20\n      add\n      0x02\n      dup3\n      add\n      0x00\n      swap1\n      sload\n      swap1\n      0x0100\n      exp\n      swap1\n      div\n      0xffffffffffffffffffffffffffffffffffffffff\n      and\n      0xffffffffffffffffffffffffffffffffffffffff\n      and\n      0xffffffffffffffffffffffffffffffffffffffff\n      and\n      dup2\n      mstore\n      0x20\n      add\n      0x03\n      dup3\n      add\n      sload\n      dup2\n      mstore\n      pop\n      pop\n      dup2\n      mstore\n      0x20\n      add\n      swap1\n      0x01\n      add\n      swap1\n      jump(tag_175)\n    tag_176:\n      pop\n      pop\n      pop\n      pop\n      swap1\n      pop\n        /* \"contracts/Donate.sol\":4138:4876  function getDonatorInfoByAddr(address _address) public view returns(Donator[] memory)... */\n      swap2\n      swap1\n      pop\n      jump\t// out\n        /* \"contracts/Donate.sol\":651:672  Board[] public boards */\n    tag_40:\n      0x04\n      dup2\n      dup2\n      sload\n      dup2\n      lt\n      tag_183\n      jumpi\n      0x00\n      dup1\n      revert\n    tag_183:\n      swap1\n      0x00\n      mstore\n      keccak256(0x00, 0x20)\n      swap1\n      0x08\n      mul\n      add\n      0x00\n      swap2\n      pop\n      swap1\n      pop\n      dup1\n      0x00\n      add\n      sload\n      swap1\n      dup1\n      0x01\n      add\n      dup1\n      sload\n      tag_185\n      swap1\n      tag_98\n      jump\t// in\n    tag_185:\n      dup1\n      0x1f\n      add\n      0x20\n      dup1\n      swap2\n      div\n      mul\n      0x20\n      add\n      mload(0x40)\n      swap1\n      dup2\n      add\n      0x40\n      mstore\n      dup1\n      swap3\n      swap2\n      swap1\n      dup2\n      dup2\n      mstore\n      0x20\n      add\n      dup3\n      dup1\n      sload\n      tag_186\n      swap1\n      tag_98\n      jump\t// in\n    tag_186:\n      dup1\n      iszero\n      tag_187\n      jumpi\n      dup1\n      0x1f\n      lt\n      tag_188\n      jumpi\n      0x0100\n      dup1\n      dup4\n      sload\n      div\n      mul\n      dup4\n      mstore\n      swap2\n      0x20\n      add\n      swap2\n      jump(tag_187)\n    tag_188:\n      dup3\n      add\n      swap2\n      swap1\n      0x00\n      mstore\n      keccak256(0x00, 0x20)\n      swap1\n    tag_189:\n      dup2\n      sload\n      dup2\n      mstore\n      swap1\n      0x01\n      add\n      swap1\n      0x20\n      add\n      dup1\n      dup4\n      gt\n      tag_189\n      jumpi\n      dup3\n      swap1\n      sub\n      0x1f\n      and\n      dup3\n      add\n      swap2\n    tag_187:\n      pop\n      pop\n      pop\n      pop\n      pop\n      swap1\n      dup1\n      0x02\n      add\n      dup1\n      sload\n      tag_190\n      swap1\n      tag_98\n      jump\t// in\n    tag_190:\n      dup1\n      0x1f\n      add\n      0x20\n      dup1\n      swap2\n      div\n      mul\n      0x20\n      add\n      mload(0x40)\n      swap1\n      dup2\n      add\n      0x40\n      mstore\n      dup1\n      swap3\n      swap2\n      swap1\n      dup2\n      dup2\n      mstore\n      0x20\n      add\n      dup3\n      dup1\n      sload\n      tag_191\n      swap1\n      tag_98\n      jump\t// in\n    tag_191:\n      dup1\n      iszero\n      tag_192\n      jumpi\n      dup1\n      0x1f\n      lt\n      tag_193\n      jumpi\n      0x0100\n      dup1\n      dup4\n      sload\n      div\n      mul\n      dup4\n      mstore\n      swap2\n      0x20\n      add\n      swap2\n      jump(tag_192)\n    tag_193:\n      dup3\n      add\n      swap2\n      swap1\n      0x00\n      mstore\n      keccak256(0x00, 0x20)\n      swap1\n    tag_194:\n      dup2\n      sload\n      dup2\n      mstore\n      swap1\n      0x01\n      add\n      swap1\n      0x20\n      add\n      dup1\n      dup4\n      gt\n      tag_194\n      jumpi\n      dup3\n      swap1\n      sub\n      0x1f\n      and\n      dup3\n      add\n      swap2\n    tag_192:\n      pop\n      pop\n      pop\n      pop\n      pop\n      swap1\n      dup1\n      0x03\n      add\n      0x00\n      swap1\n      sload\n      swap1\n      0x0100\n      exp\n      swap1\n      div\n      0xffffffffffffffffffffffffffffffffffffffff\n      and\n      swap1\n      dup1\n      0x04\n      add\n      dup1\n      sload\n      tag_195\n      swap1\n      tag_98\n      jump\t// in\n    tag_195:\n      dup1\n      0x1f\n      add\n      0x20\n      dup1\n      swap2\n      div\n      mul\n      0x20\n      add\n      mload(0x40)\n      swap1\n      dup2\n      add\n      0x40\n      mstore\n      dup1\n      swap3\n      swap2\n      swap1\n      dup2\n      dup2\n      mstore\n      0x20\n      add\n      dup3\n      dup1\n      sload\n      tag_196\n      swap1\n      tag_98\n      jump\t// in\n    tag_196:\n      dup1\n      iszero\n      tag_197\n      jumpi\n      dup1\n      0x1f\n      lt\n      tag_198\n      jumpi\n      0x0100\n      dup1\n      dup4\n      sload\n      div\n      mul\n      dup4\n      mstore\n      swap2\n      0x20\n      add\n      swap2\n      jump(tag_197)\n    tag_198:\n      dup3\n      add\n      swap2\n      swap1\n      0x00\n      mstore\n      keccak256(0x00, 0x20)\n      swap1\n    tag_199:\n      dup2\n      sload\n      dup2\n      mstore\n      swap1\n      0x01\n      add\n      swap1\n      0x20\n      add\n      dup1\n      dup4\n      gt\n      tag_199\n      jumpi\n      dup3\n      swap1\n      sub\n      0x1f\n      and\n      dup3\n      add\n      swap2\n    tag_197:\n      pop\n      pop\n      pop\n      pop\n      pop\n      swap1\n      dup1\n      0x05\n      add\n      sload\n      swap1\n      dup1\n      0x06\n      add\n      sload\n      swap1\n      dup1\n      0x07\n      add\n      0x00\n      swap1\n      sload\n      swap1\n      0x0100\n      exp\n      swap1\n      div\n      0xff\n      and\n      swap1\n      pop\n      dup9\n      jump\t// out\n        /* \"contracts/Donate.sol\":515:532  bool public mutex */\n    tag_44:\n      0x00\n      dup1\n      sload\n      swap1\n      0x0100\n      exp\n      swap1\n      div\n      0xff\n      and\n      dup2\n      jump\t// out\n        /* \"contracts/Donate.sol\":3461:4070  function getDonatorInBoard(uint256 _boardIndex) public view returns(Donator[] memory)... */\n    tag_49:\n        /* \"contracts/Donate.sol\":3529:3545  Donator[] memory */\n      0x60\n        /* \"contracts/Donate.sol\":3573:3586  uint256 count */\n      0x00\n        /* \"contracts/Donate.sol\":3602:3611  uint256 i */\n      dup1\n        /* \"contracts/Donate.sol\":3614:3615  0 */\n      0x00\n        /* \"contracts/Donate.sol\":3602:3615  uint256 i = 0 */\n      swap1\n      pop\n        /* \"contracts/Donate.sol\":3597:3750  for (uint256 i = 0; i < donators.length; i++) {... */\n    tag_201:\n        /* \"contracts/Donate.sol\":3621:3629  donators */\n      0x03\n        /* \"contracts/Donate.sol\":3621:3636  donators.length */\n      dup1\n      sload\n      swap1\n      pop\n        /* \"contracts/Donate.sol\":3617:3618  i */\n      dup2\n        /* \"contracts/Donate.sol\":3617:3636  i < donators.length */\n      lt\n        /* \"contracts/Donate.sol\":3597:3750  for (uint256 i = 0; i < donators.length; i++) {... */\n      iszero\n      tag_202\n      jumpi\n        /* \"contracts/Donate.sol\":3685:3696  _boardIndex */\n      dup4\n        /* \"contracts/Donate.sol\":3661:3669  donators */\n      0x03\n        /* \"contracts/Donate.sol\":3670:3671  i */\n      dup3\n        /* \"contracts/Donate.sol\":3661:3672  donators[i] */\n      dup2\n      sload\n      dup2\n      lt\n      tag_204\n      jumpi\n      tag_205\n      tag_75\n      jump\t// in\n    tag_205:\n    tag_204:\n      swap1\n      0x00\n      mstore\n      keccak256(0x00, 0x20)\n      swap1\n      0x04\n      mul\n      add\n        /* \"contracts/Donate.sol\":3661:3681  donators[i].targetId */\n      0x00\n      add\n      sload\n        /* \"contracts/Donate.sol\":3661:3696  donators[i].targetId == _boardIndex */\n      sub\n        /* \"contracts/Donate.sol\":3658:3739  if(donators[i].targetId == _boardIndex){... */\n      tag_207\n      jumpi\n        /* \"contracts/Donate.sol\":3716:3723  ++count */\n      dup2\n      tag_208\n      swap1\n      tag_79\n      jump\t// in\n    tag_208:\n      swap2\n      pop\n        /* \"contracts/Donate.sol\":3658:3739  if(donators[i].targetId == _boardIndex){... */\n    tag_207:\n        /* \"contracts/Donate.sol\":3638:3641  i++ */\n      dup1\n      dup1\n      0x01\n      add\n      swap2\n      pop\n      pop\n        /* \"contracts/Donate.sol\":3597:3750  for (uint256 i = 0; i < donators.length; i++) {... */\n      jump(tag_201)\n    tag_202:\n      pop\n        /* \"contracts/Donate.sol\":3760:3786  Donator[] memory _donators */\n      0x00\n        /* \"contracts/Donate.sol\":3801:3806  count */\n      dup2\n        /* \"contracts/Donate.sol\":3787:3807  new Donator[](count) */\n      0xffffffffffffffff\n      dup2\n      gt\n      iszero\n      tag_209\n      jumpi\n      tag_210\n      tag_82\n      jump\t// in\n    tag_210:\n    tag_209:\n      mload(0x40)\n      swap1\n      dup1\n      dup3\n      mstore\n      dup1\n      0x20\n      mul\n      0x20\n      add\n      dup3\n      add\n      0x40\n      mstore\n      dup1\n      iszero\n      tag_211\n      jumpi\n      dup2\n      0x20\n      add\n    tag_212:\n      tag_213\n      tag_214\n      jump\t// in\n    tag_213:\n      dup2\n      mstore\n      0x20\n      add\n      swap1\n      0x01\n      swap1\n      sub\n      swap1\n      dup2\n      tag_212\n      jumpi\n      swap1\n      pop\n    tag_211:\n      pop\n        /* \"contracts/Donate.sol\":3760:3807  Donator[] memory _donators=new Donator[](count) */\n      swap1\n      pop\n        /* \"contracts/Donate.sol\":3818:3831  uint256 index */\n      0x00\n        /* \"contracts/Donate.sol\":3847:3856  uint256 i */\n      dup1\n        /* \"contracts/Donate.sol\":3859:3860  0 */\n      0x00\n        /* \"contracts/Donate.sol\":3847:3860  uint256 i = 0 */\n      swap1\n      pop\n        /* \"contracts/Donate.sol\":3842:4036  for (uint256 i = 0; i < donators.length; i++) {... */\n    tag_215:\n        /* \"contracts/Donate.sol\":3866:3874  donators */\n      0x03\n        /* \"contracts/Donate.sol\":3866:3881  donators.length */\n      dup1\n      sload\n      swap1\n      pop\n        /* \"contracts/Donate.sol\":3862:3863  i */\n      dup2\n        /* \"contracts/Donate.sol\":3862:3881  i < donators.length */\n      lt\n        /* \"contracts/Donate.sol\":3842:4036  for (uint256 i = 0; i < donators.length; i++) {... */\n      iszero\n      tag_216\n      jumpi\n        /* \"contracts/Donate.sol\":3930:3941  _boardIndex */\n      dup6\n        /* \"contracts/Donate.sol\":3906:3914  donators */\n      0x03\n        /* \"contracts/Donate.sol\":3915:3916  i */\n      dup3\n        /* \"contracts/Donate.sol\":3906:3917  donators[i] */\n      dup2\n      sload\n      dup2\n      lt\n      tag_218\n      jumpi\n      tag_219\n      tag_75\n      jump\t// in\n    tag_219:\n    tag_218:\n      swap1\n      0x00\n      mstore\n      keccak256(0x00, 0x20)\n      swap1\n      0x04\n      mul\n      add\n        /* \"contracts/Donate.sol\":3906:3926  donators[i].targetId */\n      0x00\n      add\n      sload\n        /* \"contracts/Donate.sol\":3906:3941  donators[i].targetId == _boardIndex */\n      sub\n        /* \"contracts/Donate.sol\":3903:4025  if(donators[i].targetId == _boardIndex){... */\n      tag_221\n      jumpi\n        /* \"contracts/Donate.sol\":3980:3988  donators */\n      0x03\n        /* \"contracts/Donate.sol\":3989:3990  i */\n      dup2\n        /* \"contracts/Donate.sol\":3980:3991  donators[i] */\n      dup2\n      sload\n      dup2\n      lt\n      tag_222\n      jumpi\n      tag_223\n      tag_75\n      jump\t// in\n    tag_223:\n    tag_222:\n      swap1\n      0x00\n      mstore\n      keccak256(0x00, 0x20)\n      swap1\n      0x04\n      mul\n      add\n        /* \"contracts/Donate.sol\":3961:3991  _donators[index++]=donators[i] */\n      mload(0x40)\n      dup1\n      0x80\n      add\n      0x40\n      mstore\n      swap1\n      dup2\n      0x00\n      dup3\n      add\n      sload\n      dup2\n      mstore\n      0x20\n      add\n      0x01\n      dup3\n      add\n      dup1\n      sload\n      tag_225\n      swap1\n      tag_98\n      jump\t// in\n    tag_225:\n      dup1\n      0x1f\n      add\n      0x20\n      dup1\n      swap2\n      div\n      mul\n      0x20\n      add\n      mload(0x40)\n      swap1\n      dup2\n      add\n      0x40\n      mstore\n      dup1\n      swap3\n      swap2\n      swap1\n      dup2\n      dup2\n      mstore\n      0x20\n      add\n      dup3\n      dup1\n      sload\n      tag_226\n      swap1\n      tag_98\n      jump\t// in\n    tag_226:\n      dup1\n      iszero\n      tag_227\n      jumpi\n      dup1\n      0x1f\n      lt\n      tag_228\n      jumpi\n      0x0100\n      dup1\n      dup4\n      sload\n      div\n      mul\n      dup4\n      mstore\n      swap2\n      0x20\n      add\n      swap2\n      jump(tag_227)\n    tag_228:\n      dup3\n      add\n      swap2\n      swap1\n      0x00\n      mstore\n      keccak256(0x00, 0x20)\n      swap1\n    tag_229:\n      dup2\n      sload\n      dup2\n      mstore\n      swap1\n      0x01\n      add\n      swap1\n      0x20\n      add\n      dup1\n      dup4\n      gt\n      tag_229\n      jumpi\n      dup3\n      swap1\n      sub\n      0x1f\n      and\n      dup3\n      add\n      swap2\n    tag_227:\n      pop\n      pop\n      pop\n      pop\n      pop\n      dup2\n      mstore\n      0x20\n      add\n      0x02\n      dup3\n      add\n      0x00\n      swap1\n      sload\n      swap1\n      0x0100\n      exp\n      swap1\n      div\n      0xffffffffffffffffffffffffffffffffffffffff\n      and\n      0xffffffffffffffffffffffffffffffffffffffff\n      and\n      0xffffffffffffffffffffffffffffffffffffffff\n      and\n      dup2\n      mstore\n      0x20\n      add\n      0x03\n      dup3\n      add\n      sload\n      dup2\n      mstore\n      pop\n      pop\n        /* \"contracts/Donate.sol\":3961:3970  _donators */\n      dup4\n        /* \"contracts/Donate.sol\":3971:3978  index++ */\n      dup4\n      dup1\n      tag_230\n      swap1\n      tag_79\n      jump\t// in\n    tag_230:\n      swap5\n      pop\n        /* \"contracts/Donate.sol\":3961:3979  _donators[index++] */\n      dup2\n      mload\n      dup2\n      lt\n      tag_231\n      jumpi\n      tag_232\n      tag_75\n      jump\t// in\n    tag_232:\n    tag_231:\n      0x20\n      mul\n      0x20\n      add\n      add\n        /* \"contracts/Donate.sol\":3961:3991  _donators[index++]=donators[i] */\n      dup2\n      swap1\n      mstore\n      pop\n        /* \"contracts/Donate.sol\":3903:4025  if(donators[i].targetId == _boardIndex){... */\n    tag_221:\n        /* \"contracts/Donate.sol\":3883:3886  i++ */\n      dup1\n      dup1\n      0x01\n      add\n      swap2\n      pop\n      pop\n        /* \"contracts/Donate.sol\":3842:4036  for (uint256 i = 0; i < donators.length; i++) {... */\n      jump(tag_215)\n    tag_216:\n      pop\n        /* \"contracts/Donate.sol\":4053:4062  _donators */\n      dup2\n        /* \"contracts/Donate.sol\":4046:4062  return _donators */\n      swap4\n      pop\n      pop\n      pop\n      pop\n        /* \"contracts/Donate.sol\":3461:4070  function getDonatorInBoard(uint256 _boardIndex) public view returns(Donator[] memory)... */\n      swap2\n      swap1\n      pop\n      jump\t// out\n        /* \"contracts/Donate.sol\":619:644  Donator[] public donators */\n    tag_53:\n      0x03\n      dup2\n      dup2\n      sload\n      dup2\n      lt\n      tag_233\n      jumpi\n      0x00\n      dup1\n      revert\n    tag_233:\n      swap1\n      0x00\n      mstore\n      keccak256(0x00, 0x20)\n      swap1\n      0x04\n      mul\n      add\n      0x00\n      swap2\n      pop\n      swap1\n      pop\n      dup1\n      0x00\n      add\n      sload\n      swap1\n      dup1\n      0x01\n      add\n      dup1\n      sload\n      tag_235\n      swap1\n      tag_98\n      jump\t// in\n    tag_235:\n      dup1\n      0x1f\n      add\n      0x20\n      dup1\n      swap2\n      div\n      mul\n      0x20\n      add\n      mload(0x40)\n      swap1\n      dup2\n      add\n      0x40\n      mstore\n      dup1\n      swap3\n      swap2\n      swap1\n      dup2\n      dup2\n      mstore\n      0x20\n      add\n      dup3\n      dup1\n      sload\n      tag_236\n      swap1\n      tag_98\n      jump\t// in\n    tag_236:\n      dup1\n      iszero\n      tag_237\n      jumpi\n      dup1\n      0x1f\n      lt\n      tag_238\n      jumpi\n      0x0100\n      dup1\n      dup4\n      sload\n      div\n      mul\n      dup4\n      mstore\n      swap2\n      0x20\n      add\n      swap2\n      jump(tag_237)\n    tag_238:\n      dup3\n      add\n      swap2\n      swap1\n      0x00\n      mstore\n      keccak256(0x00, 0x20)\n      swap1\n    tag_239:\n      dup2\n      sload\n      dup2\n      mstore\n      swap1\n      0x01\n      add\n      swap1\n      0x20\n      add\n      dup1\n      dup4\n      gt\n      tag_239\n      jumpi\n      dup3\n      swap1\n      sub\n      0x1f\n      and\n      dup3\n      add\n      swap2\n    tag_237:\n      pop\n      pop\n      pop\n      pop\n      pop\n      swap1\n      dup1\n      0x02\n      add\n      0x00\n      swap1\n      sload\n      swap1\n      0x0100\n      exp\n      swap1\n      div\n      0xffffffffffffffffffffffffffffffffffffffff\n      and\n      swap1\n      dup1\n      0x03\n      add\n      sload\n      swap1\n      pop\n      dup5\n      jump\t// out\n        /* \"contracts/Donate.sol\":4905:5688  function donate(uint256 _targetId,string calldata name,address _donator_addr,uint256 _amount) public {... */\n    tag_59:\n        /* \"contracts/Donate.sol\":5048:5049  0 */\n      0x00\n        /* \"contracts/Donate.sol\":5025:5050  _donator_addr!=address(0) */\n      0xffffffffffffffffffffffffffffffffffffffff\n      and\n        /* \"contracts/Donate.sol\":5025:5038  _donator_addr */\n      dup3\n        /* \"contracts/Donate.sol\":5025:5050  _donator_addr!=address(0) */\n      0xffffffffffffffffffffffffffffffffffffffff\n      and\n      sub\n        /* \"contracts/Donate.sol\":5017:5069  require(_donator_addr!=address(0),\"invalid address\") */\n      tag_241\n      jumpi\n      mload(0x40)\n      0x08c379a000000000000000000000000000000000000000000000000000000000\n      dup2\n      mstore\n      0x04\n      add\n      tag_242\n      swap1\n      tag_174\n      jump\t// in\n    tag_242:\n      mload(0x40)\n      dup1\n      swap2\n      sub\n      swap1\n      revert\n    tag_241:\n        /* \"contracts/Donate.sol\":5080:5103  Donator memory _donator */\n      0x00\n        /* \"contracts/Donate.sol\":5104:5149  Donator(_targetId,name,_donator_addr,_amount) */\n      mload(0x40)\n      dup1\n      0x80\n      add\n      0x40\n      mstore\n      dup1\n        /* \"contracts/Donate.sol\":5112:5121  _targetId */\n      dup8\n        /* \"contracts/Donate.sol\":5104:5149  Donator(_targetId,name,_donator_addr,_amount) */\n      dup2\n      mstore\n      0x20\n      add\n        /* \"contracts/Donate.sol\":5122:5126  name */\n      dup7\n      dup7\n        /* \"contracts/Donate.sol\":5104:5149  Donator(_targetId,name,_donator_addr,_amount) */\n      dup1\n      dup1\n      0x1f\n      add\n      0x20\n      dup1\n      swap2\n      div\n      mul\n      0x20\n      add\n      mload(0x40)\n      swap1\n      dup2\n      add\n      0x40\n      mstore\n      dup1\n      swap4\n      swap3\n      swap2\n      swap1\n      dup2\n      dup2\n      mstore\n      0x20\n      add\n      dup4\n      dup4\n      dup1\n      dup3\n      dup5\n      calldatacopy\n      0x00\n      dup2\n      dup5\n      add\n      mstore\n      not(0x1f)\n      0x1f\n      dup3\n      add\n      and\n      swap1\n      pop\n      dup1\n      dup4\n      add\n      swap3\n      pop\n      pop\n      pop\n      pop\n      pop\n      pop\n      pop\n      dup2\n      mstore\n      0x20\n      add\n        /* \"contracts/Donate.sol\":5127:5140  _donator_addr */\n      dup5\n        /* \"contracts/Donate.sol\":5104:5149  Donator(_targetId,name,_donator_addr,_amount) */\n      0xffffffffffffffffffffffffffffffffffffffff\n      and\n      dup2\n      mstore\n      0x20\n      add\n        /* \"contracts/Donate.sol\":5141:5148  _amount */\n      dup4\n        /* \"contracts/Donate.sol\":5104:5149  Donator(_targetId,name,_donator_addr,_amount) */\n      dup2\n      mstore\n      pop\n        /* \"contracts/Donate.sol\":5080:5149  Donator memory _donator=Donator(_targetId,name,_donator_addr,_amount) */\n      swap1\n      pop\n        /* \"contracts/Donate.sol\":5160:5168  donators */\n      0x03\n        /* \"contracts/Donate.sol\":5174:5182  _donator */\n      dup2\n        /* \"contracts/Donate.sol\":5160:5183  donators.push(_donator) */\n      swap1\n      dup1\n      0x01\n      dup2\n      sload\n      add\n      dup1\n      dup3\n      sstore\n      dup1\n      swap2\n      pop\n      pop\n      0x01\n      swap1\n      sub\n      swap1\n      0x00\n      mstore\n      keccak256(0x00, 0x20)\n      swap1\n      0x04\n      mul\n      add\n      0x00\n      swap1\n      swap2\n      swap1\n      swap2\n      swap1\n      swap2\n      pop\n      0x00\n      dup3\n      add\n      mload\n      dup2\n      0x00\n      add\n      sstore\n      0x20\n      dup3\n      add\n      mload\n      dup2\n      0x01\n      add\n      swap1\n      dup2\n      tag_244\n      swap2\n      swap1\n      tag_126\n      jump\t// in\n    tag_244:\n      pop\n      0x40\n      dup3\n      add\n      mload\n      dup2\n      0x02\n      add\n      exp(0x0100, 0x00)\n      dup2\n      sload\n      dup2\n      0xffffffffffffffffffffffffffffffffffffffff\n      mul\n      not\n      and\n      swap1\n      dup4\n      0xffffffffffffffffffffffffffffffffffffffff\n      and\n      mul\n      or\n      swap1\n      sstore\n      pop\n      0x60\n      dup3\n      add\n      mload\n      dup2\n      0x03\n      add\n      sstore\n      pop\n      pop\n        /* \"contracts/Donate.sol\":5194:5206  donator_info */\n      0x02\n        /* \"contracts/Donate.sol\":5194:5221  donator_info[_donator_addr] */\n      0x00\n        /* \"contracts/Donate.sol\":5207:5220  _donator_addr */\n      dup5\n        /* \"contracts/Donate.sol\":5194:5221  donator_info[_donator_addr] */\n      0xffffffffffffffffffffffffffffffffffffffff\n      and\n      0xffffffffffffffffffffffffffffffffffffffff\n      and\n      dup2\n      mstore\n      0x20\n      add\n      swap1\n      dup2\n      mstore\n      0x20\n      add\n      0x00\n      keccak256\n        /* \"contracts/Donate.sol\":5227:5235  _donator */\n      dup2\n        /* \"contracts/Donate.sol\":5194:5236  donator_info[_donator_addr].push(_donator) */\n      swap1\n      dup1\n      0x01\n      dup2\n      sload\n      add\n      dup1\n      dup3\n      sstore\n      dup1\n      swap2\n      pop\n      pop\n      0x01\n      swap1\n      sub\n      swap1\n      0x00\n      mstore\n      keccak256(0x00, 0x20)\n      swap1\n      0x04\n      mul\n      add\n      0x00\n      swap1\n      swap2\n      swap1\n      swap2\n      swap1\n      swap2\n      pop\n      0x00\n      dup3\n      add\n      mload\n      dup2\n      0x00\n      add\n      sstore\n      0x20\n      dup3\n      add\n      mload\n      dup2\n      0x01\n      add\n      swap1\n      dup2\n      tag_246\n      swap2\n      swap1\n      tag_126\n      jump\t// in\n    tag_246:\n      pop\n      0x40\n      dup3\n      add\n      mload\n      dup2\n      0x02\n      add\n      exp(0x0100, 0x00)\n      dup2\n      sload\n      dup2\n      0xffffffffffffffffffffffffffffffffffffffff\n      mul\n      not\n      and\n      swap1\n      dup4\n      0xffffffffffffffffffffffffffffffffffffffff\n      and\n      mul\n      or\n      swap1\n      sstore\n      pop\n      0x60\n      dup3\n      add\n      mload\n      dup2\n      0x03\n      add\n      sstore\n      pop\n      pop\n        /* \"contracts/Donate.sol\":5247:5256  uint256 i */\n      0x00\n        /* \"contracts/Donate.sol\":5267:5629  for(;i<boards.length;++i)... */\n    tag_247:\n        /* \"contracts/Donate.sol\":5274:5280  boards */\n      0x04\n        /* \"contracts/Donate.sol\":5274:5287  boards.length */\n      dup1\n      sload\n      swap1\n      pop\n        /* \"contracts/Donate.sol\":5272:5273  i */\n      dup2\n        /* \"contracts/Donate.sol\":5272:5287  i<boards.length */\n      lt\n        /* \"contracts/Donate.sol\":5267:5629  for(;i<boards.length;++i)... */\n      iszero\n      tag_248\n      jumpi\n        /* \"contracts/Donate.sol\":5334:5343  _targetId */\n      dup7\n        /* \"contracts/Donate.sol\":5320:5326  boards */\n      0x04\n        /* \"contracts/Donate.sol\":5327:5328  i */\n      dup3\n        /* \"contracts/Donate.sol\":5320:5329  boards[i] */\n      dup2\n      sload\n      dup2\n      lt\n      tag_250\n      jumpi\n      tag_251\n      tag_75\n      jump\t// in\n    tag_251:\n    tag_250:\n      swap1\n      0x00\n      mstore\n      keccak256(0x00, 0x20)\n      swap1\n      0x08\n      mul\n      add\n        /* \"contracts/Donate.sol\":5320:5332  boards[i].id */\n      0x00\n      add\n      sload\n        /* \"contracts/Donate.sol\":5320:5343  boards[i].id==_targetId */\n      sub\n        /* \"contracts/Donate.sol\":5317:5618  if(boards[i].id==_targetId)... */\n      tag_253\n      jumpi\n        /* \"contracts/Donate.sol\":5400:5407  _amount */\n      dup3\n        /* \"contracts/Donate.sol\":5377:5383  boards */\n      0x04\n        /* \"contracts/Donate.sol\":5384:5385  i */\n      dup3\n        /* \"contracts/Donate.sol\":5377:5386  boards[i] */\n      dup2\n      sload\n      dup2\n      lt\n      tag_254\n      jumpi\n      tag_255\n      tag_75\n      jump\t// in\n    tag_255:\n    tag_254:\n      swap1\n      0x00\n      mstore\n      keccak256(0x00, 0x20)\n      swap1\n      0x08\n      mul\n      add\n        /* \"contracts/Donate.sol\":5377:5398  boards[i].totalAmount */\n      0x06\n      add\n      0x00\n        /* \"contracts/Donate.sol\":5377:5407  boards[i].totalAmount+=_amount */\n      dup3\n      dup3\n      sload\n      tag_257\n      swap2\n      swap1\n      tag_258\n      jump\t// in\n    tag_257:\n      swap3\n      pop\n      pop\n      dup2\n      swap1\n      sstore\n      pop\n        /* \"contracts/Donate.sol\":5452:5458  boards */\n      0x04\n        /* \"contracts/Donate.sol\":5459:5460  i */\n      dup2\n        /* \"contracts/Donate.sol\":5452:5461  boards[i] */\n      dup2\n      sload\n      dup2\n      lt\n      tag_259\n      jumpi\n      tag_260\n      tag_75\n      jump\t// in\n    tag_260:\n    tag_259:\n      swap1\n      0x00\n      mstore\n      keccak256(0x00, 0x20)\n      swap1\n      0x08\n      mul\n      add\n        /* \"contracts/Donate.sol\":5452:5474  boards[i].targetAmount */\n      0x05\n      add\n      sload\n        /* \"contracts/Donate.sol\":5429:5435  boards */\n      0x04\n        /* \"contracts/Donate.sol\":5436:5437  i */\n      dup3\n        /* \"contracts/Donate.sol\":5429:5438  boards[i] */\n      dup2\n      sload\n      dup2\n      lt\n      tag_262\n      jumpi\n      tag_263\n      tag_75\n      jump\t// in\n    tag_263:\n    tag_262:\n      swap1\n      0x00\n      mstore\n      keccak256(0x00, 0x20)\n      swap1\n      0x08\n      mul\n      add\n        /* \"contracts/Donate.sol\":5429:5450  boards[i].totalAmount */\n      0x06\n      add\n      sload\n        /* \"contracts/Donate.sol\":5429:5474  boards[i].totalAmount>=boards[i].targetAmount */\n      lt\n        /* \"contracts/Donate.sol\":5426:5579  if(boards[i].totalAmount>=boards[i].targetAmount)... */\n      tag_265\n      jumpi\n        /* \"contracts/Donate.sol\":5533:5537  true */\n      0x01\n        /* \"contracts/Donate.sol\":5516:5522  boards */\n      0x04\n        /* \"contracts/Donate.sol\":5523:5524  i */\n      dup3\n        /* \"contracts/Donate.sol\":5516:5525  boards[i] */\n      dup2\n      sload\n      dup2\n      lt\n      tag_266\n      jumpi\n      tag_267\n      tag_75\n      jump\t// in\n    tag_267:\n    tag_266:\n      swap1\n      0x00\n      mstore\n      keccak256(0x00, 0x20)\n      swap1\n      0x08\n      mul\n      add\n        /* \"contracts/Donate.sol\":5516:5532  boards[i].expire */\n      0x07\n      add\n      0x00\n        /* \"contracts/Donate.sol\":5516:5537  boards[i].expire=true */\n      0x0100\n      exp\n      dup2\n      sload\n      dup2\n      0xff\n      mul\n      not\n      and\n      swap1\n      dup4\n      iszero\n      iszero\n      mul\n      or\n      swap1\n      sstore\n      pop\n        /* \"contracts/Donate.sol\":5426:5579  if(boards[i].totalAmount>=boards[i].targetAmount)... */\n    tag_265:\n        /* \"contracts/Donate.sol\":5597:5602  break */\n      jump(tag_248)\n        /* \"contracts/Donate.sol\":5317:5618  if(boards[i].id==_targetId)... */\n    tag_253:\n        /* \"contracts/Donate.sol\":5288:5291  ++i */\n      dup1\n      0x01\n      add\n      swap1\n      pop\n        /* \"contracts/Donate.sol\":5267:5629  for(;i<boards.length;++i)... */\n      jump(tag_247)\n    tag_248:\n        /* \"contracts/Donate.sol\":5649:5655  boards */\n      0x04\n        /* \"contracts/Donate.sol\":5649:5662  boards.length */\n      dup1\n      sload\n      swap1\n      pop\n        /* \"contracts/Donate.sol\":5647:5648  i */\n      dup2\n        /* \"contracts/Donate.sol\":5647:5662  i<boards.length */\n      lt\n        /* \"contracts/Donate.sol\":5639:5680  require(i<boards.length,\"no such board!\") */\n      tag_269\n      jumpi\n      mload(0x40)\n      0x08c379a000000000000000000000000000000000000000000000000000000000\n      dup2\n      mstore\n      0x04\n      add\n      tag_270\n      swap1\n      tag_271\n      jump\t// in\n    tag_270:\n      mload(0x40)\n      dup1\n      swap2\n      sub\n      swap1\n      revert\n    tag_269:\n        /* \"contracts/Donate.sol\":5006:5688  {... */\n      pop\n      pop\n        /* \"contracts/Donate.sol\":4905:5688  function donate(uint256 _targetId,string calldata name,address _donator_addr,uint256 _amount) public {... */\n      pop\n      pop\n      pop\n      pop\n      pop\n      jump\t// out\n        /* \"contracts/Donate.sol\":1385:1584  function getBoardInfo(uint256 _boardIndex) public view returns(Board memory)... */\n    tag_62:\n        /* \"contracts/Donate.sol\":1448:1460  Board memory */\n      tag_272\n      tag_86\n      jump\t// in\n    tag_272:\n        /* \"contracts/Donate.sol\":1487:1493  boards */\n      0x04\n        /* \"contracts/Donate.sol\":1494:1505  _boardIndex */\n      dup3\n        /* \"contracts/Donate.sol\":1487:1506  boards[_boardIndex] */\n      dup2\n      sload\n      dup2\n      lt\n      tag_274\n      jumpi\n      tag_275\n      tag_75\n      jump\t// in\n    tag_275:\n    tag_274:\n      swap1\n      0x00\n      mstore\n      keccak256(0x00, 0x20)\n      swap1\n      0x08\n      mul\n      add\n        /* \"contracts/Donate.sol\":1487:1513  boards[_boardIndex].expire */\n      0x07\n      add\n      0x00\n      swap1\n      sload\n      swap1\n      0x0100\n      exp\n      swap1\n      div\n      0xff\n      and\n        /* \"contracts/Donate.sol\":1486:1513  !boards[_boardIndex].expire */\n      iszero\n        /* \"contracts/Donate.sol\":1478:1539  require(!boards[_boardIndex].expire,\"This board has expired\") */\n      tag_277\n      jumpi\n      mload(0x40)\n      0x08c379a000000000000000000000000000000000000000000000000000000000\n      dup2\n      mstore\n      0x04\n      add\n      tag_278\n      swap1\n      tag_279\n      jump\t// in\n    tag_278:\n      mload(0x40)\n      dup1\n      swap2\n      sub\n      swap1\n      revert\n    tag_277:\n        /* \"contracts/Donate.sol\":1557:1563  boards */\n      0x04\n        /* \"contracts/Donate.sol\":1564:1575  _boardIndex */\n      dup3\n        /* \"contracts/Donate.sol\":1557:1576  boards[_boardIndex] */\n      dup2\n      sload\n      dup2\n      lt\n      tag_280\n      jumpi\n      tag_281\n      tag_75\n      jump\t// in\n    tag_281:\n    tag_280:\n      swap1\n      0x00\n      mstore\n      keccak256(0x00, 0x20)\n      swap1\n      0x08\n      mul\n      add\n        /* \"contracts/Donate.sol\":1550:1576  return boards[_boardIndex] */\n      mload(0x40)\n      dup1\n      0x0100\n      add\n      0x40\n      mstore\n      swap1\n      dup2\n      0x00\n      dup3\n      add\n      sload\n      dup2\n      mstore\n      0x20\n      add\n      0x01\n      dup3\n      add\n      dup1\n      sload\n      tag_283\n      swap1\n      tag_98\n      jump\t// in\n    tag_283:\n      dup1\n      0x1f\n      add\n      0x20\n      dup1\n      swap2\n      div\n      mul\n      0x20\n      add\n      mload(0x40)\n      swap1\n      dup2\n      add\n      0x40\n      mstore\n      dup1\n      swap3\n      swap2\n      swap1\n      dup2\n      dup2\n      mstore\n      0x20\n      add\n      dup3\n      dup1\n      sload\n      tag_284\n      swap1\n      tag_98\n      jump\t// in\n    tag_284:\n      dup1\n      iszero\n      tag_285\n      jumpi\n      dup1\n      0x1f\n      lt\n      tag_286\n      jumpi\n      0x0100\n      dup1\n      dup4\n      sload\n      div\n      mul\n      dup4\n      mstore\n      swap2\n      0x20\n      add\n      swap2\n      jump(tag_285)\n    tag_286:\n      dup3\n      add\n      swap2\n      swap1\n      0x00\n      mstore\n      keccak256(0x00, 0x20)\n      swap1\n    tag_287:\n      dup2\n      sload\n      dup2\n      mstore\n      swap1\n      0x01\n      add\n      swap1\n      0x20\n      add\n      dup1\n      dup4\n      gt\n      tag_287\n      jumpi\n      dup3\n      swap1\n      sub\n      0x1f\n      and\n      dup3\n      add\n      swap2\n    tag_285:\n      pop\n      pop\n      pop\n      pop\n      pop\n      dup2\n      mstore\n      0x20\n      add\n      0x02\n      dup3\n      add\n      dup1\n      sload\n      tag_288\n      swap1\n      tag_98\n      jump\t// in\n    tag_288:\n      dup1\n      0x1f\n      add\n      0x20\n      dup1\n      swap2\n      div\n      mul\n      0x20\n      add\n      mload(0x40)\n      swap1\n      dup2\n      add\n      0x40\n      mstore\n      dup1\n      swap3\n      swap2\n      swap1\n      dup2\n      dup2\n      mstore\n      0x20\n      add\n      dup3\n      dup1\n      sload\n      tag_289\n      swap1\n      tag_98\n      jump\t// in\n    tag_289:\n      dup1\n      iszero\n      tag_290\n      jumpi\n      dup1\n      0x1f\n      lt\n      tag_291\n      jumpi\n      0x0100\n      dup1\n      dup4\n      sload\n      div\n      mul\n      dup4\n      mstore\n      swap2\n      0x20\n      add\n      swap2\n      jump(tag_290)\n    tag_291:\n      dup3\n      add\n      swap2\n      swap1\n      0x00\n      mstore\n      keccak256(0x00, 0x20)\n      swap1\n    tag_292:\n      dup2\n      sload\n      dup2\n      mstore\n      swap1\n      0x01\n      add\n      swap1\n      0x20\n      add\n      dup1\n      dup4\n      gt\n      tag_292\n      jumpi\n      dup3\n      swap1\n      sub\n      0x1f\n      and\n      dup3\n      add\n      swap2\n    tag_290:\n      pop\n      pop\n      pop\n      pop\n      pop\n      dup2\n      mstore\n      0x20\n      add\n      0x03\n      dup3\n      add\n      0x00\n      swap1\n      sload\n      swap1\n      0x0100\n      exp\n      swap1\n      div\n      0xffffffffffffffffffffffffffffffffffffffff\n      and\n      0xffffffffffffffffffffffffffffffffffffffff\n      and\n      0xffffffffffffffffffffffffffffffffffffffff\n      and\n      dup2\n      mstore\n      0x20\n      add\n      0x04\n      dup3\n      add\n      dup1\n      sload\n      tag_293\n      swap1\n      tag_98\n      jump\t// in\n    tag_293:\n      dup1\n      0x1f\n      add\n      0x20\n      dup1\n      swap2\n      div\n      mul\n      0x20\n      add\n      mload(0x40)\n      swap1\n      dup2\n      add\n      0x40\n      mstore\n      dup1\n      swap3\n      swap2\n      swap1\n      dup2\n      dup2\n      mstore\n      0x20\n      add\n      dup3\n      dup1\n      sload\n      tag_294\n      swap1\n      tag_98\n      jump\t// in\n    tag_294:\n      dup1\n      iszero\n      tag_295\n      jumpi\n      dup1\n      0x1f\n      lt\n      tag_296\n      jumpi\n      0x0100\n      dup1\n      dup4\n      sload\n      div\n      mul\n      dup4\n      mstore\n      swap2\n      0x20\n      add\n      swap2\n      jump(tag_295)\n    tag_296:\n      dup3\n      add\n      swap2\n      swap1\n      0x00\n      mstore\n      keccak256(0x00, 0x20)\n      swap1\n    tag_297:\n      dup2\n      sload\n      dup2\n      mstore\n      swap1\n      0x01\n      add\n      swap1\n      0x20\n      add\n      dup1\n      dup4\n      gt\n      tag_297\n      jumpi\n      dup3\n      swap1\n      sub\n      0x1f\n      and\n      dup3\n      add\n      swap2\n    tag_295:\n      pop\n      pop\n      pop\n      pop\n      pop\n      dup2\n      mstore\n      0x20\n      add\n      0x05\n      dup3\n      add\n      sload\n      dup2\n      mstore\n      0x20\n      add\n      0x06\n      dup3\n      add\n      sload\n      dup2\n      mstore\n      0x20\n      add\n      0x07\n      dup3\n      add\n      0x00\n      swap1\n      sload\n      swap1\n      0x0100\n      exp\n      swap1\n      div\n      0xff\n      and\n      iszero\n      iszero\n      iszero\n      iszero\n      dup2\n      mstore\n      pop\n      pop\n      swap1\n      pop\n        /* \"contracts/Donate.sol\":1385:1584  function getBoardInfo(uint256 _boardIndex) public view returns(Board memory)... */\n      swap2\n      swap1\n      pop\n      jump\t// out\n        /* \"contracts/Donate.sol\":1667:2225  function getBoardsByAddr(address _hostAddr) public view returns (Board[] memory)... */\n    tag_67:\n        /* \"contracts/Donate.sol\":1732:1746  Board[] memory */\n      0x60\n        /* \"contracts/Donate.sol\":1764:1777  uint256 count */\n      0x00\n        /* \"contracts/Donate.sol\":1793:1802  uint256 i */\n      dup1\n        /* \"contracts/Donate.sol\":1805:1806  0 */\n      0x00\n        /* \"contracts/Donate.sol\":1793:1806  uint256 i = 0 */\n      swap1\n      pop\n        /* \"contracts/Donate.sol\":1788:1929  for (uint256 i = 0; i < boards.length; i++) {... */\n    tag_299:\n        /* \"contracts/Donate.sol\":1812:1818  boards */\n      0x04\n        /* \"contracts/Donate.sol\":1812:1825  boards.length */\n      dup1\n      sload\n      swap1\n      pop\n        /* \"contracts/Donate.sol\":1808:1809  i */\n      dup2\n        /* \"contracts/Donate.sol\":1808:1825  i < boards.length */\n      lt\n        /* \"contracts/Donate.sol\":1788:1929  for (uint256 i = 0; i < boards.length; i++) {... */\n      iszero\n      tag_300\n      jumpi\n        /* \"contracts/Donate.sol\":1866:1875  _hostAddr */\n      dup4\n        /* \"contracts/Donate.sol\":1850:1875  boards[i].host==_hostAddr */\n      0xffffffffffffffffffffffffffffffffffffffff\n      and\n        /* \"contracts/Donate.sol\":1850:1856  boards */\n      0x04\n        /* \"contracts/Donate.sol\":1857:1858  i */\n      dup3\n        /* \"contracts/Donate.sol\":1850:1859  boards[i] */\n      dup2\n      sload\n      dup2\n      lt\n      tag_302\n      jumpi\n      tag_303\n      tag_75\n      jump\t// in\n    tag_303:\n    tag_302:\n      swap1\n      0x00\n      mstore\n      keccak256(0x00, 0x20)\n      swap1\n      0x08\n      mul\n      add\n        /* \"contracts/Donate.sol\":1850:1864  boards[i].host */\n      0x03\n      add\n      0x00\n      swap1\n      sload\n      swap1\n      0x0100\n      exp\n      swap1\n      div\n      0xffffffffffffffffffffffffffffffffffffffff\n      and\n        /* \"contracts/Donate.sol\":1850:1875  boards[i].host==_hostAddr */\n      0xffffffffffffffffffffffffffffffffffffffff\n      and\n      sub\n        /* \"contracts/Donate.sol\":1847:1918  if(boards[i].host==_hostAddr){... */\n      tag_305\n      jumpi\n        /* \"contracts/Donate.sol\":1895:1902  ++count */\n      dup2\n      tag_306\n      swap1\n      tag_79\n      jump\t// in\n    tag_306:\n      swap2\n      pop\n        /* \"contracts/Donate.sol\":1847:1918  if(boards[i].host==_hostAddr){... */\n    tag_305:\n        /* \"contracts/Donate.sol\":1827:1830  i++ */\n      dup1\n      dup1\n      0x01\n      add\n      swap2\n      pop\n      pop\n        /* \"contracts/Donate.sol\":1788:1929  for (uint256 i = 0; i < boards.length; i++) {... */\n      jump(tag_299)\n    tag_300:\n      pop\n        /* \"contracts/Donate.sol\":1939:1961  Board[] memory _boards */\n      0x00\n        /* \"contracts/Donate.sol\":1974:1979  count */\n      dup2\n        /* \"contracts/Donate.sol\":1962:1980  new Board[](count) */\n      0xffffffffffffffff\n      dup2\n      gt\n      iszero\n      tag_307\n      jumpi\n      tag_308\n      tag_82\n      jump\t// in\n    tag_308:\n    tag_307:\n      mload(0x40)\n      swap1\n      dup1\n      dup3\n      mstore\n      dup1\n      0x20\n      mul\n      0x20\n      add\n      dup3\n      add\n      0x40\n      mstore\n      dup1\n      iszero\n      tag_309\n      jumpi\n      dup2\n      0x20\n      add\n    tag_310:\n      tag_311\n      tag_86\n      jump\t// in\n    tag_311:\n      dup2\n      mstore\n      0x20\n      add\n      swap1\n      0x01\n      swap1\n      sub\n      swap1\n      dup2\n      tag_310\n      jumpi\n      swap1\n      pop\n    tag_309:\n      pop\n        /* \"contracts/Donate.sol\":1939:1980  Board[] memory _boards=new Board[](count) */\n      swap1\n      pop\n        /* \"contracts/Donate.sol\":1991:2004  uint256 index */\n      0x00\n        /* \"contracts/Donate.sol\":2020:2029  uint256 i */\n      dup1\n        /* \"contracts/Donate.sol\":2032:2033  0 */\n      0x00\n        /* \"contracts/Donate.sol\":2020:2033  uint256 i = 0 */\n      swap1\n      pop\n        /* \"contracts/Donate.sol\":2015:2193  for (uint256 i = 0; i < boards.length; i++) {... */\n    tag_312:\n        /* \"contracts/Donate.sol\":2039:2045  boards */\n      0x04\n        /* \"contracts/Donate.sol\":2039:2052  boards.length */\n      dup1\n      sload\n      swap1\n      pop\n        /* \"contracts/Donate.sol\":2035:2036  i */\n      dup2\n        /* \"contracts/Donate.sol\":2035:2052  i < boards.length */\n      lt\n        /* \"contracts/Donate.sol\":2015:2193  for (uint256 i = 0; i < boards.length; i++) {... */\n      iszero\n      tag_313\n      jumpi\n        /* \"contracts/Donate.sol\":2093:2102  _hostAddr */\n      dup6\n        /* \"contracts/Donate.sol\":2077:2102  boards[i].host==_hostAddr */\n      0xffffffffffffffffffffffffffffffffffffffff\n      and\n        /* \"contracts/Donate.sol\":2077:2083  boards */\n      0x04\n        /* \"contracts/Donate.sol\":2084:2085  i */\n      dup3\n        /* \"contracts/Donate.sol\":2077:2086  boards[i] */\n      dup2\n      sload\n      dup2\n      lt\n      tag_315\n      jumpi\n      tag_316\n      tag_75\n      jump\t// in\n    tag_316:\n    tag_315:\n      swap1\n      0x00\n      mstore\n      keccak256(0x00, 0x20)\n      swap1\n      0x08\n      mul\n      add\n        /* \"contracts/Donate.sol\":2077:2091  boards[i].host */\n      0x03\n      add\n      0x00\n      swap1\n      sload\n      swap1\n      0x0100\n      exp\n      swap1\n      div\n      0xffffffffffffffffffffffffffffffffffffffff\n      and\n        /* \"contracts/Donate.sol\":2077:2102  boards[i].host==_hostAddr */\n      0xffffffffffffffffffffffffffffffffffffffff\n      and\n      sub\n        /* \"contracts/Donate.sol\":2074:2182  if(boards[i].host==_hostAddr){... */\n      tag_318\n      jumpi\n        /* \"contracts/Donate.sol\":2139:2145  boards */\n      0x04\n        /* \"contracts/Donate.sol\":2146:2147  i */\n      dup2\n        /* \"contracts/Donate.sol\":2139:2148  boards[i] */\n      dup2\n      sload\n      dup2\n      lt\n      tag_319\n      jumpi\n      tag_320\n      tag_75\n      jump\t// in\n    tag_320:\n    tag_319:\n      swap1\n      0x00\n      mstore\n      keccak256(0x00, 0x20)\n      swap1\n      0x08\n      mul\n      add\n        /* \"contracts/Donate.sol\":2122:2148  _boards[index++]=boards[i] */\n      mload(0x40)\n      dup1\n      0x0100\n      add\n      0x40\n      mstore\n      swap1\n      dup2\n      0x00\n      dup3\n      add\n      sload\n      dup2\n      mstore\n      0x20\n      add\n      0x01\n      dup3\n      add\n      dup1\n      sload\n      tag_322\n      swap1\n      tag_98\n      jump\t// in\n    tag_322:\n      dup1\n      0x1f\n      add\n      0x20\n      dup1\n      swap2\n      div\n      mul\n      0x20\n      add\n      mload(0x40)\n      swap1\n      dup2\n      add\n      0x40\n      mstore\n      dup1\n      swap3\n      swap2\n      swap1\n      dup2\n      dup2\n      mstore\n      0x20\n      add\n      dup3\n      dup1\n      sload\n      tag_323\n      swap1\n      tag_98\n      jump\t// in\n    tag_323:\n      dup1\n      iszero\n      tag_324\n      jumpi\n      dup1\n      0x1f\n      lt\n      tag_325\n      jumpi\n      0x0100\n      dup1\n      dup4\n      sload\n      div\n      mul\n      dup4\n      mstore\n      swap2\n      0x20\n      add\n      swap2\n      jump(tag_324)\n    tag_325:\n      dup3\n      add\n      swap2\n      swap1\n      0x00\n      mstore\n      keccak256(0x00, 0x20)\n      swap1\n    tag_326:\n      dup2\n      sload\n      dup2\n      mstore\n      swap1\n      0x01\n      add\n      swap1\n      0x20\n      add\n      dup1\n      dup4\n      gt\n      tag_326\n      jumpi\n      dup3\n      swap1\n      sub\n      0x1f\n      and\n      dup3\n      add\n      swap2\n    tag_324:\n      pop\n      pop\n      pop\n      pop\n      pop\n      dup2\n      mstore\n      0x20\n      add\n      0x02\n      dup3\n      add\n      dup1\n      sload\n      tag_327\n      swap1\n      tag_98\n      jump\t// in\n    tag_327:\n      dup1\n      0x1f\n      add\n      0x20\n      dup1\n      swap2\n      div\n      mul\n      0x20\n      add\n      mload(0x40)\n      swap1\n      dup2\n      add\n      0x40\n      mstore\n      dup1\n      swap3\n      swap2\n      swap1\n      dup2\n      dup2\n      mstore\n      0x20\n      add\n      dup3\n      dup1\n      sload\n      tag_328\n      swap1\n      tag_98\n      jump\t// in\n    tag_328:\n      dup1\n      iszero\n      tag_329\n      jumpi\n      dup1\n      0x1f\n      lt\n      tag_330\n      jumpi\n      0x0100\n      dup1\n      dup4\n      sload\n      div\n      mul\n      dup4\n      mstore\n      swap2\n      0x20\n      add\n      swap2\n      jump(tag_329)\n    tag_330:\n      dup3\n      add\n      swap2\n      swap1\n      0x00\n      mstore\n      keccak256(0x00, 0x20)\n      swap1\n    tag_331:\n      dup2\n      sload\n      dup2\n      mstore\n      swap1\n      0x01\n      add\n      swap1\n      0x20\n      add\n      dup1\n      dup4\n      gt\n      tag_331\n      jumpi\n      dup3\n      swap1\n      sub\n      0x1f\n      and\n      dup3\n      add\n      swap2\n    tag_329:\n      pop\n      pop\n      pop\n      pop\n      pop\n      dup2\n      mstore\n      0x20\n      add\n      0x03\n      dup3\n      add\n      0x00\n      swap1\n      sload\n      swap1\n      0x0100\n      exp\n      swap1\n      div\n      0xffffffffffffffffffffffffffffffffffffffff\n      and\n      0xffffffffffffffffffffffffffffffffffffffff\n      and\n      0xffffffffffffffffffffffffffffffffffffffff\n      and\n      dup2\n      mstore\n      0x20\n      add\n      0x04\n      dup3\n      add\n      dup1\n      sload\n      tag_332\n      swap1\n      tag_98\n      jump\t// in\n    tag_332:\n      dup1\n      0x1f\n      add\n      0x20\n      dup1\n      swap2\n      div\n      mul\n      0x20\n      add\n      mload(0x40)\n      swap1\n      dup2\n      add\n      0x40\n      mstore\n      dup1\n      swap3\n      swap2\n      swap1\n      dup2\n      dup2\n      mstore\n      0x20\n      add\n      dup3\n      dup1\n      sload\n      tag_333\n      swap1\n      tag_98\n      jump\t// in\n    tag_333:\n      dup1\n      iszero\n      tag_334\n      jumpi\n      dup1\n      0x1f\n      lt\n      tag_335\n      jumpi\n      0x0100\n      dup1\n      dup4\n      sload\n      div\n      mul\n      dup4\n      mstore\n      swap2\n      0x20\n      add\n      swap2\n      jump(tag_334)\n    tag_335:\n      dup3\n      add\n      swap2\n      swap1\n      0x00\n      mstore\n      keccak256(0x00, 0x20)\n      swap1\n    tag_336:\n      dup2\n      sload\n      dup2\n      mstore\n      swap1\n      0x01\n      add\n      swap1\n      0x20\n      add\n      dup1\n      dup4\n      gt\n      tag_336\n      jumpi\n      dup3\n      swap1\n      sub\n      0x1f\n      and\n      dup3\n      add\n      swap2\n    tag_334:\n      pop\n      pop\n      pop\n      pop\n      pop\n      dup2\n      mstore\n      0x20\n      add\n      0x05\n      dup3\n      add\n      sload\n      dup2\n      mstore\n      0x20\n      add\n      0x06\n      dup3\n      add\n      sload\n      dup2\n      mstore\n      0x20\n      add\n      0x07\n      dup3\n      add\n      0x00\n      swap1\n      sload\n      swap1\n      0x0100\n      exp\n      swap1\n      div\n      0xff\n      and\n      iszero\n      iszero\n      iszero\n      iszero\n      dup2\n      mstore\n      pop\n      pop\n        /* \"contracts/Donate.sol\":2122:2129  _boards */\n      dup4\n        /* \"contracts/Donate.sol\":2130:2137  index++ */\n      dup4\n      dup1\n      tag_337\n      swap1\n      tag_79\n      jump\t// in\n    tag_337:\n      swap5\n      pop\n        /* \"contracts/Donate.sol\":2122:2138  _boards[index++] */\n      dup2\n      mload\n      dup2\n      lt\n      tag_338\n      jumpi\n      tag_339\n      tag_75\n      jump\t// in\n    tag_339:\n    tag_338:\n      0x20\n      mul\n      0x20\n      add\n      add\n        /* \"contracts/Donate.sol\":2122:2148  _boards[index++]=boards[i] */\n      dup2\n      swap1\n      mstore\n      pop\n        /* \"contracts/Donate.sol\":2074:2182  if(boards[i].host==_hostAddr){... */\n    tag_318:\n        /* \"contracts/Donate.sol\":2054:2057  i++ */\n      dup1\n      dup1\n      0x01\n      add\n      swap2\n      pop\n      pop\n        /* \"contracts/Donate.sol\":2015:2193  for (uint256 i = 0; i < boards.length; i++) {... */\n      jump(tag_312)\n    tag_313:\n      pop\n        /* \"contracts/Donate.sol\":2210:2217  _boards */\n      dup2\n        /* \"contracts/Donate.sol\":2203:2217  return _boards */\n      swap4\n      pop\n      pop\n      pop\n      pop\n        /* \"contracts/Donate.sol\":1667:2225  function getBoardsByAddr(address _hostAddr) public view returns (Board[] memory)... */\n      swap2\n      swap1\n      pop\n      jump\t// out\n    tag_86:\n      mload(0x40)\n      dup1\n      0x0100\n      add\n      0x40\n      mstore\n      dup1\n      0x00\n      dup2\n      mstore\n      0x20\n      add\n      0x60\n      dup2\n      mstore\n      0x20\n      add\n      0x60\n      dup2\n      mstore\n      0x20\n      add\n      and(0xffffffffffffffffffffffffffffffffffffffff, 0x00)\n      dup2\n      mstore\n      0x20\n      add\n      0x60\n      dup2\n      mstore\n      0x20\n      add\n      0x00\n      dup2\n      mstore\n      0x20\n      add\n      0x00\n      dup2\n      mstore\n      0x20\n      add\n      iszero(iszero(0x00))\n      dup2\n      mstore\n      pop\n      swap1\n      jump\t// out\n    tag_214:\n      mload(0x40)\n      dup1\n      0x80\n      add\n      0x40\n      mstore\n      dup1\n      0x00\n      dup2\n      mstore\n      0x20\n      add\n      0x60\n      dup2\n      mstore\n      0x20\n      add\n      and(0xffffffffffffffffffffffffffffffffffffffff, 0x00)\n      dup2\n      mstore\n      0x20\n      add\n      0x00\n      dup2\n      mstore\n      pop\n      swap1\n      jump\t// out\n        /* \"#utility.yul\":7:142   */\n    tag_340:\n        /* \"#utility.yul\":95:101   */\n      0x00\n        /* \"#utility.yul\":129:134   */\n      dup2\n        /* \"#utility.yul\":123:135   */\n      mload\n        /* \"#utility.yul\":113:135   */\n      swap1\n      pop\n        /* \"#utility.yul\":7:142   */\n      swap2\n      swap1\n      pop\n      jump\t// out\n        /* \"#utility.yul\":148:353   */\n    tag_341:\n        /* \"#utility.yul\":268:279   */\n      0x00\n        /* \"#utility.yul\":302:308   */\n      dup3\n        /* \"#utility.yul\":297:300   */\n      dup3\n        /* \"#utility.yul\":290:309   */\n      mstore\n        /* \"#utility.yul\":342:346   */\n      0x20\n        /* \"#utility.yul\":337:340   */\n      dup3\n        /* \"#utility.yul\":333:347   */\n      add\n        /* \"#utility.yul\":318:347   */\n      swap1\n      pop\n        /* \"#utility.yul\":148:353   */\n      swap3\n      swap2\n      pop\n      pop\n      jump\t// out\n        /* \"#utility.yul\":359:512   */\n    tag_342:\n        /* \"#utility.yul\":447:451   */\n      0x00\n        /* \"#utility.yul\":470:473   */\n      dup2\n        /* \"#utility.yul\":462:473   */\n      swap1\n      pop\n        /* \"#utility.yul\":500:504   */\n      0x20\n        /* \"#utility.yul\":495:498   */\n      dup3\n        /* \"#utility.yul\":491:505   */\n      add\n        /* \"#utility.yul\":483:505   */\n      swap1\n      pop\n        /* \"#utility.yul\":359:512   */\n      swap2\n      swap1\n      pop\n      jump\t// out\n        /* \"#utility.yul\":518:595   */\n    tag_343:\n        /* \"#utility.yul\":555:562   */\n      0x00\n        /* \"#utility.yul\":584:589   */\n      dup2\n        /* \"#utility.yul\":573:589   */\n      swap1\n      pop\n        /* \"#utility.yul\":518:595   */\n      swap2\n      swap1\n      pop\n      jump\t// out\n        /* \"#utility.yul\":601:709   */\n    tag_344:\n        /* \"#utility.yul\":678:702   */\n      tag_416\n        /* \"#utility.yul\":696:701   */\n      dup2\n        /* \"#utility.yul\":678:702   */\n      tag_343\n      jump\t// in\n    tag_416:\n        /* \"#utility.yul\":673:676   */\n      dup3\n        /* \"#utility.yul\":666:703   */\n      mstore\n        /* \"#utility.yul\":601:709   */\n      pop\n      pop\n      jump\t// out\n        /* \"#utility.yul\":715:814   */\n    tag_345:\n        /* \"#utility.yul\":767:773   */\n      0x00\n        /* \"#utility.yul\":801:806   */\n      dup2\n        /* \"#utility.yul\":795:807   */\n      mload\n        /* \"#utility.yul\":785:807   */\n      swap1\n      pop\n        /* \"#utility.yul\":715:814   */\n      swap2\n      swap1\n      pop\n      jump\t// out\n        /* \"#utility.yul\":820:979   */\n    tag_346:\n        /* \"#utility.yul\":894:905   */\n      0x00\n        /* \"#utility.yul\":928:934   */\n      dup3\n        /* \"#utility.yul\":923:926   */\n      dup3\n        /* \"#utility.yul\":916:935   */\n      mstore\n        /* \"#utility.yul\":968:972   */\n      0x20\n        /* \"#utility.yul\":963:966   */\n      dup3\n        /* \"#utility.yul\":959:973   */\n      add\n        /* \"#utility.yul\":944:973   */\n      swap1\n      pop\n        /* \"#utility.yul\":820:979   */\n      swap3\n      swap2\n      pop\n      pop\n      jump\t// out\n        /* \"#utility.yul\":985:1231   */\n    tag_347:\n        /* \"#utility.yul\":1066:1067   */\n      0x00\n        /* \"#utility.yul\":1076:1189   */\n    tag_420:\n        /* \"#utility.yul\":1090:1096   */\n      dup4\n        /* \"#utility.yul\":1087:1088   */\n      dup2\n        /* \"#utility.yul\":1084:1097   */\n      lt\n        /* \"#utility.yul\":1076:1189   */\n      iszero\n      tag_422\n      jumpi\n        /* \"#utility.yul\":1175:1176   */\n      dup1\n        /* \"#utility.yul\":1170:1173   */\n      dup3\n        /* \"#utility.yul\":1166:1177   */\n      add\n        /* \"#utility.yul\":1160:1178   */\n      mload\n        /* \"#utility.yul\":1156:1157   */\n      dup2\n        /* \"#utility.yul\":1151:1154   */\n      dup5\n        /* \"#utility.yul\":1147:1158   */\n      add\n        /* \"#utility.yul\":1140:1179   */\n      mstore\n        /* \"#utility.yul\":1112:1114   */\n      0x20\n        /* \"#utility.yul\":1109:1110   */\n      dup2\n        /* \"#utility.yul\":1105:1115   */\n      add\n        /* \"#utility.yul\":1100:1115   */\n      swap1\n      pop\n        /* \"#utility.yul\":1076:1189   */\n      jump(tag_420)\n    tag_422:\n        /* \"#utility.yul\":1223:1224   */\n      0x00\n        /* \"#utility.yul\":1214:1220   */\n      dup5\n        /* \"#utility.yul\":1209:1212   */\n      dup5\n        /* \"#utility.yul\":1205:1221   */\n      add\n        /* \"#utility.yul\":1198:1225   */\n      mstore\n        /* \"#utility.yul\":1047:1231   */\n      pop\n        /* \"#utility.yul\":985:1231   */\n      pop\n      pop\n      pop\n      jump\t// out\n        /* \"#utility.yul\":1237:1339   */\n    tag_348:\n        /* \"#utility.yul\":1278:1284   */\n      0x00\n        /* \"#utility.yul\":1329:1331   */\n      0x1f\n        /* \"#utility.yul\":1325:1332   */\n      not\n        /* \"#utility.yul\":1320:1322   */\n      0x1f\n        /* \"#utility.yul\":1313:1318   */\n      dup4\n        /* \"#utility.yul\":1309:1323   */\n      add\n        /* \"#utility.yul\":1305:1333   */\n      and\n        /* \"#utility.yul\":1295:1333   */\n      swap1\n      pop\n        /* \"#utility.yul\":1237:1339   */\n      swap2\n      swap1\n      pop\n      jump\t// out\n        /* \"#utility.yul\":1345:1702   */\n    tag_349:\n        /* \"#utility.yul\":1423:1426   */\n      0x00\n        /* \"#utility.yul\":1451:1490   */\n      tag_425\n        /* \"#utility.yul\":1484:1489   */\n      dup3\n        /* \"#utility.yul\":1451:1490   */\n      tag_345\n      jump\t// in\n    tag_425:\n        /* \"#utility.yul\":1506:1567   */\n      tag_426\n        /* \"#utility.yul\":1560:1566   */\n      dup2\n        /* \"#utility.yul\":1555:1558   */\n      dup6\n        /* \"#utility.yul\":1506:1567   */\n      tag_346\n      jump\t// in\n    tag_426:\n        /* \"#utility.yul\":1499:1567   */\n      swap4\n      pop\n        /* \"#utility.yul\":1576:1641   */\n      tag_427\n        /* \"#utility.yul\":1634:1640   */\n      dup2\n        /* \"#utility.yul\":1629:1632   */\n      dup6\n        /* \"#utility.yul\":1622:1626   */\n      0x20\n        /* \"#utility.yul\":1615:1620   */\n      dup7\n        /* \"#utility.yul\":1611:1627   */\n      add\n        /* \"#utility.yul\":1576:1641   */\n      tag_347\n      jump\t// in\n    tag_427:\n        /* \"#utility.yul\":1666:1695   */\n      tag_428\n        /* \"#utility.yul\":1688:1694   */\n      dup2\n        /* \"#utility.yul\":1666:1695   */\n      tag_348\n      jump\t// in\n    tag_428:\n        /* \"#utility.yul\":1661:1664   */\n      dup5\n        /* \"#utility.yul\":1657:1696   */\n      add\n        /* \"#utility.yul\":1650:1696   */\n      swap2\n      pop\n        /* \"#utility.yul\":1427:1702   */\n      pop\n        /* \"#utility.yul\":1345:1702   */\n      swap3\n      swap2\n      pop\n      pop\n      jump\t// out\n        /* \"#utility.yul\":1708:1834   */\n    tag_350:\n        /* \"#utility.yul\":1745:1752   */\n      0x00\n        /* \"#utility.yul\":1785:1827   */\n      0xffffffffffffffffffffffffffffffffffffffff\n        /* \"#utility.yul\":1778:1783   */\n      dup3\n        /* \"#utility.yul\":1774:1828   */\n      and\n        /* \"#utility.yul\":1763:1828   */\n      swap1\n      pop\n        /* \"#utility.yul\":1708:1834   */\n      swap2\n      swap1\n      pop\n      jump\t// out\n        /* \"#utility.yul\":1840:1936   */\n    tag_351:\n        /* \"#utility.yul\":1877:1884   */\n      0x00\n        /* \"#utility.yul\":1906:1930   */\n      tag_431\n        /* \"#utility.yul\":1924:1929   */\n      dup3\n        /* \"#utility.yul\":1906:1930   */\n      tag_350\n      jump\t// in\n    tag_431:\n        /* \"#utility.yul\":1895:1930   */\n      swap1\n      pop\n        /* \"#utility.yul\":1840:1936   */\n      swap2\n      swap1\n      pop\n      jump\t// out\n        /* \"#utility.yul\":1942:2050   */\n    tag_352:\n        /* \"#utility.yul\":2019:2043   */\n      tag_433\n        /* \"#utility.yul\":2037:2042   */\n      dup2\n        /* \"#utility.yul\":2019:2043   */\n      tag_351\n      jump\t// in\n    tag_433:\n        /* \"#utility.yul\":2014:2017   */\n      dup3\n        /* \"#utility.yul\":2007:2044   */\n      mstore\n        /* \"#utility.yul\":1942:2050   */\n      pop\n      pop\n      jump\t// out\n        /* \"#utility.yul\":2056:2146   */\n    tag_353:\n        /* \"#utility.yul\":2090:2097   */\n      0x00\n        /* \"#utility.yul\":2133:2138   */\n      dup2\n        /* \"#utility.yul\":2126:2139   */\n      iszero\n        /* \"#utility.yul\":2119:2140   */\n      iszero\n        /* \"#utility.yul\":2108:2140   */\n      swap1\n      pop\n        /* \"#utility.yul\":2056:2146   */\n      swap2\n      swap1\n      pop\n      jump\t// out\n        /* \"#utility.yul\":2152:2251   */\n    tag_354:\n        /* \"#utility.yul\":2223:2244   */\n      tag_436\n        /* \"#utility.yul\":2238:2243   */\n      dup2\n        /* \"#utility.yul\":2223:2244   */\n      tag_353\n      jump\t// in\n    tag_436:\n        /* \"#utility.yul\":2218:2221   */\n      dup3\n        /* \"#utility.yul\":2211:2245   */\n      mstore\n        /* \"#utility.yul\":2152:2251   */\n      pop\n      pop\n      jump\t// out\n        /* \"#utility.yul\":2307:4099   */\n    tag_355:\n        /* \"#utility.yul\":2408:2411   */\n      0x00\n        /* \"#utility.yul\":2444:2450   */\n      0x0100\n        /* \"#utility.yul\":2439:2442   */\n      dup4\n        /* \"#utility.yul\":2435:2451   */\n      add\n        /* \"#utility.yul\":2531:2535   */\n      0x00\n        /* \"#utility.yul\":2524:2529   */\n      dup4\n        /* \"#utility.yul\":2520:2536   */\n      add\n        /* \"#utility.yul\":2514:2537   */\n      mload\n        /* \"#utility.yul\":2550:2613   */\n      tag_438\n        /* \"#utility.yul\":2607:2611   */\n      0x00\n        /* \"#utility.yul\":2602:2605   */\n      dup7\n        /* \"#utility.yul\":2598:2612   */\n      add\n        /* \"#utility.yul\":2584:2596   */\n      dup3\n        /* \"#utility.yul\":2550:2613   */\n      tag_344\n      jump\t// in\n    tag_438:\n        /* \"#utility.yul\":2461:2623   */\n      pop\n        /* \"#utility.yul\":2705:2709   */\n      0x20\n        /* \"#utility.yul\":2698:2703   */\n      dup4\n        /* \"#utility.yul\":2694:2710   */\n      add\n        /* \"#utility.yul\":2688:2711   */\n      mload\n        /* \"#utility.yul\":2758:2761   */\n      dup5\n        /* \"#utility.yul\":2752:2756   */\n      dup3\n        /* \"#utility.yul\":2748:2762   */\n      sub\n        /* \"#utility.yul\":2741:2745   */\n      0x20\n        /* \"#utility.yul\":2736:2739   */\n      dup7\n        /* \"#utility.yul\":2732:2746   */\n      add\n        /* \"#utility.yul\":2725:2763   */\n      mstore\n        /* \"#utility.yul\":2784:2857   */\n      tag_439\n        /* \"#utility.yul\":2852:2856   */\n      dup3\n        /* \"#utility.yul\":2838:2850   */\n      dup3\n        /* \"#utility.yul\":2784:2857   */\n      tag_349\n      jump\t// in\n    tag_439:\n        /* \"#utility.yul\":2776:2857   */\n      swap2\n      pop\n        /* \"#utility.yul\":2633:2868   */\n      pop\n        /* \"#utility.yul\":2953:2957   */\n      0x40\n        /* \"#utility.yul\":2946:2951   */\n      dup4\n        /* \"#utility.yul\":2942:2958   */\n      add\n        /* \"#utility.yul\":2936:2959   */\n      mload\n        /* \"#utility.yul\":3006:3009   */\n      dup5\n        /* \"#utility.yul\":3000:3004   */\n      dup3\n        /* \"#utility.yul\":2996:3010   */\n      sub\n        /* \"#utility.yul\":2989:2993   */\n      0x40\n        /* \"#utility.yul\":2984:2987   */\n      dup7\n        /* \"#utility.yul\":2980:2994   */\n      add\n        /* \"#utility.yul\":2973:3011   */\n      mstore\n        /* \"#utility.yul\":3032:3105   */\n      tag_440\n        /* \"#utility.yul\":3100:3104   */\n      dup3\n        /* \"#utility.yul\":3086:3098   */\n      dup3\n        /* \"#utility.yul\":3032:3105   */\n      tag_349\n      jump\t// in\n    tag_440:\n        /* \"#utility.yul\":3024:3105   */\n      swap2\n      pop\n        /* \"#utility.yul\":2878:3116   */\n      pop\n        /* \"#utility.yul\":3198:3202   */\n      0x60\n        /* \"#utility.yul\":3191:3196   */\n      dup4\n        /* \"#utility.yul\":3187:3203   */\n      add\n        /* \"#utility.yul\":3181:3204   */\n      mload\n        /* \"#utility.yul\":3217:3280   */\n      tag_441\n        /* \"#utility.yul\":3274:3278   */\n      0x60\n        /* \"#utility.yul\":3269:3272   */\n      dup7\n        /* \"#utility.yul\":3265:3279   */\n      add\n        /* \"#utility.yul\":3251:3263   */\n      dup3\n        /* \"#utility.yul\":3217:3280   */\n      tag_352\n      jump\t// in\n    tag_441:\n        /* \"#utility.yul\":3126:3290   */\n      pop\n        /* \"#utility.yul\":3376:3380   */\n      0x80\n        /* \"#utility.yul\":3369:3374   */\n      dup4\n        /* \"#utility.yul\":3365:3381   */\n      add\n        /* \"#utility.yul\":3359:3382   */\n      mload\n        /* \"#utility.yul\":3429:3432   */\n      dup5\n        /* \"#utility.yul\":3423:3427   */\n      dup3\n        /* \"#utility.yul\":3419:3433   */\n      sub\n        /* \"#utility.yul\":3412:3416   */\n      0x80\n        /* \"#utility.yul\":3407:3410   */\n      dup7\n        /* \"#utility.yul\":3403:3417   */\n      add\n        /* \"#utility.yul\":3396:3434   */\n      mstore\n        /* \"#utility.yul\":3455:3528   */\n      tag_442\n        /* \"#utility.yul\":3523:3527   */\n      dup3\n        /* \"#utility.yul\":3509:3521   */\n      dup3\n        /* \"#utility.yul\":3455:3528   */\n      tag_349\n      jump\t// in\n    tag_442:\n        /* \"#utility.yul\":3447:3528   */\n      swap2\n      pop\n        /* \"#utility.yul\":3300:3539   */\n      pop\n        /* \"#utility.yul\":3629:3633   */\n      0xa0\n        /* \"#utility.yul\":3622:3627   */\n      dup4\n        /* \"#utility.yul\":3618:3634   */\n      add\n        /* \"#utility.yul\":3612:3635   */\n      mload\n        /* \"#utility.yul\":3648:3711   */\n      tag_443\n        /* \"#utility.yul\":3705:3709   */\n      0xa0\n        /* \"#utility.yul\":3700:3703   */\n      dup7\n        /* \"#utility.yul\":3696:3710   */\n      add\n        /* \"#utility.yul\":3682:3694   */\n      dup3\n        /* \"#utility.yul\":3648:3711   */\n      tag_344\n      jump\t// in\n    tag_443:\n        /* \"#utility.yul\":3549:3721   */\n      pop\n        /* \"#utility.yul\":3810:3814   */\n      0xc0\n        /* \"#utility.yul\":3803:3808   */\n      dup4\n        /* \"#utility.yul\":3799:3815   */\n      add\n        /* \"#utility.yul\":3793:3816   */\n      mload\n        /* \"#utility.yul\":3829:3892   */\n      tag_444\n        /* \"#utility.yul\":3886:3890   */\n      0xc0\n        /* \"#utility.yul\":3881:3884   */\n      dup7\n        /* \"#utility.yul\":3877:3891   */\n      add\n        /* \"#utility.yul\":3863:3875   */\n      dup3\n        /* \"#utility.yul\":3829:3892   */\n      tag_344\n      jump\t// in\n    tag_444:\n        /* \"#utility.yul\":3731:3902   */\n      pop\n        /* \"#utility.yul\":3986:3990   */\n      0xe0\n        /* \"#utility.yul\":3979:3984   */\n      dup4\n        /* \"#utility.yul\":3975:3991   */\n      add\n        /* \"#utility.yul\":3969:3992   */\n      mload\n        /* \"#utility.yul\":4005:4062   */\n      tag_445\n        /* \"#utility.yul\":4056:4060   */\n      0xe0\n        /* \"#utility.yul\":4051:4054   */\n      dup7\n        /* \"#utility.yul\":4047:4061   */\n      add\n        /* \"#utility.yul\":4033:4045   */\n      dup3\n        /* \"#utility.yul\":4005:4062   */\n      tag_354\n      jump\t// in\n    tag_445:\n        /* \"#utility.yul\":3912:4072   */\n      pop\n        /* \"#utility.yul\":4089:4093   */\n      dup1\n        /* \"#utility.yul\":4082:4093   */\n      swap2\n      pop\n        /* \"#utility.yul\":2413:4099   */\n      pop\n        /* \"#utility.yul\":2307:4099   */\n      swap3\n      swap2\n      pop\n      pop\n      jump\t// out\n        /* \"#utility.yul\":4105:4345   */\n    tag_356:\n        /* \"#utility.yul\":4216:4226   */\n      0x00\n        /* \"#utility.yul\":4251:4339   */\n      tag_447\n        /* \"#utility.yul\":4335:4338   */\n      dup4\n        /* \"#utility.yul\":4327:4333   */\n      dup4\n        /* \"#utility.yul\":4251:4339   */\n      tag_355\n      jump\t// in\n    tag_447:\n        /* \"#utility.yul\":4237:4339   */\n      swap1\n      pop\n        /* \"#utility.yul\":4105:4345   */\n      swap3\n      swap2\n      pop\n      pop\n      jump\t// out\n        /* \"#utility.yul\":4351:4485   */\n    tag_357:\n        /* \"#utility.yul\":4442:4446   */\n      0x00\n        /* \"#utility.yul\":4474:4478   */\n      0x20\n        /* \"#utility.yul\":4469:4472   */\n      dup3\n        /* \"#utility.yul\":4465:4479   */\n      add\n        /* \"#utility.yul\":4457:4479   */\n      swap1\n      pop\n        /* \"#utility.yul\":4351:4485   */\n      swap2\n      swap1\n      pop\n      jump\t// out\n        /* \"#utility.yul\":4545:5624   */\n    tag_358:\n        /* \"#utility.yul\":4706:4709   */\n      0x00\n        /* \"#utility.yul\":4735:4810   */\n      tag_450\n        /* \"#utility.yul\":4804:4809   */\n      dup3\n        /* \"#utility.yul\":4735:4810   */\n      tag_340\n      jump\t// in\n    tag_450:\n        /* \"#utility.yul\":4826:4933   */\n      tag_451\n        /* \"#utility.yul\":4926:4932   */\n      dup2\n        /* \"#utility.yul\":4921:4924   */\n      dup6\n        /* \"#utility.yul\":4826:4933   */\n      tag_341\n      jump\t// in\n    tag_451:\n        /* \"#utility.yul\":4819:4933   */\n      swap4\n      pop\n        /* \"#utility.yul\":4959:4962   */\n      dup4\n        /* \"#utility.yul\":5004:5008   */\n      0x20\n        /* \"#utility.yul\":4996:5002   */\n      dup3\n        /* \"#utility.yul\":4992:5009   */\n      mul\n        /* \"#utility.yul\":4987:4990   */\n      dup6\n        /* \"#utility.yul\":4983:5010   */\n      add\n        /* \"#utility.yul\":5034:5111   */\n      tag_452\n        /* \"#utility.yul\":5105:5110   */\n      dup6\n        /* \"#utility.yul\":5034:5111   */\n      tag_342\n      jump\t// in\n    tag_452:\n        /* \"#utility.yul\":5134:5141   */\n      dup1\n        /* \"#utility.yul\":5165:5166   */\n      0x00\n        /* \"#utility.yul\":5150:5579   */\n    tag_453:\n        /* \"#utility.yul\":5175:5181   */\n      dup6\n        /* \"#utility.yul\":5172:5173   */\n      dup2\n        /* \"#utility.yul\":5169:5182   */\n      lt\n        /* \"#utility.yul\":5150:5579   */\n      iszero\n      tag_455\n      jumpi\n        /* \"#utility.yul\":5246:5255   */\n      dup5\n        /* \"#utility.yul\":5240:5244   */\n      dup5\n        /* \"#utility.yul\":5236:5256   */\n      sub\n        /* \"#utility.yul\":5231:5234   */\n      dup10\n        /* \"#utility.yul\":5224:5257   */\n      mstore\n        /* \"#utility.yul\":5297:5303   */\n      dup2\n        /* \"#utility.yul\":5291:5304   */\n      mload\n        /* \"#utility.yul\":5325:5431   */\n      tag_456\n        /* \"#utility.yul\":5426:5430   */\n      dup6\n        /* \"#utility.yul\":5411:5424   */\n      dup3\n        /* \"#utility.yul\":5325:5431   */\n      tag_356\n      jump\t// in\n    tag_456:\n        /* \"#utility.yul\":5317:5431   */\n      swap5\n      pop\n        /* \"#utility.yul\":5454:5535   */\n      tag_457\n        /* \"#utility.yul\":5528:5534   */\n      dup4\n        /* \"#utility.yul\":5454:5535   */\n      tag_357\n      jump\t// in\n    tag_457:\n        /* \"#utility.yul\":5444:5535   */\n      swap3\n      pop\n        /* \"#utility.yul\":5564:5568   */\n      0x20\n        /* \"#utility.yul\":5559:5562   */\n      dup11\n        /* \"#utility.yul\":5555:5569   */\n      add\n        /* \"#utility.yul\":5548:5569   */\n      swap10\n      pop\n        /* \"#utility.yul\":5210:5579   */\n      pop\n        /* \"#utility.yul\":5197:5198   */\n      0x01\n        /* \"#utility.yul\":5194:5195   */\n      dup2\n        /* \"#utility.yul\":5190:5199   */\n      add\n        /* \"#utility.yul\":5185:5199   */\n      swap1\n      pop\n        /* \"#utility.yul\":5150:5579   */\n      jump(tag_453)\n    tag_455:\n        /* \"#utility.yul\":5154:5168   */\n      pop\n        /* \"#utility.yul\":5595:5599   */\n      dup3\n        /* \"#utility.yul\":5588:5599   */\n      swap8\n      pop\n        /* \"#utility.yul\":5615:5618   */\n      dup8\n        /* \"#utility.yul\":5608:5618   */\n      swap6\n      pop\n        /* \"#utility.yul\":4711:5624   */\n      pop\n      pop\n      pop\n      pop\n      pop\n        /* \"#utility.yul\":4545:5624   */\n      swap3\n      swap2\n      pop\n      pop\n      jump\t// out\n        /* \"#utility.yul\":5630:6087   */\n    tag_19:\n        /* \"#utility.yul\":5815:5819   */\n      0x00\n        /* \"#utility.yul\":5853:5855   */\n      0x20\n        /* \"#utility.yul\":5842:5851   */\n      dup3\n        /* \"#utility.yul\":5838:5856   */\n      add\n        /* \"#utility.yul\":5830:5856   */\n      swap1\n      pop\n        /* \"#utility.yul\":5902:5911   */\n      dup2\n        /* \"#utility.yul\":5896:5900   */\n      dup2\n        /* \"#utility.yul\":5892:5912   */\n      sub\n        /* \"#utility.yul\":5888:5889   */\n      0x00\n        /* \"#utility.yul\":5877:5886   */\n      dup4\n        /* \"#utility.yul\":5873:5890   */\n      add\n        /* \"#utility.yul\":5866:5913   */\n      mstore\n        /* \"#utility.yul\":5930:6080   */\n      tag_459\n        /* \"#utility.yul\":6075:6079   */\n      dup2\n        /* \"#utility.yul\":6066:6072   */\n      dup5\n        /* \"#utility.yul\":5930:6080   */\n      tag_358\n      jump\t// in\n    tag_459:\n        /* \"#utility.yul\":5922:6080   */\n      swap1\n      pop\n        /* \"#utility.yul\":5630:6087   */\n      swap3\n      swap2\n      pop\n      pop\n      jump\t// out\n        /* \"#utility.yul\":6093:6211   */\n    tag_359:\n        /* \"#utility.yul\":6180:6204   */\n      tag_461\n        /* \"#utility.yul\":6198:6203   */\n      dup2\n        /* \"#utility.yul\":6180:6204   */\n      tag_343\n      jump\t// in\n    tag_461:\n        /* \"#utility.yul\":6175:6178   */\n      dup3\n        /* \"#utility.yul\":6168:6205   */\n      mstore\n        /* \"#utility.yul\":6093:6211   */\n      pop\n      pop\n      jump\t// out\n        /* \"#utility.yul\":6217:6439   */\n    tag_23:\n        /* \"#utility.yul\":6310:6314   */\n      0x00\n        /* \"#utility.yul\":6348:6350   */\n      0x20\n        /* \"#utility.yul\":6337:6346   */\n      dup3\n        /* \"#utility.yul\":6333:6351   */\n      add\n        /* \"#utility.yul\":6325:6351   */\n      swap1\n      pop\n        /* \"#utility.yul\":6361:6432   */\n      tag_463\n        /* \"#utility.yul\":6429:6430   */\n      0x00\n        /* \"#utility.yul\":6418:6427   */\n      dup4\n        /* \"#utility.yul\":6414:6431   */\n      add\n        /* \"#utility.yul\":6405:6411   */\n      dup5\n        /* \"#utility.yul\":6361:6432   */\n      tag_359\n      jump\t// in\n    tag_463:\n        /* \"#utility.yul\":6217:6439   */\n      swap3\n      swap2\n      pop\n      pop\n      jump\t// out\n        /* \"#utility.yul\":6526:6643   */\n    tag_361:\n        /* \"#utility.yul\":6635:6636   */\n      0x00\n        /* \"#utility.yul\":6632:6633   */\n      dup1\n        /* \"#utility.yul\":6625:6637   */\n      revert\n        /* \"#utility.yul\":6649:6766   */\n    tag_362:\n        /* \"#utility.yul\":6758:6759   */\n      0x00\n        /* \"#utility.yul\":6755:6756   */\n      dup1\n        /* \"#utility.yul\":6748:6760   */\n      revert\n        /* \"#utility.yul\":6772:6889   */\n    tag_363:\n        /* \"#utility.yul\":6881:6882   */\n      0x00\n        /* \"#utility.yul\":6878:6879   */\n      dup1\n        /* \"#utility.yul\":6871:6883   */\n      revert\n        /* \"#utility.yul\":6895:7012   */\n    tag_364:\n        /* \"#utility.yul\":7004:7005   */\n      0x00\n        /* \"#utility.yul\":7001:7002   */\n      dup1\n        /* \"#utility.yul\":6994:7006   */\n      revert\n        /* \"#utility.yul\":7018:7135   */\n    tag_365:\n        /* \"#utility.yul\":7127:7128   */\n      0x00\n        /* \"#utility.yul\":7124:7125   */\n      dup1\n        /* \"#utility.yul\":7117:7129   */\n      revert\n        /* \"#utility.yul\":7155:7708   */\n    tag_366:\n        /* \"#utility.yul\":7213:7221   */\n      0x00\n        /* \"#utility.yul\":7223:7229   */\n      dup1\n        /* \"#utility.yul\":7273:7276   */\n      dup4\n        /* \"#utility.yul\":7266:7270   */\n      0x1f\n        /* \"#utility.yul\":7258:7264   */\n      dup5\n        /* \"#utility.yul\":7254:7271   */\n      add\n        /* \"#utility.yul\":7250:7277   */\n      slt\n        /* \"#utility.yul\":7240:7362   */\n      tag_471\n      jumpi\n        /* \"#utility.yul\":7281:7360   */\n      tag_472\n      tag_363\n      jump\t// in\n    tag_472:\n        /* \"#utility.yul\":7240:7362   */\n    tag_471:\n        /* \"#utility.yul\":7394:7400   */\n      dup3\n        /* \"#utility.yul\":7381:7401   */\n      calldataload\n        /* \"#utility.yul\":7371:7401   */\n      swap1\n      pop\n        /* \"#utility.yul\":7424:7442   */\n      0xffffffffffffffff\n        /* \"#utility.yul\":7416:7422   */\n      dup2\n        /* \"#utility.yul\":7413:7443   */\n      gt\n        /* \"#utility.yul\":7410:7527   */\n      iszero\n      tag_473\n      jumpi\n        /* \"#utility.yul\":7446:7525   */\n      tag_474\n      tag_364\n      jump\t// in\n    tag_474:\n        /* \"#utility.yul\":7410:7527   */\n    tag_473:\n        /* \"#utility.yul\":7560:7564   */\n      0x20\n        /* \"#utility.yul\":7552:7558   */\n      dup4\n        /* \"#utility.yul\":7548:7565   */\n      add\n        /* \"#utility.yul\":7536:7565   */\n      swap2\n      pop\n        /* \"#utility.yul\":7614:7617   */\n      dup4\n        /* \"#utility.yul\":7606:7610   */\n      0x01\n        /* \"#utility.yul\":7598:7604   */\n      dup3\n        /* \"#utility.yul\":7594:7611   */\n      mul\n        /* \"#utility.yul\":7584:7592   */\n      dup4\n        /* \"#utility.yul\":7580:7612   */\n      add\n        /* \"#utility.yul\":7577:7618   */\n      gt\n        /* \"#utility.yul\":7574:7702   */\n      iszero\n      tag_475\n      jumpi\n        /* \"#utility.yul\":7621:7700   */\n      tag_476\n      tag_365\n      jump\t// in\n    tag_476:\n        /* \"#utility.yul\":7574:7702   */\n    tag_475:\n        /* \"#utility.yul\":7155:7708   */\n      swap3\n      pop\n      swap3\n      swap1\n      pop\n      jump\t// out\n        /* \"#utility.yul\":7714:7836   */\n    tag_367:\n        /* \"#utility.yul\":7787:7811   */\n      tag_478\n        /* \"#utility.yul\":7805:7810   */\n      dup2\n        /* \"#utility.yul\":7787:7811   */\n      tag_351\n      jump\t// in\n    tag_478:\n        /* \"#utility.yul\":7780:7785   */\n      dup2\n        /* \"#utility.yul\":7777:7812   */\n      eq\n        /* \"#utility.yul\":7767:7830   */\n      tag_479\n      jumpi\n        /* \"#utility.yul\":7826:7827   */\n      0x00\n        /* \"#utility.yul\":7823:7824   */\n      dup1\n        /* \"#utility.yul\":7816:7828   */\n      revert\n        /* \"#utility.yul\":7767:7830   */\n    tag_479:\n        /* \"#utility.yul\":7714:7836   */\n      pop\n      jump\t// out\n        /* \"#utility.yul\":7842:7981   */\n    tag_368:\n        /* \"#utility.yul\":7888:7893   */\n      0x00\n        /* \"#utility.yul\":7926:7932   */\n      dup2\n        /* \"#utility.yul\":7913:7933   */\n      calldataload\n        /* \"#utility.yul\":7904:7933   */\n      swap1\n      pop\n        /* \"#utility.yul\":7942:7975   */\n      tag_481\n        /* \"#utility.yul\":7969:7974   */\n      dup2\n        /* \"#utility.yul\":7942:7975   */\n      tag_367\n      jump\t// in\n    tag_481:\n        /* \"#utility.yul\":7842:7981   */\n      swap3\n      swap2\n      pop\n      pop\n      jump\t// out\n        /* \"#utility.yul\":7987:8109   */\n    tag_369:\n        /* \"#utility.yul\":8060:8084   */\n      tag_483\n        /* \"#utility.yul\":8078:8083   */\n      dup2\n        /* \"#utility.yul\":8060:8084   */\n      tag_343\n      jump\t// in\n    tag_483:\n        /* \"#utility.yul\":8053:8058   */\n      dup2\n        /* \"#utility.yul\":8050:8085   */\n      eq\n        /* \"#utility.yul\":8040:8103   */\n      tag_484\n      jumpi\n        /* \"#utility.yul\":8099:8100   */\n      0x00\n        /* \"#utility.yul\":8096:8097   */\n      dup1\n        /* \"#utility.yul\":8089:8101   */\n      revert\n        /* \"#utility.yul\":8040:8103   */\n    tag_484:\n        /* \"#utility.yul\":7987:8109   */\n      pop\n      jump\t// out\n        /* \"#utility.yul\":8115:8254   */\n    tag_370:\n        /* \"#utility.yul\":8161:8166   */\n      0x00\n        /* \"#utility.yul\":8199:8205   */\n      dup2\n        /* \"#utility.yul\":8186:8206   */\n      calldataload\n        /* \"#utility.yul\":8177:8206   */\n      swap1\n      pop\n        /* \"#utility.yul\":8215:8248   */\n      tag_486\n        /* \"#utility.yul\":8242:8247   */\n      dup2\n        /* \"#utility.yul\":8215:8248   */\n      tag_369\n      jump\t// in\n    tag_486:\n        /* \"#utility.yul\":8115:8254   */\n      swap3\n      swap2\n      pop\n      pop\n      jump\t// out\n        /* \"#utility.yul\":8260:9771   */\n    tag_26:\n        /* \"#utility.yul\":8391:8397   */\n      0x00\n        /* \"#utility.yul\":8399:8405   */\n      dup1\n        /* \"#utility.yul\":8407:8413   */\n      0x00\n        /* \"#utility.yul\":8415:8421   */\n      dup1\n        /* \"#utility.yul\":8423:8429   */\n      0x00\n        /* \"#utility.yul\":8431:8437   */\n      dup1\n        /* \"#utility.yul\":8439:8445   */\n      0x00\n        /* \"#utility.yul\":8447:8453   */\n      dup1\n        /* \"#utility.yul\":8496:8499   */\n      0xa0\n        /* \"#utility.yul\":8484:8493   */\n      dup10\n        /* \"#utility.yul\":8475:8482   */\n      dup12\n        /* \"#utility.yul\":8471:8494   */\n      sub\n        /* \"#utility.yul\":8467:8500   */\n      slt\n        /* \"#utility.yul\":8464:8584   */\n      iszero\n      tag_488\n      jumpi\n        /* \"#utility.yul\":8503:8582   */\n      tag_489\n      tag_361\n      jump\t// in\n    tag_489:\n        /* \"#utility.yul\":8464:8584   */\n    tag_488:\n        /* \"#utility.yul\":8651:8652   */\n      0x00\n        /* \"#utility.yul\":8640:8649   */\n      dup10\n        /* \"#utility.yul\":8636:8653   */\n      add\n        /* \"#utility.yul\":8623:8654   */\n      calldataload\n        /* \"#utility.yul\":8681:8699   */\n      0xffffffffffffffff\n        /* \"#utility.yul\":8673:8679   */\n      dup2\n        /* \"#utility.yul\":8670:8700   */\n      gt\n        /* \"#utility.yul\":8667:8784   */\n      iszero\n      tag_490\n      jumpi\n        /* \"#utility.yul\":8703:8782   */\n      tag_491\n      tag_362\n      jump\t// in\n    tag_491:\n        /* \"#utility.yul\":8667:8784   */\n    tag_490:\n        /* \"#utility.yul\":8816:8881   */\n      tag_492\n        /* \"#utility.yul\":8873:8880   */\n      dup12\n        /* \"#utility.yul\":8864:8870   */\n      dup3\n        /* \"#utility.yul\":8853:8862   */\n      dup13\n        /* \"#utility.yul\":8849:8871   */\n      add\n        /* \"#utility.yul\":8816:8881   */\n      tag_366\n      jump\t// in\n    tag_492:\n        /* \"#utility.yul\":8798:8881   */\n      swap9\n      pop\n      swap9\n      pop\n        /* \"#utility.yul\":8594:8891   */\n      pop\n        /* \"#utility.yul\":8930:8932   */\n      0x20\n        /* \"#utility.yul\":8956:9009   */\n      tag_493\n        /* \"#utility.yul\":9001:9008   */\n      dup12\n        /* \"#utility.yul\":8992:8998   */\n      dup3\n        /* \"#utility.yul\":8981:8990   */\n      dup13\n        /* \"#utility.yul\":8977:8999   */\n      add\n        /* \"#utility.yul\":8956:9009   */\n      tag_368\n      jump\t// in\n    tag_493:\n        /* \"#utility.yul\":8946:9009   */\n      swap7\n      pop\n        /* \"#utility.yul\":8901:9019   */\n      pop\n        /* \"#utility.yul\":9086:9088   */\n      0x40\n        /* \"#utility.yul\":9075:9084   */\n      dup10\n        /* \"#utility.yul\":9071:9089   */\n      add\n        /* \"#utility.yul\":9058:9090   */\n      calldataload\n        /* \"#utility.yul\":9117:9135   */\n      0xffffffffffffffff\n        /* \"#utility.yul\":9109:9115   */\n      dup2\n        /* \"#utility.yul\":9106:9136   */\n      gt\n        /* \"#utility.yul\":9103:9220   */\n      iszero\n      tag_494\n      jumpi\n        /* \"#utility.yul\":9139:9218   */\n      tag_495\n      tag_362\n      jump\t// in\n    tag_495:\n        /* \"#utility.yul\":9103:9220   */\n    tag_494:\n        /* \"#utility.yul\":9252:9317   */\n      tag_496\n        /* \"#utility.yul\":9309:9316   */\n      dup12\n        /* \"#utility.yul\":9300:9306   */\n      dup3\n        /* \"#utility.yul\":9289:9298   */\n      dup13\n        /* \"#utility.yul\":9285:9307   */\n      add\n        /* \"#utility.yul\":9252:9317   */\n      tag_366\n      jump\t// in\n    tag_496:\n        /* \"#utility.yul\":9234:9317   */\n      swap6\n      pop\n      swap6\n      pop\n        /* \"#utility.yul\":9029:9327   */\n      pop\n        /* \"#utility.yul\":9394:9396   */\n      0x60\n        /* \"#utility.yul\":9383:9392   */\n      dup10\n        /* \"#utility.yul\":9379:9397   */\n      add\n        /* \"#utility.yul\":9366:9398   */\n      calldataload\n        /* \"#utility.yul\":9425:9443   */\n      0xffffffffffffffff\n        /* \"#utility.yul\":9417:9423   */\n      dup2\n        /* \"#utility.yul\":9414:9444   */\n      gt\n        /* \"#utility.yul\":9411:9528   */\n      iszero\n      tag_497\n      jumpi\n        /* \"#utility.yul\":9447:9526   */\n      tag_498\n      tag_362\n      jump\t// in\n    tag_498:\n        /* \"#utility.yul\":9411:9528   */\n    tag_497:\n        /* \"#utility.yul\":9560:9625   */\n      tag_499\n        /* \"#utility.yul\":9617:9624   */\n      dup12\n        /* \"#utility.yul\":9608:9614   */\n      dup3\n        /* \"#utility.yul\":9597:9606   */\n      dup13\n        /* \"#utility.yul\":9593:9615   */\n      add\n        /* \"#utility.yul\":9560:9625   */\n      tag_366\n      jump\t// in\n    tag_499:\n        /* \"#utility.yul\":9542:9625   */\n      swap4\n      pop\n      swap4\n      pop\n        /* \"#utility.yul\":9337:9635   */\n      pop\n        /* \"#utility.yul\":9674:9677   */\n      0x80\n        /* \"#utility.yul\":9701:9754   */\n      tag_500\n        /* \"#utility.yul\":9746:9753   */\n      dup12\n        /* \"#utility.yul\":9737:9743   */\n      dup3\n        /* \"#utility.yul\":9726:9735   */\n      dup13\n        /* \"#utility.yul\":9722:9744   */\n      add\n        /* \"#utility.yul\":9701:9754   */\n      tag_370\n      jump\t// in\n    tag_500:\n        /* \"#utility.yul\":9691:9754   */\n      swap2\n      pop\n        /* \"#utility.yul\":9645:9764   */\n      pop\n        /* \"#utility.yul\":8260:9771   */\n      swap3\n      swap6\n      swap9\n      pop\n      swap3\n      swap6\n      swap9\n      swap1\n      swap4\n      swap7\n      pop\n      jump\t// out\n        /* \"#utility.yul\":9777:10106   */\n    tag_33:\n        /* \"#utility.yul\":9836:9842   */\n      0x00\n        /* \"#utility.yul\":9885:9887   */\n      0x20\n        /* \"#utility.yul\":9873:9882   */\n      dup3\n        /* \"#utility.yul\":9864:9871   */\n      dup5\n        /* \"#utility.yul\":9860:9883   */\n      sub\n        /* \"#utility.yul\":9856:9888   */\n      slt\n        /* \"#utility.yul\":9853:9972   */\n      iszero\n      tag_502\n      jumpi\n        /* \"#utility.yul\":9891:9970   */\n      tag_503\n      tag_361\n      jump\t// in\n    tag_503:\n        /* \"#utility.yul\":9853:9972   */\n    tag_502:\n        /* \"#utility.yul\":10011:10012   */\n      0x00\n        /* \"#utility.yul\":10036:10089   */\n      tag_504\n        /* \"#utility.yul\":10081:10088   */\n      dup5\n        /* \"#utility.yul\":10072:10078   */\n      dup3\n        /* \"#utility.yul\":10061:10070   */\n      dup6\n        /* \"#utility.yul\":10057:10079   */\n      add\n        /* \"#utility.yul\":10036:10089   */\n      tag_368\n      jump\t// in\n    tag_504:\n        /* \"#utility.yul\":10026:10089   */\n      swap2\n      pop\n        /* \"#utility.yul\":9982:10099   */\n      pop\n        /* \"#utility.yul\":9777:10106   */\n      swap3\n      swap2\n      pop\n      pop\n      jump\t// out\n        /* \"#utility.yul\":10112:10249   */\n    tag_371:\n        /* \"#utility.yul\":10202:10208   */\n      0x00\n        /* \"#utility.yul\":10236:10241   */\n      dup2\n        /* \"#utility.yul\":10230:10242   */\n      mload\n        /* \"#utility.yul\":10220:10242   */\n      swap1\n      pop\n        /* \"#utility.yul\":10112:10249   */\n      swap2\n      swap1\n      pop\n      jump\t// out\n        /* \"#utility.yul\":10255:10462   */\n    tag_372:\n        /* \"#utility.yul\":10377:10388   */\n      0x00\n        /* \"#utility.yul\":10411:10417   */\n      dup3\n        /* \"#utility.yul\":10406:10409   */\n      dup3\n        /* \"#utility.yul\":10399:10418   */\n      mstore\n        /* \"#utility.yul\":10451:10455   */\n      0x20\n        /* \"#utility.yul\":10446:10449   */\n      dup3\n        /* \"#utility.yul\":10442:10456   */\n      add\n        /* \"#utility.yul\":10427:10456   */\n      swap1\n      pop\n        /* \"#utility.yul\":10255:10462   */\n      swap3\n      swap2\n      pop\n      pop\n      jump\t// out\n        /* \"#utility.yul\":10468:10623   */\n    tag_373:\n        /* \"#utility.yul\":10558:10562   */\n      0x00\n        /* \"#utility.yul\":10581:10584   */\n      dup2\n        /* \"#utility.yul\":10573:10584   */\n      swap1\n      pop\n        /* \"#utility.yul\":10611:10615   */\n      0x20\n        /* \"#utility.yul\":10606:10609   */\n      dup3\n        /* \"#utility.yul\":10602:10616   */\n      add\n        /* \"#utility.yul\":10594:10616   */\n      swap1\n      pop\n        /* \"#utility.yul\":10468:10623   */\n      swap2\n      swap1\n      pop\n      jump\t// out\n        /* \"#utility.yul\":10683:11637   */\n    tag_374:\n        /* \"#utility.yul\":10788:10791   */\n      0x00\n        /* \"#utility.yul\":10824:10828   */\n      0x80\n        /* \"#utility.yul\":10819:10822   */\n      dup4\n        /* \"#utility.yul\":10815:10829   */\n      add\n        /* \"#utility.yul\":10915:10919   */\n      0x00\n        /* \"#utility.yul\":10908:10913   */\n      dup4\n        /* \"#utility.yul\":10904:10920   */\n      add\n        /* \"#utility.yul\":10898:10921   */\n      mload\n        /* \"#utility.yul\":10934:10997   */\n      tag_509\n        /* \"#utility.yul\":10991:10995   */\n      0x00\n        /* \"#utility.yul\":10986:10989   */\n      dup7\n        /* \"#utility.yul\":10982:10996   */\n      add\n        /* \"#utility.yul\":10968:10980   */\n      dup3\n        /* \"#utility.yul\":10934:10997   */\n      tag_344\n      jump\t// in\n    tag_509:\n        /* \"#utility.yul\":10839:11007   */\n      pop\n        /* \"#utility.yul\":11089:11093   */\n      0x20\n        /* \"#utility.yul\":11082:11087   */\n      dup4\n        /* \"#utility.yul\":11078:11094   */\n      add\n        /* \"#utility.yul\":11072:11095   */\n      mload\n        /* \"#utility.yul\":11142:11145   */\n      dup5\n        /* \"#utility.yul\":11136:11140   */\n      dup3\n        /* \"#utility.yul\":11132:11146   */\n      sub\n        /* \"#utility.yul\":11125:11129   */\n      0x20\n        /* \"#utility.yul\":11120:11123   */\n      dup7\n        /* \"#utility.yul\":11116:11130   */\n      add\n        /* \"#utility.yul\":11109:11147   */\n      mstore\n        /* \"#utility.yul\":11168:11241   */\n      tag_510\n        /* \"#utility.yul\":11236:11240   */\n      dup3\n        /* \"#utility.yul\":11222:11234   */\n      dup3\n        /* \"#utility.yul\":11168:11241   */\n      tag_349\n      jump\t// in\n    tag_510:\n        /* \"#utility.yul\":11160:11241   */\n      swap2\n      pop\n        /* \"#utility.yul\":11017:11252   */\n      pop\n        /* \"#utility.yul\":11342:11346   */\n      0x40\n        /* \"#utility.yul\":11335:11340   */\n      dup4\n        /* \"#utility.yul\":11331:11347   */\n      add\n        /* \"#utility.yul\":11325:11348   */\n      mload\n        /* \"#utility.yul\":11361:11424   */\n      tag_511\n        /* \"#utility.yul\":11418:11422   */\n      0x40\n        /* \"#utility.yul\":11413:11416   */\n      dup7\n        /* \"#utility.yul\":11409:11423   */\n      add\n        /* \"#utility.yul\":11395:11407   */\n      dup3\n        /* \"#utility.yul\":11361:11424   */\n      tag_352\n      jump\t// in\n    tag_511:\n        /* \"#utility.yul\":11262:11434   */\n      pop\n        /* \"#utility.yul\":11518:11522   */\n      0x60\n        /* \"#utility.yul\":11511:11516   */\n      dup4\n        /* \"#utility.yul\":11507:11523   */\n      add\n        /* \"#utility.yul\":11501:11524   */\n      mload\n        /* \"#utility.yul\":11537:11600   */\n      tag_512\n        /* \"#utility.yul\":11594:11598   */\n      0x60\n        /* \"#utility.yul\":11589:11592   */\n      dup7\n        /* \"#utility.yul\":11585:11599   */\n      add\n        /* \"#utility.yul\":11571:11583   */\n      dup3\n        /* \"#utility.yul\":11537:11600   */\n      tag_344\n      jump\t// in\n    tag_512:\n        /* \"#utility.yul\":11444:11610   */\n      pop\n        /* \"#utility.yul\":11627:11631   */\n      dup1\n        /* \"#utility.yul\":11620:11631   */\n      swap2\n      pop\n        /* \"#utility.yul\":10793:11637   */\n      pop\n        /* \"#utility.yul\":10683:11637   */\n      swap3\n      swap2\n      pop\n      pop\n      jump\t// out\n        /* \"#utility.yul\":11643:11891   */\n    tag_375:\n        /* \"#utility.yul\":11758:11768   */\n      0x00\n        /* \"#utility.yul\":11793:11885   */\n      tag_514\n        /* \"#utility.yul\":11881:11884   */\n      dup4\n        /* \"#utility.yul\":11873:11879   */\n      dup4\n        /* \"#utility.yul\":11793:11885   */\n      tag_374\n      jump\t// in\n    tag_514:\n        /* \"#utility.yul\":11779:11885   */\n      swap1\n      pop\n        /* \"#utility.yul\":11643:11891   */\n      swap3\n      swap2\n      pop\n      pop\n      jump\t// out\n        /* \"#utility.yul\":11897:12033   */\n    tag_376:\n        /* \"#utility.yul\":11990:11994   */\n      0x00\n        /* \"#utility.yul\":12022:12026   */\n      0x20\n        /* \"#utility.yul\":12017:12020   */\n      dup3\n        /* \"#utility.yul\":12013:12027   */\n      add\n        /* \"#utility.yul\":12005:12027   */\n      swap1\n      pop\n        /* \"#utility.yul\":11897:12033   */\n      swap2\n      swap1\n      pop\n      jump\t// out\n        /* \"#utility.yul\":12097:13192   */\n    tag_377:\n        /* \"#utility.yul\":12262:12265   */\n      0x00\n        /* \"#utility.yul\":12291:12368   */\n      tag_517\n        /* \"#utility.yul\":12362:12367   */\n      dup3\n        /* \"#utility.yul\":12291:12368   */\n      tag_371\n      jump\t// in\n    tag_517:\n        /* \"#utility.yul\":12384:12493   */\n      tag_518\n        /* \"#utility.yul\":12486:12492   */\n      dup2\n        /* \"#utility.yul\":12481:12484   */\n      dup6\n        /* \"#utility.yul\":12384:12493   */\n      tag_372\n      jump\t// in\n    tag_518:\n        /* \"#utility.yul\":12377:12493   */\n      swap4\n      pop\n        /* \"#utility.yul\":12519:12522   */\n      dup4\n        /* \"#utility.yul\":12564:12568   */\n      0x20\n        /* \"#utility.yul\":12556:12562   */\n      dup3\n        /* \"#utility.yul\":12552:12569   */\n      mul\n        /* \"#utility.yul\":12547:12550   */\n      dup6\n        /* \"#utility.yul\":12543:12570   */\n      add\n        /* \"#utility.yul\":12594:12673   */\n      tag_519\n        /* \"#utility.yul\":12667:12672   */\n      dup6\n        /* \"#utility.yul\":12594:12673   */\n      tag_373\n      jump\t// in\n    tag_519:\n        /* \"#utility.yul\":12696:12703   */\n      dup1\n        /* \"#utility.yul\":12727:12728   */\n      0x00\n        /* \"#utility.yul\":12712:13147   */\n    tag_520:\n        /* \"#utility.yul\":12737:12743   */\n      dup6\n        /* \"#utility.yul\":12734:12735   */\n      dup2\n        /* \"#utility.yul\":12731:12744   */\n      lt\n        /* \"#utility.yul\":12712:13147   */\n      iszero\n      tag_522\n      jumpi\n        /* \"#utility.yul\":12808:12817   */\n      dup5\n        /* \"#utility.yul\":12802:12806   */\n      dup5\n        /* \"#utility.yul\":12798:12818   */\n      sub\n        /* \"#utility.yul\":12793:12796   */\n      dup10\n        /* \"#utility.yul\":12786:12819   */\n      mstore\n        /* \"#utility.yul\":12859:12865   */\n      dup2\n        /* \"#utility.yul\":12853:12866   */\n      mload\n        /* \"#utility.yul\":12887:12997   */\n      tag_523\n        /* \"#utility.yul\":12992:12996   */\n      dup6\n        /* \"#utility.yul\":12977:12990   */\n      dup3\n        /* \"#utility.yul\":12887:12997   */\n      tag_375\n      jump\t// in\n    tag_523:\n        /* \"#utility.yul\":12879:12997   */\n      swap5\n      pop\n        /* \"#utility.yul\":13020:13103   */\n      tag_524\n        /* \"#utility.yul\":13096:13102   */\n      dup4\n        /* \"#utility.yul\":13020:13103   */\n      tag_376\n      jump\t// in\n    tag_524:\n        /* \"#utility.yul\":13010:13103   */\n      swap3\n      pop\n        /* \"#utility.yul\":13132:13136   */\n      0x20\n        /* \"#utility.yul\":13127:13130   */\n      dup11\n        /* \"#utility.yul\":13123:13137   */\n      add\n        /* \"#utility.yul\":13116:13137   */\n      swap10\n      pop\n        /* \"#utility.yul\":12772:13147   */\n      pop\n        /* \"#utility.yul\":12759:12760   */\n      0x01\n        /* \"#utility.yul\":12756:12757   */\n      dup2\n        /* \"#utility.yul\":12752:12761   */\n      add\n        /* \"#utility.yul\":12747:12761   */\n      swap1\n      pop\n        /* \"#utility.yul\":12712:13147   */\n      jump(tag_520)\n    tag_522:\n        /* \"#utility.yul\":12716:12730   */\n      pop\n        /* \"#utility.yul\":13163:13167   */\n      dup3\n        /* \"#utility.yul\":13156:13167   */\n      swap8\n      pop\n        /* \"#utility.yul\":13183:13186   */\n      dup8\n        /* \"#utility.yul\":13176:13186   */\n      swap6\n      pop\n        /* \"#utility.yul\":12267:13192   */\n      pop\n      pop\n      pop\n      pop\n      pop\n        /* \"#utility.yul\":12097:13192   */\n      swap3\n      swap2\n      pop\n      pop\n      jump\t// out\n        /* \"#utility.yul\":13198:13663   */\n    tag_36:\n        /* \"#utility.yul\":13387:13391   */\n      0x00\n        /* \"#utility.yul\":13425:13427   */\n      0x20\n        /* \"#utility.yul\":13414:13423   */\n      dup3\n        /* \"#utility.yul\":13410:13428   */\n      add\n        /* \"#utility.yul\":13402:13428   */\n      swap1\n      pop\n        /* \"#utility.yul\":13474:13483   */\n      dup2\n        /* \"#utility.yul\":13468:13472   */\n      dup2\n        /* \"#utility.yul\":13464:13484   */\n      sub\n        /* \"#utility.yul\":13460:13461   */\n      0x00\n        /* \"#utility.yul\":13449:13458   */\n      dup4\n        /* \"#utility.yul\":13445:13462   */\n      add\n        /* \"#utility.yul\":13438:13485   */\n      mstore\n        /* \"#utility.yul\":13502:13656   */\n      tag_526\n        /* \"#utility.yul\":13651:13655   */\n      dup2\n        /* \"#utility.yul\":13642:13648   */\n      dup5\n        /* \"#utility.yul\":13502:13656   */\n      tag_377\n      jump\t// in\n    tag_526:\n        /* \"#utility.yul\":13494:13656   */\n      swap1\n      pop\n        /* \"#utility.yul\":13198:13663   */\n      swap3\n      swap2\n      pop\n      pop\n      jump\t// out\n        /* \"#utility.yul\":13669:13998   */\n    tag_39:\n        /* \"#utility.yul\":13728:13734   */\n      0x00\n        /* \"#utility.yul\":13777:13779   */\n      0x20\n        /* \"#utility.yul\":13765:13774   */\n      dup3\n        /* \"#utility.yul\":13756:13763   */\n      dup5\n        /* \"#utility.yul\":13752:13775   */\n      sub\n        /* \"#utility.yul\":13748:13780   */\n      slt\n        /* \"#utility.yul\":13745:13864   */\n      iszero\n      tag_528\n      jumpi\n        /* \"#utility.yul\":13783:13862   */\n      tag_529\n      tag_361\n      jump\t// in\n    tag_529:\n        /* \"#utility.yul\":13745:13864   */\n    tag_528:\n        /* \"#utility.yul\":13903:13904   */\n      0x00\n        /* \"#utility.yul\":13928:13981   */\n      tag_530\n        /* \"#utility.yul\":13973:13980   */\n      dup5\n        /* \"#utility.yul\":13964:13970   */\n      dup3\n        /* \"#utility.yul\":13953:13962   */\n      dup6\n        /* \"#utility.yul\":13949:13971   */\n      add\n        /* \"#utility.yul\":13928:13981   */\n      tag_370\n      jump\t// in\n    tag_530:\n        /* \"#utility.yul\":13918:13981   */\n      swap2\n      pop\n        /* \"#utility.yul\":13874:13991   */\n      pop\n        /* \"#utility.yul\":13669:13998   */\n      swap3\n      swap2\n      pop\n      pop\n      jump\t// out\n        /* \"#utility.yul\":14004:14173   */\n    tag_378:\n        /* \"#utility.yul\":14088:14099   */\n      0x00\n        /* \"#utility.yul\":14122:14128   */\n      dup3\n        /* \"#utility.yul\":14117:14120   */\n      dup3\n        /* \"#utility.yul\":14110:14129   */\n      mstore\n        /* \"#utility.yul\":14162:14166   */\n      0x20\n        /* \"#utility.yul\":14157:14160   */\n      dup3\n        /* \"#utility.yul\":14153:14167   */\n      add\n        /* \"#utility.yul\":14138:14167   */\n      swap1\n      pop\n        /* \"#utility.yul\":14004:14173   */\n      swap3\n      swap2\n      pop\n      pop\n      jump\t// out\n        /* \"#utility.yul\":14179:14556   */\n    tag_379:\n        /* \"#utility.yul\":14267:14270   */\n      0x00\n        /* \"#utility.yul\":14295:14334   */\n      tag_533\n        /* \"#utility.yul\":14328:14333   */\n      dup3\n        /* \"#utility.yul\":14295:14334   */\n      tag_345\n      jump\t// in\n    tag_533:\n        /* \"#utility.yul\":14350:14421   */\n      tag_534\n        /* \"#utility.yul\":14414:14420   */\n      dup2\n        /* \"#utility.yul\":14409:14412   */\n      dup6\n        /* \"#utility.yul\":14350:14421   */\n      tag_378\n      jump\t// in\n    tag_534:\n        /* \"#utility.yul\":14343:14421   */\n      swap4\n      pop\n        /* \"#utility.yul\":14430:14495   */\n      tag_535\n        /* \"#utility.yul\":14488:14494   */\n      dup2\n        /* \"#utility.yul\":14483:14486   */\n      dup6\n        /* \"#utility.yul\":14476:14480   */\n      0x20\n        /* \"#utility.yul\":14469:14474   */\n      dup7\n        /* \"#utility.yul\":14465:14481   */\n      add\n        /* \"#utility.yul\":14430:14495   */\n      tag_347\n      jump\t// in\n    tag_535:\n        /* \"#utility.yul\":14520:14549   */\n      tag_536\n        /* \"#utility.yul\":14542:14548   */\n      dup2\n        /* \"#utility.yul\":14520:14549   */\n      tag_348\n      jump\t// in\n    tag_536:\n        /* \"#utility.yul\":14515:14518   */\n      dup5\n        /* \"#utility.yul\":14511:14550   */\n      add\n        /* \"#utility.yul\":14504:14550   */\n      swap2\n      pop\n        /* \"#utility.yul\":14271:14556   */\n      pop\n        /* \"#utility.yul\":14179:14556   */\n      swap3\n      swap2\n      pop\n      pop\n      jump\t// out\n        /* \"#utility.yul\":14562:14680   */\n    tag_380:\n        /* \"#utility.yul\":14649:14673   */\n      tag_538\n        /* \"#utility.yul\":14667:14672   */\n      dup2\n        /* \"#utility.yul\":14649:14673   */\n      tag_351\n      jump\t// in\n    tag_538:\n        /* \"#utility.yul\":14644:14647   */\n      dup3\n        /* \"#utility.yul\":14637:14674   */\n      mstore\n        /* \"#utility.yul\":14562:14680   */\n      pop\n      pop\n      jump\t// out\n        /* \"#utility.yul\":14686:14795   */\n    tag_381:\n        /* \"#utility.yul\":14767:14788   */\n      tag_540\n        /* \"#utility.yul\":14782:14787   */\n      dup2\n        /* \"#utility.yul\":14767:14788   */\n      tag_353\n      jump\t// in\n    tag_540:\n        /* \"#utility.yul\":14762:14765   */\n      dup3\n        /* \"#utility.yul\":14755:14789   */\n      mstore\n        /* \"#utility.yul\":14686:14795   */\n      pop\n      pop\n      jump\t// out\n        /* \"#utility.yul\":14801:16059   */\n    tag_42:\n        /* \"#utility.yul\":15144:15148   */\n      0x00\n        /* \"#utility.yul\":15182:15185   */\n      0x0100\n        /* \"#utility.yul\":15171:15180   */\n      dup3\n        /* \"#utility.yul\":15167:15186   */\n      add\n        /* \"#utility.yul\":15159:15186   */\n      swap1\n      pop\n        /* \"#utility.yul\":15196:15267   */\n      tag_542\n        /* \"#utility.yul\":15264:15265   */\n      0x00\n        /* \"#utility.yul\":15253:15262   */\n      dup4\n        /* \"#utility.yul\":15249:15266   */\n      add\n        /* \"#utility.yul\":15240:15246   */\n      dup12\n        /* \"#utility.yul\":15196:15267   */\n      tag_359\n      jump\t// in\n    tag_542:\n        /* \"#utility.yul\":15314:15323   */\n      dup2\n        /* \"#utility.yul\":15308:15312   */\n      dup2\n        /* \"#utility.yul\":15304:15324   */\n      sub\n        /* \"#utility.yul\":15299:15301   */\n      0x20\n        /* \"#utility.yul\":15288:15297   */\n      dup4\n        /* \"#utility.yul\":15284:15302   */\n      add\n        /* \"#utility.yul\":15277:15325   */\n      mstore\n        /* \"#utility.yul\":15342:15420   */\n      tag_543\n        /* \"#utility.yul\":15415:15419   */\n      dup2\n        /* \"#utility.yul\":15406:15412   */\n      dup11\n        /* \"#utility.yul\":15342:15420   */\n      tag_379\n      jump\t// in\n    tag_543:\n        /* \"#utility.yul\":15334:15420   */\n      swap1\n      pop\n        /* \"#utility.yul\":15467:15476   */\n      dup2\n        /* \"#utility.yul\":15461:15465   */\n      dup2\n        /* \"#utility.yul\":15457:15477   */\n      sub\n        /* \"#utility.yul\":15452:15454   */\n      0x40\n        /* \"#utility.yul\":15441:15450   */\n      dup4\n        /* \"#utility.yul\":15437:15455   */\n      add\n        /* \"#utility.yul\":15430:15478   */\n      mstore\n        /* \"#utility.yul\":15495:15573   */\n      tag_544\n        /* \"#utility.yul\":15568:15572   */\n      dup2\n        /* \"#utility.yul\":15559:15565   */\n      dup10\n        /* \"#utility.yul\":15495:15573   */\n      tag_379\n      jump\t// in\n    tag_544:\n        /* \"#utility.yul\":15487:15573   */\n      swap1\n      pop\n        /* \"#utility.yul\":15583:15655   */\n      tag_545\n        /* \"#utility.yul\":15651:15653   */\n      0x60\n        /* \"#utility.yul\":15640:15649   */\n      dup4\n        /* \"#utility.yul\":15636:15654   */\n      add\n        /* \"#utility.yul\":15627:15633   */\n      dup9\n        /* \"#utility.yul\":15583:15655   */\n      tag_380\n      jump\t// in\n    tag_545:\n        /* \"#utility.yul\":15703:15712   */\n      dup2\n        /* \"#utility.yul\":15697:15701   */\n      dup2\n        /* \"#utility.yul\":15693:15713   */\n      sub\n        /* \"#utility.yul\":15687:15690   */\n      0x80\n        /* \"#utility.yul\":15676:15685   */\n      dup4\n        /* \"#utility.yul\":15672:15691   */\n      add\n        /* \"#utility.yul\":15665:15714   */\n      mstore\n        /* \"#utility.yul\":15731:15809   */\n      tag_546\n        /* \"#utility.yul\":15804:15808   */\n      dup2\n        /* \"#utility.yul\":15795:15801   */\n      dup8\n        /* \"#utility.yul\":15731:15809   */\n      tag_379\n      jump\t// in\n    tag_546:\n        /* \"#utility.yul\":15723:15809   */\n      swap1\n      pop\n        /* \"#utility.yul\":15819:15892   */\n      tag_547\n        /* \"#utility.yul\":15887:15890   */\n      0xa0\n        /* \"#utility.yul\":15876:15885   */\n      dup4\n        /* \"#utility.yul\":15872:15891   */\n      add\n        /* \"#utility.yul\":15863:15869   */\n      dup7\n        /* \"#utility.yul\":15819:15892   */\n      tag_359\n      jump\t// in\n    tag_547:\n        /* \"#utility.yul\":15902:15975   */\n      tag_548\n        /* \"#utility.yul\":15970:15973   */\n      0xc0\n        /* \"#utility.yul\":15959:15968   */\n      dup4\n        /* \"#utility.yul\":15955:15974   */\n      add\n        /* \"#utility.yul\":15946:15952   */\n      dup6\n        /* \"#utility.yul\":15902:15975   */\n      tag_359\n      jump\t// in\n    tag_548:\n        /* \"#utility.yul\":15985:16052   */\n      tag_549\n        /* \"#utility.yul\":16047:16050   */\n      0xe0\n        /* \"#utility.yul\":16036:16045   */\n      dup4\n        /* \"#utility.yul\":16032:16051   */\n      add\n        /* \"#utility.yul\":16023:16029   */\n      dup5\n        /* \"#utility.yul\":15985:16052   */\n      tag_381\n      jump\t// in\n    tag_549:\n        /* \"#utility.yul\":14801:16059   */\n      swap10\n      swap9\n      pop\n      pop\n      pop\n      pop\n      pop\n      pop\n      pop\n      pop\n      pop\n      jump\t// out\n        /* \"#utility.yul\":16065:16275   */\n    tag_46:\n        /* \"#utility.yul\":16152:16156   */\n      0x00\n        /* \"#utility.yul\":16190:16192   */\n      0x20\n        /* \"#utility.yul\":16179:16188   */\n      dup3\n        /* \"#utility.yul\":16175:16193   */\n      add\n        /* \"#utility.yul\":16167:16193   */\n      swap1\n      pop\n        /* \"#utility.yul\":16203:16268   */\n      tag_551\n        /* \"#utility.yul\":16265:16266   */\n      0x00\n        /* \"#utility.yul\":16254:16263   */\n      dup4\n        /* \"#utility.yul\":16250:16267   */\n      add\n        /* \"#utility.yul\":16241:16247   */\n      dup5\n        /* \"#utility.yul\":16203:16268   */\n      tag_381\n      jump\t// in\n    tag_551:\n        /* \"#utility.yul\":16065:16275   */\n      swap3\n      swap2\n      pop\n      pop\n      jump\t// out\n        /* \"#utility.yul\":16281:16925   */\n    tag_55:\n        /* \"#utility.yul\":16478:16482   */\n      0x00\n        /* \"#utility.yul\":16516:16519   */\n      0x80\n        /* \"#utility.yul\":16505:16514   */\n      dup3\n        /* \"#utility.yul\":16501:16520   */\n      add\n        /* \"#utility.yul\":16493:16520   */\n      swap1\n      pop\n        /* \"#utility.yul\":16530:16601   */\n      tag_553\n        /* \"#utility.yul\":16598:16599   */\n      0x00\n        /* \"#utility.yul\":16587:16596   */\n      dup4\n        /* \"#utility.yul\":16583:16600   */\n      add\n        /* \"#utility.yul\":16574:16580   */\n      dup8\n        /* \"#utility.yul\":16530:16601   */\n      tag_359\n      jump\t// in\n    tag_553:\n        /* \"#utility.yul\":16648:16657   */\n      dup2\n        /* \"#utility.yul\":16642:16646   */\n      dup2\n        /* \"#utility.yul\":16638:16658   */\n      sub\n        /* \"#utility.yul\":16633:16635   */\n      0x20\n        /* \"#utility.yul\":16622:16631   */\n      dup4\n        /* \"#utility.yul\":16618:16636   */\n      add\n        /* \"#utility.yul\":16611:16659   */\n      mstore\n        /* \"#utility.yul\":16676:16754   */\n      tag_554\n        /* \"#utility.yul\":16749:16753   */\n      dup2\n        /* \"#utility.yul\":16740:16746   */\n      dup7\n        /* \"#utility.yul\":16676:16754   */\n      tag_379\n      jump\t// in\n    tag_554:\n        /* \"#utility.yul\":16668:16754   */\n      swap1\n      pop\n        /* \"#utility.yul\":16764:16836   */\n      tag_555\n        /* \"#utility.yul\":16832:16834   */\n      0x40\n        /* \"#utility.yul\":16821:16830   */\n      dup4\n        /* \"#utility.yul\":16817:16835   */\n      add\n        /* \"#utility.yul\":16808:16814   */\n      dup6\n        /* \"#utility.yul\":16764:16836   */\n      tag_380\n      jump\t// in\n    tag_555:\n        /* \"#utility.yul\":16846:16918   */\n      tag_556\n        /* \"#utility.yul\":16914:16916   */\n      0x60\n        /* \"#utility.yul\":16903:16912   */\n      dup4\n        /* \"#utility.yul\":16899:16917   */\n      add\n        /* \"#utility.yul\":16890:16896   */\n      dup5\n        /* \"#utility.yul\":16846:16918   */\n      tag_359\n      jump\t// in\n    tag_556:\n        /* \"#utility.yul\":16281:16925   */\n      swap6\n      swap5\n      pop\n      pop\n      pop\n      pop\n      pop\n      jump\t// out\n        /* \"#utility.yul\":16931:17896   */\n    tag_58:\n        /* \"#utility.yul\":17029:17035   */\n      0x00\n        /* \"#utility.yul\":17037:17043   */\n      dup1\n        /* \"#utility.yul\":17045:17051   */\n      0x00\n        /* \"#utility.yul\":17053:17059   */\n      dup1\n        /* \"#utility.yul\":17061:17067   */\n      0x00\n        /* \"#utility.yul\":17110:17113   */\n      0x80\n        /* \"#utility.yul\":17098:17107   */\n      dup7\n        /* \"#utility.yul\":17089:17096   */\n      dup9\n        /* \"#utility.yul\":17085:17108   */\n      sub\n        /* \"#utility.yul\":17081:17114   */\n      slt\n        /* \"#utility.yul\":17078:17198   */\n      iszero\n      tag_558\n      jumpi\n        /* \"#utility.yul\":17117:17196   */\n      tag_559\n      tag_361\n      jump\t// in\n    tag_559:\n        /* \"#utility.yul\":17078:17198   */\n    tag_558:\n        /* \"#utility.yul\":17237:17238   */\n      0x00\n        /* \"#utility.yul\":17262:17315   */\n      tag_560\n        /* \"#utility.yul\":17307:17314   */\n      dup9\n        /* \"#utility.yul\":17298:17304   */\n      dup3\n        /* \"#utility.yul\":17287:17296   */\n      dup10\n        /* \"#utility.yul\":17283:17305   */\n      add\n        /* \"#utility.yul\":17262:17315   */\n      tag_370\n      jump\t// in\n    tag_560:\n        /* \"#utility.yul\":17252:17315   */\n      swap6\n      pop\n        /* \"#utility.yul\":17208:17325   */\n      pop\n        /* \"#utility.yul\":17392:17394   */\n      0x20\n        /* \"#utility.yul\":17381:17390   */\n      dup7\n        /* \"#utility.yul\":17377:17395   */\n      add\n        /* \"#utility.yul\":17364:17396   */\n      calldataload\n        /* \"#utility.yul\":17423:17441   */\n      0xffffffffffffffff\n        /* \"#utility.yul\":17415:17421   */\n      dup2\n        /* \"#utility.yul\":17412:17442   */\n      gt\n        /* \"#utility.yul\":17409:17526   */\n      iszero\n      tag_561\n      jumpi\n        /* \"#utility.yul\":17445:17524   */\n      tag_562\n      tag_362\n      jump\t// in\n    tag_562:\n        /* \"#utility.yul\":17409:17526   */\n    tag_561:\n        /* \"#utility.yul\":17558:17623   */\n      tag_563\n        /* \"#utility.yul\":17615:17622   */\n      dup9\n        /* \"#utility.yul\":17606:17612   */\n      dup3\n        /* \"#utility.yul\":17595:17604   */\n      dup10\n        /* \"#utility.yul\":17591:17613   */\n      add\n        /* \"#utility.yul\":17558:17623   */\n      tag_366\n      jump\t// in\n    tag_563:\n        /* \"#utility.yul\":17540:17623   */\n      swap5\n      pop\n      swap5\n      pop\n        /* \"#utility.yul\":17335:17633   */\n      pop\n        /* \"#utility.yul\":17672:17674   */\n      0x40\n        /* \"#utility.yul\":17698:17751   */\n      tag_564\n        /* \"#utility.yul\":17743:17750   */\n      dup9\n        /* \"#utility.yul\":17734:17740   */\n      dup3\n        /* \"#utility.yul\":17723:17732   */\n      dup10\n        /* \"#utility.yul\":17719:17741   */\n      add\n        /* \"#utility.yul\":17698:17751   */\n      tag_368\n      jump\t// in\n    tag_564:\n        /* \"#utility.yul\":17688:17751   */\n      swap3\n      pop\n        /* \"#utility.yul\":17643:17761   */\n      pop\n        /* \"#utility.yul\":17800:17802   */\n      0x60\n        /* \"#utility.yul\":17826:17879   */\n      tag_565\n        /* \"#utility.yul\":17871:17878   */\n      dup9\n        /* \"#utility.yul\":17862:17868   */\n      dup3\n        /* \"#utility.yul\":17851:17860   */\n      dup10\n        /* \"#utility.yul\":17847:17869   */\n      add\n        /* \"#utility.yul\":17826:17879   */\n      tag_370\n      jump\t// in\n    tag_565:\n        /* \"#utility.yul\":17816:17879   */\n      swap2\n      pop\n        /* \"#utility.yul\":17771:17889   */\n      pop\n        /* \"#utility.yul\":16931:17896   */\n      swap3\n      swap6\n      pop\n      swap3\n      swap6\n      swap1\n      swap4\n      pop\n      jump\t// out\n        /* \"#utility.yul\":17952:19754   */\n    tag_382:\n        /* \"#utility.yul\":18063:18066   */\n      0x00\n        /* \"#utility.yul\":18099:18105   */\n      0x0100\n        /* \"#utility.yul\":18094:18097   */\n      dup4\n        /* \"#utility.yul\":18090:18106   */\n      add\n        /* \"#utility.yul\":18186:18190   */\n      0x00\n        /* \"#utility.yul\":18179:18184   */\n      dup4\n        /* \"#utility.yul\":18175:18191   */\n      add\n        /* \"#utility.yul\":18169:18192   */\n      mload\n        /* \"#utility.yul\":18205:18268   */\n      tag_567\n        /* \"#utility.yul\":18262:18266   */\n      0x00\n        /* \"#utility.yul\":18257:18260   */\n      dup7\n        /* \"#utility.yul\":18253:18267   */\n      add\n        /* \"#utility.yul\":18239:18251   */\n      dup3\n        /* \"#utility.yul\":18205:18268   */\n      tag_344\n      jump\t// in\n    tag_567:\n        /* \"#utility.yul\":18116:18278   */\n      pop\n        /* \"#utility.yul\":18360:18364   */\n      0x20\n        /* \"#utility.yul\":18353:18358   */\n      dup4\n        /* \"#utility.yul\":18349:18365   */\n      add\n        /* \"#utility.yul\":18343:18366   */\n      mload\n        /* \"#utility.yul\":18413:18416   */\n      dup5\n        /* \"#utility.yul\":18407:18411   */\n      dup3\n        /* \"#utility.yul\":18403:18417   */\n      sub\n        /* \"#utility.yul\":18396:18400   */\n      0x20\n        /* \"#utility.yul\":18391:18394   */\n      dup7\n        /* \"#utility.yul\":18387:18401   */\n      add\n        /* \"#utility.yul\":18380:18418   */\n      mstore\n        /* \"#utility.yul\":18439:18512   */\n      tag_568\n        /* \"#utility.yul\":18507:18511   */\n      dup3\n        /* \"#utility.yul\":18493:18505   */\n      dup3\n        /* \"#utility.yul\":18439:18512   */\n      tag_349\n      jump\t// in\n    tag_568:\n        /* \"#utility.yul\":18431:18512   */\n      swap2\n      pop\n        /* \"#utility.yul\":18288:18523   */\n      pop\n        /* \"#utility.yul\":18608:18612   */\n      0x40\n        /* \"#utility.yul\":18601:18606   */\n      dup4\n        /* \"#utility.yul\":18597:18613   */\n      add\n        /* \"#utility.yul\":18591:18614   */\n      mload\n        /* \"#utility.yul\":18661:18664   */\n      dup5\n        /* \"#utility.yul\":18655:18659   */\n      dup3\n        /* \"#utility.yul\":18651:18665   */\n      sub\n        /* \"#utility.yul\":18644:18648   */\n      0x40\n        /* \"#utility.yul\":18639:18642   */\n      dup7\n        /* \"#utility.yul\":18635:18649   */\n      add\n        /* \"#utility.yul\":18628:18666   */\n      mstore\n        /* \"#utility.yul\":18687:18760   */\n      tag_569\n        /* \"#utility.yul\":18755:18759   */\n      dup3\n        /* \"#utility.yul\":18741:18753   */\n      dup3\n        /* \"#utility.yul\":18687:18760   */\n      tag_349\n      jump\t// in\n    tag_569:\n        /* \"#utility.yul\":18679:18760   */\n      swap2\n      pop\n        /* \"#utility.yul\":18533:18771   */\n      pop\n        /* \"#utility.yul\":18853:18857   */\n      0x60\n        /* \"#utility.yul\":18846:18851   */\n      dup4\n        /* \"#utility.yul\":18842:18858   */\n      add\n        /* \"#utility.yul\":18836:18859   */\n      mload\n        /* \"#utility.yul\":18872:18935   */\n      tag_570\n        /* \"#utility.yul\":18929:18933   */\n      0x60\n        /* \"#utility.yul\":18924:18927   */\n      dup7\n        /* \"#utility.yul\":18920:18934   */\n      add\n        /* \"#utility.yul\":18906:18918   */\n      dup3\n        /* \"#utility.yul\":18872:18935   */\n      tag_352\n      jump\t// in\n    tag_570:\n        /* \"#utility.yul\":18781:18945   */\n      pop\n        /* \"#utility.yul\":19031:19035   */\n      0x80\n        /* \"#utility.yul\":19024:19029   */\n      dup4\n        /* \"#utility.yul\":19020:19036   */\n      add\n        /* \"#utility.yul\":19014:19037   */\n      mload\n        /* \"#utility.yul\":19084:19087   */\n      dup5\n        /* \"#utility.yul\":19078:19082   */\n      dup3\n        /* \"#utility.yul\":19074:19088   */\n      sub\n        /* \"#utility.yul\":19067:19071   */\n      0x80\n        /* \"#utility.yul\":19062:19065   */\n      dup7\n        /* \"#utility.yul\":19058:19072   */\n      add\n        /* \"#utility.yul\":19051:19089   */\n      mstore\n        /* \"#utility.yul\":19110:19183   */\n      tag_571\n        /* \"#utility.yul\":19178:19182   */\n      dup3\n        /* \"#utility.yul\":19164:19176   */\n      dup3\n        /* \"#utility.yul\":19110:19183   */\n      tag_349\n      jump\t// in\n    tag_571:\n        /* \"#utility.yul\":19102:19183   */\n      swap2\n      pop\n        /* \"#utility.yul\":18955:19194   */\n      pop\n        /* \"#utility.yul\":19284:19288   */\n      0xa0\n        /* \"#utility.yul\":19277:19282   */\n      dup4\n        /* \"#utility.yul\":19273:19289   */\n      add\n        /* \"#utility.yul\":19267:19290   */\n      mload\n        /* \"#utility.yul\":19303:19366   */\n      tag_572\n        /* \"#utility.yul\":19360:19364   */\n      0xa0\n        /* \"#utility.yul\":19355:19358   */\n      dup7\n        /* \"#utility.yul\":19351:19365   */\n      add\n        /* \"#utility.yul\":19337:19349   */\n      dup3\n        /* \"#utility.yul\":19303:19366   */\n      tag_344\n      jump\t// in\n    tag_572:\n        /* \"#utility.yul\":19204:19376   */\n      pop\n        /* \"#utility.yul\":19465:19469   */\n      0xc0\n        /* \"#utility.yul\":19458:19463   */\n      dup4\n        /* \"#utility.yul\":19454:19470   */\n      add\n        /* \"#utility.yul\":19448:19471   */\n      mload\n        /* \"#utility.yul\":19484:19547   */\n      tag_573\n        /* \"#utility.yul\":19541:19545   */\n      0xc0\n        /* \"#utility.yul\":19536:19539   */\n      dup7\n        /* \"#utility.yul\":19532:19546   */\n      add\n        /* \"#utility.yul\":19518:19530   */\n      dup3\n        /* \"#utility.yul\":19484:19547   */\n      tag_344\n      jump\t// in\n    tag_573:\n        /* \"#utility.yul\":19386:19557   */\n      pop\n        /* \"#utility.yul\":19641:19645   */\n      0xe0\n        /* \"#utility.yul\":19634:19639   */\n      dup4\n        /* \"#utility.yul\":19630:19646   */\n      add\n        /* \"#utility.yul\":19624:19647   */\n      mload\n        /* \"#utility.yul\":19660:19717   */\n      tag_574\n        /* \"#utility.yul\":19711:19715   */\n      0xe0\n        /* \"#utility.yul\":19706:19709   */\n      dup7\n        /* \"#utility.yul\":19702:19716   */\n      add\n        /* \"#utility.yul\":19688:19700   */\n      dup3\n        /* \"#utility.yul\":19660:19717   */\n      tag_354\n      jump\t// in\n    tag_574:\n        /* \"#utility.yul\":19567:19727   */\n      pop\n        /* \"#utility.yul\":19744:19748   */\n      dup1\n        /* \"#utility.yul\":19737:19748   */\n      swap2\n      pop\n        /* \"#utility.yul\":18068:19754   */\n      pop\n        /* \"#utility.yul\":17952:19754   */\n      swap3\n      swap2\n      pop\n      pop\n      jump\t// out\n        /* \"#utility.yul\":19760:20117   */\n    tag_64:\n        /* \"#utility.yul\":19895:19899   */\n      0x00\n        /* \"#utility.yul\":19933:19935   */\n      0x20\n        /* \"#utility.yul\":19922:19931   */\n      dup3\n        /* \"#utility.yul\":19918:19936   */\n      add\n        /* \"#utility.yul\":19910:19936   */\n      swap1\n      pop\n        /* \"#utility.yul\":19982:19991   */\n      dup2\n        /* \"#utility.yul\":19976:19980   */\n      dup2\n        /* \"#utility.yul\":19972:19992   */\n      sub\n        /* \"#utility.yul\":19968:19969   */\n      0x00\n        /* \"#utility.yul\":19957:19966   */\n      dup4\n        /* \"#utility.yul\":19953:19970   */\n      add\n        /* \"#utility.yul\":19946:19993   */\n      mstore\n        /* \"#utility.yul\":20010:20110   */\n      tag_576\n        /* \"#utility.yul\":20105:20109   */\n      dup2\n        /* \"#utility.yul\":20096:20102   */\n      dup5\n        /* \"#utility.yul\":20010:20110   */\n      tag_382\n      jump\t// in\n    tag_576:\n        /* \"#utility.yul\":20002:20110   */\n      swap1\n      pop\n        /* \"#utility.yul\":19760:20117   */\n      swap3\n      swap2\n      pop\n      pop\n      jump\t// out\n        /* \"#utility.yul\":20123:20303   */\n    tag_75:\n        /* \"#utility.yul\":20171:20248   */\n      0x4e487b7100000000000000000000000000000000000000000000000000000000\n        /* \"#utility.yul\":20168:20169   */\n      0x00\n        /* \"#utility.yul\":20161:20249   */\n      mstore\n        /* \"#utility.yul\":20268:20272   */\n      0x32\n        /* \"#utility.yul\":20265:20266   */\n      0x04\n        /* \"#utility.yul\":20258:20273   */\n      mstore\n        /* \"#utility.yul\":20292:20296   */\n      0x24\n        /* \"#utility.yul\":20289:20290   */\n      0x00\n        /* \"#utility.yul\":20282:20297   */\n      revert\n        /* \"#utility.yul\":20309:20489   */\n    tag_383:\n        /* \"#utility.yul\":20357:20434   */\n      0x4e487b7100000000000000000000000000000000000000000000000000000000\n        /* \"#utility.yul\":20354:20355   */\n      0x00\n        /* \"#utility.yul\":20347:20435   */\n      mstore\n        /* \"#utility.yul\":20454:20458   */\n      0x11\n        /* \"#utility.yul\":20451:20452   */\n      0x04\n        /* \"#utility.yul\":20444:20459   */\n      mstore\n        /* \"#utility.yul\":20478:20482   */\n      0x24\n        /* \"#utility.yul\":20475:20476   */\n      0x00\n        /* \"#utility.yul\":20468:20483   */\n      revert\n        /* \"#utility.yul\":20495:20728   */\n    tag_79:\n        /* \"#utility.yul\":20534:20537   */\n      0x00\n        /* \"#utility.yul\":20557:20581   */\n      tag_580\n        /* \"#utility.yul\":20575:20580   */\n      dup3\n        /* \"#utility.yul\":20557:20581   */\n      tag_343\n      jump\t// in\n    tag_580:\n        /* \"#utility.yul\":20548:20581   */\n      swap2\n      pop\n        /* \"#utility.yul\":20603:20669   */\n      0xffffffffffffffffffffffffffffffffffffffffffffffffffffffffffffffff\n        /* \"#utility.yul\":20596:20601   */\n      dup3\n        /* \"#utility.yul\":20593:20670   */\n      sub\n        /* \"#utility.yul\":20590:20693   */\n      tag_581\n      jumpi\n        /* \"#utility.yul\":20673:20691   */\n      tag_582\n      tag_383\n      jump\t// in\n    tag_582:\n        /* \"#utility.yul\":20590:20693   */\n    tag_581:\n        /* \"#utility.yul\":20720:20721   */\n      0x01\n        /* \"#utility.yul\":20713:20718   */\n      dup3\n        /* \"#utility.yul\":20709:20722   */\n      add\n        /* \"#utility.yul\":20702:20722   */\n      swap1\n      pop\n        /* \"#utility.yul\":20495:20728   */\n      swap2\n      swap1\n      pop\n      jump\t// out\n        /* \"#utility.yul\":20734:20914   */\n    tag_82:\n        /* \"#utility.yul\":20782:20859   */\n      0x4e487b7100000000000000000000000000000000000000000000000000000000\n        /* \"#utility.yul\":20779:20780   */\n      0x00\n        /* \"#utility.yul\":20772:20860   */\n      mstore\n        /* \"#utility.yul\":20879:20883   */\n      0x41\n        /* \"#utility.yul\":20876:20877   */\n      0x04\n        /* \"#utility.yul\":20869:20884   */\n      mstore\n        /* \"#utility.yul\":20903:20907   */\n      0x24\n        /* \"#utility.yul\":20900:20901   */\n      0x00\n        /* \"#utility.yul\":20893:20908   */\n      revert\n        /* \"#utility.yul\":20920:21100   */\n    tag_384:\n        /* \"#utility.yul\":20968:21045   */\n      0x4e487b7100000000000000000000000000000000000000000000000000000000\n        /* \"#utility.yul\":20965:20966   */\n      0x00\n        /* \"#utility.yul\":20958:21046   */\n      mstore\n        /* \"#utility.yul\":21065:21069   */\n      0x22\n        /* \"#utility.yul\":21062:21063   */\n      0x04\n        /* \"#utility.yul\":21055:21070   */\n      mstore\n        /* \"#utility.yul\":21089:21093   */\n      0x24\n        /* \"#utility.yul\":21086:21087   */\n      0x00\n        /* \"#utility.yul\":21079:21094   */\n      revert\n        /* \"#utility.yul\":21106:21426   */\n    tag_98:\n        /* \"#utility.yul\":21150:21156   */\n      0x00\n        /* \"#utility.yul\":21187:21188   */\n      0x02\n        /* \"#utility.yul\":21181:21185   */\n      dup3\n        /* \"#utility.yul\":21177:21189   */\n      div\n        /* \"#utility.yul\":21167:21189   */\n      swap1\n      pop\n        /* \"#utility.yul\":21234:21235   */\n      0x01\n        /* \"#utility.yul\":21228:21232   */\n      dup3\n        /* \"#utility.yul\":21224:21236   */\n      and\n        /* \"#utility.yul\":21255:21273   */\n      dup1\n        /* \"#utility.yul\":21245:21326   */\n      tag_586\n      jumpi\n        /* \"#utility.yul\":21311:21315   */\n      0x7f\n        /* \"#utility.yul\":21303:21309   */\n      dup3\n        /* \"#utility.yul\":21299:21316   */\n      and\n        /* \"#utility.yul\":21289:21316   */\n      swap2\n      pop\n        /* \"#utility.yul\":21245:21326   */\n    tag_586:\n        /* \"#utility.yul\":21373:21375   */\n      0x20\n        /* \"#utility.yul\":21365:21371   */\n      dup3\n        /* \"#utility.yul\":21362:21376   */\n      lt\n        /* \"#utility.yul\":21342:21360   */\n      dup2\n        /* \"#utility.yul\":21339:21377   */\n      sub\n        /* \"#utility.yul\":21336:21420   */\n      tag_587\n      jumpi\n        /* \"#utility.yul\":21392:21410   */\n      tag_588\n      tag_384\n      jump\t// in\n    tag_588:\n        /* \"#utility.yul\":21336:21420   */\n    tag_587:\n        /* \"#utility.yul\":21157:21426   */\n      pop\n        /* \"#utility.yul\":21106:21426   */\n      swap2\n      swap1\n      pop\n      jump\t// out\n        /* \"#utility.yul\":21432:21602   */\n    tag_385:\n        /* \"#utility.yul\":21572:21594   */\n      0x696e76616c696420686f73742061646472657373000000000000000000000000\n        /* \"#utility.yul\":21568:21569   */\n      0x00\n        /* \"#utility.yul\":21560:21566   */\n      dup3\n        /* \"#utility.yul\":21556:21570   */\n      add\n        /* \"#utility.yul\":21549:21595   */\n      mstore\n        /* \"#utility.yul\":21432:21602   */\n      pop\n      jump\t// out\n        /* \"#utility.yul\":21608:21974   */\n    tag_386:\n        /* \"#utility.yul\":21750:21753   */\n      0x00\n        /* \"#utility.yul\":21771:21838   */\n      tag_591\n        /* \"#utility.yul\":21835:21837   */\n      0x14\n        /* \"#utility.yul\":21830:21833   */\n      dup4\n        /* \"#utility.yul\":21771:21838   */\n      tag_378\n      jump\t// in\n    tag_591:\n        /* \"#utility.yul\":21764:21838   */\n      swap2\n      pop\n        /* \"#utility.yul\":21847:21940   */\n      tag_592\n        /* \"#utility.yul\":21936:21939   */\n      dup3\n        /* \"#utility.yul\":21847:21940   */\n      tag_385\n      jump\t// in\n    tag_592:\n        /* \"#utility.yul\":21965:21967   */\n      0x20\n        /* \"#utility.yul\":21960:21963   */\n      dup3\n        /* \"#utility.yul\":21956:21968   */\n      add\n        /* \"#utility.yul\":21949:21968   */\n      swap1\n      pop\n        /* \"#utility.yul\":21608:21974   */\n      swap2\n      swap1\n      pop\n      jump\t// out\n        /* \"#utility.yul\":21980:22399   */\n    tag_119:\n        /* \"#utility.yul\":22146:22150   */\n      0x00\n        /* \"#utility.yul\":22184:22186   */\n      0x20\n        /* \"#utility.yul\":22173:22182   */\n      dup3\n        /* \"#utility.yul\":22169:22187   */\n      add\n        /* \"#utility.yul\":22161:22187   */\n      swap1\n      pop\n        /* \"#utility.yul\":22233:22242   */\n      dup2\n        /* \"#utility.yul\":22227:22231   */\n      dup2\n        /* \"#utility.yul\":22223:22243   */\n      sub\n        /* \"#utility.yul\":22219:22220   */\n      0x00\n        /* \"#utility.yul\":22208:22217   */\n      dup4\n        /* \"#utility.yul\":22204:22221   */\n      add\n        /* \"#utility.yul\":22197:22244   */\n      mstore\n        /* \"#utility.yul\":22261:22392   */\n      tag_594\n        /* \"#utility.yul\":22387:22391   */\n      dup2\n        /* \"#utility.yul\":22261:22392   */\n      tag_386\n      jump\t// in\n    tag_594:\n        /* \"#utility.yul\":22253:22392   */\n      swap1\n      pop\n        /* \"#utility.yul\":21980:22399   */\n      swap2\n      swap1\n      pop\n      jump\t// out\n        /* \"#utility.yul\":22405:22697   */\n    tag_387:\n        /* \"#utility.yul\":22545:22579   */\n      0x536f7272792c20736f6d656f6e65206973206372656174696e67207468652062\n        /* \"#utility.yul\":22541:22542   */\n      0x00\n        /* \"#utility.yul\":22533:22539   */\n      dup3\n        /* \"#utility.yul\":22529:22543   */\n      add\n        /* \"#utility.yul\":22522:22580   */\n      mstore\n        /* \"#utility.yul\":22614:22648   */\n      0x6f6172642e20506c65617320776169742061206d696e75746520616e64207265\n        /* \"#utility.yul\":22609:22611   */\n      0x20\n        /* \"#utility.yul\":22601:22607   */\n      dup3\n        /* \"#utility.yul\":22597:22612   */\n      add\n        /* \"#utility.yul\":22590:22649   */\n      mstore\n        /* \"#utility.yul\":22683:22689   */\n      0x7065617400000000000000000000000000000000000000000000000000000000\n        /* \"#utility.yul\":22678:22680   */\n      0x40\n        /* \"#utility.yul\":22670:22676   */\n      dup3\n        /* \"#utility.yul\":22666:22681   */\n      add\n        /* \"#utility.yul\":22659:22690   */\n      mstore\n        /* \"#utility.yul\":22405:22697   */\n      pop\n      jump\t// out\n        /* \"#utility.yul\":22703:23069   */\n    tag_388:\n        /* \"#utility.yul\":22845:22848   */\n      0x00\n        /* \"#utility.yul\":22866:22933   */\n      tag_597\n        /* \"#utility.yul\":22930:22932   */\n      0x44\n        /* \"#utility.yul\":22925:22928   */\n      dup4\n        /* \"#utility.yul\":22866:22933   */\n      tag_378\n      jump\t// in\n    tag_597:\n        /* \"#utility.yul\":22859:22933   */\n      swap2\n      pop\n        /* \"#utility.yul\":22942:23035   */\n      tag_598\n        /* \"#utility.yul\":23031:23034   */\n      dup3\n        /* \"#utility.yul\":22942:23035   */\n      tag_387\n      jump\t// in\n    tag_598:\n        /* \"#utility.yul\":23060:23062   */\n      0x60\n        /* \"#utility.yul\":23055:23058   */\n      dup3\n        /* \"#utility.yul\":23051:23063   */\n      add\n        /* \"#utility.yul\":23044:23063   */\n      swap1\n      pop\n        /* \"#utility.yul\":22703:23069   */\n      swap2\n      swap1\n      pop\n      jump\t// out\n        /* \"#utility.yul\":23075:23494   */\n    tag_122:\n        /* \"#utility.yul\":23241:23245   */\n      0x00\n        /* \"#utility.yul\":23279:23281   */\n      0x20\n        /* \"#utility.yul\":23268:23277   */\n      dup3\n        /* \"#utility.yul\":23264:23282   */\n      add\n        /* \"#utility.yul\":23256:23282   */\n      swap1\n      pop\n        /* \"#utility.yul\":23328:23337   */\n      dup2\n        /* \"#utility.yul\":23322:23326   */\n      dup2\n        /* \"#utility.yul\":23318:23338   */\n      sub\n        /* \"#utility.yul\":23314:23315   */\n      0x00\n        /* \"#utility.yul\":23303:23312   */\n      dup4\n        /* \"#utility.yul\":23299:23316   */\n      add\n        /* \"#utility.yul\":23292:23339   */\n      mstore\n        /* \"#utility.yul\":23356:23487   */\n      tag_600\n        /* \"#utility.yul\":23482:23486   */\n      dup2\n        /* \"#utility.yul\":23356:23487   */\n      tag_388\n      jump\t// in\n    tag_600:\n        /* \"#utility.yul\":23348:23487   */\n      swap1\n      pop\n        /* \"#utility.yul\":23075:23494   */\n      swap2\n      swap1\n      pop\n      jump\t// out\n        /* \"#utility.yul\":23500:23641   */\n    tag_389:\n        /* \"#utility.yul\":23549:23553   */\n      0x00\n        /* \"#utility.yul\":23572:23575   */\n      dup2\n        /* \"#utility.yul\":23564:23575   */\n      swap1\n      pop\n        /* \"#utility.yul\":23595:23598   */\n      dup2\n        /* \"#utility.yul\":23592:23593   */\n      0x00\n        /* \"#utility.yul\":23585:23599   */\n      mstore\n        /* \"#utility.yul\":23629:23633   */\n      0x20\n        /* \"#utility.yul\":23626:23627   */\n      0x00\n        /* \"#utility.yul\":23616:23634   */\n      keccak256\n        /* \"#utility.yul\":23608:23634   */\n      swap1\n      pop\n        /* \"#utility.yul\":23500:23641   */\n      swap2\n      swap1\n      pop\n      jump\t// out\n        /* \"#utility.yul\":23647:23740   */\n    tag_390:\n        /* \"#utility.yul\":23684:23690   */\n      0x00\n        /* \"#utility.yul\":23731:23733   */\n      0x20\n        /* \"#utility.yul\":23726:23728   */\n      0x1f\n        /* \"#utility.yul\":23719:23724   */\n      dup4\n        /* \"#utility.yul\":23715:23729   */\n      add\n        /* \"#utility.yul\":23711:23734   */\n      div\n        /* \"#utility.yul\":23701:23734   */\n      swap1\n      pop\n        /* \"#utility.yul\":23647:23740   */\n      swap2\n      swap1\n      pop\n      jump\t// out\n        /* \"#utility.yul\":23746:23853   */\n    tag_391:\n        /* \"#utility.yul\":23790:23798   */\n      0x00\n        /* \"#utility.yul\":23840:23845   */\n      dup3\n        /* \"#utility.yul\":23834:23838   */\n      dup3\n        /* \"#utility.yul\":23830:23846   */\n      shl\n        /* \"#utility.yul\":23809:23846   */\n      swap1\n      pop\n        /* \"#utility.yul\":23746:23853   */\n      swap3\n      swap2\n      pop\n      pop\n      jump\t// out\n        /* \"#utility.yul\":23859:24252   */\n    tag_392:\n        /* \"#utility.yul\":23928:23934   */\n      0x00\n        /* \"#utility.yul\":23978:23979   */\n      0x08\n        /* \"#utility.yul\":23966:23976   */\n      dup4\n        /* \"#utility.yul\":23962:23980   */\n      mul\n        /* \"#utility.yul\":24001:24098   */\n      tag_605\n        /* \"#utility.yul\":24031:24097   */\n      0xffffffffffffffffffffffffffffffffffffffffffffffffffffffffffffffff\n        /* \"#utility.yul\":24020:24029   */\n      dup3\n        /* \"#utility.yul\":24001:24098   */\n      tag_391\n      jump\t// in\n    tag_605:\n        /* \"#utility.yul\":24119:24158   */\n      tag_606\n        /* \"#utility.yul\":24149:24157   */\n      dup7\n        /* \"#utility.yul\":24138:24147   */\n      dup4\n        /* \"#utility.yul\":24119:24158   */\n      tag_391\n      jump\t// in\n    tag_606:\n        /* \"#utility.yul\":24107:24158   */\n      swap6\n      pop\n        /* \"#utility.yul\":24191:24195   */\n      dup1\n        /* \"#utility.yul\":24187:24196   */\n      not\n        /* \"#utility.yul\":24180:24185   */\n      dup5\n        /* \"#utility.yul\":24176:24197   */\n      and\n        /* \"#utility.yul\":24167:24197   */\n      swap4\n      pop\n        /* \"#utility.yul\":24240:24244   */\n      dup1\n        /* \"#utility.yul\":24230:24238   */\n      dup7\n        /* \"#utility.yul\":24226:24245   */\n      and\n        /* \"#utility.yul\":24219:24224   */\n      dup5\n        /* \"#utility.yul\":24216:24246   */\n      or\n        /* \"#utility.yul\":24206:24246   */\n      swap3\n      pop\n        /* \"#utility.yul\":23935:24252   */\n      pop\n      pop\n        /* \"#utility.yul\":23859:24252   */\n      swap4\n      swap3\n      pop\n      pop\n      pop\n      jump\t// out\n        /* \"#utility.yul\":24258:24318   */\n    tag_393:\n        /* \"#utility.yul\":24286:24289   */\n      0x00\n        /* \"#utility.yul\":24307:24312   */\n      dup2\n        /* \"#utility.yul\":24300:24312   */\n      swap1\n      pop\n        /* \"#utility.yul\":24258:24318   */\n      swap2\n      swap1\n      pop\n      jump\t// out\n        /* \"#utility.yul\":24324:24466   */\n    tag_394:\n        /* \"#utility.yul\":24374:24383   */\n      0x00\n        /* \"#utility.yul\":24407:24460   */\n      tag_609\n        /* \"#utility.yul\":24425:24459   */\n      tag_610\n        /* \"#utility.yul\":24434:24458   */\n      tag_611\n        /* \"#utility.yul\":24452:24457   */\n      dup5\n        /* \"#utility.yul\":24434:24458   */\n      tag_343\n      jump\t// in\n    tag_611:\n        /* \"#utility.yul\":24425:24459   */\n      tag_393\n      jump\t// in\n    tag_610:\n        /* \"#utility.yul\":24407:24460   */\n      tag_343\n      jump\t// in\n    tag_609:\n        /* \"#utility.yul\":24394:24460   */\n      swap1\n      pop\n        /* \"#utility.yul\":24324:24466   */\n      swap2\n      swap1\n      pop\n      jump\t// out\n        /* \"#utility.yul\":24472:24547   */\n    tag_395:\n        /* \"#utility.yul\":24515:24518   */\n      0x00\n        /* \"#utility.yul\":24536:24541   */\n      dup2\n        /* \"#utility.yul\":24529:24541   */\n      swap1\n      pop\n        /* \"#utility.yul\":24472:24547   */\n      swap2\n      swap1\n      pop\n      jump\t// out\n        /* \"#utility.yul\":24553:24822   */\n    tag_396:\n        /* \"#utility.yul\":24663:24702   */\n      tag_614\n        /* \"#utility.yul\":24694:24701   */\n      dup4\n        /* \"#utility.yul\":24663:24702   */\n      tag_394\n      jump\t// in\n    tag_614:\n        /* \"#utility.yul\":24724:24815   */\n      tag_615\n        /* \"#utility.yul\":24773:24814   */\n      tag_616\n        /* \"#utility.yul\":24797:24813   */\n      dup3\n        /* \"#utility.yul\":24773:24814   */\n      tag_395\n      jump\t// in\n    tag_616:\n        /* \"#utility.yul\":24765:24771   */\n      dup5\n        /* \"#utility.yul\":24758:24762   */\n      dup5\n        /* \"#utility.yul\":24752:24763   */\n      sload\n        /* \"#utility.yul\":24724:24815   */\n      tag_392\n      jump\t// in\n    tag_615:\n        /* \"#utility.yul\":24718:24722   */\n      dup3\n        /* \"#utility.yul\":24711:24816   */\n      sstore\n        /* \"#utility.yul\":24629:24822   */\n      pop\n        /* \"#utility.yul\":24553:24822   */\n      pop\n      pop\n      pop\n      jump\t// out\n        /* \"#utility.yul\":24828:24901   */\n    tag_397:\n        /* \"#utility.yul\":24873:24876   */\n      0x00\n        /* \"#utility.yul\":24828:24901   */\n      swap1\n      jump\t// out\n        /* \"#utility.yul\":24907:25096   */\n    tag_398:\n        /* \"#utility.yul\":24984:25016   */\n      tag_619\n      tag_397\n      jump\t// in\n    tag_619:\n        /* \"#utility.yul\":25025:25090   */\n      tag_620\n        /* \"#utility.yul\":25083:25089   */\n      dup2\n        /* \"#utility.yul\":25075:25081   */\n      dup5\n        /* \"#utility.yul\":25069:25073   */\n      dup5\n        /* \"#utility.yul\":25025:25090   */\n      tag_396\n      jump\t// in\n    tag_620:\n        /* \"#utility.yul\":24960:25096   */\n      pop\n        /* \"#utility.yul\":24907:25096   */\n      pop\n      pop\n      jump\t// out\n        /* \"#utility.yul\":25102:25288   */\n    tag_399:\n        /* \"#utility.yul\":25162:25282   */\n    tag_622:\n        /* \"#utility.yul\":25179:25182   */\n      dup2\n        /* \"#utility.yul\":25172:25177   */\n      dup2\n        /* \"#utility.yul\":25169:25183   */\n      lt\n        /* \"#utility.yul\":25162:25282   */\n      iszero\n      tag_624\n      jumpi\n        /* \"#utility.yul\":25233:25272   */\n      tag_625\n        /* \"#utility.yul\":25270:25271   */\n      0x00\n        /* \"#utility.yul\":25263:25268   */\n      dup3\n        /* \"#utility.yul\":25233:25272   */\n      tag_398\n      jump\t// in\n    tag_625:\n        /* \"#utility.yul\":25206:25207   */\n      0x01\n        /* \"#utility.yul\":25199:25204   */\n      dup2\n        /* \"#utility.yul\":25195:25208   */\n      add\n        /* \"#utility.yul\":25186:25208   */\n      swap1\n      pop\n        /* \"#utility.yul\":25162:25282   */\n      jump(tag_622)\n    tag_624:\n        /* \"#utility.yul\":25102:25288   */\n      pop\n      pop\n      jump\t// out\n        /* \"#utility.yul\":25294:25837   */\n    tag_400:\n        /* \"#utility.yul\":25395:25397   */\n      0x1f\n        /* \"#utility.yul\":25390:25393   */\n      dup3\n        /* \"#utility.yul\":25387:25398   */\n      gt\n        /* \"#utility.yul\":25384:25830   */\n      iszero\n      tag_627\n      jumpi\n        /* \"#utility.yul\":25429:25467   */\n      tag_628\n        /* \"#utility.yul\":25461:25466   */\n      dup2\n        /* \"#utility.yul\":25429:25467   */\n      tag_389\n      jump\t// in\n    tag_628:\n        /* \"#utility.yul\":25513:25542   */\n      tag_629\n        /* \"#utility.yul\":25531:25541   */\n      dup5\n        /* \"#utility.yul\":25513:25542   */\n      tag_390\n      jump\t// in\n    tag_629:\n        /* \"#utility.yul\":25503:25511   */\n      dup2\n        /* \"#utility.yul\":25499:25543   */\n      add\n        /* \"#utility.yul\":25696:25698   */\n      0x20\n        /* \"#utility.yul\":25684:25694   */\n      dup6\n        /* \"#utility.yul\":25681:25699   */\n      lt\n        /* \"#utility.yul\":25678:25727   */\n      iszero\n      tag_630\n      jumpi\n        /* \"#utility.yul\":25717:25725   */\n      dup2\n        /* \"#utility.yul\":25702:25725   */\n      swap1\n      pop\n        /* \"#utility.yul\":25678:25727   */\n    tag_630:\n        /* \"#utility.yul\":25740:25820   */\n      tag_631\n        /* \"#utility.yul\":25796:25818   */\n      tag_632\n        /* \"#utility.yul\":25814:25817   */\n      dup6\n        /* \"#utility.yul\":25796:25818   */\n      tag_390\n      jump\t// in\n    tag_632:\n        /* \"#utility.yul\":25786:25794   */\n      dup4\n        /* \"#utility.yul\":25782:25819   */\n      add\n        /* \"#utility.yul\":25769:25780   */\n      dup3\n        /* \"#utility.yul\":25740:25820   */\n      tag_399\n      jump\t// in\n    tag_631:\n        /* \"#utility.yul\":25399:25830   */\n      pop\n      pop\n        /* \"#utility.yul\":25384:25830   */\n    tag_627:\n        /* \"#utility.yul\":25294:25837   */\n      pop\n      pop\n      pop\n      jump\t// out\n        /* \"#utility.yul\":25843:25960   */\n    tag_401:\n        /* \"#utility.yul\":25897:25905   */\n      0x00\n        /* \"#utility.yul\":25947:25952   */\n      dup3\n        /* \"#utility.yul\":25941:25945   */\n      dup3\n        /* \"#utility.yul\":25937:25953   */\n      shr\n        /* \"#utility.yul\":25916:25953   */\n      swap1\n      pop\n        /* \"#utility.yul\":25843:25960   */\n      swap3\n      swap2\n      pop\n      pop\n      jump\t// out\n        /* \"#utility.yul\":25966:26135   */\n    tag_402:\n        /* \"#utility.yul\":26010:26016   */\n      0x00\n        /* \"#utility.yul\":26043:26094   */\n      tag_635\n        /* \"#utility.yul\":26091:26092   */\n      0x00\n        /* \"#utility.yul\":26087:26093   */\n      not\n        /* \"#utility.yul\":26079:26084   */\n      dup5\n        /* \"#utility.yul\":26076:26077   */\n      0x08\n        /* \"#utility.yul\":26072:26085   */\n      mul\n        /* \"#utility.yul\":26043:26094   */\n      tag_401\n      jump\t// in\n    tag_635:\n        /* \"#utility.yul\":26039:26095   */\n      not\n        /* \"#utility.yul\":26124:26128   */\n      dup1\n        /* \"#utility.yul\":26118:26122   */\n      dup4\n        /* \"#utility.yul\":26114:26129   */\n      and\n        /* \"#utility.yul\":26104:26129   */\n      swap2\n      pop\n        /* \"#utility.yul\":26017:26135   */\n      pop\n        /* \"#utility.yul\":25966:26135   */\n      swap3\n      swap2\n      pop\n      pop\n      jump\t// out\n        /* \"#utility.yul\":26140:26435   */\n    tag_403:\n        /* \"#utility.yul\":26216:26220   */\n      0x00\n        /* \"#utility.yul\":26362:26391   */\n      tag_637\n        /* \"#utility.yul\":26387:26390   */\n      dup4\n        /* \"#utility.yul\":26381:26385   */\n      dup4\n        /* \"#utility.yul\":26362:26391   */\n      tag_402\n      jump\t// in\n    tag_637:\n        /* \"#utility.yul\":26354:26391   */\n      swap2\n      pop\n        /* \"#utility.yul\":26424:26427   */\n      dup3\n        /* \"#utility.yul\":26421:26422   */\n      0x02\n        /* \"#utility.yul\":26417:26428   */\n      mul\n        /* \"#utility.yul\":26411:26415   */\n      dup3\n        /* \"#utility.yul\":26408:26429   */\n      or\n        /* \"#utility.yul\":26400:26429   */\n      swap1\n      pop\n        /* \"#utility.yul\":26140:26435   */\n      swap3\n      swap2\n      pop\n      pop\n      jump\t// out\n        /* \"#utility.yul\":26440:27835   */\n    tag_126:\n        /* \"#utility.yul\":26557:26594   */\n      tag_639\n        /* \"#utility.yul\":26590:26593   */\n      dup3\n        /* \"#utility.yul\":26557:26594   */\n      tag_345\n      jump\t// in\n    tag_639:\n        /* \"#utility.yul\":26659:26677   */\n      0xffffffffffffffff\n        /* \"#utility.yul\":26651:26657   */\n      dup2\n        /* \"#utility.yul\":26648:26678   */\n      gt\n        /* \"#utility.yul\":26645:26701   */\n      iszero\n      tag_640\n      jumpi\n        /* \"#utility.yul\":26681:26699   */\n      tag_641\n      tag_82\n      jump\t// in\n    tag_641:\n        /* \"#utility.yul\":26645:26701   */\n    tag_640:\n        /* \"#utility.yul\":26725:26763   */\n      tag_642\n        /* \"#utility.yul\":26757:26761   */\n      dup3\n        /* \"#utility.yul\":26751:26762   */\n      sload\n        /* \"#utility.yul\":26725:26763   */\n      tag_98\n      jump\t// in\n    tag_642:\n        /* \"#utility.yul\":26810:26877   */\n      tag_643\n        /* \"#utility.yul\":26870:26876   */\n      dup3\n        /* \"#utility.yul\":26862:26868   */\n      dup3\n        /* \"#utility.yul\":26856:26860   */\n      dup6\n        /* \"#utility.yul\":26810:26877   */\n      tag_400\n      jump\t// in\n    tag_643:\n        /* \"#utility.yul\":26904:26905   */\n      0x00\n        /* \"#utility.yul\":26928:26932   */\n      0x20\n        /* \"#utility.yul\":26915:26932   */\n      swap1\n      pop\n        /* \"#utility.yul\":26960:26962   */\n      0x1f\n        /* \"#utility.yul\":26952:26958   */\n      dup4\n        /* \"#utility.yul\":26949:26963   */\n      gt\n        /* \"#utility.yul\":26977:26978   */\n      0x01\n        /* \"#utility.yul\":26972:27590   */\n      dup2\n      eq\n      tag_645\n      jumpi\n        /* \"#utility.yul\":27634:27635   */\n      0x00\n        /* \"#utility.yul\":27651:27657   */\n      dup5\n        /* \"#utility.yul\":27648:27725   */\n      iszero\n      tag_646\n      jumpi\n        /* \"#utility.yul\":27700:27709   */\n      dup3\n        /* \"#utility.yul\":27695:27698   */\n      dup8\n        /* \"#utility.yul\":27691:27710   */\n      add\n        /* \"#utility.yul\":27685:27711   */\n      mload\n        /* \"#utility.yul\":27676:27711   */\n      swap1\n      pop\n        /* \"#utility.yul\":27648:27725   */\n    tag_646:\n        /* \"#utility.yul\":27751:27818   */\n      tag_647\n        /* \"#utility.yul\":27811:27817   */\n      dup6\n        /* \"#utility.yul\":27804:27809   */\n      dup3\n        /* \"#utility.yul\":27751:27818   */\n      tag_403\n      jump\t// in\n    tag_647:\n        /* \"#utility.yul\":27745:27749   */\n      dup7\n        /* \"#utility.yul\":27738:27819   */\n      sstore\n        /* \"#utility.yul\":27607:27829   */\n      pop\n        /* \"#utility.yul\":26942:27829   */\n      jump(tag_644)\n        /* \"#utility.yul\":26972:27590   */\n    tag_645:\n        /* \"#utility.yul\":27024:27028   */\n      0x1f\n        /* \"#utility.yul\":27020:27029   */\n      not\n        /* \"#utility.yul\":27012:27018   */\n      dup5\n        /* \"#utility.yul\":27008:27030   */\n      and\n        /* \"#utility.yul\":27058:27095   */\n      tag_648\n        /* \"#utility.yul\":27090:27094   */\n      dup7\n        /* \"#utility.yul\":27058:27095   */\n      tag_389\n      jump\t// in\n    tag_648:\n        /* \"#utility.yul\":27117:27118   */\n      0x00\n        /* \"#utility.yul\":27131:27339   */\n    tag_649:\n        /* \"#utility.yul\":27145:27152   */\n      dup3\n        /* \"#utility.yul\":27142:27143   */\n      dup2\n        /* \"#utility.yul\":27139:27153   */\n      lt\n        /* \"#utility.yul\":27131:27339   */\n      iszero\n      tag_651\n      jumpi\n        /* \"#utility.yul\":27224:27233   */\n      dup5\n        /* \"#utility.yul\":27219:27222   */\n      dup10\n        /* \"#utility.yul\":27215:27234   */\n      add\n        /* \"#utility.yul\":27209:27235   */\n      mload\n        /* \"#utility.yul\":27201:27207   */\n      dup3\n        /* \"#utility.yul\":27194:27236   */\n      sstore\n        /* \"#utility.yul\":27275:27276   */\n      0x01\n        /* \"#utility.yul\":27267:27273   */\n      dup3\n        /* \"#utility.yul\":27263:27277   */\n      add\n        /* \"#utility.yul\":27253:27277   */\n      swap2\n      pop\n        /* \"#utility.yul\":27322:27324   */\n      0x20\n        /* \"#utility.yul\":27311:27320   */\n      dup6\n        /* \"#utility.yul\":27307:27325   */\n      add\n        /* \"#utility.yul\":27294:27325   */\n      swap5\n      pop\n        /* \"#utility.yul\":27168:27172   */\n      0x20\n        /* \"#utility.yul\":27165:27166   */\n      dup2\n        /* \"#utility.yul\":27161:27173   */\n      add\n        /* \"#utility.yul\":27156:27173   */\n      swap1\n      pop\n        /* \"#utility.yul\":27131:27339   */\n      jump(tag_649)\n    tag_651:\n        /* \"#utility.yul\":27367:27373   */\n      dup7\n        /* \"#utility.yul\":27358:27365   */\n      dup4\n        /* \"#utility.yul\":27355:27374   */\n      lt\n        /* \"#utility.yul\":27352:27531   */\n      iszero\n      tag_652\n      jumpi\n        /* \"#utility.yul\":27425:27434   */\n      dup5\n        /* \"#utility.yul\":27420:27423   */\n      dup10\n        /* \"#utility.yul\":27416:27435   */\n      add\n        /* \"#utility.yul\":27410:27436   */\n      mload\n        /* \"#utility.yul\":27468:27516   */\n      tag_653\n        /* \"#utility.yul\":27510:27514   */\n      0x1f\n        /* \"#utility.yul\":27502:27508   */\n      dup10\n        /* \"#utility.yul\":27498:27515   */\n      and\n        /* \"#utility.yul\":27487:27496   */\n      dup3\n        /* \"#utility.yul\":27468:27516   */\n      tag_402\n      jump\t// in\n    tag_653:\n        /* \"#utility.yul\":27460:27466   */\n      dup4\n        /* \"#utility.yul\":27453:27517   */\n      sstore\n        /* \"#utility.yul\":27375:27531   */\n      pop\n        /* \"#utility.yul\":27352:27531   */\n    tag_652:\n        /* \"#utility.yul\":27577:27578   */\n      0x01\n        /* \"#utility.yul\":27573:27574   */\n      0x02\n        /* \"#utility.yul\":27565:27571   */\n      dup9\n        /* \"#utility.yul\":27561:27575   */\n      mul\n        /* \"#utility.yul\":27557:27579   */\n      add\n        /* \"#utility.yul\":27551:27555   */\n      dup9\n        /* \"#utility.yul\":27544:27580   */\n      sstore\n        /* \"#utility.yul\":26979:27590   */\n      pop\n      pop\n      pop\n        /* \"#utility.yul\":26942:27829   */\n    tag_644:\n      pop\n        /* \"#utility.yul\":26532:27835   */\n      pop\n      pop\n      pop\n        /* \"#utility.yul\":26440:27835   */\n      pop\n      pop\n      jump\t// out\n        /* \"#utility.yul\":27841:28006   */\n    tag_404:\n        /* \"#utility.yul\":27981:27998   */\n      0x696e76616c696420616464726573730000000000000000000000000000000000\n        /* \"#utility.yul\":27977:27978   */\n      0x00\n        /* \"#utility.yul\":27969:27975   */\n      dup3\n        /* \"#utility.yul\":27965:27979   */\n      add\n        /* \"#utility.yul\":27958:27999   */\n      mstore\n        /* \"#utility.yul\":27841:28006   */\n      pop\n      jump\t// out\n        /* \"#utility.yul\":28012:28378   */\n    tag_405:\n        /* \"#utility.yul\":28154:28157   */\n      0x00\n        /* \"#utility.yul\":28175:28242   */\n      tag_656\n        /* \"#utility.yul\":28239:28241   */\n      0x0f\n        /* \"#utility.yul\":28234:28237   */\n      dup4\n        /* \"#utility.yul\":28175:28242   */\n      tag_378\n      jump\t// in\n    tag_656:\n        /* \"#utility.yul\":28168:28242   */\n      swap2\n      pop\n        /* \"#utility.yul\":28251:28344   */\n      tag_657\n        /* \"#utility.yul\":28340:28343   */\n      dup3\n        /* \"#utility.yul\":28251:28344   */\n      tag_404\n      jump\t// in\n    tag_657:\n        /* \"#utility.yul\":28369:28371   */\n      0x20\n        /* \"#utility.yul\":28364:28367   */\n      dup3\n        /* \"#utility.yul\":28360:28372   */\n      add\n        /* \"#utility.yul\":28353:28372   */\n      swap1\n      pop\n        /* \"#utility.yul\":28012:28378   */\n      swap2\n      swap1\n      pop\n      jump\t// out\n        /* \"#utility.yul\":28384:28803   */\n    tag_174:\n        /* \"#utility.yul\":28550:28554   */\n      0x00\n        /* \"#utility.yul\":28588:28590   */\n      0x20\n        /* \"#utility.yul\":28577:28586   */\n      dup3\n        /* \"#utility.yul\":28573:28591   */\n      add\n        /* \"#utility.yul\":28565:28591   */\n      swap1\n      pop\n        /* \"#utility.yul\":28637:28646   */\n      dup2\n        /* \"#utility.yul\":28631:28635   */\n      dup2\n        /* \"#utility.yul\":28627:28647   */\n      sub\n        /* \"#utility.yul\":28623:28624   */\n      0x00\n        /* \"#utility.yul\":28612:28621   */\n      dup4\n        /* \"#utility.yul\":28608:28625   */\n      add\n        /* \"#utility.yul\":28601:28648   */\n      mstore\n        /* \"#utility.yul\":28665:28796   */\n      tag_659\n        /* \"#utility.yul\":28791:28795   */\n      dup2\n        /* \"#utility.yul\":28665:28796   */\n      tag_405\n      jump\t// in\n    tag_659:\n        /* \"#utility.yul\":28657:28796   */\n      swap1\n      pop\n        /* \"#utility.yul\":28384:28803   */\n      swap2\n      swap1\n      pop\n      jump\t// out\n        /* \"#utility.yul\":28809:29000   */\n    tag_258:\n        /* \"#utility.yul\":28849:28852   */\n      0x00\n        /* \"#utility.yul\":28868:28888   */\n      tag_661\n        /* \"#utility.yul\":28886:28887   */\n      dup3\n        /* \"#utility.yul\":28868:28888   */\n      tag_343\n      jump\t// in\n    tag_661:\n        /* \"#utility.yul\":28863:28888   */\n      swap2\n      pop\n        /* \"#utility.yul\":28902:28922   */\n      tag_662\n        /* \"#utility.yul\":28920:28921   */\n      dup4\n        /* \"#utility.yul\":28902:28922   */\n      tag_343\n      jump\t// in\n    tag_662:\n        /* \"#utility.yul\":28897:28922   */\n      swap3\n      pop\n        /* \"#utility.yul\":28945:28946   */\n      dup3\n        /* \"#utility.yul\":28942:28943   */\n      dup3\n        /* \"#utility.yul\":28938:28947   */\n      add\n        /* \"#utility.yul\":28931:28947   */\n      swap1\n      pop\n        /* \"#utility.yul\":28966:28969   */\n      dup1\n        /* \"#utility.yul\":28963:28964   */\n      dup3\n        /* \"#utility.yul\":28960:28970   */\n      gt\n        /* \"#utility.yul\":28957:28993   */\n      iszero\n      tag_663\n      jumpi\n        /* \"#utility.yul\":28973:28991   */\n      tag_664\n      tag_383\n      jump\t// in\n    tag_664:\n        /* \"#utility.yul\":28957:28993   */\n    tag_663:\n        /* \"#utility.yul\":28809:29000   */\n      swap3\n      swap2\n      pop\n      pop\n      jump\t// out\n        /* \"#utility.yul\":29006:29170   */\n    tag_406:\n        /* \"#utility.yul\":29146:29162   */\n      0x6e6f207375636820626f61726421000000000000000000000000000000000000\n        /* \"#utility.yul\":29142:29143   */\n      0x00\n        /* \"#utility.yul\":29134:29140   */\n      dup3\n        /* \"#utility.yul\":29130:29144   */\n      add\n        /* \"#utility.yul\":29123:29163   */\n      mstore\n        /* \"#utility.yul\":29006:29170   */\n      pop\n      jump\t// out\n        /* \"#utility.yul\":29176:29542   */\n    tag_407:\n        /* \"#utility.yul\":29318:29321   */\n      0x00\n        /* \"#utility.yul\":29339:29406   */\n      tag_667\n        /* \"#utility.yul\":29403:29405   */\n      0x0e\n        /* \"#utility.yul\":29398:29401   */\n      dup4\n        /* \"#utility.yul\":29339:29406   */\n      tag_378\n      jump\t// in\n    tag_667:\n        /* \"#utility.yul\":29332:29406   */\n      swap2\n      pop\n        /* \"#utility.yul\":29415:29508   */\n      tag_668\n        /* \"#utility.yul\":29504:29507   */\n      dup3\n        /* \"#utility.yul\":29415:29508   */\n      tag_406\n      jump\t// in\n    tag_668:\n        /* \"#utility.yul\":29533:29535   */\n      0x20\n        /* \"#utility.yul\":29528:29531   */\n      dup3\n        /* \"#utility.yul\":29524:29536   */\n      add\n        /* \"#utility.yul\":29517:29536   */\n      swap1\n      pop\n        /* \"#utility.yul\":29176:29542   */\n      swap2\n      swap1\n      pop\n      jump\t// out\n        /* \"#utility.yul\":29548:29967   */\n    tag_271:\n        /* \"#utility.yul\":29714:29718   */\n      0x00\n        /* \"#utility.yul\":29752:29754   */\n      0x20\n        /* \"#utility.yul\":29741:29750   */\n      dup3\n        /* \"#utility.yul\":29737:29755   */\n      add\n        /* \"#utility.yul\":29729:29755   */\n      swap1\n      pop\n        /* \"#utility.yul\":29801:29810   */\n      dup2\n        /* \"#utility.yul\":29795:29799   */\n      dup2\n        /* \"#utility.yul\":29791:29811   */\n      sub\n        /* \"#utility.yul\":29787:29788   */\n      0x00\n        /* \"#utility.yul\":29776:29785   */\n      dup4\n        /* \"#utility.yul\":29772:29789   */\n      add\n        /* \"#utility.yul\":29765:29812   */\n      mstore\n        /* \"#utility.yul\":29829:29960   */\n      tag_670\n        /* \"#utility.yul\":29955:29959   */\n      dup2\n        /* \"#utility.yul\":29829:29960   */\n      tag_407\n      jump\t// in\n    tag_670:\n        /* \"#utility.yul\":29821:29960   */\n      swap1\n      pop\n        /* \"#utility.yul\":29548:29967   */\n      swap2\n      swap1\n      pop\n      jump\t// out\n        /* \"#utility.yul\":29973:30145   */\n    tag_408:\n        /* \"#utility.yul\":30113:30137   */\n      0x5468697320626f61726420686173206578706972656400000000000000000000\n        /* \"#utility.yul\":30109:30110   */\n      0x00\n        /* \"#utility.yul\":30101:30107   */\n      dup3\n        /* \"#utility.yul\":30097:30111   */\n      add\n        /* \"#utility.yul\":30090:30138   */\n      mstore\n        /* \"#utility.yul\":29973:30145   */\n      pop\n      jump\t// out\n        /* \"#utility.yul\":30151:30517   */\n    tag_409:\n        /* \"#utility.yul\":30293:30296   */\n      0x00\n        /* \"#utility.yul\":30314:30381   */\n      tag_673\n        /* \"#utility.yul\":30378:30380   */\n      0x16\n        /* \"#utility.yul\":30373:30376   */\n      dup4\n        /* \"#utility.yul\":30314:30381   */\n      tag_378\n      jump\t// in\n    tag_673:\n        /* \"#utility.yul\":30307:30381   */\n      swap2\n      pop\n        /* \"#utility.yul\":30390:30483   */\n      tag_674\n        /* \"#utility.yul\":30479:30482   */\n      dup3\n        /* \"#utility.yul\":30390:30483   */\n      tag_408\n      jump\t// in\n    tag_674:\n        /* \"#utility.yul\":30508:30510   */\n      0x20\n        /* \"#utility.yul\":30503:30506   */\n      dup3\n        /* \"#utility.yul\":30499:30511   */\n      add\n        /* \"#utility.yul\":30492:30511   */\n      swap1\n      pop\n        /* \"#utility.yul\":30151:30517   */\n      swap2\n      swap1\n      pop\n      jump\t// out\n        /* \"#utility.yul\":30523:30942   */\n    tag_279:\n        /* \"#utility.yul\":30689:30693   */\n      0x00\n        /* \"#utility.yul\":30727:30729   */\n      0x20\n        /* \"#utility.yul\":30716:30725   */\n      dup3\n        /* \"#utility.yul\":30712:30730   */\n      add\n        /* \"#utility.yul\":30704:30730   */\n      swap1\n      pop\n        /* \"#utility.yul\":30776:30785   */\n      dup2\n        /* \"#utility.yul\":30770:30774   */\n      dup2\n        /* \"#utility.yul\":30766:30786   */\n      sub\n        /* \"#utility.yul\":30762:30763   */\n      0x00\n        /* \"#utility.yul\":30751:30760   */\n      dup4\n        /* \"#utility.yul\":30747:30764   */\n      add\n        /* \"#utility.yul\":30740:30787   */\n      mstore\n        /* \"#utility.yul\":30804:30935   */\n      tag_676\n        /* \"#utility.yul\":30930:30934   */\n      dup2\n        /* \"#utility.yul\":30804:30935   */\n      tag_409\n      jump\t// in\n    tag_676:\n        /* \"#utility.yul\":30796:30935   */\n      swap1\n      pop\n        /* \"#utility.yul\":30523:30942   */\n      swap2\n      swap1\n      pop\n      jump\t// out\n\n    auxdata: 0xa2646970667358221220a50eeee3f1a42f2d36d3e8285a904d1ca68a6d17f676a58b63c9f27087f1797f64736f6c63430008180033\n}\n",
				"bytecode": {
					"linkReferences": {},
					"object": "608060405234801561000f575f80fd5b505f6001819055505f805f6101000a81548160ff021916908315150217905550612ea38061003c5f395ff3fe608060405234801561000f575f80fd5b50600436106100b2575f3560e01c8063a57207701161006f578063a572077014610193578063ac467355146101b1578063ac62f566146101e1578063c985e77314610214578063d1fb28bb14610230578063e436005514610260576100b2565b80630f0e609c146100b65780632277c26f146100d45780633276be61146100f2578063334576d91461010e5780635488d56b1461012c5780639a7083f91461015c575b5f80fd5b6100be610290565b6040516100cb9190612229565b60405180910390f35b6100dc61063c565b6040516100e99190612258565b60405180910390f35b61010c6004803603810190610107919061232e565b610642565b005b61011661095c565b6040516101239190612229565b60405180910390f35b61014660048036038101906101419190612405565b610d0a565b604051610153919061254b565b60405180910390f35b6101766004803603810190610171919061256b565b610f09565b60405161018a9897969594939291906125fc565b60405180910390f35b61019b611119565b6040516101a8919061268d565b60405180910390f35b6101cb60048036038101906101c6919061256b565b611129565b6040516101d8919061254b565b60405180910390f35b6101fb60048036038101906101f6919061256b565b61137c565b60405161020b94939291906126a6565b60405180910390f35b61022e600480360381019061022991906126f0565b61145c565b005b61024a6004803603810190610245919061256b565b61180e565b604051610257919061282f565b60405180910390f35b61027a60048036038101906102759190612405565b611af5565b6040516102879190612229565b60405180910390f35b60605f805f90505b6004805490508110156102f357600481815481106102b9576102b861284f565b5b905f5260205f2090600802016007015f9054906101000a900460ff166102e657816102e3906128a9565b91505b8080600101915050610298565b505f8167ffffffffffffffff81111561030f5761030e6128f0565b5b60405190808252806020026020018201604052801561034857816020015b610335611f25565b81526020019060019003908161032d5790505b5090505f805f90505b60048054905081101561063257600481815481106103725761037161284f565b5b905f5260205f2090600802016007015f9054906101000a900460ff1661062557600481815481106103a6576103a561284f565b5b905f5260205f209060080201604051806101000160405290815f82015481526020016001820180546103d79061294a565b80601f01602080910402602001604051908101604052809291908181526020018280546104039061294a565b801561044e5780601f106104255761010080835404028352916020019161044e565b820191905f5260205f20905b81548152906001019060200180831161043157829003601f168201915b505050505081526020016002820180546104679061294a565b80601f01602080910402602001604051908101604052809291908181526020018280546104939061294a565b80156104de5780601f106104b5576101008083540402835291602001916104de565b820191905f5260205f20905b8154815290600101906020018083116104c157829003601f168201915b50505050508152602001600382015f9054906101000a900473ffffffffffffffffffffffffffffffffffffffff1673ffffffffffffffffffffffffffffffffffffffff1673ffffffffffffffffffffffffffffffffffffffff16815260200160048201805461054c9061294a565b80601f01602080910402602001604051908101604052809291908181526020018280546105789061294a565b80156105c35780601f1061059a576101008083540402835291602001916105c3565b820191905f5260205f20905b8154815290600101906020018083116105a657829003601f168201915b505050505081526020016005820154815260200160068201548152602001600782015f9054906101000a900460ff161515151581525050838380610606906128a9565b9450815181106106195761061861284f565b5b60200260200101819052505b8080600101915050610351565b5081935050505090565b60015481565b5f73ffffffffffffffffffffffffffffffffffffffff168673ffffffffffffffffffffffffffffffffffffffff16036106b0576040517f08c379a00000000000000000000000000000000000000000000000000000000081526004016106a7906129c4565b60405180910390fd5b5f8054906101000a900460ff16156106fd576040517f08c379a00000000000000000000000000000000000000000000000000000000081526004016106f490612a78565b60405180910390fd5b60015f806101000a81548160ff0219169083151502179055505f604051806101000160405280600154815260200187878080601f0160208091040260200160405190810160405280939291908181526020018383808284375f81840152601f19601f82011690508083019250505050505050815260200185858080601f0160208091040260200160405190810160405280939291908181526020018383808284375f81840152601f19601f8201169050808301925050505050505081526020018873ffffffffffffffffffffffffffffffffffffffff1681526020018a8a8080601f0160208091040260200160405190810160405280939291908181526020018383808284375f81840152601f19601f8201169050808301925050505050505081526020018381526020015f81526020015f1515815250905060015f8154610844906128a9565b91905081905550600481908060018154018082558091505060019003905f5260205f2090600802015f909190919091505f820151815f015560208201518160010190816108919190612c33565b5060408201518160020190816108a79190612c33565b506060820151816003015f6101000a81548173ffffffffffffffffffffffffffffffffffffffff021916908373ffffffffffffffffffffffffffffffffffffffff16021790555060808201518160040190816109039190612c33565b5060a0820151816005015560c0820151816006015560e0820151816007015f6101000a81548160ff02191690831515021790555050505f805f6101000a81548160ff021916908315150217905550505050505050505050565b60605f805f90505b6004805490508110156109c057600481815481106109855761098461284f565b5b905f5260205f2090600802016007015f9054906101000a900460ff16156109b357816109b0906128a9565b91505b8080600101915050610964565b505f8167ffffffffffffffff8111156109dc576109db6128f0565b5b604051908082528060200260200182016040528015610a1557816020015b610a02611f25565b8152602001906001900390816109fa5790505b5090505f805f90505b600480549050811015610d005760048181548110610a3f57610a3e61284f565b5b905f5260205f2090600802016007015f9054906101000a900460ff1615610cf35760048181548110610a7457610a7361284f565b5b905f5260205f209060080201604051806101000160405290815f8201548152602001600182018054610aa59061294a565b80601f0160208091040260200160405190810160405280929190818152602001828054610ad19061294a565b8015610b1c5780601f10610af357610100808354040283529160200191610b1c565b820191905f5260205f20905b815481529060010190602001808311610aff57829003601f168201915b50505050508152602001600282018054610b359061294a565b80601f0160208091040260200160405190810160405280929190818152602001828054610b619061294a565b8015610bac5780601f10610b8357610100808354040283529160200191610bac565b820191905f5260205f20905b815481529060010190602001808311610b8f57829003601f168201915b50505050508152602001600382015f9054906101000a900473ffffffffffffffffffffffffffffffffffffffff1673ffffffffffffffffffffffffffffffffffffffff1673ffffffffffffffffffffffffffffffffffffffff168152602001600482018054610c1a9061294a565b80601f0160208091040260200160405190810160405280929190818152602001828054610c469061294a565b8015610c915780601f10610c6857610100808354040283529160200191610c91565b820191905f5260205f20905b815481529060010190602001808311610c7457829003601f168201915b505050505081526020016005820154815260200160068201548152602001600782015f9054906101000a900460ff161515151581525050838380610cd4906128a9565b945081518110610ce757610ce661284f565b5b60200260200101819052505b8080600101915050610a1e565b5081935050505090565b60605f73ffffffffffffffffffffffffffffffffffffffff168273ffffffffffffffffffffffffffffffffffffffff1603610d7a576040517f08c379a0000000000000000000000000000000000000000000000000000000008152600401610d7190612d4c565b60405180910390fd5b60025f8373ffffffffffffffffffffffffffffffffffffffff1673ffffffffffffffffffffffffffffffffffffffff1681526020019081526020015f20805480602002602001604051908101604052809291908181526020015f905b82821015610efe578382905f5260205f2090600402016040518060800160405290815f8201548152602001600182018054610e109061294a565b80601f0160208091040260200160405190810160405280929190818152602001828054610e3c9061294a565b8015610e875780601f10610e5e57610100808354040283529160200191610e87565b820191905f5260205f20905b815481529060010190602001808311610e6a57829003601f168201915b50505050508152602001600282015f9054906101000a900473ffffffffffffffffffffffffffffffffffffffff1673ffffffffffffffffffffffffffffffffffffffff1673ffffffffffffffffffffffffffffffffffffffff16815260200160038201548152505081526020019060010190610dd6565b505050509050919050565b60048181548110610f18575f80fd5b905f5260205f2090600802015f91509050805f015490806001018054610f3d9061294a565b80601f0160208091040260200160405190810160405280929190818152602001828054610f699061294a565b8015610fb45780601f10610f8b57610100808354040283529160200191610fb4565b820191905f5260205f20905b815481529060010190602001808311610f9757829003601f168201915b505050505090806002018054610fc99061294a565b80601f0160208091040260200160405190810160405280929190818152602001828054610ff59061294a565b80156110405780601f1061101757610100808354040283529160200191611040565b820191905f5260205f20905b81548152906001019060200180831161102357829003601f168201915b505050505090806003015f9054906101000a900473ffffffffffffffffffffffffffffffffffffffff169080600401805461107a9061294a565b80601f01602080910402602001604051908101604052809291908181526020018280546110a69061294a565b80156110f15780601f106110c8576101008083540402835291602001916110f1565b820191905f5260205f20905b8154815290600101906020018083116110d457829003601f168201915b505050505090806005015490806006015490806007015f9054906101000a900460ff16905088565b5f8054906101000a900460ff1681565b60605f805f90505b6003805490508110156111815783600382815481106111535761115261284f565b5b905f5260205f2090600402015f0154036111745781611171906128a9565b91505b8080600101915050611131565b505f8167ffffffffffffffff81111561119d5761119c6128f0565b5b6040519080825280602002602001820160405280156111d657816020015b6111c3611f7d565b8152602001906001900390816111bb5790505b5090505f805f90505b6003805490508110156113705785600382815481106112015761120061284f565b5b905f5260205f2090600402015f01540361136357600381815481106112295761122861284f565b5b905f5260205f2090600402016040518060800160405290815f82015481526020016001820180546112599061294a565b80601f01602080910402602001604051908101604052809291908181526020018280546112859061294a565b80156112d05780601f106112a7576101008083540402835291602001916112d0565b820191905f5260205f20905b8154815290600101906020018083116112b357829003601f168201915b50505050508152602001600282015f9054906101000a900473ffffffffffffffffffffffffffffffffffffffff1673ffffffffffffffffffffffffffffffffffffffff1673ffffffffffffffffffffffffffffffffffffffff168152602001600382015481525050838380611344906128a9565b9450815181106113575761135661284f565b5b60200260200101819052505b80806001019150506111df565b50819350505050919050565b6003818154811061138b575f80fd5b905f5260205f2090600402015f91509050805f0154908060010180546113b09061294a565b80601f01602080910402602001604051908101604052809291908181526020018280546113dc9061294a565b80156114275780601f106113fe57610100808354040283529160200191611427565b820191905f5260205f20905b81548152906001019060200180831161140a57829003601f168201915b505050505090806002015f9054906101000a900473ffffffffffffffffffffffffffffffffffffffff16908060030154905084565b5f73ffffffffffffffffffffffffffffffffffffffff168273ffffffffffffffffffffffffffffffffffffffff16036114ca576040517f08c379a00000000000000000000000000000000000000000000000000000000081526004016114c190612d4c565b60405180910390fd5b5f604051806080016040528087815260200186868080601f0160208091040260200160405190810160405280939291908181526020018383808284375f81840152601f19601f8201169050808301925050505050505081526020018473ffffffffffffffffffffffffffffffffffffffff168152602001838152509050600381908060018154018082558091505060019003905f5260205f2090600402015f909190919091505f820151815f0155602082015181600101908161158d9190612c33565b506040820151816002015f6101000a81548173ffffffffffffffffffffffffffffffffffffffff021916908373ffffffffffffffffffffffffffffffffffffffff16021790555060608201518160030155505060025f8473ffffffffffffffffffffffffffffffffffffffff1673ffffffffffffffffffffffffffffffffffffffff1681526020019081526020015f2081908060018154018082558091505060019003905f5260205f2090600402015f909190919091505f820151815f015560208201518160010190816116619190612c33565b506040820151816002015f6101000a81548173ffffffffffffffffffffffffffffffffffffffff021916908373ffffffffffffffffffffffffffffffffffffffff1602179055506060820151816003015550505f5b6004805490508110156117be5786600482815481106116d8576116d761284f565b5b905f5260205f2090600802015f0154036117b35782600482815481106117015761170061284f565b5b905f5260205f2090600802016006015f82825461171e9190612d6a565b92505081905550600481815481106117395761173861284f565b5b905f5260205f209060080201600501546004828154811061175d5761175c61284f565b5b905f5260205f20906008020160060154106117ae576001600482815481106117885761178761284f565b5b905f5260205f2090600802016007015f6101000a81548160ff0219169083151502179055505b6117be565b8060010190506116b6565b6004805490508110611805576040517f08c379a00000000000000000000000000000000000000000000000000000000081526004016117fc90612de7565b60405180910390fd5b50505050505050565b611816611f25565b6004828154811061182a5761182961284f565b5b905f5260205f2090600802016007015f9054906101000a900460ff1615611886576040517f08c379a000000000000000000000000000000000000000000000000000000000815260040161187d90612e4f565b60405180910390fd5b6004828154811061189a5761189961284f565b5b905f5260205f209060080201604051806101000160405290815f82015481526020016001820180546118cb9061294a565b80601f01602080910402602001604051908101604052809291908181526020018280546118f79061294a565b80156119425780601f1061191957610100808354040283529160200191611942565b820191905f5260205f20905b81548152906001019060200180831161192557829003601f168201915b5050505050815260200160028201805461195b9061294a565b80601f01602080910402602001604051908101604052809291908181526020018280546119879061294a565b80156119d25780601f106119a9576101008083540402835291602001916119d2565b820191905f5260205f20905b8154815290600101906020018083116119b557829003601f168201915b50505050508152602001600382015f9054906101000a900473ffffffffffffffffffffffffffffffffffffffff1673ffffffffffffffffffffffffffffffffffffffff1673ffffffffffffffffffffffffffffffffffffffff168152602001600482018054611a409061294a565b80601f0160208091040260200160405190810160405280929190818152602001828054611a6c9061294a565b8015611ab75780601f10611a8e57610100808354040283529160200191611ab7565b820191905f5260205f20905b815481529060010190602001808311611a9a57829003601f168201915b505050505081526020016005820154815260200160068201548152602001600782015f9054906101000a900460ff1615151515815250509050919050565b60605f805f90505b600480549050811015611b99578373ffffffffffffffffffffffffffffffffffffffff1660048281548110611b3557611b3461284f565b5b905f5260205f2090600802016003015f9054906101000a900473ffffffffffffffffffffffffffffffffffffffff1673ffffffffffffffffffffffffffffffffffffffff1603611b8c5781611b89906128a9565b91505b8080600101915050611afd565b505f8167ffffffffffffffff811115611bb557611bb46128f0565b5b604051908082528060200260200182016040528015611bee57816020015b611bdb611f25565b815260200190600190039081611bd35790505b5090505f805f90505b600480549050811015611f19578573ffffffffffffffffffffffffffffffffffffffff1660048281548110611c2f57611c2e61284f565b5b905f5260205f2090600802016003015f9054906101000a900473ffffffffffffffffffffffffffffffffffffffff1673ffffffffffffffffffffffffffffffffffffffff1603611f0c5760048181548110611c8d57611c8c61284f565b5b905f5260205f209060080201604051806101000160405290815f8201548152602001600182018054611cbe9061294a565b80601f0160208091040260200160405190810160405280929190818152602001828054611cea9061294a565b8015611d355780601f10611d0c57610100808354040283529160200191611d35565b820191905f5260205f20905b815481529060010190602001808311611d1857829003601f168201915b50505050508152602001600282018054611d4e9061294a565b80601f0160208091040260200160405190810160405280929190818152602001828054611d7a9061294a565b8015611dc55780601f10611d9c57610100808354040283529160200191611dc5565b820191905f5260205f20905b815481529060010190602001808311611da857829003601f168201915b50505050508152602001600382015f9054906101000a900473ffffffffffffffffffffffffffffffffffffffff1673ffffffffffffffffffffffffffffffffffffffff1673ffffffffffffffffffffffffffffffffffffffff168152602001600482018054611e339061294a565b80601f0160208091040260200160405190810160405280929190818152602001828054611e5f9061294a565b8015611eaa5780601f10611e8157610100808354040283529160200191611eaa565b820191905f5260205f20905b815481529060010190602001808311611e8d57829003601f168201915b505050505081526020016005820154815260200160068201548152602001600782015f9054906101000a900460ff161515151581525050838380611eed906128a9565b945081518110611f0057611eff61284f565b5b60200260200101819052505b8080600101915050611bf7565b50819350505050919050565b6040518061010001604052805f815260200160608152602001606081526020015f73ffffffffffffffffffffffffffffffffffffffff168152602001606081526020015f81526020015f81526020015f151581525090565b60405180608001604052805f8152602001606081526020015f73ffffffffffffffffffffffffffffffffffffffff1681526020015f81525090565b5f81519050919050565b5f82825260208201905092915050565b5f819050602082019050919050565b5f819050919050565b611ff381611fe1565b82525050565b5f81519050919050565b5f82825260208201905092915050565b5f5b83811015612030578082015181840152602081019050612015565b5f8484015250505050565b5f601f19601f8301169050919050565b5f61205582611ff9565b61205f8185612003565b935061206f818560208601612013565b6120788161203b565b840191505092915050565b5f73ffffffffffffffffffffffffffffffffffffffff82169050919050565b5f6120ac82612083565b9050919050565b6120bc816120a2565b82525050565b5f8115159050919050565b6120d6816120c2565b82525050565b5f61010083015f8301516120f25f860182611fea565b506020830151848203602086015261210a828261204b565b91505060408301518482036040860152612124828261204b565b915050606083015161213960608601826120b3565b5060808301518482036080860152612151828261204b565b91505060a083015161216660a0860182611fea565b5060c083015161217960c0860182611fea565b5060e083015161218c60e08601826120cd565b508091505092915050565b5f6121a283836120dc565b905092915050565b5f602082019050919050565b5f6121c082611fb8565b6121ca8185611fc2565b9350836020820285016121dc85611fd2565b805f5b8581101561221757848403895281516121f88582612197565b9450612203836121aa565b925060208a019950506001810190506121df565b50829750879550505050505092915050565b5f6020820190508181035f83015261224181846121b6565b905092915050565b61225281611fe1565b82525050565b5f60208201905061226b5f830184612249565b92915050565b5f80fd5b5f80fd5b5f80fd5b5f80fd5b5f80fd5b5f8083601f84011261229a57612299612279565b5b8235905067ffffffffffffffff8111156122b7576122b661227d565b5b6020830191508360018202830111156122d3576122d2612281565b5b9250929050565b6122e3816120a2565b81146122ed575f80fd5b50565b5f813590506122fe816122da565b92915050565b61230d81611fe1565b8114612317575f80fd5b50565b5f8135905061232881612304565b92915050565b5f805f805f805f8060a0898b03121561234a57612349612271565b5b5f89013567ffffffffffffffff81111561236757612366612275565b5b6123738b828c01612285565b985098505060206123868b828c016122f0565b965050604089013567ffffffffffffffff8111156123a7576123a6612275565b5b6123b38b828c01612285565b9550955050606089013567ffffffffffffffff8111156123d6576123d5612275565b5b6123e28b828c01612285565b935093505060806123f58b828c0161231a565b9150509295985092959890939650565b5f6020828403121561241a57612419612271565b5b5f612427848285016122f0565b91505092915050565b5f81519050919050565b5f82825260208201905092915050565b5f819050602082019050919050565b5f608083015f83015161246e5f860182611fea565b5060208301518482036020860152612486828261204b565b915050604083015161249b60408601826120b3565b5060608301516124ae6060860182611fea565b508091505092915050565b5f6124c48383612459565b905092915050565b5f602082019050919050565b5f6124e282612430565b6124ec818561243a565b9350836020820285016124fe8561244a565b805f5b85811015612539578484038952815161251a85826124b9565b9450612525836124cc565b925060208a01995050600181019050612501565b50829750879550505050505092915050565b5f6020820190508181035f83015261256381846124d8565b905092915050565b5f602082840312156125805761257f612271565b5b5f61258d8482850161231a565b91505092915050565b5f82825260208201905092915050565b5f6125b082611ff9565b6125ba8185612596565b93506125ca818560208601612013565b6125d38161203b565b840191505092915050565b6125e7816120a2565b82525050565b6125f6816120c2565b82525050565b5f610100820190506126105f83018b612249565b8181036020830152612622818a6125a6565b9050818103604083015261263681896125a6565b905061264560608301886125de565b818103608083015261265781876125a6565b905061266660a0830186612249565b61267360c0830185612249565b61268060e08301846125ed565b9998505050505050505050565b5f6020820190506126a05f8301846125ed565b92915050565b5f6080820190506126b95f830187612249565b81810360208301526126cb81866125a6565b90506126da60408301856125de565b6126e76060830184612249565b95945050505050565b5f805f805f6080868803121561270957612708612271565b5b5f6127168882890161231a565b955050602086013567ffffffffffffffff81111561273757612736612275565b5b61274388828901612285565b94509450506040612756888289016122f0565b92505060606127678882890161231a565b9150509295509295909350565b5f61010083015f83015161278a5f860182611fea565b50602083015184820360208601526127a2828261204b565b915050604083015184820360408601526127bc828261204b565b91505060608301516127d160608601826120b3565b50608083015184820360808601526127e9828261204b565b91505060a08301516127fe60a0860182611fea565b5060c083015161281160c0860182611fea565b5060e083015161282460e08601826120cd565b508091505092915050565b5f6020820190508181035f8301526128478184612774565b905092915050565b7f4e487b71000000000000000000000000000000000000000000000000000000005f52603260045260245ffd5b7f4e487b71000000000000000000000000000000000000000000000000000000005f52601160045260245ffd5b5f6128b382611fe1565b91507fffffffffffffffffffffffffffffffffffffffffffffffffffffffffffffffff82036128e5576128e461287c565b5b600182019050919050565b7f4e487b71000000000000000000000000000000000000000000000000000000005f52604160045260245ffd5b7f4e487b71000000000000000000000000000000000000000000000000000000005f52602260045260245ffd5b5f600282049050600182168061296157607f821691505b6020821081036129745761297361291d565b5b50919050565b7f696e76616c696420686f737420616464726573730000000000000000000000005f82015250565b5f6129ae601483612596565b91506129b98261297a565b602082019050919050565b5f6020820190508181035f8301526129db816129a2565b9050919050565b7f536f7272792c20736f6d656f6e65206973206372656174696e672074686520625f8201527f6f6172642e20506c65617320776169742061206d696e75746520616e6420726560208201527f7065617400000000000000000000000000000000000000000000000000000000604082015250565b5f612a62604483612596565b9150612a6d826129e2565b606082019050919050565b5f6020820190508181035f830152612a8f81612a56565b9050919050565b5f819050815f5260205f209050919050565b5f6020601f8301049050919050565b5f82821b905092915050565b5f60088302612af27fffffffffffffffffffffffffffffffffffffffffffffffffffffffffffffffff82612ab7565b612afc8683612ab7565b95508019841693508086168417925050509392505050565b5f819050919050565b5f612b37612b32612b2d84611fe1565b612b14565b611fe1565b9050919050565b5f819050919050565b612b5083612b1d565b612b64612b5c82612b3e565b848454612ac3565b825550505050565b5f90565b612b78612b6c565b612b83818484612b47565b505050565b5b81811015612ba657612b9b5f82612b70565b600181019050612b89565b5050565b601f821115612beb57612bbc81612a96565b612bc584612aa8565b81016020851015612bd4578190505b612be8612be085612aa8565b830182612b88565b50505b505050565b5f82821c905092915050565b5f612c0b5f1984600802612bf0565b1980831691505092915050565b5f612c238383612bfc565b9150826002028217905092915050565b612c3c82611ff9565b67ffffffffffffffff811115612c5557612c546128f0565b5b612c5f825461294a565b612c6a828285612baa565b5f60209050601f831160018114612c9b575f8415612c89578287015190505b612c938582612c18565b865550612cfa565b601f198416612ca986612a96565b5f5b82811015612cd057848901518255600182019150602085019450602081019050612cab565b86831015612ced5784890151612ce9601f891682612bfc565b8355505b6001600288020188555050505b505050505050565b7f696e76616c6964206164647265737300000000000000000000000000000000005f82015250565b5f612d36600f83612596565b9150612d4182612d02565b602082019050919050565b5f6020820190508181035f830152612d6381612d2a565b9050919050565b5f612d7482611fe1565b9150612d7f83611fe1565b9250828201905080821115612d9757612d9661287c565b5b92915050565b7f6e6f207375636820626f617264210000000000000000000000000000000000005f82015250565b5f612dd1600e83612596565b9150612ddc82612d9d565b602082019050919050565b5f6020820190508181035f830152612dfe81612dc5565b9050919050565b7f5468697320626f617264206861732065787069726564000000000000000000005f82015250565b5f612e39601683612596565b9150612e4482612e05565b602082019050919050565b5f6020820190508181035f830152612e6681612e2d565b905091905056fea2646970667358221220a50eeee3f1a42f2d36d3e8285a904d1ca68a6d17f676a58b63c9f27087f1797f64736f6c63430008180033",
					"opcodes": "PUSH1 0x80 PUSH1 0x40 MSTORE CALLVALUE DUP1 ISZERO PUSH2 0xF JUMPI PUSH0 DUP1 REVERT JUMPDEST POP PUSH0 PUSH1 0x1 DUP2 SWAP1 SSTORE POP PUSH0 DUP1 PUSH0 PUSH2 0x100 EXP DUP2 SLOAD DUP2 PUSH1 0xFF MUL NOT AND SWAP1 DUP4 ISZERO ISZERO MUL OR SWAP1 SSTORE POP PUSH2 0x2EA3 DUP1 PUSH2 0x3C PUSH0 CODECOPY PUSH0 RETURN INVALID PUSH1 0x80 PUSH1 0x40 MSTORE CALLVALUE DUP1 ISZERO PUSH2 0xF JUMPI PUSH0 DUP1 REVERT JUMPDEST POP PUSH1 0x4 CALLDATASIZE LT PUSH2 0xB2 JUMPI PUSH0 CALLDATALOAD PUSH1 0xE0 SHR DUP1 PUSH4 0xA5720770 GT PUSH2 0x6F JUMPI DUP1 PUSH4 0xA5720770 EQ PUSH2 0x193 JUMPI DUP1 PUSH4 0xAC467355 EQ PUSH2 0x1B1 JUMPI DUP1 PUSH4 0xAC62F566 EQ PUSH2 0x1E1 JUMPI DUP1 PUSH4 0xC985E773 EQ PUSH2 0x214 JUMPI DUP1 PUSH4 0xD1FB28BB EQ PUSH2 0x230 JUMPI DUP1 PUSH4 0xE4360055 EQ PUSH2 0x260 JUMPI PUSH2 0xB2 JUMP JUMPDEST DUP1 PUSH4 0xF0E609C EQ PUSH2 0xB6 JUMPI DUP1 PUSH4 0x2277C26F EQ PUSH2 0xD4 JUMPI DUP1 PUSH4 0x3276BE61 EQ PUSH2 0xF2 JUMPI DUP1 PUSH4 0x334576D9 EQ PUSH2 0x10E JUMPI DUP1 PUSH4 0x5488D56B EQ PUSH2 0x12C JUMPI DUP1 PUSH4 0x9A7083F9 EQ PUSH2 0x15C JUMPI JUMPDEST PUSH0 DUP1 REVERT JUMPDEST PUSH2 0xBE PUSH2 0x290 JUMP JUMPDEST PUSH1 0x40 MLOAD PUSH2 0xCB SWAP2 SWAP1 PUSH2 0x2229 JUMP JUMPDEST PUSH1 0x40 MLOAD DUP1 SWAP2 SUB SWAP1 RETURN JUMPDEST PUSH2 0xDC PUSH2 0x63C JUMP JUMPDEST PUSH1 0x40 MLOAD PUSH2 0xE9 SWAP2 SWAP1 PUSH2 0x2258 JUMP JUMPDEST PUSH1 0x40 MLOAD DUP1 SWAP2 SUB SWAP1 RETURN JUMPDEST PUSH2 0x10C PUSH1 0x4 DUP1 CALLDATASIZE SUB DUP2 ADD SWAP1 PUSH2 0x107 SWAP2 SWAP1 PUSH2 0x232E JUMP JUMPDEST PUSH2 0x642 JUMP JUMPDEST STOP JUMPDEST PUSH2 0x116 PUSH2 0x95C JUMP JUMPDEST PUSH1 0x40 MLOAD PUSH2 0x123 SWAP2 SWAP1 PUSH2 0x2229 JUMP JUMPDEST PUSH1 0x40 MLOAD DUP1 SWAP2 SUB SWAP1 RETURN JUMPDEST PUSH2 0x146 PUSH1 0x4 DUP1 CALLDATASIZE SUB DUP2 ADD SWAP1 PUSH2 0x141 SWAP2 SWAP1 PUSH2 0x2405 JUMP JUMPDEST PUSH2 0xD0A JUMP JUMPDEST PUSH1 0x40 MLOAD PUSH2 0x153 SWAP2 SWAP1 PUSH2 0x254B JUMP JUMPDEST PUSH1 0x40 MLOAD DUP1 SWAP2 SUB SWAP1 RETURN JUMPDEST PUSH2 0x176 PUSH1 0x4 DUP1 CALLDATASIZE SUB DUP2 ADD SWAP1 PUSH2 0x171 SWAP2 SWAP1 PUSH2 0x256B JUMP JUMPDEST PUSH2 0xF09 JUMP JUMPDEST PUSH1 0x40 MLOAD PUSH2 0x18A SWAP9 SWAP8 SWAP7 SWAP6 SWAP5 SWAP4 SWAP3 SWAP2 SWAP1 PUSH2 0x25FC JUMP JUMPDEST PUSH1 0x40 MLOAD DUP1 SWAP2 SUB SWAP1 RETURN JUMPDEST PUSH2 0x19B PUSH2 0x1119 JUMP JUMPDEST PUSH1 0x40 MLOAD PUSH2 0x1A8 SWAP2 SWAP1 PUSH2 0x268D JUMP JUMPDEST PUSH1 0x40 MLOAD DUP1 SWAP2 SUB SWAP1 RETURN JUMPDEST PUSH2 0x1CB PUSH1 0x4 DUP1 CALLDATASIZE SUB DUP2 ADD SWAP1 PUSH2 0x1C6 SWAP2 SWAP1 PUSH2 0x256B JUMP JUMPDEST PUSH2 0x1129 JUMP JUMPDEST PUSH1 0x40 MLOAD PUSH2 0x1D8 SWAP2 SWAP1 PUSH2 0x254B JUMP JUMPDEST PUSH1 0x40 MLOAD DUP1 SWAP2 SUB SWAP1 RETURN JUMPDEST PUSH2 0x1FB PUSH1 0x4 DUP1 CALLDATASIZE SUB DUP2 ADD SWAP1 PUSH2 0x1F6 SWAP2 SWAP1 PUSH2 0x256B JUMP JUMPDEST PUSH2 0x137C JUMP JUMPDEST PUSH1 0x40 MLOAD PUSH2 0x20B SWAP5 SWAP4 SWAP3 SWAP2 SWAP1 PUSH2 0x26A6 JUMP JUMPDEST PUSH1 0x40 MLOAD DUP1 SWAP2 SUB SWAP1 RETURN JUMPDEST PUSH2 0x22E PUSH1 0x4 DUP1 CALLDATASIZE SUB DUP2 ADD SWAP1 PUSH2 0x229 SWAP2 SWAP1 PUSH2 0x26F0 JUMP JUMPDEST PUSH2 0x145C JUMP JUMPDEST STOP JUMPDEST PUSH2 0x24A PUSH1 0x4 DUP1 CALLDATASIZE SUB DUP2 ADD SWAP1 PUSH2 0x245 SWAP2 SWAP1 PUSH2 0x256B JUMP JUMPDEST PUSH2 0x180E JUMP JUMPDEST PUSH1 0x40 MLOAD PUSH2 0x257 SWAP2 SWAP1 PUSH2 0x282F JUMP JUMPDEST PUSH1 0x40 MLOAD DUP1 SWAP2 SUB SWAP1 RETURN JUMPDEST PUSH2 0x27A PUSH1 0x4 DUP1 CALLDATASIZE SUB DUP2 ADD SWAP1 PUSH2 0x275 SWAP2 SWAP1 PUSH2 0x2405 JUMP JUMPDEST PUSH2 0x1AF5 JUMP JUMPDEST PUSH1 0x40 MLOAD PUSH2 0x287 SWAP2 SWAP1 PUSH2 0x2229 JUMP JUMPDEST PUSH1 0x40 MLOAD DUP1 SWAP2 SUB SWAP1 RETURN JUMPDEST PUSH1 0x60 PUSH0 DUP1 PUSH0 SWAP1 POP JUMPDEST PUSH1 0x4 DUP1 SLOAD SWAP1 POP DUP2 LT ISZERO PUSH2 0x2F3 JUMPI PUSH1 0x4 DUP2 DUP2 SLOAD DUP2 LT PUSH2 0x2B9 JUMPI PUSH2 0x2B8 PUSH2 0x284F JUMP JUMPDEST JUMPDEST SWAP1 PUSH0 MSTORE PUSH1 0x20 PUSH0 KECCAK256 SWAP1 PUSH1 0x8 MUL ADD PUSH1 0x7 ADD PUSH0 SWAP1 SLOAD SWAP1 PUSH2 0x100 EXP SWAP1 DIV PUSH1 0xFF AND PUSH2 0x2E6 JUMPI DUP2 PUSH2 0x2E3 SWAP1 PUSH2 0x28A9 JUMP JUMPDEST SWAP2 POP JUMPDEST DUP1 DUP1 PUSH1 0x1 ADD SWAP2 POP POP PUSH2 0x298 JUMP JUMPDEST POP PUSH0 DUP2 PUSH8 0xFFFFFFFFFFFFFFFF DUP2 GT ISZERO PUSH2 0x30F JUMPI PUSH2 0x30E PUSH2 0x28F0 JUMP JUMPDEST JUMPDEST PUSH1 0x40 MLOAD SWAP1 DUP1 DUP3 MSTORE DUP1 PUSH1 0x20 MUL PUSH1 0x20 ADD DUP3 ADD PUSH1 0x40 MSTORE DUP1 ISZERO PUSH2 0x348 JUMPI DUP2 PUSH1 0x20 ADD JUMPDEST PUSH2 0x335 PUSH2 0x1F25 JUMP JUMPDEST DUP2 MSTORE PUSH1 0x20 ADD SWAP1 PUSH1 0x1 SWAP1 SUB SWAP1 DUP2 PUSH2 0x32D JUMPI SWAP1 POP JUMPDEST POP SWAP1 POP PUSH0 DUP1 PUSH0 SWAP1 POP JUMPDEST PUSH1 0x4 DUP1 SLOAD SWAP1 POP DUP2 LT ISZERO PUSH2 0x632 JUMPI PUSH1 0x4 DUP2 DUP2 SLOAD DUP2 LT PUSH2 0x372 JUMPI PUSH2 0x371 PUSH2 0x284F JUMP JUMPDEST JUMPDEST SWAP1 PUSH0 MSTORE PUSH1 0x20 PUSH0 KECCAK256 SWAP1 PUSH1 0x8 MUL ADD PUSH1 0x7 ADD PUSH0 SWAP1 SLOAD SWAP1 PUSH2 0x100 EXP SWAP1 DIV PUSH1 0xFF AND PUSH2 0x625 JUMPI PUSH1 0x4 DUP2 DUP2 SLOAD DUP2 LT PUSH2 0x3A6 JUMPI PUSH2 0x3A5 PUSH2 0x284F JUMP JUMPDEST JUMPDEST SWAP1 PUSH0 MSTORE PUSH1 0x20 PUSH0 KECCAK256 SWAP1 PUSH1 0x8 MUL ADD PUSH1 0x40 MLOAD DUP1 PUSH2 0x100 ADD PUSH1 0x40 MSTORE SWAP1 DUP2 PUSH0 DUP3 ADD SLOAD DUP2 MSTORE PUSH1 0x20 ADD PUSH1 0x1 DUP3 ADD DUP1 SLOAD PUSH2 0x3D7 SWAP1 PUSH2 0x294A JUMP JUMPDEST DUP1 PUSH1 0x1F ADD PUSH1 0x20 DUP1 SWAP2 DIV MUL PUSH1 0x20 ADD PUSH1 0x40 MLOAD SWAP1 DUP2 ADD PUSH1 0x40 MSTORE DUP1 SWAP3 SWAP2 SWAP1 DUP2 DUP2 MSTORE PUSH1 0x20 ADD DUP3 DUP1 SLOAD PUSH2 0x403 SWAP1 PUSH2 0x294A JUMP JUMPDEST DUP1 ISZERO PUSH2 0x44E JUMPI DUP1 PUSH1 0x1F LT PUSH2 0x425 JUMPI PUSH2 0x100 DUP1 DUP4 SLOAD DIV MUL DUP4 MSTORE SWAP2 PUSH1 0x20 ADD SWAP2 PUSH2 0x44E JUMP JUMPDEST DUP3 ADD SWAP2 SWAP1 PUSH0 MSTORE PUSH1 0x20 PUSH0 KECCAK256 SWAP1 JUMPDEST DUP2 SLOAD DUP2 MSTORE SWAP1 PUSH1 0x1 ADD SWAP1 PUSH1 0x20 ADD DUP1 DUP4 GT PUSH2 0x431 JUMPI DUP3 SWAP1 SUB PUSH1 0x1F AND DUP3 ADD SWAP2 JUMPDEST POP POP POP POP POP DUP2 MSTORE PUSH1 0x20 ADD PUSH1 0x2 DUP3 ADD DUP1 SLOAD PUSH2 0x467 SWAP1 PUSH2 0x294A JUMP JUMPDEST DUP1 PUSH1 0x1F ADD PUSH1 0x20 DUP1 SWAP2 DIV MUL PUSH1 0x20 ADD PUSH1 0x40 MLOAD SWAP1 DUP2 ADD PUSH1 0x40 MSTORE DUP1 SWAP3 SWAP2 SWAP1 DUP2 DUP2 MSTORE PUSH1 0x20 ADD DUP3 DUP1 SLOAD PUSH2 0x493 SWAP1 PUSH2 0x294A JUMP JUMPDEST DUP1 ISZERO PUSH2 0x4DE JUMPI DUP1 PUSH1 0x1F LT PUSH2 0x4B5 JUMPI PUSH2 0x100 DUP1 DUP4 SLOAD DIV MUL DUP4 MSTORE SWAP2 PUSH1 0x20 ADD SWAP2 PUSH2 0x4DE JUMP JUMPDEST DUP3 ADD SWAP2 SWAP1 PUSH0 MSTORE PUSH1 0x20 PUSH0 KECCAK256 SWAP1 JUMPDEST DUP2 SLOAD DUP2 MSTORE SWAP1 PUSH1 0x1 ADD SWAP1 PUSH1 0x20 ADD DUP1 DUP4 GT PUSH2 0x4C1 JUMPI DUP3 SWAP1 SUB PUSH1 0x1F AND DUP3 ADD SWAP2 JUMPDEST POP POP POP POP POP DUP2 MSTORE PUSH1 0x20 ADD PUSH1 0x3 DUP3 ADD PUSH0 SWAP1 SLOAD SWAP1 PUSH2 0x100 EXP SWAP1 DIV PUSH20 0xFFFFFFFFFFFFFFFFFFFFFFFFFFFFFFFFFFFFFFFF AND PUSH20 0xFFFFFFFFFFFFFFFFFFFFFFFFFFFFFFFFFFFFFFFF AND PUSH20 0xFFFFFFFFFFFFFFFFFFFFFFFFFFFFFFFFFFFFFFFF AND DUP2 MSTORE PUSH1 0x20 ADD PUSH1 0x4 DUP3 ADD DUP1 SLOAD PUSH2 0x54C SWAP1 PUSH2 0x294A JUMP JUMPDEST DUP1 PUSH1 0x1F ADD PUSH1 0x20 DUP1 SWAP2 DIV MUL PUSH1 0x20 ADD PUSH1 0x40 MLOAD SWAP1 DUP2 ADD PUSH1 0x40 MSTORE DUP1 SWAP3 SWAP2 SWAP1 DUP2 DUP2 MSTORE PUSH1 0x20 ADD DUP3 DUP1 SLOAD PUSH2 0x578 SWAP1 PUSH2 0x294A JUMP JUMPDEST DUP1 ISZERO PUSH2 0x5C3 JUMPI DUP1 PUSH1 0x1F LT PUSH2 0x59A JUMPI PUSH2 0x100 DUP1 DUP4 SLOAD DIV MUL DUP4 MSTORE SWAP2 PUSH1 0x20 ADD SWAP2 PUSH2 0x5C3 JUMP JUMPDEST DUP3 ADD SWAP2 SWAP1 PUSH0 MSTORE PUSH1 0x20 PUSH0 KECCAK256 SWAP1 JUMPDEST DUP2 SLOAD DUP2 MSTORE SWAP1 PUSH1 0x1 ADD SWAP1 PUSH1 0x20 ADD DUP1 DUP4 GT PUSH2 0x5A6 JUMPI DUP3 SWAP1 SUB PUSH1 0x1F AND DUP3 ADD SWAP2 JUMPDEST POP POP POP POP POP DUP2 MSTORE PUSH1 0x20 ADD PUSH1 0x5 DUP3 ADD SLOAD DUP2 MSTORE PUSH1 0x20 ADD PUSH1 0x6 DUP3 ADD SLOAD DUP2 MSTORE PUSH1 0x20 ADD PUSH1 0x7 DUP3 ADD PUSH0 SWAP1 SLOAD SWAP1 PUSH2 0x100 EXP SWAP1 DIV PUSH1 0xFF AND ISZERO ISZERO ISZERO ISZERO DUP2 MSTORE POP POP DUP4 DUP4 DUP1 PUSH2 0x606 SWAP1 PUSH2 0x28A9 JUMP JUMPDEST SWAP5 POP DUP2 MLOAD DUP2 LT PUSH2 0x619 JUMPI PUSH2 0x618 PUSH2 0x284F JUMP JUMPDEST JUMPDEST PUSH1 0x20 MUL PUSH1 0x20 ADD ADD DUP2 SWAP1 MSTORE POP JUMPDEST DUP1 DUP1 PUSH1 0x1 ADD SWAP2 POP POP PUSH2 0x351 JUMP JUMPDEST POP DUP2 SWAP4 POP POP POP POP SWAP1 JUMP JUMPDEST PUSH1 0x1 SLOAD DUP2 JUMP JUMPDEST PUSH0 PUSH20 0xFFFFFFFFFFFFFFFFFFFFFFFFFFFFFFFFFFFFFFFF AND DUP7 PUSH20 0xFFFFFFFFFFFFFFFFFFFFFFFFFFFFFFFFFFFFFFFF AND SUB PUSH2 0x6B0 JUMPI PUSH1 0x40 MLOAD PUSH32 0x8C379A000000000000000000000000000000000000000000000000000000000 DUP2 MSTORE PUSH1 0x4 ADD PUSH2 0x6A7 SWAP1 PUSH2 0x29C4 JUMP JUMPDEST PUSH1 0x40 MLOAD DUP1 SWAP2 SUB SWAP1 REVERT JUMPDEST PUSH0 DUP1 SLOAD SWAP1 PUSH2 0x100 EXP SWAP1 DIV PUSH1 0xFF AND ISZERO PUSH2 0x6FD JUMPI PUSH1 0x40 MLOAD PUSH32 0x8C379A000000000000000000000000000000000000000000000000000000000 DUP2 MSTORE PUSH1 0x4 ADD PUSH2 0x6F4 SWAP1 PUSH2 0x2A78 JUMP JUMPDEST PUSH1 0x40 MLOAD DUP1 SWAP2 SUB SWAP1 REVERT JUMPDEST PUSH1 0x1 PUSH0 DUP1 PUSH2 0x100 EXP DUP2 SLOAD DUP2 PUSH1 0xFF MUL NOT AND SWAP1 DUP4 ISZERO ISZERO MUL OR SWAP1 SSTORE POP PUSH0 PUSH1 0x40 MLOAD DUP1 PUSH2 0x100 ADD PUSH1 0x40 MSTORE DUP1 PUSH1 0x1 SLOAD DUP2 MSTORE PUSH1 0x20 ADD DUP8 DUP8 DUP1 DUP1 PUSH1 0x1F ADD PUSH1 0x20 DUP1 SWAP2 DIV MUL PUSH1 0x20 ADD PUSH1 0x40 MLOAD SWAP1 DUP2 ADD PUSH1 0x40 MSTORE DUP1 SWAP4 SWAP3 SWAP2 SWAP1 DUP2 DUP2 MSTORE PUSH1 0x20 ADD DUP4 DUP4 DUP1 DUP3 DUP5 CALLDATACOPY PUSH0 DUP2 DUP5 ADD MSTORE PUSH1 0x1F NOT PUSH1 0x1F DUP3 ADD AND SWAP1 POP DUP1 DUP4 ADD SWAP3 POP POP POP POP POP POP POP DUP2 MSTORE PUSH1 0x20 ADD DUP6 DUP6 DUP1 DUP1 PUSH1 0x1F ADD PUSH1 0x20 DUP1 SWAP2 DIV MUL PUSH1 0x20 ADD PUSH1 0x40 MLOAD SWAP1 DUP2 ADD PUSH1 0x40 MSTORE DUP1 SWAP4 SWAP3 SWAP2 SWAP1 DUP2 DUP2 MSTORE PUSH1 0x20 ADD DUP4 DUP4 DUP1 DUP3 DUP5 CALLDATACOPY PUSH0 DUP2 DUP5 ADD MSTORE PUSH1 0x1F NOT PUSH1 0x1F DUP3 ADD AND SWAP1 POP DUP1 DUP4 ADD SWAP3 POP POP POP POP POP POP POP DUP2 MSTORE PUSH1 0x20 ADD DUP9 PUSH20 0xFFFFFFFFFFFFFFFFFFFFFFFFFFFFFFFFFFFFFFFF AND DUP2 MSTORE PUSH1 0x20 ADD DUP11 DUP11 DUP1 DUP1 PUSH1 0x1F ADD PUSH1 0x20 DUP1 SWAP2 DIV MUL PUSH1 0x20 ADD PUSH1 0x40 MLOAD SWAP1 DUP2 ADD PUSH1 0x40 MSTORE DUP1 SWAP4 SWAP3 SWAP2 SWAP1 DUP2 DUP2 MSTORE PUSH1 0x20 ADD DUP4 DUP4 DUP1 DUP3 DUP5 CALLDATACOPY PUSH0 DUP2 DUP5 ADD MSTORE PUSH1 0x1F NOT PUSH1 0x1F DUP3 ADD AND SWAP1 POP DUP1 DUP4 ADD SWAP3 POP POP POP POP POP POP POP DUP2 MSTORE PUSH1 0x20 ADD DUP4 DUP2 MSTORE PUSH1 0x20 ADD PUSH0 DUP2 MSTORE PUSH1 0x20 ADD PUSH0 ISZERO ISZERO DUP2 MSTORE POP SWAP1 POP PUSH1 0x1 PUSH0 DUP2 SLOAD PUSH2 0x844 SWAP1 PUSH2 0x28A9 JUMP JUMPDEST SWAP2 SWAP1 POP DUP2 SWAP1 SSTORE POP PUSH1 0x4 DUP2 SWAP1 DUP1 PUSH1 0x1 DUP2 SLOAD ADD DUP1 DUP3 SSTORE DUP1 SWAP2 POP POP PUSH1 0x1 SWAP1 SUB SWAP1 PUSH0 MSTORE PUSH1 0x20 PUSH0 KECCAK256 SWAP1 PUSH1 0x8 MUL ADD PUSH0 SWAP1 SWAP2 SWAP1 SWAP2 SWAP1 SWAP2 POP PUSH0 DUP3 ADD MLOAD DUP2 PUSH0 ADD SSTORE PUSH1 0x20 DUP3 ADD MLOAD DUP2 PUSH1 0x1 ADD SWAP1 DUP2 PUSH2 0x891 SWAP2 SWAP1 PUSH2 0x2C33 JUMP JUMPDEST POP PUSH1 0x40 DUP3 ADD MLOAD DUP2 PUSH1 0x2 ADD SWAP1 DUP2 PUSH2 0x8A7 SWAP2 SWAP1 PUSH2 0x2C33 JUMP JUMPDEST POP PUSH1 0x60 DUP3 ADD MLOAD DUP2 PUSH1 0x3 ADD PUSH0 PUSH2 0x100 EXP DUP2 SLOAD DUP2 PUSH20 0xFFFFFFFFFFFFFFFFFFFFFFFFFFFFFFFFFFFFFFFF MUL NOT AND SWAP1 DUP4 PUSH20 0xFFFFFFFFFFFFFFFFFFFFFFFFFFFFFFFFFFFFFFFF AND MUL OR SWAP1 SSTORE POP PUSH1 0x80 DUP3 ADD MLOAD DUP2 PUSH1 0x4 ADD SWAP1 DUP2 PUSH2 0x903 SWAP2 SWAP1 PUSH2 0x2C33 JUMP JUMPDEST POP PUSH1 0xA0 DUP3 ADD MLOAD DUP2 PUSH1 0x5 ADD SSTORE PUSH1 0xC0 DUP3 ADD MLOAD DUP2 PUSH1 0x6 ADD SSTORE PUSH1 0xE0 DUP3 ADD MLOAD DUP2 PUSH1 0x7 ADD PUSH0 PUSH2 0x100 EXP DUP2 SLOAD DUP2 PUSH1 0xFF MUL NOT AND SWAP1 DUP4 ISZERO ISZERO MUL OR SWAP1 SSTORE POP POP POP PUSH0 DUP1 PUSH0 PUSH2 0x100 EXP DUP2 SLOAD DUP2 PUSH1 0xFF MUL NOT AND SWAP1 DUP4 ISZERO ISZERO MUL OR SWAP1 SSTORE POP POP POP POP POP POP POP POP POP POP JUMP JUMPDEST PUSH1 0x60 PUSH0 DUP1 PUSH0 SWAP1 POP JUMPDEST PUSH1 0x4 DUP1 SLOAD SWAP1 POP DUP2 LT ISZERO PUSH2 0x9C0 JUMPI PUSH1 0x4 DUP2 DUP2 SLOAD DUP2 LT PUSH2 0x985 JUMPI PUSH2 0x984 PUSH2 0x284F JUMP JUMPDEST JUMPDEST SWAP1 PUSH0 MSTORE PUSH1 0x20 PUSH0 KECCAK256 SWAP1 PUSH1 0x8 MUL ADD PUSH1 0x7 ADD PUSH0 SWAP1 SLOAD SWAP1 PUSH2 0x100 EXP SWAP1 DIV PUSH1 0xFF AND ISZERO PUSH2 0x9B3 JUMPI DUP2 PUSH2 0x9B0 SWAP1 PUSH2 0x28A9 JUMP JUMPDEST SWAP2 POP JUMPDEST DUP1 DUP1 PUSH1 0x1 ADD SWAP2 POP POP PUSH2 0x964 JUMP JUMPDEST POP PUSH0 DUP2 PUSH8 0xFFFFFFFFFFFFFFFF DUP2 GT ISZERO PUSH2 0x9DC JUMPI PUSH2 0x9DB PUSH2 0x28F0 JUMP JUMPDEST JUMPDEST PUSH1 0x40 MLOAD SWAP1 DUP1 DUP3 MSTORE DUP1 PUSH1 0x20 MUL PUSH1 0x20 ADD DUP3 ADD PUSH1 0x40 MSTORE DUP1 ISZERO PUSH2 0xA15 JUMPI DUP2 PUSH1 0x20 ADD JUMPDEST PUSH2 0xA02 PUSH2 0x1F25 JUMP JUMPDEST DUP2 MSTORE PUSH1 0x20 ADD SWAP1 PUSH1 0x1 SWAP1 SUB SWAP1 DUP2 PUSH2 0x9FA JUMPI SWAP1 POP JUMPDEST POP SWAP1 POP PUSH0 DUP1 PUSH0 SWAP1 POP JUMPDEST PUSH1 0x4 DUP1 SLOAD SWAP1 POP DUP2 LT ISZERO PUSH2 0xD00 JUMPI PUSH1 0x4 DUP2 DUP2 SLOAD DUP2 LT PUSH2 0xA3F JUMPI PUSH2 0xA3E PUSH2 0x284F JUMP JUMPDEST JUMPDEST SWAP1 PUSH0 MSTORE PUSH1 0x20 PUSH0 KECCAK256 SWAP1 PUSH1 0x8 MUL ADD PUSH1 0x7 ADD PUSH0 SWAP1 SLOAD SWAP1 PUSH2 0x100 EXP SWAP1 DIV PUSH1 0xFF AND ISZERO PUSH2 0xCF3 JUMPI PUSH1 0x4 DUP2 DUP2 SLOAD DUP2 LT PUSH2 0xA74 JUMPI PUSH2 0xA73 PUSH2 0x284F JUMP JUMPDEST JUMPDEST SWAP1 PUSH0 MSTORE PUSH1 0x20 PUSH0 KECCAK256 SWAP1 PUSH1 0x8 MUL ADD PUSH1 0x40 MLOAD DUP1 PUSH2 0x100 ADD PUSH1 0x40 MSTORE SWAP1 DUP2 PUSH0 DUP3 ADD SLOAD DUP2 MSTORE PUSH1 0x20 ADD PUSH1 0x1 DUP3 ADD DUP1 SLOAD PUSH2 0xAA5 SWAP1 PUSH2 0x294A JUMP JUMPDEST DUP1 PUSH1 0x1F ADD PUSH1 0x20 DUP1 SWAP2 DIV MUL PUSH1 0x20 ADD PUSH1 0x40 MLOAD SWAP1 DUP2 ADD PUSH1 0x40 MSTORE DUP1 SWAP3 SWAP2 SWAP1 DUP2 DUP2 MSTORE PUSH1 0x20 ADD DUP3 DUP1 SLOAD PUSH2 0xAD1 SWAP1 PUSH2 0x294A JUMP JUMPDEST DUP1 ISZERO PUSH2 0xB1C JUMPI DUP1 PUSH1 0x1F LT PUSH2 0xAF3 JUMPI PUSH2 0x100 DUP1 DUP4 SLOAD DIV MUL DUP4 MSTORE SWAP2 PUSH1 0x20 ADD SWAP2 PUSH2 0xB1C JUMP JUMPDEST DUP3 ADD SWAP2 SWAP1 PUSH0 MSTORE PUSH1 0x20 PUSH0 KECCAK256 SWAP1 JUMPDEST DUP2 SLOAD DUP2 MSTORE SWAP1 PUSH1 0x1 ADD SWAP1 PUSH1 0x20 ADD DUP1 DUP4 GT PUSH2 0xAFF JUMPI DUP3 SWAP1 SUB PUSH1 0x1F AND DUP3 ADD SWAP2 JUMPDEST POP POP POP POP POP DUP2 MSTORE PUSH1 0x20 ADD PUSH1 0x2 DUP3 ADD DUP1 SLOAD PUSH2 0xB35 SWAP1 PUSH2 0x294A JUMP JUMPDEST DUP1 PUSH1 0x1F ADD PUSH1 0x20 DUP1 SWAP2 DIV MUL PUSH1 0x20 ADD PUSH1 0x40 MLOAD SWAP1 DUP2 ADD PUSH1 0x40 MSTORE DUP1 SWAP3 SWAP2 SWAP1 DUP2 DUP2 MSTORE PUSH1 0x20 ADD DUP3 DUP1 SLOAD PUSH2 0xB61 SWAP1 PUSH2 0x294A JUMP JUMPDEST DUP1 ISZERO PUSH2 0xBAC JUMPI DUP1 PUSH1 0x1F LT PUSH2 0xB83 JUMPI PUSH2 0x100 DUP1 DUP4 SLOAD DIV MUL DUP4 MSTORE SWAP2 PUSH1 0x20 ADD SWAP2 PUSH2 0xBAC JUMP JUMPDEST DUP3 ADD SWAP2 SWAP1 PUSH0 MSTORE PUSH1 0x20 PUSH0 KECCAK256 SWAP1 JUMPDEST DUP2 SLOAD DUP2 MSTORE SWAP1 PUSH1 0x1 ADD SWAP1 PUSH1 0x20 ADD DUP1 DUP4 GT PUSH2 0xB8F JUMPI DUP3 SWAP1 SUB PUSH1 0x1F AND DUP3 ADD SWAP2 JUMPDEST POP POP POP POP POP DUP2 MSTORE PUSH1 0x20 ADD PUSH1 0x3 DUP3 ADD PUSH0 SWAP1 SLOAD SWAP1 PUSH2 0x100 EXP SWAP1 DIV PUSH20 0xFFFFFFFFFFFFFFFFFFFFFFFFFFFFFFFFFFFFFFFF AND PUSH20 0xFFFFFFFFFFFFFFFFFFFFFFFFFFFFFFFFFFFFFFFF AND PUSH20 0xFFFFFFFFFFFFFFFFFFFFFFFFFFFFFFFFFFFFFFFF AND DUP2 MSTORE PUSH1 0x20 ADD PUSH1 0x4 DUP3 ADD DUP1 SLOAD PUSH2 0xC1A SWAP1 PUSH2 0x294A JUMP JUMPDEST DUP1 PUSH1 0x1F ADD PUSH1 0x20 DUP1 SWAP2 DIV MUL PUSH1 0x20 ADD PUSH1 0x40 MLOAD SWAP1 DUP2 ADD PUSH1 0x40 MSTORE DUP1 SWAP3 SWAP2 SWAP1 DUP2 DUP2 MSTORE PUSH1 0x20 ADD DUP3 DUP1 SLOAD PUSH2 0xC46 SWAP1 PUSH2 0x294A JUMP JUMPDEST DUP1 ISZERO PUSH2 0xC91 JUMPI DUP1 PUSH1 0x1F LT PUSH2 0xC68 JUMPI PUSH2 0x100 DUP1 DUP4 SLOAD DIV MUL DUP4 MSTORE SWAP2 PUSH1 0x20 ADD SWAP2 PUSH2 0xC91 JUMP JUMPDEST DUP3 ADD SWAP2 SWAP1 PUSH0 MSTORE PUSH1 0x20 PUSH0 KECCAK256 SWAP1 JUMPDEST DUP2 SLOAD DUP2 MSTORE SWAP1 PUSH1 0x1 ADD SWAP1 PUSH1 0x20 ADD DUP1 DUP4 GT PUSH2 0xC74 JUMPI DUP3 SWAP1 SUB PUSH1 0x1F AND DUP3 ADD SWAP2 JUMPDEST POP POP POP POP POP DUP2 MSTORE PUSH1 0x20 ADD PUSH1 0x5 DUP3 ADD SLOAD DUP2 MSTORE PUSH1 0x20 ADD PUSH1 0x6 DUP3 ADD SLOAD DUP2 MSTORE PUSH1 0x20 ADD PUSH1 0x7 DUP3 ADD PUSH0 SWAP1 SLOAD SWAP1 PUSH2 0x100 EXP SWAP1 DIV PUSH1 0xFF AND ISZERO ISZERO ISZERO ISZERO DUP2 MSTORE POP POP DUP4 DUP4 DUP1 PUSH2 0xCD4 SWAP1 PUSH2 0x28A9 JUMP JUMPDEST SWAP5 POP DUP2 MLOAD DUP2 LT PUSH2 0xCE7 JUMPI PUSH2 0xCE6 PUSH2 0x284F JUMP JUMPDEST JUMPDEST PUSH1 0x20 MUL PUSH1 0x20 ADD ADD DUP2 SWAP1 MSTORE POP JUMPDEST DUP1 DUP1 PUSH1 0x1 ADD SWAP2 POP POP PUSH2 0xA1E JUMP JUMPDEST POP DUP2 SWAP4 POP POP POP POP SWAP1 JUMP JUMPDEST PUSH1 0x60 PUSH0 PUSH20 0xFFFFFFFFFFFFFFFFFFFFFFFFFFFFFFFFFFFFFFFF AND DUP3 PUSH20 0xFFFFFFFFFFFFFFFFFFFFFFFFFFFFFFFFFFFFFFFF AND SUB PUSH2 0xD7A JUMPI PUSH1 0x40 MLOAD PUSH32 0x8C379A000000000000000000000000000000000000000000000000000000000 DUP2 MSTORE PUSH1 0x4 ADD PUSH2 0xD71 SWAP1 PUSH2 0x2D4C JUMP JUMPDEST PUSH1 0x40 MLOAD DUP1 SWAP2 SUB SWAP1 REVERT JUMPDEST PUSH1 0x2 PUSH0 DUP4 PUSH20 0xFFFFFFFFFFFFFFFFFFFFFFFFFFFFFFFFFFFFFFFF AND PUSH20 0xFFFFFFFFFFFFFFFFFFFFFFFFFFFFFFFFFFFFFFFF AND DUP2 MSTORE PUSH1 0x20 ADD SWAP1 DUP2 MSTORE PUSH1 0x20 ADD PUSH0 KECCAK256 DUP1 SLOAD DUP1 PUSH1 0x20 MUL PUSH1 0x20 ADD PUSH1 0x40 MLOAD SWAP1 DUP2 ADD PUSH1 0x40 MSTORE DUP1 SWAP3 SWAP2 SWAP1 DUP2 DUP2 MSTORE PUSH1 0x20 ADD PUSH0 SWAP1 JUMPDEST DUP3 DUP3 LT ISZERO PUSH2 0xEFE JUMPI DUP4 DUP3 SWAP1 PUSH0 MSTORE PUSH1 0x20 PUSH0 KECCAK256 SWAP1 PUSH1 0x4 MUL ADD PUSH1 0x40 MLOAD DUP1 PUSH1 0x80 ADD PUSH1 0x40 MSTORE SWAP1 DUP2 PUSH0 DUP3 ADD SLOAD DUP2 MSTORE PUSH1 0x20 ADD PUSH1 0x1 DUP3 ADD DUP1 SLOAD PUSH2 0xE10 SWAP1 PUSH2 0x294A JUMP JUMPDEST DUP1 PUSH1 0x1F ADD PUSH1 0x20 DUP1 SWAP2 DIV MUL PUSH1 0x20 ADD PUSH1 0x40 MLOAD SWAP1 DUP2 ADD PUSH1 0x40 MSTORE DUP1 SWAP3 SWAP2 SWAP1 DUP2 DUP2 MSTORE PUSH1 0x20 ADD DUP3 DUP1 SLOAD PUSH2 0xE3C SWAP1 PUSH2 0x294A JUMP JUMPDEST DUP1 ISZERO PUSH2 0xE87 JUMPI DUP1 PUSH1 0x1F LT PUSH2 0xE5E JUMPI PUSH2 0x100 DUP1 DUP4 SLOAD DIV MUL DUP4 MSTORE SWAP2 PUSH1 0x20 ADD SWAP2 PUSH2 0xE87 JUMP JUMPDEST DUP3 ADD SWAP2 SWAP1 PUSH0 MSTORE PUSH1 0x20 PUSH0 KECCAK256 SWAP1 JUMPDEST DUP2 SLOAD DUP2 MSTORE SWAP1 PUSH1 0x1 ADD SWAP1 PUSH1 0x20 ADD DUP1 DUP4 GT PUSH2 0xE6A JUMPI DUP3 SWAP1 SUB PUSH1 0x1F AND DUP3 ADD SWAP2 JUMPDEST POP POP POP POP POP DUP2 MSTORE PUSH1 0x20 ADD PUSH1 0x2 DUP3 ADD PUSH0 SWAP1 SLOAD SWAP1 PUSH2 0x100 EXP SWAP1 DIV PUSH20 0xFFFFFFFFFFFFFFFFFFFFFFFFFFFFFFFFFFFFFFFF AND PUSH20 0xFFFFFFFFFFFFFFFFFFFFFFFFFFFFFFFFFFFFFFFF AND PUSH20 0xFFFFFFFFFFFFFFFFFFFFFFFFFFFFFFFFFFFFFFFF AND DUP2 MSTORE PUSH1 0x20 ADD PUSH1 0x3 DUP3 ADD SLOAD DUP2 MSTORE POP POP DUP2 MSTORE PUSH1 0x20 ADD SWAP1 PUSH1 0x1 ADD SWAP1 PUSH2 0xDD6 JUMP JUMPDEST POP POP POP POP SWAP1 POP SWAP2 SWAP1 POP JUMP JUMPDEST PUSH1 0x4 DUP2 DUP2 SLOAD DUP2 LT PUSH2 0xF18 JUMPI PUSH0 DUP1 REVERT JUMPDEST SWAP1 PUSH0 MSTORE PUSH1 0x20 PUSH0 KECCAK256 SWAP1 PUSH1 0x8 MUL ADD PUSH0 SWAP2 POP SWAP1 POP DUP1 PUSH0 ADD SLOAD SWAP1 DUP1 PUSH1 0x1 ADD DUP1 SLOAD PUSH2 0xF3D SWAP1 PUSH2 0x294A JUMP JUMPDEST DUP1 PUSH1 0x1F ADD PUSH1 0x20 DUP1 SWAP2 DIV MUL PUSH1 0x20 ADD PUSH1 0x40 MLOAD SWAP1 DUP2 ADD PUSH1 0x40 MSTORE DUP1 SWAP3 SWAP2 SWAP1 DUP2 DUP2 MSTORE PUSH1 0x20 ADD DUP3 DUP1 SLOAD PUSH2 0xF69 SWAP1 PUSH2 0x294A JUMP JUMPDEST DUP1 ISZERO PUSH2 0xFB4 JUMPI DUP1 PUSH1 0x1F LT PUSH2 0xF8B JUMPI PUSH2 0x100 DUP1 DUP4 SLOAD DIV MUL DUP4 MSTORE SWAP2 PUSH1 0x20 ADD SWAP2 PUSH2 0xFB4 JUMP JUMPDEST DUP3 ADD SWAP2 SWAP1 PUSH0 MSTORE PUSH1 0x20 PUSH0 KECCAK256 SWAP1 JUMPDEST DUP2 SLOAD DUP2 MSTORE SWAP1 PUSH1 0x1 ADD SWAP1 PUSH1 0x20 ADD DUP1 DUP4 GT PUSH2 0xF97 JUMPI DUP3 SWAP1 SUB PUSH1 0x1F AND DUP3 ADD SWAP2 JUMPDEST POP POP POP POP POP SWAP1 DUP1 PUSH1 0x2 ADD DUP1 SLOAD PUSH2 0xFC9 SWAP1 PUSH2 0x294A JUMP JUMPDEST DUP1 PUSH1 0x1F ADD PUSH1 0x20 DUP1 SWAP2 DIV MUL PUSH1 0x20 ADD PUSH1 0x40 MLOAD SWAP1 DUP2 ADD PUSH1 0x40 MSTORE DUP1 SWAP3 SWAP2 SWAP1 DUP2 DUP2 MSTORE PUSH1 0x20 ADD DUP3 DUP1 SLOAD PUSH2 0xFF5 SWAP1 PUSH2 0x294A JUMP JUMPDEST DUP1 ISZERO PUSH2 0x1040 JUMPI DUP1 PUSH1 0x1F LT PUSH2 0x1017 JUMPI PUSH2 0x100 DUP1 DUP4 SLOAD DIV MUL DUP4 MSTORE SWAP2 PUSH1 0x20 ADD SWAP2 PUSH2 0x1040 JUMP JUMPDEST DUP3 ADD SWAP2 SWAP1 PUSH0 MSTORE PUSH1 0x20 PUSH0 KECCAK256 SWAP1 JUMPDEST DUP2 SLOAD DUP2 MSTORE SWAP1 PUSH1 0x1 ADD SWAP1 PUSH1 0x20 ADD DUP1 DUP4 GT PUSH2 0x1023 JUMPI DUP3 SWAP1 SUB PUSH1 0x1F AND DUP3 ADD SWAP2 JUMPDEST POP POP POP POP POP SWAP1 DUP1 PUSH1 0x3 ADD PUSH0 SWAP1 SLOAD SWAP1 PUSH2 0x100 EXP SWAP1 DIV PUSH20 0xFFFFFFFFFFFFFFFFFFFFFFFFFFFFFFFFFFFFFFFF AND SWAP1 DUP1 PUSH1 0x4 ADD DUP1 SLOAD PUSH2 0x107A SWAP1 PUSH2 0x294A JUMP JUMPDEST DUP1 PUSH1 0x1F ADD PUSH1 0x20 DUP1 SWAP2 DIV MUL PUSH1 0x20 ADD PUSH1 0x40 MLOAD SWAP1 DUP2 ADD PUSH1 0x40 MSTORE DUP1 SWAP3 SWAP2 SWAP1 DUP2 DUP2 MSTORE PUSH1 0x20 ADD DUP3 DUP1 SLOAD PUSH2 0x10A6 SWAP1 PUSH2 0x294A JUMP JUMPDEST DUP1 ISZERO PUSH2 0x10F1 JUMPI DUP1 PUSH1 0x1F LT PUSH2 0x10C8 JUMPI PUSH2 0x100 DUP1 DUP4 SLOAD DIV MUL DUP4 MSTORE SWAP2 PUSH1 0x20 ADD SWAP2 PUSH2 0x10F1 JUMP JUMPDEST DUP3 ADD SWAP2 SWAP1 PUSH0 MSTORE PUSH1 0x20 PUSH0 KECCAK256 SWAP1 JUMPDEST DUP2 SLOAD DUP2 MSTORE SWAP1 PUSH1 0x1 ADD SWAP1 PUSH1 0x20 ADD DUP1 DUP4 GT PUSH2 0x10D4 JUMPI DUP3 SWAP1 SUB PUSH1 0x1F AND DUP3 ADD SWAP2 JUMPDEST POP POP POP POP POP SWAP1 DUP1 PUSH1 0x5 ADD SLOAD SWAP1 DUP1 PUSH1 0x6 ADD SLOAD SWAP1 DUP1 PUSH1 0x7 ADD PUSH0 SWAP1 SLOAD SWAP1 PUSH2 0x100 EXP SWAP1 DIV PUSH1 0xFF AND SWAP1 POP DUP9 JUMP JUMPDEST PUSH0 DUP1 SLOAD SWAP1 PUSH2 0x100 EXP SWAP1 DIV PUSH1 0xFF AND DUP2 JUMP JUMPDEST PUSH1 0x60 PUSH0 DUP1 PUSH0 SWAP1 POP JUMPDEST PUSH1 0x3 DUP1 SLOAD SWAP1 POP DUP2 LT ISZERO PUSH2 0x1181 JUMPI DUP4 PUSH1 0x3 DUP3 DUP2 SLOAD DUP2 LT PUSH2 0x1153 JUMPI PUSH2 0x1152 PUSH2 0x284F JUMP JUMPDEST JUMPDEST SWAP1 PUSH0 MSTORE PUSH1 0x20 PUSH0 KECCAK256 SWAP1 PUSH1 0x4 MUL ADD PUSH0 ADD SLOAD SUB PUSH2 0x1174 JUMPI DUP2 PUSH2 0x1171 SWAP1 PUSH2 0x28A9 JUMP JUMPDEST SWAP2 POP JUMPDEST DUP1 DUP1 PUSH1 0x1 ADD SWAP2 POP POP PUSH2 0x1131 JUMP JUMPDEST POP PUSH0 DUP2 PUSH8 0xFFFFFFFFFFFFFFFF DUP2 GT ISZERO PUSH2 0x119D JUMPI PUSH2 0x119C PUSH2 0x28F0 JUMP JUMPDEST JUMPDEST PUSH1 0x40 MLOAD SWAP1 DUP1 DUP3 MSTORE DUP1 PUSH1 0x20 MUL PUSH1 0x20 ADD DUP3 ADD PUSH1 0x40 MSTORE DUP1 ISZERO PUSH2 0x11D6 JUMPI DUP2 PUSH1 0x20 ADD JUMPDEST PUSH2 0x11C3 PUSH2 0x1F7D JUMP JUMPDEST DUP2 MSTORE PUSH1 0x20 ADD SWAP1 PUSH1 0x1 SWAP1 SUB SWAP1 DUP2 PUSH2 0x11BB JUMPI SWAP1 POP JUMPDEST POP SWAP1 POP PUSH0 DUP1 PUSH0 SWAP1 POP JUMPDEST PUSH1 0x3 DUP1 SLOAD SWAP1 POP DUP2 LT ISZERO PUSH2 0x1370 JUMPI DUP6 PUSH1 0x3 DUP3 DUP2 SLOAD DUP2 LT PUSH2 0x1201 JUMPI PUSH2 0x1200 PUSH2 0x284F JUMP JUMPDEST JUMPDEST SWAP1 PUSH0 MSTORE PUSH1 0x20 PUSH0 KECCAK256 SWAP1 PUSH1 0x4 MUL ADD PUSH0 ADD SLOAD SUB PUSH2 0x1363 JUMPI PUSH1 0x3 DUP2 DUP2 SLOAD DUP2 LT PUSH2 0x1229 JUMPI PUSH2 0x1228 PUSH2 0x284F JUMP JUMPDEST JUMPDEST SWAP1 PUSH0 MSTORE PUSH1 0x20 PUSH0 KECCAK256 SWAP1 PUSH1 0x4 MUL ADD PUSH1 0x40 MLOAD DUP1 PUSH1 0x80 ADD PUSH1 0x40 MSTORE SWAP1 DUP2 PUSH0 DUP3 ADD SLOAD DUP2 MSTORE PUSH1 0x20 ADD PUSH1 0x1 DUP3 ADD DUP1 SLOAD PUSH2 0x1259 SWAP1 PUSH2 0x294A JUMP JUMPDEST DUP1 PUSH1 0x1F ADD PUSH1 0x20 DUP1 SWAP2 DIV MUL PUSH1 0x20 ADD PUSH1 0x40 MLOAD SWAP1 DUP2 ADD PUSH1 0x40 MSTORE DUP1 SWAP3 SWAP2 SWAP1 DUP2 DUP2 MSTORE PUSH1 0x20 ADD DUP3 DUP1 SLOAD PUSH2 0x1285 SWAP1 PUSH2 0x294A JUMP JUMPDEST DUP1 ISZERO PUSH2 0x12D0 JUMPI DUP1 PUSH1 0x1F LT PUSH2 0x12A7 JUMPI PUSH2 0x100 DUP1 DUP4 SLOAD DIV MUL DUP4 MSTORE SWAP2 PUSH1 0x20 ADD SWAP2 PUSH2 0x12D0 JUMP JUMPDEST DUP3 ADD SWAP2 SWAP1 PUSH0 MSTORE PUSH1 0x20 PUSH0 KECCAK256 SWAP1 JUMPDEST DUP2 SLOAD DUP2 MSTORE SWAP1 PUSH1 0x1 ADD SWAP1 PUSH1 0x20 ADD DUP1 DUP4 GT PUSH2 0x12B3 JUMPI DUP3 SWAP1 SUB PUSH1 0x1F AND DUP3 ADD SWAP2 JUMPDEST POP POP POP POP POP DUP2 MSTORE PUSH1 0x20 ADD PUSH1 0x2 DUP3 ADD PUSH0 SWAP1 SLOAD SWAP1 PUSH2 0x100 EXP SWAP1 DIV PUSH20 0xFFFFFFFFFFFFFFFFFFFFFFFFFFFFFFFFFFFFFFFF AND PUSH20 0xFFFFFFFFFFFFFFFFFFFFFFFFFFFFFFFFFFFFFFFF AND PUSH20 0xFFFFFFFFFFFFFFFFFFFFFFFFFFFFFFFFFFFFFFFF AND DUP2 MSTORE PUSH1 0x20 ADD PUSH1 0x3 DUP3 ADD SLOAD DUP2 MSTORE POP POP DUP4 DUP4 DUP1 PUSH2 0x1344 SWAP1 PUSH2 0x28A9 JUMP JUMPDEST SWAP5 POP DUP2 MLOAD DUP2 LT PUSH2 0x1357 JUMPI PUSH2 0x1356 PUSH2 0x284F JUMP JUMPDEST JUMPDEST PUSH1 0x20 MUL PUSH1 0x20 ADD ADD DUP2 SWAP1 MSTORE POP JUMPDEST DUP1 DUP1 PUSH1 0x1 ADD SWAP2 POP POP PUSH2 0x11DF JUMP JUMPDEST POP DUP2 SWAP4 POP POP POP POP SWAP2 SWAP1 POP JUMP JUMPDEST PUSH1 0x3 DUP2 DUP2 SLOAD DUP2 LT PUSH2 0x138B JUMPI PUSH0 DUP1 REVERT JUMPDEST SWAP1 PUSH0 MSTORE PUSH1 0x20 PUSH0 KECCAK256 SWAP1 PUSH1 0x4 MUL ADD PUSH0 SWAP2 POP SWAP1 POP DUP1 PUSH0 ADD SLOAD SWAP1 DUP1 PUSH1 0x1 ADD DUP1 SLOAD PUSH2 0x13B0 SWAP1 PUSH2 0x294A JUMP JUMPDEST DUP1 PUSH1 0x1F ADD PUSH1 0x20 DUP1 SWAP2 DIV MUL PUSH1 0x20 ADD PUSH1 0x40 MLOAD SWAP1 DUP2 ADD PUSH1 0x40 MSTORE DUP1 SWAP3 SWAP2 SWAP1 DUP2 DUP2 MSTORE PUSH1 0x20 ADD DUP3 DUP1 SLOAD PUSH2 0x13DC SWAP1 PUSH2 0x294A JUMP JUMPDEST DUP1 ISZERO PUSH2 0x1427 JUMPI DUP1 PUSH1 0x1F LT PUSH2 0x13FE JUMPI PUSH2 0x100 DUP1 DUP4 SLOAD DIV MUL DUP4 MSTORE SWAP2 PUSH1 0x20 ADD SWAP2 PUSH2 0x1427 JUMP JUMPDEST DUP3 ADD SWAP2 SWAP1 PUSH0 MSTORE PUSH1 0x20 PUSH0 KECCAK256 SWAP1 JUMPDEST DUP2 SLOAD DUP2 MSTORE SWAP1 PUSH1 0x1 ADD SWAP1 PUSH1 0x20 ADD DUP1 DUP4 GT PUSH2 0x140A JUMPI DUP3 SWAP1 SUB PUSH1 0x1F AND DUP3 ADD SWAP2 JUMPDEST POP POP POP POP POP SWAP1 DUP1 PUSH1 0x2 ADD PUSH0 SWAP1 SLOAD SWAP1 PUSH2 0x100 EXP SWAP1 DIV PUSH20 0xFFFFFFFFFFFFFFFFFFFFFFFFFFFFFFFFFFFFFFFF AND SWAP1 DUP1 PUSH1 0x3 ADD SLOAD SWAP1 POP DUP5 JUMP JUMPDEST PUSH0 PUSH20 0xFFFFFFFFFFFFFFFFFFFFFFFFFFFFFFFFFFFFFFFF AND DUP3 PUSH20 0xFFFFFFFFFFFFFFFFFFFFFFFFFFFFFFFFFFFFFFFF AND SUB PUSH2 0x14CA JUMPI PUSH1 0x40 MLOAD PUSH32 0x8C379A000000000000000000000000000000000000000000000000000000000 DUP2 MSTORE PUSH1 0x4 ADD PUSH2 0x14C1 SWAP1 PUSH2 0x2D4C JUMP JUMPDEST PUSH1 0x40 MLOAD DUP1 SWAP2 SUB SWAP1 REVERT JUMPDEST PUSH0 PUSH1 0x40 MLOAD DUP1 PUSH1 0x80 ADD PUSH1 0x40 MSTORE DUP1 DUP8 DUP2 MSTORE PUSH1 0x20 ADD DUP7 DUP7 DUP1 DUP1 PUSH1 0x1F ADD PUSH1 0x20 DUP1 SWAP2 DIV MUL PUSH1 0x20 ADD PUSH1 0x40 MLOAD SWAP1 DUP2 ADD PUSH1 0x40 MSTORE DUP1 SWAP4 SWAP3 SWAP2 SWAP1 DUP2 DUP2 MSTORE PUSH1 0x20 ADD DUP4 DUP4 DUP1 DUP3 DUP5 CALLDATACOPY PUSH0 DUP2 DUP5 ADD MSTORE PUSH1 0x1F NOT PUSH1 0x1F DUP3 ADD AND SWAP1 POP DUP1 DUP4 ADD SWAP3 POP POP POP POP POP POP POP DUP2 MSTORE PUSH1 0x20 ADD DUP5 PUSH20 0xFFFFFFFFFFFFFFFFFFFFFFFFFFFFFFFFFFFFFFFF AND DUP2 MSTORE PUSH1 0x20 ADD DUP4 DUP2 MSTORE POP SWAP1 POP PUSH1 0x3 DUP2 SWAP1 DUP1 PUSH1 0x1 DUP2 SLOAD ADD DUP1 DUP3 SSTORE DUP1 SWAP2 POP POP PUSH1 0x1 SWAP1 SUB SWAP1 PUSH0 MSTORE PUSH1 0x20 PUSH0 KECCAK256 SWAP1 PUSH1 0x4 MUL ADD PUSH0 SWAP1 SWAP2 SWAP1 SWAP2 SWAP1 SWAP2 POP PUSH0 DUP3 ADD MLOAD DUP2 PUSH0 ADD SSTORE PUSH1 0x20 DUP3 ADD MLOAD DUP2 PUSH1 0x1 ADD SWAP1 DUP2 PUSH2 0x158D SWAP2 SWAP1 PUSH2 0x2C33 JUMP JUMPDEST POP PUSH1 0x40 DUP3 ADD MLOAD DUP2 PUSH1 0x2 ADD PUSH0 PUSH2 0x100 EXP DUP2 SLOAD DUP2 PUSH20 0xFFFFFFFFFFFFFFFFFFFFFFFFFFFFFFFFFFFFFFFF MUL NOT AND SWAP1 DUP4 PUSH20 0xFFFFFFFFFFFFFFFFFFFFFFFFFFFFFFFFFFFFFFFF AND MUL OR SWAP1 SSTORE POP PUSH1 0x60 DUP3 ADD MLOAD DUP2 PUSH1 0x3 ADD SSTORE POP POP PUSH1 0x2 PUSH0 DUP5 PUSH20 0xFFFFFFFFFFFFFFFFFFFFFFFFFFFFFFFFFFFFFFFF AND PUSH20 0xFFFFFFFFFFFFFFFFFFFFFFFFFFFFFFFFFFFFFFFF AND DUP2 MSTORE PUSH1 0x20 ADD SWAP1 DUP2 MSTORE PUSH1 0x20 ADD PUSH0 KECCAK256 DUP2 SWAP1 DUP1 PUSH1 0x1 DUP2 SLOAD ADD DUP1 DUP3 SSTORE DUP1 SWAP2 POP POP PUSH1 0x1 SWAP1 SUB SWAP1 PUSH0 MSTORE PUSH1 0x20 PUSH0 KECCAK256 SWAP1 PUSH1 0x4 MUL ADD PUSH0 SWAP1 SWAP2 SWAP1 SWAP2 SWAP1 SWAP2 POP PUSH0 DUP3 ADD MLOAD DUP2 PUSH0 ADD SSTORE PUSH1 0x20 DUP3 ADD MLOAD DUP2 PUSH1 0x1 ADD SWAP1 DUP2 PUSH2 0x1661 SWAP2 SWAP1 PUSH2 0x2C33 JUMP JUMPDEST POP PUSH1 0x40 DUP3 ADD MLOAD DUP2 PUSH1 0x2 ADD PUSH0 PUSH2 0x100 EXP DUP2 SLOAD DUP2 PUSH20 0xFFFFFFFFFFFFFFFFFFFFFFFFFFFFFFFFFFFFFFFF MUL NOT AND SWAP1 DUP4 PUSH20 0xFFFFFFFFFFFFFFFFFFFFFFFFFFFFFFFFFFFFFFFF AND MUL OR SWAP1 SSTORE POP PUSH1 0x60 DUP3 ADD MLOAD DUP2 PUSH1 0x3 ADD SSTORE POP POP PUSH0 JUMPDEST PUSH1 0x4 DUP1 SLOAD SWAP1 POP DUP2 LT ISZERO PUSH2 0x17BE JUMPI DUP7 PUSH1 0x4 DUP3 DUP2 SLOAD DUP2 LT PUSH2 0x16D8 JUMPI PUSH2 0x16D7 PUSH2 0x284F JUMP JUMPDEST JUMPDEST SWAP1 PUSH0 MSTORE PUSH1 0x20 PUSH0 KECCAK256 SWAP1 PUSH1 0x8 MUL ADD PUSH0 ADD SLOAD SUB PUSH2 0x17B3 JUMPI DUP3 PUSH1 0x4 DUP3 DUP2 SLOAD DUP2 LT PUSH2 0x1701 JUMPI PUSH2 0x1700 PUSH2 0x284F JUMP JUMPDEST JUMPDEST SWAP1 PUSH0 MSTORE PUSH1 0x20 PUSH0 KECCAK256 SWAP1 PUSH1 0x8 MUL ADD PUSH1 0x6 ADD PUSH0 DUP3 DUP3 SLOAD PUSH2 0x171E SWAP2 SWAP1 PUSH2 0x2D6A JUMP JUMPDEST SWAP3 POP POP DUP2 SWAP1 SSTORE POP PUSH1 0x4 DUP2 DUP2 SLOAD DUP2 LT PUSH2 0x1739 JUMPI PUSH2 0x1738 PUSH2 0x284F JUMP JUMPDEST JUMPDEST SWAP1 PUSH0 MSTORE PUSH1 0x20 PUSH0 KECCAK256 SWAP1 PUSH1 0x8 MUL ADD PUSH1 0x5 ADD SLOAD PUSH1 0x4 DUP3 DUP2 SLOAD DUP2 LT PUSH2 0x175D JUMPI PUSH2 0x175C PUSH2 0x284F JUMP JUMPDEST JUMPDEST SWAP1 PUSH0 MSTORE PUSH1 0x20 PUSH0 KECCAK256 SWAP1 PUSH1 0x8 MUL ADD PUSH1 0x6 ADD SLOAD LT PUSH2 0x17AE JUMPI PUSH1 0x1 PUSH1 0x4 DUP3 DUP2 SLOAD DUP2 LT PUSH2 0x1788 JUMPI PUSH2 0x1787 PUSH2 0x284F JUMP JUMPDEST JUMPDEST SWAP1 PUSH0 MSTORE PUSH1 0x20 PUSH0 KECCAK256 SWAP1 PUSH1 0x8 MUL ADD PUSH1 0x7 ADD PUSH0 PUSH2 0x100 EXP DUP2 SLOAD DUP2 PUSH1 0xFF MUL NOT AND SWAP1 DUP4 ISZERO ISZERO MUL OR SWAP1 SSTORE POP JUMPDEST PUSH2 0x17BE JUMP JUMPDEST DUP1 PUSH1 0x1 ADD SWAP1 POP PUSH2 0x16B6 JUMP JUMPDEST PUSH1 0x4 DUP1 SLOAD SWAP1 POP DUP2 LT PUSH2 0x1805 JUMPI PUSH1 0x40 MLOAD PUSH32 0x8C379A000000000000000000000000000000000000000000000000000000000 DUP2 MSTORE PUSH1 0x4 ADD PUSH2 0x17FC SWAP1 PUSH2 0x2DE7 JUMP JUMPDEST PUSH1 0x40 MLOAD DUP1 SWAP2 SUB SWAP1 REVERT JUMPDEST POP POP POP POP POP POP POP JUMP JUMPDEST PUSH2 0x1816 PUSH2 0x1F25 JUMP JUMPDEST PUSH1 0x4 DUP3 DUP2 SLOAD DUP2 LT PUSH2 0x182A JUMPI PUSH2 0x1829 PUSH2 0x284F JUMP JUMPDEST JUMPDEST SWAP1 PUSH0 MSTORE PUSH1 0x20 PUSH0 KECCAK256 SWAP1 PUSH1 0x8 MUL ADD PUSH1 0x7 ADD PUSH0 SWAP1 SLOAD SWAP1 PUSH2 0x100 EXP SWAP1 DIV PUSH1 0xFF AND ISZERO PUSH2 0x1886 JUMPI PUSH1 0x40 MLOAD PUSH32 0x8C379A000000000000000000000000000000000000000000000000000000000 DUP2 MSTORE PUSH1 0x4 ADD PUSH2 0x187D SWAP1 PUSH2 0x2E4F JUMP JUMPDEST PUSH1 0x40 MLOAD DUP1 SWAP2 SUB SWAP1 REVERT JUMPDEST PUSH1 0x4 DUP3 DUP2 SLOAD DUP2 LT PUSH2 0x189A JUMPI PUSH2 0x1899 PUSH2 0x284F JUMP JUMPDEST JUMPDEST SWAP1 PUSH0 MSTORE PUSH1 0x20 PUSH0 KECCAK256 SWAP1 PUSH1 0x8 MUL ADD PUSH1 0x40 MLOAD DUP1 PUSH2 0x100 ADD PUSH1 0x40 MSTORE SWAP1 DUP2 PUSH0 DUP3 ADD SLOAD DUP2 MSTORE PUSH1 0x20 ADD PUSH1 0x1 DUP3 ADD DUP1 SLOAD PUSH2 0x18CB SWAP1 PUSH2 0x294A JUMP JUMPDEST DUP1 PUSH1 0x1F ADD PUSH1 0x20 DUP1 SWAP2 DIV MUL PUSH1 0x20 ADD PUSH1 0x40 MLOAD SWAP1 DUP2 ADD PUSH1 0x40 MSTORE DUP1 SWAP3 SWAP2 SWAP1 DUP2 DUP2 MSTORE PUSH1 0x20 ADD DUP3 DUP1 SLOAD PUSH2 0x18F7 SWAP1 PUSH2 0x294A JUMP JUMPDEST DUP1 ISZERO PUSH2 0x1942 JUMPI DUP1 PUSH1 0x1F LT PUSH2 0x1919 JUMPI PUSH2 0x100 DUP1 DUP4 SLOAD DIV MUL DUP4 MSTORE SWAP2 PUSH1 0x20 ADD SWAP2 PUSH2 0x1942 JUMP JUMPDEST DUP3 ADD SWAP2 SWAP1 PUSH0 MSTORE PUSH1 0x20 PUSH0 KECCAK256 SWAP1 JUMPDEST DUP2 SLOAD DUP2 MSTORE SWAP1 PUSH1 0x1 ADD SWAP1 PUSH1 0x20 ADD DUP1 DUP4 GT PUSH2 0x1925 JUMPI DUP3 SWAP1 SUB PUSH1 0x1F AND DUP3 ADD SWAP2 JUMPDEST POP POP POP POP POP DUP2 MSTORE PUSH1 0x20 ADD PUSH1 0x2 DUP3 ADD DUP1 SLOAD PUSH2 0x195B SWAP1 PUSH2 0x294A JUMP JUMPDEST DUP1 PUSH1 0x1F ADD PUSH1 0x20 DUP1 SWAP2 DIV MUL PUSH1 0x20 ADD PUSH1 0x40 MLOAD SWAP1 DUP2 ADD PUSH1 0x40 MSTORE DUP1 SWAP3 SWAP2 SWAP1 DUP2 DUP2 MSTORE PUSH1 0x20 ADD DUP3 DUP1 SLOAD PUSH2 0x1987 SWAP1 PUSH2 0x294A JUMP JUMPDEST DUP1 ISZERO PUSH2 0x19D2 JUMPI DUP1 PUSH1 0x1F LT PUSH2 0x19A9 JUMPI PUSH2 0x100 DUP1 DUP4 SLOAD DIV MUL DUP4 MSTORE SWAP2 PUSH1 0x20 ADD SWAP2 PUSH2 0x19D2 JUMP JUMPDEST DUP3 ADD SWAP2 SWAP1 PUSH0 MSTORE PUSH1 0x20 PUSH0 KECCAK256 SWAP1 JUMPDEST DUP2 SLOAD DUP2 MSTORE SWAP1 PUSH1 0x1 ADD SWAP1 PUSH1 0x20 ADD DUP1 DUP4 GT PUSH2 0x19B5 JUMPI DUP3 SWAP1 SUB PUSH1 0x1F AND DUP3 ADD SWAP2 JUMPDEST POP POP POP POP POP DUP2 MSTORE PUSH1 0x20 ADD PUSH1 0x3 DUP3 ADD PUSH0 SWAP1 SLOAD SWAP1 PUSH2 0x100 EXP SWAP1 DIV PUSH20 0xFFFFFFFFFFFFFFFFFFFFFFFFFFFFFFFFFFFFFFFF AND PUSH20 0xFFFFFFFFFFFFFFFFFFFFFFFFFFFFFFFFFFFFFFFF AND PUSH20 0xFFFFFFFFFFFFFFFFFFFFFFFFFFFFFFFFFFFFFFFF AND DUP2 MSTORE PUSH1 0x20 ADD PUSH1 0x4 DUP3 ADD DUP1 SLOAD PUSH2 0x1A40 SWAP1 PUSH2 0x294A JUMP JUMPDEST DUP1 PUSH1 0x1F ADD PUSH1 0x20 DUP1 SWAP2 DIV MUL PUSH1 0x20 ADD PUSH1 0x40 MLOAD SWAP1 DUP2 ADD PUSH1 0x40 MSTORE DUP1 SWAP3 SWAP2 SWAP1 DUP2 DUP2 MSTORE PUSH1 0x20 ADD DUP3 DUP1 SLOAD PUSH2 0x1A6C SWAP1 PUSH2 0x294A JUMP JUMPDEST DUP1 ISZERO PUSH2 0x1AB7 JUMPI DUP1 PUSH1 0x1F LT PUSH2 0x1A8E JUMPI PUSH2 0x100 DUP1 DUP4 SLOAD DIV MUL DUP4 MSTORE SWAP2 PUSH1 0x20 ADD SWAP2 PUSH2 0x1AB7 JUMP JUMPDEST DUP3 ADD SWAP2 SWAP1 PUSH0 MSTORE PUSH1 0x20 PUSH0 KECCAK256 SWAP1 JUMPDEST DUP2 SLOAD DUP2 MSTORE SWAP1 PUSH1 0x1 ADD SWAP1 PUSH1 0x20 ADD DUP1 DUP4 GT PUSH2 0x1A9A JUMPI DUP3 SWAP1 SUB PUSH1 0x1F AND DUP3 ADD SWAP2 JUMPDEST POP POP POP POP POP DUP2 MSTORE PUSH1 0x20 ADD PUSH1 0x5 DUP3 ADD SLOAD DUP2 MSTORE PUSH1 0x20 ADD PUSH1 0x6 DUP3 ADD SLOAD DUP2 MSTORE PUSH1 0x20 ADD PUSH1 0x7 DUP3 ADD PUSH0 SWAP1 SLOAD SWAP1 PUSH2 0x100 EXP SWAP1 DIV PUSH1 0xFF AND ISZERO ISZERO ISZERO ISZERO DUP2 MSTORE POP POP SWAP1 POP SWAP2 SWAP1 POP JUMP JUMPDEST PUSH1 0x60 PUSH0 DUP1 PUSH0 SWAP1 POP JUMPDEST PUSH1 0x4 DUP1 SLOAD SWAP1 POP DUP2 LT ISZERO PUSH2 0x1B99 JUMPI DUP4 PUSH20 0xFFFFFFFFFFFFFFFFFFFFFFFFFFFFFFFFFFFFFFFF AND PUSH1 0x4 DUP3 DUP2 SLOAD DUP2 LT PUSH2 0x1B35 JUMPI PUSH2 0x1B34 PUSH2 0x284F JUMP JUMPDEST JUMPDEST SWAP1 PUSH0 MSTORE PUSH1 0x20 PUSH0 KECCAK256 SWAP1 PUSH1 0x8 MUL ADD PUSH1 0x3 ADD PUSH0 SWAP1 SLOAD SWAP1 PUSH2 0x100 EXP SWAP1 DIV PUSH20 0xFFFFFFFFFFFFFFFFFFFFFFFFFFFFFFFFFFFFFFFF AND PUSH20 0xFFFFFFFFFFFFFFFFFFFFFFFFFFFFFFFFFFFFFFFF AND SUB PUSH2 0x1B8C JUMPI DUP2 PUSH2 0x1B89 SWAP1 PUSH2 0x28A9 JUMP JUMPDEST SWAP2 POP JUMPDEST DUP1 DUP1 PUSH1 0x1 ADD SWAP2 POP POP PUSH2 0x1AFD JUMP JUMPDEST POP PUSH0 DUP2 PUSH8 0xFFFFFFFFFFFFFFFF DUP2 GT ISZERO PUSH2 0x1BB5 JUMPI PUSH2 0x1BB4 PUSH2 0x28F0 JUMP JUMPDEST JUMPDEST PUSH1 0x40 MLOAD SWAP1 DUP1 DUP3 MSTORE DUP1 PUSH1 0x20 MUL PUSH1 0x20 ADD DUP3 ADD PUSH1 0x40 MSTORE DUP1 ISZERO PUSH2 0x1BEE JUMPI DUP2 PUSH1 0x20 ADD JUMPDEST PUSH2 0x1BDB PUSH2 0x1F25 JUMP JUMPDEST DUP2 MSTORE PUSH1 0x20 ADD SWAP1 PUSH1 0x1 SWAP1 SUB SWAP1 DUP2 PUSH2 0x1BD3 JUMPI SWAP1 POP JUMPDEST POP SWAP1 POP PUSH0 DUP1 PUSH0 SWAP1 POP JUMPDEST PUSH1 0x4 DUP1 SLOAD SWAP1 POP DUP2 LT ISZERO PUSH2 0x1F19 JUMPI DUP6 PUSH20 0xFFFFFFFFFFFFFFFFFFFFFFFFFFFFFFFFFFFFFFFF AND PUSH1 0x4 DUP3 DUP2 SLOAD DUP2 LT PUSH2 0x1C2F JUMPI PUSH2 0x1C2E PUSH2 0x284F JUMP JUMPDEST JUMPDEST SWAP1 PUSH0 MSTORE PUSH1 0x20 PUSH0 KECCAK256 SWAP1 PUSH1 0x8 MUL ADD PUSH1 0x3 ADD PUSH0 SWAP1 SLOAD SWAP1 PUSH2 0x100 EXP SWAP1 DIV PUSH20 0xFFFFFFFFFFFFFFFFFFFFFFFFFFFFFFFFFFFFFFFF AND PUSH20 0xFFFFFFFFFFFFFFFFFFFFFFFFFFFFFFFFFFFFFFFF AND SUB PUSH2 0x1F0C JUMPI PUSH1 0x4 DUP2 DUP2 SLOAD DUP2 LT PUSH2 0x1C8D JUMPI PUSH2 0x1C8C PUSH2 0x284F JUMP JUMPDEST JUMPDEST SWAP1 PUSH0 MSTORE PUSH1 0x20 PUSH0 KECCAK256 SWAP1 PUSH1 0x8 MUL ADD PUSH1 0x40 MLOAD DUP1 PUSH2 0x100 ADD PUSH1 0x40 MSTORE SWAP1 DUP2 PUSH0 DUP3 ADD SLOAD DUP2 MSTORE PUSH1 0x20 ADD PUSH1 0x1 DUP3 ADD DUP1 SLOAD PUSH2 0x1CBE SWAP1 PUSH2 0x294A JUMP JUMPDEST DUP1 PUSH1 0x1F ADD PUSH1 0x20 DUP1 SWAP2 DIV MUL PUSH1 0x20 ADD PUSH1 0x40 MLOAD SWAP1 DUP2 ADD PUSH1 0x40 MSTORE DUP1 SWAP3 SWAP2 SWAP1 DUP2 DUP2 MSTORE PUSH1 0x20 ADD DUP3 DUP1 SLOAD PUSH2 0x1CEA SWAP1 PUSH2 0x294A JUMP JUMPDEST DUP1 ISZERO PUSH2 0x1D35 JUMPI DUP1 PUSH1 0x1F LT PUSH2 0x1D0C JUMPI PUSH2 0x100 DUP1 DUP4 SLOAD DIV MUL DUP4 MSTORE SWAP2 PUSH1 0x20 ADD SWAP2 PUSH2 0x1D35 JUMP JUMPDEST DUP3 ADD SWAP2 SWAP1 PUSH0 MSTORE PUSH1 0x20 PUSH0 KECCAK256 SWAP1 JUMPDEST DUP2 SLOAD DUP2 MSTORE SWAP1 PUSH1 0x1 ADD SWAP1 PUSH1 0x20 ADD DUP1 DUP4 GT PUSH2 0x1D18 JUMPI DUP3 SWAP1 SUB PUSH1 0x1F AND DUP3 ADD SWAP2 JUMPDEST POP POP POP POP POP DUP2 MSTORE PUSH1 0x20 ADD PUSH1 0x2 DUP3 ADD DUP1 SLOAD PUSH2 0x1D4E SWAP1 PUSH2 0x294A JUMP JUMPDEST DUP1 PUSH1 0x1F ADD PUSH1 0x20 DUP1 SWAP2 DIV MUL PUSH1 0x20 ADD PUSH1 0x40 MLOAD SWAP1 DUP2 ADD PUSH1 0x40 MSTORE DUP1 SWAP3 SWAP2 SWAP1 DUP2 DUP2 MSTORE PUSH1 0x20 ADD DUP3 DUP1 SLOAD PUSH2 0x1D7A SWAP1 PUSH2 0x294A JUMP JUMPDEST DUP1 ISZERO PUSH2 0x1DC5 JUMPI DUP1 PUSH1 0x1F LT PUSH2 0x1D9C JUMPI PUSH2 0x100 DUP1 DUP4 SLOAD DIV MUL DUP4 MSTORE SWAP2 PUSH1 0x20 ADD SWAP2 PUSH2 0x1DC5 JUMP JUMPDEST DUP3 ADD SWAP2 SWAP1 PUSH0 MSTORE PUSH1 0x20 PUSH0 KECCAK256 SWAP1 JUMPDEST DUP2 SLOAD DUP2 MSTORE SWAP1 PUSH1 0x1 ADD SWAP1 PUSH1 0x20 ADD DUP1 DUP4 GT PUSH2 0x1DA8 JUMPI DUP3 SWAP1 SUB PUSH1 0x1F AND DUP3 ADD SWAP2 JUMPDEST POP POP POP POP POP DUP2 MSTORE PUSH1 0x20 ADD PUSH1 0x3 DUP3 ADD PUSH0 SWAP1 SLOAD SWAP1 PUSH2 0x100 EXP SWAP1 DIV PUSH20 0xFFFFFFFFFFFFFFFFFFFFFFFFFFFFFFFFFFFFFFFF AND PUSH20 0xFFFFFFFFFFFFFFFFFFFFFFFFFFFFFFFFFFFFFFFF AND PUSH20 0xFFFFFFFFFFFFFFFFFFFFFFFFFFFFFFFFFFFFFFFF AND DUP2 MSTORE PUSH1 0x20 ADD PUSH1 0x4 DUP3 ADD DUP1 SLOAD PUSH2 0x1E33 SWAP1 PUSH2 0x294A JUMP JUMPDEST DUP1 PUSH1 0x1F ADD PUSH1 0x20 DUP1 SWAP2 DIV MUL PUSH1 0x20 ADD PUSH1 0x40 MLOAD SWAP1 DUP2 ADD PUSH1 0x40 MSTORE DUP1 SWAP3 SWAP2 SWAP1 DUP2 DUP2 MSTORE PUSH1 0x20 ADD DUP3 DUP1 SLOAD PUSH2 0x1E5F SWAP1 PUSH2 0x294A JUMP JUMPDEST DUP1 ISZERO PUSH2 0x1EAA JUMPI DUP1 PUSH1 0x1F LT PUSH2 0x1E81 JUMPI PUSH2 0x100 DUP1 DUP4 SLOAD DIV MUL DUP4 MSTORE SWAP2 PUSH1 0x20 ADD SWAP2 PUSH2 0x1EAA JUMP JUMPDEST DUP3 ADD SWAP2 SWAP1 PUSH0 MSTORE PUSH1 0x20 PUSH0 KECCAK256 SWAP1 JUMPDEST DUP2 SLOAD DUP2 MSTORE SWAP1 PUSH1 0x1 ADD SWAP1 PUSH1 0x20 ADD DUP1 DUP4 GT PUSH2 0x1E8D JUMPI DUP3 SWAP1 SUB PUSH1 0x1F AND DUP3 ADD SWAP2 JUMPDEST POP POP POP POP POP DUP2 MSTORE PUSH1 0x20 ADD PUSH1 0x5 DUP3 ADD SLOAD DUP2 MSTORE PUSH1 0x20 ADD PUSH1 0x6 DUP3 ADD SLOAD DUP2 MSTORE PUSH1 0x20 ADD PUSH1 0x7 DUP3 ADD PUSH0 SWAP1 SLOAD SWAP1 PUSH2 0x100 EXP SWAP1 DIV PUSH1 0xFF AND ISZERO ISZERO ISZERO ISZERO DUP2 MSTORE POP POP DUP4 DUP4 DUP1 PUSH2 0x1EED SWAP1 PUSH2 0x28A9 JUMP JUMPDEST SWAP5 POP DUP2 MLOAD DUP2 LT PUSH2 0x1F00 JUMPI PUSH2 0x1EFF PUSH2 0x284F JUMP JUMPDEST JUMPDEST PUSH1 0x20 MUL PUSH1 0x20 ADD ADD DUP2 SWAP1 MSTORE POP JUMPDEST DUP1 DUP1 PUSH1 0x1 ADD SWAP2 POP POP PUSH2 0x1BF7 JUMP JUMPDEST POP DUP2 SWAP4 POP POP POP POP SWAP2 SWAP1 POP JUMP JUMPDEST PUSH1 0x40 MLOAD DUP1 PUSH2 0x100 ADD PUSH1 0x40 MSTORE DUP1 PUSH0 DUP2 MSTORE PUSH1 0x20 ADD PUSH1 0x60 DUP2 MSTORE PUSH1 0x20 ADD PUSH1 0x60 DUP2 MSTORE PUSH1 0x20 ADD PUSH0 PUSH20 0xFFFFFFFFFFFFFFFFFFFFFFFFFFFFFFFFFFFFFFFF AND DUP2 MSTORE PUSH1 0x20 ADD PUSH1 0x60 DUP2 MSTORE PUSH1 0x20 ADD PUSH0 DUP2 MSTORE PUSH1 0x20 ADD PUSH0 DUP2 MSTORE PUSH1 0x20 ADD PUSH0 ISZERO ISZERO DUP2 MSTORE POP SWAP1 JUMP JUMPDEST PUSH1 0x40 MLOAD DUP1 PUSH1 0x80 ADD PUSH1 0x40 MSTORE DUP1 PUSH0 DUP2 MSTORE PUSH1 0x20 ADD PUSH1 0x60 DUP2 MSTORE PUSH1 0x20 ADD PUSH0 PUSH20 0xFFFFFFFFFFFFFFFFFFFFFFFFFFFFFFFFFFFFFFFF AND DUP2 MSTORE PUSH1 0x20 ADD PUSH0 DUP2 MSTORE POP SWAP1 JUMP JUMPDEST PUSH0 DUP2 MLOAD SWAP1 POP SWAP2 SWAP1 POP JUMP JUMPDEST PUSH0 DUP3 DUP3 MSTORE PUSH1 0x20 DUP3 ADD SWAP1 POP SWAP3 SWAP2 POP POP JUMP JUMPDEST PUSH0 DUP2 SWAP1 POP PUSH1 0x20 DUP3 ADD SWAP1 POP SWAP2 SWAP1 POP JUMP JUMPDEST PUSH0 DUP2 SWAP1 POP SWAP2 SWAP1 POP JUMP JUMPDEST PUSH2 0x1FF3 DUP2 PUSH2 0x1FE1 JUMP JUMPDEST DUP3 MSTORE POP POP JUMP JUMPDEST PUSH0 DUP2 MLOAD SWAP1 POP SWAP2 SWAP1 POP JUMP JUMPDEST PUSH0 DUP3 DUP3 MSTORE PUSH1 0x20 DUP3 ADD SWAP1 POP SWAP3 SWAP2 POP POP JUMP JUMPDEST PUSH0 JUMPDEST DUP4 DUP2 LT ISZERO PUSH2 0x2030 JUMPI DUP1 DUP3 ADD MLOAD DUP2 DUP5 ADD MSTORE PUSH1 0x20 DUP2 ADD SWAP1 POP PUSH2 0x2015 JUMP JUMPDEST PUSH0 DUP5 DUP5 ADD MSTORE POP POP POP POP JUMP JUMPDEST PUSH0 PUSH1 0x1F NOT PUSH1 0x1F DUP4 ADD AND SWAP1 POP SWAP2 SWAP1 POP JUMP JUMPDEST PUSH0 PUSH2 0x2055 DUP3 PUSH2 0x1FF9 JUMP JUMPDEST PUSH2 0x205F DUP2 DUP6 PUSH2 0x2003 JUMP JUMPDEST SWAP4 POP PUSH2 0x206F DUP2 DUP6 PUSH1 0x20 DUP7 ADD PUSH2 0x2013 JUMP JUMPDEST PUSH2 0x2078 DUP2 PUSH2 0x203B JUMP JUMPDEST DUP5 ADD SWAP2 POP POP SWAP3 SWAP2 POP POP JUMP JUMPDEST PUSH0 PUSH20 0xFFFFFFFFFFFFFFFFFFFFFFFFFFFFFFFFFFFFFFFF DUP3 AND SWAP1 POP SWAP2 SWAP1 POP JUMP JUMPDEST PUSH0 PUSH2 0x20AC DUP3 PUSH2 0x2083 JUMP JUMPDEST SWAP1 POP SWAP2 SWAP1 POP JUMP JUMPDEST PUSH2 0x20BC DUP2 PUSH2 0x20A2 JUMP JUMPDEST DUP3 MSTORE POP POP JUMP JUMPDEST PUSH0 DUP2 ISZERO ISZERO SWAP1 POP SWAP2 SWAP1 POP JUMP JUMPDEST PUSH2 0x20D6 DUP2 PUSH2 0x20C2 JUMP JUMPDEST DUP3 MSTORE POP POP JUMP JUMPDEST PUSH0 PUSH2 0x100 DUP4 ADD PUSH0 DUP4 ADD MLOAD PUSH2 0x20F2 PUSH0 DUP7 ADD DUP3 PUSH2 0x1FEA JUMP JUMPDEST POP PUSH1 0x20 DUP4 ADD MLOAD DUP5 DUP3 SUB PUSH1 0x20 DUP7 ADD MSTORE PUSH2 0x210A DUP3 DUP3 PUSH2 0x204B JUMP JUMPDEST SWAP2 POP POP PUSH1 0x40 DUP4 ADD MLOAD DUP5 DUP3 SUB PUSH1 0x40 DUP7 ADD MSTORE PUSH2 0x2124 DUP3 DUP3 PUSH2 0x204B JUMP JUMPDEST SWAP2 POP POP PUSH1 0x60 DUP4 ADD MLOAD PUSH2 0x2139 PUSH1 0x60 DUP7 ADD DUP3 PUSH2 0x20B3 JUMP JUMPDEST POP PUSH1 0x80 DUP4 ADD MLOAD DUP5 DUP3 SUB PUSH1 0x80 DUP7 ADD MSTORE PUSH2 0x2151 DUP3 DUP3 PUSH2 0x204B JUMP JUMPDEST SWAP2 POP POP PUSH1 0xA0 DUP4 ADD MLOAD PUSH2 0x2166 PUSH1 0xA0 DUP7 ADD DUP3 PUSH2 0x1FEA JUMP JUMPDEST POP PUSH1 0xC0 DUP4 ADD MLOAD PUSH2 0x2179 PUSH1 0xC0 DUP7 ADD DUP3 PUSH2 0x1FEA JUMP JUMPDEST POP PUSH1 0xE0 DUP4 ADD MLOAD PUSH2 0x218C PUSH1 0xE0 DUP7 ADD DUP3 PUSH2 0x20CD JUMP JUMPDEST POP DUP1 SWAP2 POP POP SWAP3 SWAP2 POP POP JUMP JUMPDEST PUSH0 PUSH2 0x21A2 DUP4 DUP4 PUSH2 0x20DC JUMP JUMPDEST SWAP1 POP SWAP3 SWAP2 POP POP JUMP JUMPDEST PUSH0 PUSH1 0x20 DUP3 ADD SWAP1 POP SWAP2 SWAP1 POP JUMP JUMPDEST PUSH0 PUSH2 0x21C0 DUP3 PUSH2 0x1FB8 JUMP JUMPDEST PUSH2 0x21CA DUP2 DUP6 PUSH2 0x1FC2 JUMP JUMPDEST SWAP4 POP DUP4 PUSH1 0x20 DUP3 MUL DUP6 ADD PUSH2 0x21DC DUP6 PUSH2 0x1FD2 JUMP JUMPDEST DUP1 PUSH0 JUMPDEST DUP6 DUP2 LT ISZERO PUSH2 0x2217 JUMPI DUP5 DUP5 SUB DUP10 MSTORE DUP2 MLOAD PUSH2 0x21F8 DUP6 DUP3 PUSH2 0x2197 JUMP JUMPDEST SWAP5 POP PUSH2 0x2203 DUP4 PUSH2 0x21AA JUMP JUMPDEST SWAP3 POP PUSH1 0x20 DUP11 ADD SWAP10 POP POP PUSH1 0x1 DUP2 ADD SWAP1 POP PUSH2 0x21DF JUMP JUMPDEST POP DUP3 SWAP8 POP DUP8 SWAP6 POP POP POP POP POP POP SWAP3 SWAP2 POP POP JUMP JUMPDEST PUSH0 PUSH1 0x20 DUP3 ADD SWAP1 POP DUP2 DUP2 SUB PUSH0 DUP4 ADD MSTORE PUSH2 0x2241 DUP2 DUP5 PUSH2 0x21B6 JUMP JUMPDEST SWAP1 POP SWAP3 SWAP2 POP POP JUMP JUMPDEST PUSH2 0x2252 DUP2 PUSH2 0x1FE1 JUMP JUMPDEST DUP3 MSTORE POP POP JUMP JUMPDEST PUSH0 PUSH1 0x20 DUP3 ADD SWAP1 POP PUSH2 0x226B PUSH0 DUP4 ADD DUP5 PUSH2 0x2249 JUMP JUMPDEST SWAP3 SWAP2 POP POP JUMP JUMPDEST PUSH0 DUP1 REVERT JUMPDEST PUSH0 DUP1 REVERT JUMPDEST PUSH0 DUP1 REVERT JUMPDEST PUSH0 DUP1 REVERT JUMPDEST PUSH0 DUP1 REVERT JUMPDEST PUSH0 DUP1 DUP4 PUSH1 0x1F DUP5 ADD SLT PUSH2 0x229A JUMPI PUSH2 0x2299 PUSH2 0x2279 JUMP JUMPDEST JUMPDEST DUP3 CALLDATALOAD SWAP1 POP PUSH8 0xFFFFFFFFFFFFFFFF DUP2 GT ISZERO PUSH2 0x22B7 JUMPI PUSH2 0x22B6 PUSH2 0x227D JUMP JUMPDEST JUMPDEST PUSH1 0x20 DUP4 ADD SWAP2 POP DUP4 PUSH1 0x1 DUP3 MUL DUP4 ADD GT ISZERO PUSH2 0x22D3 JUMPI PUSH2 0x22D2 PUSH2 0x2281 JUMP JUMPDEST JUMPDEST SWAP3 POP SWAP3 SWAP1 POP JUMP JUMPDEST PUSH2 0x22E3 DUP2 PUSH2 0x20A2 JUMP JUMPDEST DUP2 EQ PUSH2 0x22ED JUMPI PUSH0 DUP1 REVERT JUMPDEST POP JUMP JUMPDEST PUSH0 DUP2 CALLDATALOAD SWAP1 POP PUSH2 0x22FE DUP2 PUSH2 0x22DA JUMP JUMPDEST SWAP3 SWAP2 POP POP JUMP JUMPDEST PUSH2 0x230D DUP2 PUSH2 0x1FE1 JUMP JUMPDEST DUP2 EQ PUSH2 0x2317 JUMPI PUSH0 DUP1 REVERT JUMPDEST POP JUMP JUMPDEST PUSH0 DUP2 CALLDATALOAD SWAP1 POP PUSH2 0x2328 DUP2 PUSH2 0x2304 JUMP JUMPDEST SWAP3 SWAP2 POP POP JUMP JUMPDEST PUSH0 DUP1 PUSH0 DUP1 PUSH0 DUP1 PUSH0 DUP1 PUSH1 0xA0 DUP10 DUP12 SUB SLT ISZERO PUSH2 0x234A JUMPI PUSH2 0x2349 PUSH2 0x2271 JUMP JUMPDEST JUMPDEST PUSH0 DUP10 ADD CALLDATALOAD PUSH8 0xFFFFFFFFFFFFFFFF DUP2 GT ISZERO PUSH2 0x2367 JUMPI PUSH2 0x2366 PUSH2 0x2275 JUMP JUMPDEST JUMPDEST PUSH2 0x2373 DUP12 DUP3 DUP13 ADD PUSH2 0x2285 JUMP JUMPDEST SWAP9 POP SWAP9 POP POP PUSH1 0x20 PUSH2 0x2386 DUP12 DUP3 DUP13 ADD PUSH2 0x22F0 JUMP JUMPDEST SWAP7 POP POP PUSH1 0x40 DUP10 ADD CALLDATALOAD PUSH8 0xFFFFFFFFFFFFFFFF DUP2 GT ISZERO PUSH2 0x23A7 JUMPI PUSH2 0x23A6 PUSH2 0x2275 JUMP JUMPDEST JUMPDEST PUSH2 0x23B3 DUP12 DUP3 DUP13 ADD PUSH2 0x2285 JUMP JUMPDEST SWAP6 POP SWAP6 POP POP PUSH1 0x60 DUP10 ADD CALLDATALOAD PUSH8 0xFFFFFFFFFFFFFFFF DUP2 GT ISZERO PUSH2 0x23D6 JUMPI PUSH2 0x23D5 PUSH2 0x2275 JUMP JUMPDEST JUMPDEST PUSH2 0x23E2 DUP12 DUP3 DUP13 ADD PUSH2 0x2285 JUMP JUMPDEST SWAP4 POP SWAP4 POP POP PUSH1 0x80 PUSH2 0x23F5 DUP12 DUP3 DUP13 ADD PUSH2 0x231A JUMP JUMPDEST SWAP2 POP POP SWAP3 SWAP6 SWAP9 POP SWAP3 SWAP6 SWAP9 SWAP1 SWAP4 SWAP7 POP JUMP JUMPDEST PUSH0 PUSH1 0x20 DUP3 DUP5 SUB SLT ISZERO PUSH2 0x241A JUMPI PUSH2 0x2419 PUSH2 0x2271 JUMP JUMPDEST JUMPDEST PUSH0 PUSH2 0x2427 DUP5 DUP3 DUP6 ADD PUSH2 0x22F0 JUMP JUMPDEST SWAP2 POP POP SWAP3 SWAP2 POP POP JUMP JUMPDEST PUSH0 DUP2 MLOAD SWAP1 POP SWAP2 SWAP1 POP JUMP JUMPDEST PUSH0 DUP3 DUP3 MSTORE PUSH1 0x20 DUP3 ADD SWAP1 POP SWAP3 SWAP2 POP POP JUMP JUMPDEST PUSH0 DUP2 SWAP1 POP PUSH1 0x20 DUP3 ADD SWAP1 POP SWAP2 SWAP1 POP JUMP JUMPDEST PUSH0 PUSH1 0x80 DUP4 ADD PUSH0 DUP4 ADD MLOAD PUSH2 0x246E PUSH0 DUP7 ADD DUP3 PUSH2 0x1FEA JUMP JUMPDEST POP PUSH1 0x20 DUP4 ADD MLOAD DUP5 DUP3 SUB PUSH1 0x20 DUP7 ADD MSTORE PUSH2 0x2486 DUP3 DUP3 PUSH2 0x204B JUMP JUMPDEST SWAP2 POP POP PUSH1 0x40 DUP4 ADD MLOAD PUSH2 0x249B PUSH1 0x40 DUP7 ADD DUP3 PUSH2 0x20B3 JUMP JUMPDEST POP PUSH1 0x60 DUP4 ADD MLOAD PUSH2 0x24AE PUSH1 0x60 DUP7 ADD DUP3 PUSH2 0x1FEA JUMP JUMPDEST POP DUP1 SWAP2 POP POP SWAP3 SWAP2 POP POP JUMP JUMPDEST PUSH0 PUSH2 0x24C4 DUP4 DUP4 PUSH2 0x2459 JUMP JUMPDEST SWAP1 POP SWAP3 SWAP2 POP POP JUMP JUMPDEST PUSH0 PUSH1 0x20 DUP3 ADD SWAP1 POP SWAP2 SWAP1 POP JUMP JUMPDEST PUSH0 PUSH2 0x24E2 DUP3 PUSH2 0x2430 JUMP JUMPDEST PUSH2 0x24EC DUP2 DUP6 PUSH2 0x243A JUMP JUMPDEST SWAP4 POP DUP4 PUSH1 0x20 DUP3 MUL DUP6 ADD PUSH2 0x24FE DUP6 PUSH2 0x244A JUMP JUMPDEST DUP1 PUSH0 JUMPDEST DUP6 DUP2 LT ISZERO PUSH2 0x2539 JUMPI DUP5 DUP5 SUB DUP10 MSTORE DUP2 MLOAD PUSH2 0x251A DUP6 DUP3 PUSH2 0x24B9 JUMP JUMPDEST SWAP5 POP PUSH2 0x2525 DUP4 PUSH2 0x24CC JUMP JUMPDEST SWAP3 POP PUSH1 0x20 DUP11 ADD SWAP10 POP POP PUSH1 0x1 DUP2 ADD SWAP1 POP PUSH2 0x2501 JUMP JUMPDEST POP DUP3 SWAP8 POP DUP8 SWAP6 POP POP POP POP POP POP SWAP3 SWAP2 POP POP JUMP JUMPDEST PUSH0 PUSH1 0x20 DUP3 ADD SWAP1 POP DUP2 DUP2 SUB PUSH0 DUP4 ADD MSTORE PUSH2 0x2563 DUP2 DUP5 PUSH2 0x24D8 JUMP JUMPDEST SWAP1 POP SWAP3 SWAP2 POP POP JUMP JUMPDEST PUSH0 PUSH1 0x20 DUP3 DUP5 SUB SLT ISZERO PUSH2 0x2580 JUMPI PUSH2 0x257F PUSH2 0x2271 JUMP JUMPDEST JUMPDEST PUSH0 PUSH2 0x258D DUP5 DUP3 DUP6 ADD PUSH2 0x231A JUMP JUMPDEST SWAP2 POP POP SWAP3 SWAP2 POP POP JUMP JUMPDEST PUSH0 DUP3 DUP3 MSTORE PUSH1 0x20 DUP3 ADD SWAP1 POP SWAP3 SWAP2 POP POP JUMP JUMPDEST PUSH0 PUSH2 0x25B0 DUP3 PUSH2 0x1FF9 JUMP JUMPDEST PUSH2 0x25BA DUP2 DUP6 PUSH2 0x2596 JUMP JUMPDEST SWAP4 POP PUSH2 0x25CA DUP2 DUP6 PUSH1 0x20 DUP7 ADD PUSH2 0x2013 JUMP JUMPDEST PUSH2 0x25D3 DUP2 PUSH2 0x203B JUMP JUMPDEST DUP5 ADD SWAP2 POP POP SWAP3 SWAP2 POP POP JUMP JUMPDEST PUSH2 0x25E7 DUP2 PUSH2 0x20A2 JUMP JUMPDEST DUP3 MSTORE POP POP JUMP JUMPDEST PUSH2 0x25F6 DUP2 PUSH2 0x20C2 JUMP JUMPDEST DUP3 MSTORE POP POP JUMP JUMPDEST PUSH0 PUSH2 0x100 DUP3 ADD SWAP1 POP PUSH2 0x2610 PUSH0 DUP4 ADD DUP12 PUSH2 0x2249 JUMP JUMPDEST DUP2 DUP2 SUB PUSH1 0x20 DUP4 ADD MSTORE PUSH2 0x2622 DUP2 DUP11 PUSH2 0x25A6 JUMP JUMPDEST SWAP1 POP DUP2 DUP2 SUB PUSH1 0x40 DUP4 ADD MSTORE PUSH2 0x2636 DUP2 DUP10 PUSH2 0x25A6 JUMP JUMPDEST SWAP1 POP PUSH2 0x2645 PUSH1 0x60 DUP4 ADD DUP9 PUSH2 0x25DE JUMP JUMPDEST DUP2 DUP2 SUB PUSH1 0x80 DUP4 ADD MSTORE PUSH2 0x2657 DUP2 DUP8 PUSH2 0x25A6 JUMP JUMPDEST SWAP1 POP PUSH2 0x2666 PUSH1 0xA0 DUP4 ADD DUP7 PUSH2 0x2249 JUMP JUMPDEST PUSH2 0x2673 PUSH1 0xC0 DUP4 ADD DUP6 PUSH2 0x2249 JUMP JUMPDEST PUSH2 0x2680 PUSH1 0xE0 DUP4 ADD DUP5 PUSH2 0x25ED JUMP JUMPDEST SWAP10 SWAP9 POP POP POP POP POP POP POP POP POP JUMP JUMPDEST PUSH0 PUSH1 0x20 DUP3 ADD SWAP1 POP PUSH2 0x26A0 PUSH0 DUP4 ADD DUP5 PUSH2 0x25ED JUMP JUMPDEST SWAP3 SWAP2 POP POP JUMP JUMPDEST PUSH0 PUSH1 0x80 DUP3 ADD SWAP1 POP PUSH2 0x26B9 PUSH0 DUP4 ADD DUP8 PUSH2 0x2249 JUMP JUMPDEST DUP2 DUP2 SUB PUSH1 0x20 DUP4 ADD MSTORE PUSH2 0x26CB DUP2 DUP7 PUSH2 0x25A6 JUMP JUMPDEST SWAP1 POP PUSH2 0x26DA PUSH1 0x40 DUP4 ADD DUP6 PUSH2 0x25DE JUMP JUMPDEST PUSH2 0x26E7 PUSH1 0x60 DUP4 ADD DUP5 PUSH2 0x2249 JUMP JUMPDEST SWAP6 SWAP5 POP POP POP POP POP JUMP JUMPDEST PUSH0 DUP1 PUSH0 DUP1 PUSH0 PUSH1 0x80 DUP7 DUP9 SUB SLT ISZERO PUSH2 0x2709 JUMPI PUSH2 0x2708 PUSH2 0x2271 JUMP JUMPDEST JUMPDEST PUSH0 PUSH2 0x2716 DUP9 DUP3 DUP10 ADD PUSH2 0x231A JUMP JUMPDEST SWAP6 POP POP PUSH1 0x20 DUP7 ADD CALLDATALOAD PUSH8 0xFFFFFFFFFFFFFFFF DUP2 GT ISZERO PUSH2 0x2737 JUMPI PUSH2 0x2736 PUSH2 0x2275 JUMP JUMPDEST JUMPDEST PUSH2 0x2743 DUP9 DUP3 DUP10 ADD PUSH2 0x2285 JUMP JUMPDEST SWAP5 POP SWAP5 POP POP PUSH1 0x40 PUSH2 0x2756 DUP9 DUP3 DUP10 ADD PUSH2 0x22F0 JUMP JUMPDEST SWAP3 POP POP PUSH1 0x60 PUSH2 0x2767 DUP9 DUP3 DUP10 ADD PUSH2 0x231A JUMP JUMPDEST SWAP2 POP POP SWAP3 SWAP6 POP SWAP3 SWAP6 SWAP1 SWAP4 POP JUMP JUMPDEST PUSH0 PUSH2 0x100 DUP4 ADD PUSH0 DUP4 ADD MLOAD PUSH2 0x278A PUSH0 DUP7 ADD DUP3 PUSH2 0x1FEA JUMP JUMPDEST POP PUSH1 0x20 DUP4 ADD MLOAD DUP5 DUP3 SUB PUSH1 0x20 DUP7 ADD MSTORE PUSH2 0x27A2 DUP3 DUP3 PUSH2 0x204B JUMP JUMPDEST SWAP2 POP POP PUSH1 0x40 DUP4 ADD MLOAD DUP5 DUP3 SUB PUSH1 0x40 DUP7 ADD MSTORE PUSH2 0x27BC DUP3 DUP3 PUSH2 0x204B JUMP JUMPDEST SWAP2 POP POP PUSH1 0x60 DUP4 ADD MLOAD PUSH2 0x27D1 PUSH1 0x60 DUP7 ADD DUP3 PUSH2 0x20B3 JUMP JUMPDEST POP PUSH1 0x80 DUP4 ADD MLOAD DUP5 DUP3 SUB PUSH1 0x80 DUP7 ADD MSTORE PUSH2 0x27E9 DUP3 DUP3 PUSH2 0x204B JUMP JUMPDEST SWAP2 POP POP PUSH1 0xA0 DUP4 ADD MLOAD PUSH2 0x27FE PUSH1 0xA0 DUP7 ADD DUP3 PUSH2 0x1FEA JUMP JUMPDEST POP PUSH1 0xC0 DUP4 ADD MLOAD PUSH2 0x2811 PUSH1 0xC0 DUP7 ADD DUP3 PUSH2 0x1FEA JUMP JUMPDEST POP PUSH1 0xE0 DUP4 ADD MLOAD PUSH2 0x2824 PUSH1 0xE0 DUP7 ADD DUP3 PUSH2 0x20CD JUMP JUMPDEST POP DUP1 SWAP2 POP POP SWAP3 SWAP2 POP POP JUMP JUMPDEST PUSH0 PUSH1 0x20 DUP3 ADD SWAP1 POP DUP2 DUP2 SUB PUSH0 DUP4 ADD MSTORE PUSH2 0x2847 DUP2 DUP5 PUSH2 0x2774 JUMP JUMPDEST SWAP1 POP SWAP3 SWAP2 POP POP JUMP JUMPDEST PUSH32 0x4E487B7100000000000000000000000000000000000000000000000000000000 PUSH0 MSTORE PUSH1 0x32 PUSH1 0x4 MSTORE PUSH1 0x24 PUSH0 REVERT JUMPDEST PUSH32 0x4E487B7100000000000000000000000000000000000000000000000000000000 PUSH0 MSTORE PUSH1 0x11 PUSH1 0x4 MSTORE PUSH1 0x24 PUSH0 REVERT JUMPDEST PUSH0 PUSH2 0x28B3 DUP3 PUSH2 0x1FE1 JUMP JUMPDEST SWAP2 POP PUSH32 0xFFFFFFFFFFFFFFFFFFFFFFFFFFFFFFFFFFFFFFFFFFFFFFFFFFFFFFFFFFFFFFFF DUP3 SUB PUSH2 0x28E5 JUMPI PUSH2 0x28E4 PUSH2 0x287C JUMP JUMPDEST JUMPDEST PUSH1 0x1 DUP3 ADD SWAP1 POP SWAP2 SWAP1 POP JUMP JUMPDEST PUSH32 0x4E487B7100000000000000000000000000000000000000000000000000000000 PUSH0 MSTORE PUSH1 0x41 PUSH1 0x4 MSTORE PUSH1 0x24 PUSH0 REVERT JUMPDEST PUSH32 0x4E487B7100000000000000000000000000000000000000000000000000000000 PUSH0 MSTORE PUSH1 0x22 PUSH1 0x4 MSTORE PUSH1 0x24 PUSH0 REVERT JUMPDEST PUSH0 PUSH1 0x2 DUP3 DIV SWAP1 POP PUSH1 0x1 DUP3 AND DUP1 PUSH2 0x2961 JUMPI PUSH1 0x7F DUP3 AND SWAP2 POP JUMPDEST PUSH1 0x20 DUP3 LT DUP2 SUB PUSH2 0x2974 JUMPI PUSH2 0x2973 PUSH2 0x291D JUMP JUMPDEST JUMPDEST POP SWAP2 SWAP1 POP JUMP JUMPDEST PUSH32 0x696E76616C696420686F73742061646472657373000000000000000000000000 PUSH0 DUP3 ADD MSTORE POP JUMP JUMPDEST PUSH0 PUSH2 0x29AE PUSH1 0x14 DUP4 PUSH2 0x2596 JUMP JUMPDEST SWAP2 POP PUSH2 0x29B9 DUP3 PUSH2 0x297A JUMP JUMPDEST PUSH1 0x20 DUP3 ADD SWAP1 POP SWAP2 SWAP1 POP JUMP JUMPDEST PUSH0 PUSH1 0x20 DUP3 ADD SWAP1 POP DUP2 DUP2 SUB PUSH0 DUP4 ADD MSTORE PUSH2 0x29DB DUP2 PUSH2 0x29A2 JUMP JUMPDEST SWAP1 POP SWAP2 SWAP1 POP JUMP JUMPDEST PUSH32 0x536F7272792C20736F6D656F6E65206973206372656174696E67207468652062 PUSH0 DUP3 ADD MSTORE PUSH32 0x6F6172642E20506C65617320776169742061206D696E75746520616E64207265 PUSH1 0x20 DUP3 ADD MSTORE PUSH32 0x7065617400000000000000000000000000000000000000000000000000000000 PUSH1 0x40 DUP3 ADD MSTORE POP JUMP JUMPDEST PUSH0 PUSH2 0x2A62 PUSH1 0x44 DUP4 PUSH2 0x2596 JUMP JUMPDEST SWAP2 POP PUSH2 0x2A6D DUP3 PUSH2 0x29E2 JUMP JUMPDEST PUSH1 0x60 DUP3 ADD SWAP1 POP SWAP2 SWAP1 POP JUMP JUMPDEST PUSH0 PUSH1 0x20 DUP3 ADD SWAP1 POP DUP2 DUP2 SUB PUSH0 DUP4 ADD MSTORE PUSH2 0x2A8F DUP2 PUSH2 0x2A56 JUMP JUMPDEST SWAP1 POP SWAP2 SWAP1 POP JUMP JUMPDEST PUSH0 DUP2 SWAP1 POP DUP2 PUSH0 MSTORE PUSH1 0x20 PUSH0 KECCAK256 SWAP1 POP SWAP2 SWAP1 POP JUMP JUMPDEST PUSH0 PUSH1 0x20 PUSH1 0x1F DUP4 ADD DIV SWAP1 POP SWAP2 SWAP1 POP JUMP JUMPDEST PUSH0 DUP3 DUP3 SHL SWAP1 POP SWAP3 SWAP2 POP POP JUMP JUMPDEST PUSH0 PUSH1 0x8 DUP4 MUL PUSH2 0x2AF2 PUSH32 0xFFFFFFFFFFFFFFFFFFFFFFFFFFFFFFFFFFFFFFFFFFFFFFFFFFFFFFFFFFFFFFFF DUP3 PUSH2 0x2AB7 JUMP JUMPDEST PUSH2 0x2AFC DUP7 DUP4 PUSH2 0x2AB7 JUMP JUMPDEST SWAP6 POP DUP1 NOT DUP5 AND SWAP4 POP DUP1 DUP7 AND DUP5 OR SWAP3 POP POP POP SWAP4 SWAP3 POP POP POP JUMP JUMPDEST PUSH0 DUP2 SWAP1 POP SWAP2 SWAP1 POP JUMP JUMPDEST PUSH0 PUSH2 0x2B37 PUSH2 0x2B32 PUSH2 0x2B2D DUP5 PUSH2 0x1FE1 JUMP JUMPDEST PUSH2 0x2B14 JUMP JUMPDEST PUSH2 0x1FE1 JUMP JUMPDEST SWAP1 POP SWAP2 SWAP1 POP JUMP JUMPDEST PUSH0 DUP2 SWAP1 POP SWAP2 SWAP1 POP JUMP JUMPDEST PUSH2 0x2B50 DUP4 PUSH2 0x2B1D JUMP JUMPDEST PUSH2 0x2B64 PUSH2 0x2B5C DUP3 PUSH2 0x2B3E JUMP JUMPDEST DUP5 DUP5 SLOAD PUSH2 0x2AC3 JUMP JUMPDEST DUP3 SSTORE POP POP POP POP JUMP JUMPDEST PUSH0 SWAP1 JUMP JUMPDEST PUSH2 0x2B78 PUSH2 0x2B6C JUMP JUMPDEST PUSH2 0x2B83 DUP2 DUP5 DUP5 PUSH2 0x2B47 JUMP JUMPDEST POP POP POP JUMP JUMPDEST JUMPDEST DUP2 DUP2 LT ISZERO PUSH2 0x2BA6 JUMPI PUSH2 0x2B9B PUSH0 DUP3 PUSH2 0x2B70 JUMP JUMPDEST PUSH1 0x1 DUP2 ADD SWAP1 POP PUSH2 0x2B89 JUMP JUMPDEST POP POP JUMP JUMPDEST PUSH1 0x1F DUP3 GT ISZERO PUSH2 0x2BEB JUMPI PUSH2 0x2BBC DUP2 PUSH2 0x2A96 JUMP JUMPDEST PUSH2 0x2BC5 DUP5 PUSH2 0x2AA8 JUMP JUMPDEST DUP2 ADD PUSH1 0x20 DUP6 LT ISZERO PUSH2 0x2BD4 JUMPI DUP2 SWAP1 POP JUMPDEST PUSH2 0x2BE8 PUSH2 0x2BE0 DUP6 PUSH2 0x2AA8 JUMP JUMPDEST DUP4 ADD DUP3 PUSH2 0x2B88 JUMP JUMPDEST POP POP JUMPDEST POP POP POP JUMP JUMPDEST PUSH0 DUP3 DUP3 SHR SWAP1 POP SWAP3 SWAP2 POP POP JUMP JUMPDEST PUSH0 PUSH2 0x2C0B PUSH0 NOT DUP5 PUSH1 0x8 MUL PUSH2 0x2BF0 JUMP JUMPDEST NOT DUP1 DUP4 AND SWAP2 POP POP SWAP3 SWAP2 POP POP JUMP JUMPDEST PUSH0 PUSH2 0x2C23 DUP4 DUP4 PUSH2 0x2BFC JUMP JUMPDEST SWAP2 POP DUP3 PUSH1 0x2 MUL DUP3 OR SWAP1 POP SWAP3 SWAP2 POP POP JUMP JUMPDEST PUSH2 0x2C3C DUP3 PUSH2 0x1FF9 JUMP JUMPDEST PUSH8 0xFFFFFFFFFFFFFFFF DUP2 GT ISZERO PUSH2 0x2C55 JUMPI PUSH2 0x2C54 PUSH2 0x28F0 JUMP JUMPDEST JUMPDEST PUSH2 0x2C5F DUP3 SLOAD PUSH2 0x294A JUMP JUMPDEST PUSH2 0x2C6A DUP3 DUP3 DUP6 PUSH2 0x2BAA JUMP JUMPDEST PUSH0 PUSH1 0x20 SWAP1 POP PUSH1 0x1F DUP4 GT PUSH1 0x1 DUP2 EQ PUSH2 0x2C9B JUMPI PUSH0 DUP5 ISZERO PUSH2 0x2C89 JUMPI DUP3 DUP8 ADD MLOAD SWAP1 POP JUMPDEST PUSH2 0x2C93 DUP6 DUP3 PUSH2 0x2C18 JUMP JUMPDEST DUP7 SSTORE POP PUSH2 0x2CFA JUMP JUMPDEST PUSH1 0x1F NOT DUP5 AND PUSH2 0x2CA9 DUP7 PUSH2 0x2A96 JUMP JUMPDEST PUSH0 JUMPDEST DUP3 DUP2 LT ISZERO PUSH2 0x2CD0 JUMPI DUP5 DUP10 ADD MLOAD DUP3 SSTORE PUSH1 0x1 DUP3 ADD SWAP2 POP PUSH1 0x20 DUP6 ADD SWAP5 POP PUSH1 0x20 DUP2 ADD SWAP1 POP PUSH2 0x2CAB JUMP JUMPDEST DUP7 DUP4 LT ISZERO PUSH2 0x2CED JUMPI DUP5 DUP10 ADD MLOAD PUSH2 0x2CE9 PUSH1 0x1F DUP10 AND DUP3 PUSH2 0x2BFC JUMP JUMPDEST DUP4 SSTORE POP JUMPDEST PUSH1 0x1 PUSH1 0x2 DUP9 MUL ADD DUP9 SSTORE POP POP POP JUMPDEST POP POP POP POP POP POP JUMP JUMPDEST PUSH32 0x696E76616C696420616464726573730000000000000000000000000000000000 PUSH0 DUP3 ADD MSTORE POP JUMP JUMPDEST PUSH0 PUSH2 0x2D36 PUSH1 0xF DUP4 PUSH2 0x2596 JUMP JUMPDEST SWAP2 POP PUSH2 0x2D41 DUP3 PUSH2 0x2D02 JUMP JUMPDEST PUSH1 0x20 DUP3 ADD SWAP1 POP SWAP2 SWAP1 POP JUMP JUMPDEST PUSH0 PUSH1 0x20 DUP3 ADD SWAP1 POP DUP2 DUP2 SUB PUSH0 DUP4 ADD MSTORE PUSH2 0x2D63 DUP2 PUSH2 0x2D2A JUMP JUMPDEST SWAP1 POP SWAP2 SWAP1 POP JUMP JUMPDEST PUSH0 PUSH2 0x2D74 DUP3 PUSH2 0x1FE1 JUMP JUMPDEST SWAP2 POP PUSH2 0x2D7F DUP4 PUSH2 0x1FE1 JUMP JUMPDEST SWAP3 POP DUP3 DUP3 ADD SWAP1 POP DUP1 DUP3 GT ISZERO PUSH2 0x2D97 JUMPI PUSH2 0x2D96 PUSH2 0x287C JUMP JUMPDEST JUMPDEST SWAP3 SWAP2 POP POP JUMP JUMPDEST PUSH32 0x6E6F207375636820626F61726421000000000000000000000000000000000000 PUSH0 DUP3 ADD MSTORE POP JUMP JUMPDEST PUSH0 PUSH2 0x2DD1 PUSH1 0xE DUP4 PUSH2 0x2596 JUMP JUMPDEST SWAP2 POP PUSH2 0x2DDC DUP3 PUSH2 0x2D9D JUMP JUMPDEST PUSH1 0x20 DUP3 ADD SWAP1 POP SWAP2 SWAP1 POP JUMP JUMPDEST PUSH0 PUSH1 0x20 DUP3 ADD SWAP1 POP DUP2 DUP2 SUB PUSH0 DUP4 ADD MSTORE PUSH2 0x2DFE DUP2 PUSH2 0x2DC5 JUMP JUMPDEST SWAP1 POP SWAP2 SWAP1 POP JUMP JUMPDEST PUSH32 0x5468697320626F61726420686173206578706972656400000000000000000000 PUSH0 DUP3 ADD MSTORE POP JUMP JUMPDEST PUSH0 PUSH2 0x2E39 PUSH1 0x16 DUP4 PUSH2 0x2596 JUMP JUMPDEST SWAP2 POP PUSH2 0x2E44 DUP3 PUSH2 0x2E05 JUMP JUMPDEST PUSH1 0x20 DUP3 ADD SWAP1 POP SWAP2 SWAP1 POP JUMP JUMPDEST PUSH0 PUSH1 0x20 DUP3 ADD SWAP1 POP DUP2 DUP2 SUB PUSH0 DUP4 ADD MSTORE PUSH2 0x2E66 DUP2 PUSH2 0x2E2D JUMP JUMPDEST SWAP1 POP SWAP2 SWAP1 POP JUMP INVALID LOG2 PUSH5 0x6970667358 0x22 SLT KECCAK256 0xA5 0xE 0xEE 0xE3 CALL LOG4 0x2F 0x2D CALLDATASIZE 0xD3 0xE8 0x28 GAS SWAP1 0x4D SHR 0xA6 DUP11 PUSH14 0x17F676A58B63C9F27087F1797F64 PUSH20 0x6F6C634300081800330000000000000000000000 "
				},
				"gasEstimates": {
					"creation": {
						"codeDepositCost": "2387800",
						"executionCost": "31844",
						"totalCost": "2419644"
					},
					"external": {
						"boardIndex()": "2448",
						"boards(uint256)": "infinite",
						"createBoard(string,address,string,string,uint256)": "infinite",
						"donate(uint256,string,address,uint256)": "infinite",
						"donators(uint256)": "infinite",
						"getAllBoardsExpir()": "infinite",
						"getAllBoardsUnExpir()": "infinite",
						"getBoardInfo(uint256)": "infinite",
						"getBoardsByAddr(address)": "infinite",
						"getDonatorInBoard(uint256)": "infinite",
						"getDonatorInfoByAddr(address)": "infinite",
						"mutex()": "2463"
					}
				},
				"methodIdentifiers": {
					"boardIndex()": "2277c26f",
					"boards(uint256)": "9a7083f9",
					"createBoard(string,address,string,string,uint256)": "3276be61",
					"donate(uint256,string,address,uint256)": "c985e773",
					"donators(uint256)": "ac62f566",
					"getAllBoardsExpir()": "334576d9",
					"getAllBoardsUnExpir()": "0f0e609c",
					"getBoardInfo(uint256)": "d1fb28bb",
					"getBoardsByAddr(address)": "e4360055",
					"getDonatorInBoard(uint256)": "ac467355",
					"getDonatorInfoByAddr(address)": "5488d56b",
					"mutex()": "a5720770"
				}
			},
			"storageLayout": {
				"storage": [
					{
						"astId": 29,
						"contract": "contracts/Donate.sol:Donate",
						"label": "mutex",
						"offset": 0,
						"slot": "0",
						"type": "t_bool"
					},
					{
						"astId": 31,
						"contract": "contracts/Donate.sol:Donate",
						"label": "boardIndex",
						"offset": 0,
						"slot": "1",
						"type": "t_uint256"
					},
					{
						"astId": 37,
						"contract": "contracts/Donate.sol:Donate",
						"label": "donator_info",
						"offset": 0,
						"slot": "2",
						"type": "t_mapping(t_address,t_array(t_struct(Donator)10_storage)dyn_storage)"
					},
					{
						"astId": 41,
						"contract": "contracts/Donate.sol:Donate",
						"label": "donators",
						"offset": 0,
						"slot": "3",
						"type": "t_array(t_struct(Donator)10_storage)dyn_storage"
					},
					{
						"astId": 45,
						"contract": "contracts/Donate.sol:Donate",
						"label": "boards",
						"offset": 0,
						"slot": "4",
						"type": "t_array(t_struct(Board)27_storage)dyn_storage"
					}
				],
				"types": {
					"t_address": {
						"encoding": "inplace",
						"label": "address",
						"numberOfBytes": "20"
					},
					"t_array(t_struct(Board)27_storage)dyn_storage": {
						"base": "t_struct(Board)27_storage",
						"encoding": "dynamic_array",
						"label": "struct Donate.Board[]",
						"numberOfBytes": "32"
					},
					"t_array(t_struct(Donator)10_storage)dyn_storage": {
						"base": "t_struct(Donator)10_storage",
						"encoding": "dynamic_array",
						"label": "struct Donate.Donator[]",
						"numberOfBytes": "32"
					},
					"t_bool": {
						"encoding": "inplace",
						"label": "bool",
						"numberOfBytes": "1"
					},
					"t_mapping(t_address,t_array(t_struct(Donator)10_storage)dyn_storage)": {
						"encoding": "mapping",
						"key": "t_address",
						"label": "mapping(address => struct Donate.Donator[])",
						"numberOfBytes": "32",
						"value": "t_array(t_struct(Donator)10_storage)dyn_storage"
					},
					"t_string_storage": {
						"encoding": "bytes",
						"label": "string",
						"numberOfBytes": "32"
					},
					"t_struct(Board)27_storage": {
						"encoding": "inplace",
						"label": "struct Donate.Board",
						"members": [
							{
								"astId": 12,
								"contract": "contracts/Donate.sol:Donate",
								"label": "id",
								"offset": 0,
								"slot": "0",
								"type": "t_uint256"
							},
							{
								"astId": 14,
								"contract": "contracts/Donate.sol:Donate",
								"label": "name",
								"offset": 0,
								"slot": "1",
								"type": "t_string_storage"
							},
							{
								"astId": 16,
								"contract": "contracts/Donate.sol:Donate",
								"label": "context",
								"offset": 0,
								"slot": "2",
								"type": "t_string_storage"
							},
							{
								"astId": 18,
								"contract": "contracts/Donate.sol:Donate",
								"label": "host",
								"offset": 0,
								"slot": "3",
								"type": "t_address"
							},
							{
								"astId": 20,
								"contract": "contracts/Donate.sol:Donate",
								"label": "hostname",
								"offset": 0,
								"slot": "4",
								"type": "t_string_storage"
							},
							{
								"astId": 22,
								"contract": "contracts/Donate.sol:Donate",
								"label": "targetAmount",
								"offset": 0,
								"slot": "5",
								"type": "t_uint256"
							},
							{
								"astId": 24,
								"contract": "contracts/Donate.sol:Donate",
								"label": "totalAmount",
								"offset": 0,
								"slot": "6",
								"type": "t_uint256"
							},
							{
								"astId": 26,
								"contract": "contracts/Donate.sol:Donate",
								"label": "expire",
								"offset": 0,
								"slot": "7",
								"type": "t_bool"
							}
						],
						"numberOfBytes": "256"
					},
					"t_struct(Donator)10_storage": {
						"encoding": "inplace",
						"label": "struct Donate.Donator",
						"members": [
							{
								"astId": 3,
								"contract": "contracts/Donate.sol:Donate",
								"label": "targetId",
								"offset": 0,
								"slot": "0",
								"type": "t_uint256"
							},
							{
								"astId": 5,
								"contract": "contracts/Donate.sol:Donate",
								"label": "name",
								"offset": 0,
								"slot": "1",
								"type": "t_string_storage"
							},
							{
								"astId": 7,
								"contract": "contracts/Donate.sol:Donate",
								"label": "donator_addr",
								"offset": 0,
								"slot": "2",
								"type": "t_address"
							},
							{
								"astId": 9,
								"contract": "contracts/Donate.sol:Donate",
								"label": "amount",
								"offset": 0,
								"slot": "3",
								"type": "t_uint256"
							}
						],
						"numberOfBytes": "128"
					},
					"t_uint256": {
						"encoding": "inplace",
						"label": "uint256",
						"numberOfBytes": "32"
					}
				}
			},
			"userdoc": {
				"kind": "user",
				"methods": {},
				"version": 1
			}
		}
	}
}