{
	"data": {
		"bytecode": {
			"linkReferences": {},
			"object": "608060405234801561000f575f80fd5b505f80819055506114de806100235f395ff3fe608060405234801561000f575f80fd5b5060043610610060575f3560e01c80631872cd4c146100645780632277c26f146100825780633276be61146100a05780639a7083f9146100bc578063ac62f566146100f2578063d1fb28bb14610125575b5f80fd5b61006c610155565b6040516100799190610d94565b60405180910390f35b61008a6103d3565b6040516100979190610dc3565b60405180910390f35b6100ba60048036038101906100b59190610e99565b6103d8565b005b6100d660048036038101906100d19190610f70565b6105c8565b6040516100e99796959493929190610ff2565b60405180910390f35b61010c60048036038101906101079190610f70565b6107c6565b60405161011c9493929190611074565b60405180910390f35b61013f600480360381019061013a9190610f70565b6108a6565b60405161014c9190611165565b60405180910390f35b60606002805480602002602001604051908101604052809291908181526020015f905b828210156103ca578382905f5260205f2090600702016040518060e00160405290815f82015481526020016001820180546101b2906111b2565b80601f01602080910402602001604051908101604052809291908181526020018280546101de906111b2565b80156102295780601f1061020057610100808354040283529160200191610229565b820191905f5260205f20905b81548152906001019060200180831161020c57829003601f168201915b50505050508152602001600282018054610242906111b2565b80601f016020809104026020016040519081016040528092919081815260200182805461026e906111b2565b80156102b95780601f10610290576101008083540402835291602001916102b9565b820191905f5260205f20905b81548152906001019060200180831161029c57829003601f168201915b50505050508152602001600382015f9054906101000a900473ffffffffffffffffffffffffffffffffffffffff1673ffffffffffffffffffffffffffffffffffffffff1673ffffffffffffffffffffffffffffffffffffffff168152602001600482018054610327906111b2565b80601f0160208091040260200160405190810160405280929190818152602001828054610353906111b2565b801561039e5780601f106103755761010080835404028352916020019161039e565b820191905f5260205f20905b81548152906001019060200180831161038157829003601f168201915b505050505081526020016005820154815260200160068201548152505081526020019060010190610178565b50505050905090565b5f5481565b5f6040518060e001604052805f54815260200187878080601f0160208091040260200160405190810160405280939291908181526020018383808284375f81840152601f19601f82011690508083019250505050505050815260200185858080601f0160208091040260200160405190810160405280939291908181526020018383808284375f81840152601f19601f8201169050808301925050505050505081526020018873ffffffffffffffffffffffffffffffffffffffff1681526020018a8a8080601f0160208091040260200160405190810160405280939291908181526020018383808284375f81840152601f19601f8201169050808301925050505050505081526020018381526020015f8152509050600281908060018154018082558091505060019003905f5260205f2090600702015f909190919091505f820151815f0155602082015181600101908161053491906113ac565b50604082015181600201908161054a91906113ac565b506060820151816003015f6101000a81548173ffffffffffffffffffffffffffffffffffffffff021916908373ffffffffffffffffffffffffffffffffffffffff16021790555060808201518160040190816105a691906113ac565b5060a0820151816005015560c082015181600601555050505050505050505050565b600281815481106105d7575f80fd5b905f5260205f2090600702015f91509050805f0154908060010180546105fc906111b2565b80601f0160208091040260200160405190810160405280929190818152602001828054610628906111b2565b80156106735780601f1061064a57610100808354040283529160200191610673565b820191905f5260205f20905b81548152906001019060200180831161065657829003601f168201915b505050505090806002018054610688906111b2565b80601f01602080910402602001604051908101604052809291908181526020018280546106b4906111b2565b80156106ff5780601f106106d6576101008083540402835291602001916106ff565b820191905f5260205f20905b8154815290600101906020018083116106e257829003601f168201915b505050505090806003015f9054906101000a900473ffffffffffffffffffffffffffffffffffffffff1690806004018054610739906111b2565b80601f0160208091040260200160405190810160405280929190818152602001828054610765906111b2565b80156107b05780601f10610787576101008083540402835291602001916107b0565b820191905f5260205f20905b81548152906001019060200180831161079357829003601f168201915b5050505050908060050154908060060154905087565b600181815481106107d5575f80fd5b905f5260205f2090600402015f91509050805f0154908060010180546107fa906111b2565b80601f0160208091040260200160405190810160405280929190818152602001828054610826906111b2565b80156108715780601f1061084857610100808354040283529160200191610871565b820191905f5260205f20905b81548152906001019060200180831161085457829003601f168201915b505050505090806002015f9054906101000a900473ffffffffffffffffffffffffffffffffffffffff16908060030154905084565b6108ae610b02565b600282815481106108c2576108c161147b565b5b905f5260205f2090600702016040518060e00160405290815f82015481526020016001820180546108f2906111b2565b80601f016020809104026020016040519081016040528092919081815260200182805461091e906111b2565b80156109695780601f1061094057610100808354040283529160200191610969565b820191905f5260205f20905b81548152906001019060200180831161094c57829003601f168201915b50505050508152602001600282018054610982906111b2565b80601f01602080910402602001604051908101604052809291908181526020018280546109ae906111b2565b80156109f95780601f106109d0576101008083540402835291602001916109f9565b820191905f5260205f20905b8154815290600101906020018083116109dc57829003601f168201915b50505050508152602001600382015f9054906101000a900473ffffffffffffffffffffffffffffffffffffffff1673ffffffffffffffffffffffffffffffffffffffff1673ffffffffffffffffffffffffffffffffffffffff168152602001600482018054610a67906111b2565b80601f0160208091040260200160405190810160405280929190818152602001828054610a93906111b2565b8015610ade5780601f10610ab557610100808354040283529160200191610ade565b820191905f5260205f20905b815481529060010190602001808311610ac157829003601f168201915b50505050508152602001600582015481526020016006820154815250509050919050565b6040518060e001604052805f815260200160608152602001606081526020015f73ffffffffffffffffffffffffffffffffffffffff168152602001606081526020015f81526020015f81525090565b5f81519050919050565b5f82825260208201905092915050565b5f819050602082019050919050565b5f819050919050565b610b8c81610b7a565b82525050565b5f81519050919050565b5f82825260208201905092915050565b5f5b83811015610bc9578082015181840152602081019050610bae565b5f8484015250505050565b5f601f19601f8301169050919050565b5f610bee82610b92565b610bf88185610b9c565b9350610c08818560208601610bac565b610c1181610bd4565b840191505092915050565b5f73ffffffffffffffffffffffffffffffffffffffff82169050919050565b5f610c4582610c1c565b9050919050565b610c5581610c3b565b82525050565b5f60e083015f830151610c705f860182610b83565b5060208301518482036020860152610c888282610be4565b91505060408301518482036040860152610ca28282610be4565b9150506060830151610cb76060860182610c4c565b5060808301518482036080860152610ccf8282610be4565b91505060a0830151610ce460a0860182610b83565b5060c0830151610cf760c0860182610b83565b508091505092915050565b5f610d0d8383610c5b565b905092915050565b5f602082019050919050565b5f610d2b82610b51565b610d358185610b5b565b935083602082028501610d4785610b6b565b805f5b85811015610d825784840389528151610d638582610d02565b9450610d6e83610d15565b925060208a01995050600181019050610d4a565b50829750879550505050505092915050565b5f6020820190508181035f830152610dac8184610d21565b905092915050565b610dbd81610b7a565b82525050565b5f602082019050610dd65f830184610db4565b92915050565b5f80fd5b5f80fd5b5f80fd5b5f80fd5b5f80fd5b5f8083601f840112610e0557610e04610de4565b5b8235905067ffffffffffffffff811115610e2257610e21610de8565b5b602083019150836001820283011115610e3e57610e3d610dec565b5b9250929050565b610e4e81610c3b565b8114610e58575f80fd5b50565b5f81359050610e6981610e45565b92915050565b610e7881610b7a565b8114610e82575f80fd5b50565b5f81359050610e9381610e6f565b92915050565b5f805f805f805f8060a0898b031215610eb557610eb4610ddc565b5b5f89013567ffffffffffffffff811115610ed257610ed1610de0565b5b610ede8b828c01610df0565b98509850506020610ef18b828c01610e5b565b965050604089013567ffffffffffffffff811115610f1257610f11610de0565b5b610f1e8b828c01610df0565b9550955050606089013567ffffffffffffffff811115610f4157610f40610de0565b5b610f4d8b828c01610df0565b93509350506080610f608b828c01610e85565b9150509295985092959890939650565b5f60208284031215610f8557610f84610ddc565b5b5f610f9284828501610e85565b91505092915050565b5f82825260208201905092915050565b5f610fb582610b92565b610fbf8185610f9b565b9350610fcf818560208601610bac565b610fd881610bd4565b840191505092915050565b610fec81610c3b565b82525050565b5f60e0820190506110055f83018a610db4565b81810360208301526110178189610fab565b9050818103604083015261102b8188610fab565b905061103a6060830187610fe3565b818103608083015261104c8186610fab565b905061105b60a0830185610db4565b61106860c0830184610db4565b98975050505050505050565b5f6080820190506110875f830187610db4565b81810360208301526110998186610fab565b90506110a86040830185610fe3565b6110b56060830184610db4565b95945050505050565b5f60e083015f8301516110d35f860182610b83565b50602083015184820360208601526110eb8282610be4565b915050604083015184820360408601526111058282610be4565b915050606083015161111a6060860182610c4c565b50608083015184820360808601526111328282610be4565b91505060a083015161114760a0860182610b83565b5060c083015161115a60c0860182610b83565b508091505092915050565b5f6020820190508181035f83015261117d81846110be565b905092915050565b7f4e487b71000000000000000000000000000000000000000000000000000000005f52602260045260245ffd5b5f60028204905060018216806111c957607f821691505b6020821081036111dc576111db611185565b5b50919050565b7f4e487b71000000000000000000000000000000000000000000000000000000005f52604160045260245ffd5b5f819050815f5260205f209050919050565b5f6020601f8301049050919050565b5f82821b905092915050565b5f6008830261126b7fffffffffffffffffffffffffffffffffffffffffffffffffffffffffffffffff82611230565b6112758683611230565b95508019841693508086168417925050509392505050565b5f819050919050565b5f6112b06112ab6112a684610b7a565b61128d565b610b7a565b9050919050565b5f819050919050565b6112c983611296565b6112dd6112d5826112b7565b84845461123c565b825550505050565b5f90565b6112f16112e5565b6112fc8184846112c0565b505050565b5b8181101561131f576113145f826112e9565b600181019050611302565b5050565b601f821115611364576113358161120f565b61133e84611221565b8101602085101561134d578190505b61136161135985611221565b830182611301565b50505b505050565b5f82821c905092915050565b5f6113845f1984600802611369565b1980831691505092915050565b5f61139c8383611375565b9150826002028217905092915050565b6113b582610b92565b67ffffffffffffffff8111156113ce576113cd6111e2565b5b6113d882546111b2565b6113e3828285611323565b5f60209050601f831160018114611414575f8415611402578287015190505b61140c8582611391565b865550611473565b601f1984166114228661120f565b5f5b8281101561144957848901518255600182019150602085019450602081019050611424565b868310156114665784890151611462601f891682611375565b8355505b6001600288020188555050505b505050505050565b7f4e487b71000000000000000000000000000000000000000000000000000000005f52603260045260245ffdfea264697066735822122078c41a2f0af830f2cc8e5b1b23cc5ce3a31b8c96be06af273e35d02a95ba2cfe64736f6c63430008180033",
			"opcodes": "PUSH1 0x80 PUSH1 0x40 MSTORE CALLVALUE DUP1 ISZERO PUSH2 0xF JUMPI PUSH0 DUP1 REVERT JUMPDEST POP PUSH0 DUP1 DUP2 SWAP1 SSTORE POP PUSH2 0x14DE DUP1 PUSH2 0x23 PUSH0 CODECOPY PUSH0 RETURN INVALID PUSH1 0x80 PUSH1 0x40 MSTORE CALLVALUE DUP1 ISZERO PUSH2 0xF JUMPI PUSH0 DUP1 REVERT JUMPDEST POP PUSH1 0x4 CALLDATASIZE LT PUSH2 0x60 JUMPI PUSH0 CALLDATALOAD PUSH1 0xE0 SHR DUP1 PUSH4 0x1872CD4C EQ PUSH2 0x64 JUMPI DUP1 PUSH4 0x2277C26F EQ PUSH2 0x82 JUMPI DUP1 PUSH4 0x3276BE61 EQ PUSH2 0xA0 JUMPI DUP1 PUSH4 0x9A7083F9 EQ PUSH2 0xBC JUMPI DUP1 PUSH4 0xAC62F566 EQ PUSH2 0xF2 JUMPI DUP1 PUSH4 0xD1FB28BB EQ PUSH2 0x125 JUMPI JUMPDEST PUSH0 DUP1 REVERT JUMPDEST PUSH2 0x6C PUSH2 0x155 JUMP JUMPDEST PUSH1 0x40 MLOAD PUSH2 0x79 SWAP2 SWAP1 PUSH2 0xD94 JUMP JUMPDEST PUSH1 0x40 MLOAD DUP1 SWAP2 SUB SWAP1 RETURN JUMPDEST PUSH2 0x8A PUSH2 0x3D3 JUMP JUMPDEST PUSH1 0x40 MLOAD PUSH2 0x97 SWAP2 SWAP1 PUSH2 0xDC3 JUMP JUMPDEST PUSH1 0x40 MLOAD DUP1 SWAP2 SUB SWAP1 RETURN JUMPDEST PUSH2 0xBA PUSH1 0x4 DUP1 CALLDATASIZE SUB DUP2 ADD SWAP1 PUSH2 0xB5 SWAP2 SWAP1 PUSH2 0xE99 JUMP JUMPDEST PUSH2 0x3D8 JUMP JUMPDEST STOP JUMPDEST PUSH2 0xD6 PUSH1 0x4 DUP1 CALLDATASIZE SUB DUP2 ADD SWAP1 PUSH2 0xD1 SWAP2 SWAP1 PUSH2 0xF70 JUMP JUMPDEST PUSH2 0x5C8 JUMP JUMPDEST PUSH1 0x40 MLOAD PUSH2 0xE9 SWAP8 SWAP7 SWAP6 SWAP5 SWAP4 SWAP3 SWAP2 SWAP1 PUSH2 0xFF2 JUMP JUMPDEST PUSH1 0x40 MLOAD DUP1 SWAP2 SUB SWAP1 RETURN JUMPDEST PUSH2 0x10C PUSH1 0x4 DUP1 CALLDATASIZE SUB DUP2 ADD SWAP1 PUSH2 0x107 SWAP2 SWAP1 PUSH2 0xF70 JUMP JUMPDEST PUSH2 0x7C6 JUMP JUMPDEST PUSH1 0x40 MLOAD PUSH2 0x11C SWAP5 SWAP4 SWAP3 SWAP2 SWAP1 PUSH2 0x1074 JUMP JUMPDEST PUSH1 0x40 MLOAD DUP1 SWAP2 SUB SWAP1 RETURN JUMPDEST PUSH2 0x13F PUSH1 0x4 DUP1 CALLDATASIZE SUB DUP2 ADD SWAP1 PUSH2 0x13A SWAP2 SWAP1 PUSH2 0xF70 JUMP JUMPDEST PUSH2 0x8A6 JUMP JUMPDEST PUSH1 0x40 MLOAD PUSH2 0x14C SWAP2 SWAP1 PUSH2 0x1165 JUMP JUMPDEST PUSH1 0x40 MLOAD DUP1 SWAP2 SUB SWAP1 RETURN JUMPDEST PUSH1 0x60 PUSH1 0x2 DUP1 SLOAD DUP1 PUSH1 0x20 MUL PUSH1 0x20 ADD PUSH1 0x40 MLOAD SWAP1 DUP2 ADD PUSH1 0x40 MSTORE DUP1 SWAP3 SWAP2 SWAP1 DUP2 DUP2 MSTORE PUSH1 0x20 ADD PUSH0 SWAP1 JUMPDEST DUP3 DUP3 LT ISZERO PUSH2 0x3CA JUMPI DUP4 DUP3 SWAP1 PUSH0 MSTORE PUSH1 0x20 PUSH0 KECCAK256 SWAP1 PUSH1 0x7 MUL ADD PUSH1 0x40 MLOAD DUP1 PUSH1 0xE0 ADD PUSH1 0x40 MSTORE SWAP1 DUP2 PUSH0 DUP3 ADD SLOAD DUP2 MSTORE PUSH1 0x20 ADD PUSH1 0x1 DUP3 ADD DUP1 SLOAD PUSH2 0x1B2 SWAP1 PUSH2 0x11B2 JUMP JUMPDEST DUP1 PUSH1 0x1F ADD PUSH1 0x20 DUP1 SWAP2 DIV MUL PUSH1 0x20 ADD PUSH1 0x40 MLOAD SWAP1 DUP2 ADD PUSH1 0x40 MSTORE DUP1 SWAP3 SWAP2 SWAP1 DUP2 DUP2 MSTORE PUSH1 0x20 ADD DUP3 DUP1 SLOAD PUSH2 0x1DE SWAP1 PUSH2 0x11B2 JUMP JUMPDEST DUP1 ISZERO PUSH2 0x229 JUMPI DUP1 PUSH1 0x1F LT PUSH2 0x200 JUMPI PUSH2 0x100 DUP1 DUP4 SLOAD DIV MUL DUP4 MSTORE SWAP2 PUSH1 0x20 ADD SWAP2 PUSH2 0x229 JUMP JUMPDEST DUP3 ADD SWAP2 SWAP1 PUSH0 MSTORE PUSH1 0x20 PUSH0 KECCAK256 SWAP1 JUMPDEST DUP2 SLOAD DUP2 MSTORE SWAP1 PUSH1 0x1 ADD SWAP1 PUSH1 0x20 ADD DUP1 DUP4 GT PUSH2 0x20C JUMPI DUP3 SWAP1 SUB PUSH1 0x1F AND DUP3 ADD SWAP2 JUMPDEST POP POP POP POP POP DUP2 MSTORE PUSH1 0x20 ADD PUSH1 0x2 DUP3 ADD DUP1 SLOAD PUSH2 0x242 SWAP1 PUSH2 0x11B2 JUMP JUMPDEST DUP1 PUSH1 0x1F ADD PUSH1 0x20 DUP1 SWAP2 DIV MUL PUSH1 0x20 ADD PUSH1 0x40 MLOAD SWAP1 DUP2 ADD PUSH1 0x40 MSTORE DUP1 SWAP3 SWAP2 SWAP1 DUP2 DUP2 MSTORE PUSH1 0x20 ADD DUP3 DUP1 SLOAD PUSH2 0x26E SWAP1 PUSH2 0x11B2 JUMP JUMPDEST DUP1 ISZERO PUSH2 0x2B9 JUMPI DUP1 PUSH1 0x1F LT PUSH2 0x290 JUMPI PUSH2 0x100 DUP1 DUP4 SLOAD DIV MUL DUP4 MSTORE SWAP2 PUSH1 0x20 ADD SWAP2 PUSH2 0x2B9 JUMP JUMPDEST DUP3 ADD SWAP2 SWAP1 PUSH0 MSTORE PUSH1 0x20 PUSH0 KECCAK256 SWAP1 JUMPDEST DUP2 SLOAD DUP2 MSTORE SWAP1 PUSH1 0x1 ADD SWAP1 PUSH1 0x20 ADD DUP1 DUP4 GT PUSH2 0x29C JUMPI DUP3 SWAP1 SUB PUSH1 0x1F AND DUP3 ADD SWAP2 JUMPDEST POP POP POP POP POP DUP2 MSTORE PUSH1 0x20 ADD PUSH1 0x3 DUP3 ADD PUSH0 SWAP1 SLOAD SWAP1 PUSH2 0x100 EXP SWAP1 DIV PUSH20 0xFFFFFFFFFFFFFFFFFFFFFFFFFFFFFFFFFFFFFFFF AND PUSH20 0xFFFFFFFFFFFFFFFFFFFFFFFFFFFFFFFFFFFFFFFF AND PUSH20 0xFFFFFFFFFFFFFFFFFFFFFFFFFFFFFFFFFFFFFFFF AND DUP2 MSTORE PUSH1 0x20 ADD PUSH1 0x4 DUP3 ADD DUP1 SLOAD PUSH2 0x327 SWAP1 PUSH2 0x11B2 JUMP JUMPDEST DUP1 PUSH1 0x1F ADD PUSH1 0x20 DUP1 SWAP2 DIV MUL PUSH1 0x20 ADD PUSH1 0x40 MLOAD SWAP1 DUP2 ADD PUSH1 0x40 MSTORE DUP1 SWAP3 SWAP2 SWAP1 DUP2 DUP2 MSTORE PUSH1 0x20 ADD DUP3 DUP1 SLOAD PUSH2 0x353 SWAP1 PUSH2 0x11B2 JUMP JUMPDEST DUP1 ISZERO PUSH2 0x39E JUMPI DUP1 PUSH1 0x1F LT PUSH2 0x375 JUMPI PUSH2 0x100 DUP1 DUP4 SLOAD DIV MUL DUP4 MSTORE SWAP2 PUSH1 0x20 ADD SWAP2 PUSH2 0x39E JUMP JUMPDEST DUP3 ADD SWAP2 SWAP1 PUSH0 MSTORE PUSH1 0x20 PUSH0 KECCAK256 SWAP1 JUMPDEST DUP2 SLOAD DUP2 MSTORE SWAP1 PUSH1 0x1 ADD SWAP1 PUSH1 0x20 ADD DUP1 DUP4 GT PUSH2 0x381 JUMPI DUP3 SWAP1 SUB PUSH1 0x1F AND DUP3 ADD SWAP2 JUMPDEST POP POP POP POP POP DUP2 MSTORE PUSH1 0x20 ADD PUSH1 0x5 DUP3 ADD SLOAD DUP2 MSTORE PUSH1 0x20 ADD PUSH1 0x6 DUP3 ADD SLOAD DUP2 MSTORE POP POP DUP2 MSTORE PUSH1 0x20 ADD SWAP1 PUSH1 0x1 ADD SWAP1 PUSH2 0x178 JUMP JUMPDEST POP POP POP POP SWAP1 POP SWAP1 JUMP JUMPDEST PUSH0 SLOAD DUP2 JUMP JUMPDEST PUSH0 PUSH1 0x40 MLOAD DUP1 PUSH1 0xE0 ADD PUSH1 0x40 MSTORE DUP1 PUSH0 SLOAD DUP2 MSTORE PUSH1 0x20 ADD DUP8 DUP8 DUP1 DUP1 PUSH1 0x1F ADD PUSH1 0x20 DUP1 SWAP2 DIV MUL PUSH1 0x20 ADD PUSH1 0x40 MLOAD SWAP1 DUP2 ADD PUSH1 0x40 MSTORE DUP1 SWAP4 SWAP3 SWAP2 SWAP1 DUP2 DUP2 MSTORE PUSH1 0x20 ADD DUP4 DUP4 DUP1 DUP3 DUP5 CALLDATACOPY PUSH0 DUP2 DUP5 ADD MSTORE PUSH1 0x1F NOT PUSH1 0x1F DUP3 ADD AND SWAP1 POP DUP1 DUP4 ADD SWAP3 POP POP POP POP POP POP POP DUP2 MSTORE PUSH1 0x20 ADD DUP6 DUP6 DUP1 DUP1 PUSH1 0x1F ADD PUSH1 0x20 DUP1 SWAP2 DIV MUL PUSH1 0x20 ADD PUSH1 0x40 MLOAD SWAP1 DUP2 ADD PUSH1 0x40 MSTORE DUP1 SWAP4 SWAP3 SWAP2 SWAP1 DUP2 DUP2 MSTORE PUSH1 0x20 ADD DUP4 DUP4 DUP1 DUP3 DUP5 CALLDATACOPY PUSH0 DUP2 DUP5 ADD MSTORE PUSH1 0x1F NOT PUSH1 0x1F DUP3 ADD AND SWAP1 POP DUP1 DUP4 ADD SWAP3 POP POP POP POP POP POP POP DUP2 MSTORE PUSH1 0x20 ADD DUP9 PUSH20 0xFFFFFFFFFFFFFFFFFFFFFFFFFFFFFFFFFFFFFFFF AND DUP2 MSTORE PUSH1 0x20 ADD DUP11 DUP11 DUP1 DUP1 PUSH1 0x1F ADD PUSH1 0x20 DUP1 SWAP2 DIV MUL PUSH1 0x20 ADD PUSH1 0x40 MLOAD SWAP1 DUP2 ADD PUSH1 0x40 MSTORE DUP1 SWAP4 SWAP3 SWAP2 SWAP1 DUP2 DUP2 MSTORE PUSH1 0x20 ADD DUP4 DUP4 DUP1 DUP3 DUP5 CALLDATACOPY PUSH0 DUP2 DUP5 ADD MSTORE PUSH1 0x1F NOT PUSH1 0x1F DUP3 ADD AND SWAP1 POP DUP1 DUP4 ADD SWAP3 POP POP POP POP POP POP POP DUP2 MSTORE PUSH1 0x20 ADD DUP4 DUP2 MSTORE PUSH1 0x20 ADD PUSH0 DUP2 MSTORE POP SWAP1 POP PUSH1 0x2 DUP2 SWAP1 DUP1 PUSH1 0x1 DUP2 SLOAD ADD DUP1 DUP3 SSTORE DUP1 SWAP2 POP POP PUSH1 0x1 SWAP1 SUB SWAP1 PUSH0 MSTORE PUSH1 0x20 PUSH0 KECCAK256 SWAP1 PUSH1 0x7 MUL ADD PUSH0 SWAP1 SWAP2 SWAP1 SWAP2 SWAP1 SWAP2 POP PUSH0 DUP3 ADD MLOAD DUP2 PUSH0 ADD SSTORE PUSH1 0x20 DUP3 ADD MLOAD DUP2 PUSH1 0x1 ADD SWAP1 DUP2 PUSH2 0x534 SWAP2 SWAP1 PUSH2 0x13AC JUMP JUMPDEST POP PUSH1 0x40 DUP3 ADD MLOAD DUP2 PUSH1 0x2 ADD SWAP1 DUP2 PUSH2 0x54A SWAP2 SWAP1 PUSH2 0x13AC JUMP JUMPDEST POP PUSH1 0x60 DUP3 ADD MLOAD DUP2 PUSH1 0x3 ADD PUSH0 PUSH2 0x100 EXP DUP2 SLOAD DUP2 PUSH20 0xFFFFFFFFFFFFFFFFFFFFFFFFFFFFFFFFFFFFFFFF MUL NOT AND SWAP1 DUP4 PUSH20 0xFFFFFFFFFFFFFFFFFFFFFFFFFFFFFFFFFFFFFFFF AND MUL OR SWAP1 SSTORE POP PUSH1 0x80 DUP3 ADD MLOAD DUP2 PUSH1 0x4 ADD SWAP1 DUP2 PUSH2 0x5A6 SWAP2 SWAP1 PUSH2 0x13AC JUMP JUMPDEST POP PUSH1 0xA0 DUP3 ADD MLOAD DUP2 PUSH1 0x5 ADD SSTORE PUSH1 0xC0 DUP3 ADD MLOAD DUP2 PUSH1 0x6 ADD SSTORE POP POP POP POP POP POP POP POP POP POP POP JUMP JUMPDEST PUSH1 0x2 DUP2 DUP2 SLOAD DUP2 LT PUSH2 0x5D7 JUMPI PUSH0 DUP1 REVERT JUMPDEST SWAP1 PUSH0 MSTORE PUSH1 0x20 PUSH0 KECCAK256 SWAP1 PUSH1 0x7 MUL ADD PUSH0 SWAP2 POP SWAP1 POP DUP1 PUSH0 ADD SLOAD SWAP1 DUP1 PUSH1 0x1 ADD DUP1 SLOAD PUSH2 0x5FC SWAP1 PUSH2 0x11B2 JUMP JUMPDEST DUP1 PUSH1 0x1F ADD PUSH1 0x20 DUP1 SWAP2 DIV MUL PUSH1 0x20 ADD PUSH1 0x40 MLOAD SWAP1 DUP2 ADD PUSH1 0x40 MSTORE DUP1 SWAP3 SWAP2 SWAP1 DUP2 DUP2 MSTORE PUSH1 0x20 ADD DUP3 DUP1 SLOAD PUSH2 0x628 SWAP1 PUSH2 0x11B2 JUMP JUMPDEST DUP1 ISZERO PUSH2 0x673 JUMPI DUP1 PUSH1 0x1F LT PUSH2 0x64A JUMPI PUSH2 0x100 DUP1 DUP4 SLOAD DIV MUL DUP4 MSTORE SWAP2 PUSH1 0x20 ADD SWAP2 PUSH2 0x673 JUMP JUMPDEST DUP3 ADD SWAP2 SWAP1 PUSH0 MSTORE PUSH1 0x20 PUSH0 KECCAK256 SWAP1 JUMPDEST DUP2 SLOAD DUP2 MSTORE SWAP1 PUSH1 0x1 ADD SWAP1 PUSH1 0x20 ADD DUP1 DUP4 GT PUSH2 0x656 JUMPI DUP3 SWAP1 SUB PUSH1 0x1F AND DUP3 ADD SWAP2 JUMPDEST POP POP POP POP POP SWAP1 DUP1 PUSH1 0x2 ADD DUP1 SLOAD PUSH2 0x688 SWAP1 PUSH2 0x11B2 JUMP JUMPDEST DUP1 PUSH1 0x1F ADD PUSH1 0x20 DUP1 SWAP2 DIV MUL PUSH1 0x20 ADD PUSH1 0x40 MLOAD SWAP1 DUP2 ADD PUSH1 0x40 MSTORE DUP1 SWAP3 SWAP2 SWAP1 DUP2 DUP2 MSTORE PUSH1 0x20 ADD DUP3 DUP1 SLOAD PUSH2 0x6B4 SWAP1 PUSH2 0x11B2 JUMP JUMPDEST DUP1 ISZERO PUSH2 0x6FF JUMPI DUP1 PUSH1 0x1F LT PUSH2 0x6D6 JUMPI PUSH2 0x100 DUP1 DUP4 SLOAD DIV MUL DUP4 MSTORE SWAP2 PUSH1 0x20 ADD SWAP2 PUSH2 0x6FF JUMP JUMPDEST DUP3 ADD SWAP2 SWAP1 PUSH0 MSTORE PUSH1 0x20 PUSH0 KECCAK256 SWAP1 JUMPDEST DUP2 SLOAD DUP2 MSTORE SWAP1 PUSH1 0x1 ADD SWAP1 PUSH1 0x20 ADD DUP1 DUP4 GT PUSH2 0x6E2 JUMPI DUP3 SWAP1 SUB PUSH1 0x1F AND DUP3 ADD SWAP2 JUMPDEST POP POP POP POP POP SWAP1 DUP1 PUSH1 0x3 ADD PUSH0 SWAP1 SLOAD SWAP1 PUSH2 0x100 EXP SWAP1 DIV PUSH20 0xFFFFFFFFFFFFFFFFFFFFFFFFFFFFFFFFFFFFFFFF AND SWAP1 DUP1 PUSH1 0x4 ADD DUP1 SLOAD PUSH2 0x739 SWAP1 PUSH2 0x11B2 JUMP JUMPDEST DUP1 PUSH1 0x1F ADD PUSH1 0x20 DUP1 SWAP2 DIV MUL PUSH1 0x20 ADD PUSH1 0x40 MLOAD SWAP1 DUP2 ADD PUSH1 0x40 MSTORE DUP1 SWAP3 SWAP2 SWAP1 DUP2 DUP2 MSTORE PUSH1 0x20 ADD DUP3 DUP1 SLOAD PUSH2 0x765 SWAP1 PUSH2 0x11B2 JUMP JUMPDEST DUP1 ISZERO PUSH2 0x7B0 JUMPI DUP1 PUSH1 0x1F LT PUSH2 0x787 JUMPI PUSH2 0x100 DUP1 DUP4 SLOAD DIV MUL DUP4 MSTORE SWAP2 PUSH1 0x20 ADD SWAP2 PUSH2 0x7B0 JUMP JUMPDEST DUP3 ADD SWAP2 SWAP1 PUSH0 MSTORE PUSH1 0x20 PUSH0 KECCAK256 SWAP1 JUMPDEST DUP2 SLOAD DUP2 MSTORE SWAP1 PUSH1 0x1 ADD SWAP1 PUSH1 0x20 ADD DUP1 DUP4 GT PUSH2 0x793 JUMPI DUP3 SWAP1 SUB PUSH1 0x1F AND DUP3 ADD SWAP2 JUMPDEST POP POP POP POP POP SWAP1 DUP1 PUSH1 0x5 ADD SLOAD SWAP1 DUP1 PUSH1 0x6 ADD SLOAD SWAP1 POP DUP8 JUMP JUMPDEST PUSH1 0x1 DUP2 DUP2 SLOAD DUP2 LT PUSH2 0x7D5 JUMPI PUSH0 DUP1 REVERT JUMPDEST SWAP1 PUSH0 MSTORE PUSH1 0x20 PUSH0 KECCAK256 SWAP1 PUSH1 0x4 MUL ADD PUSH0 SWAP2 POP SWAP1 POP DUP1 PUSH0 ADD SLOAD SWAP1 DUP1 PUSH1 0x1 ADD DUP1 SLOAD PUSH2 0x7FA SWAP1 PUSH2 0x11B2 JUMP JUMPDEST DUP1 PUSH1 0x1F ADD PUSH1 0x20 DUP1 SWAP2 DIV MUL PUSH1 0x20 ADD PUSH1 0x40 MLOAD SWAP1 DUP2 ADD PUSH1 0x40 MSTORE DUP1 SWAP3 SWAP2 SWAP1 DUP2 DUP2 MSTORE PUSH1 0x20 ADD DUP3 DUP1 SLOAD PUSH2 0x826 SWAP1 PUSH2 0x11B2 JUMP JUMPDEST DUP1 ISZERO PUSH2 0x871 JUMPI DUP1 PUSH1 0x1F LT PUSH2 0x848 JUMPI PUSH2 0x100 DUP1 DUP4 SLOAD DIV MUL DUP4 MSTORE SWAP2 PUSH1 0x20 ADD SWAP2 PUSH2 0x871 JUMP JUMPDEST DUP3 ADD SWAP2 SWAP1 PUSH0 MSTORE PUSH1 0x20 PUSH0 KECCAK256 SWAP1 JUMPDEST DUP2 SLOAD DUP2 MSTORE SWAP1 PUSH1 0x1 ADD SWAP1 PUSH1 0x20 ADD DUP1 DUP4 GT PUSH2 0x854 JUMPI DUP3 SWAP1 SUB PUSH1 0x1F AND DUP3 ADD SWAP2 JUMPDEST POP POP POP POP POP SWAP1 DUP1 PUSH1 0x2 ADD PUSH0 SWAP1 SLOAD SWAP1 PUSH2 0x100 EXP SWAP1 DIV PUSH20 0xFFFFFFFFFFFFFFFFFFFFFFFFFFFFFFFFFFFFFFFF AND SWAP1 DUP1 PUSH1 0x3 ADD SLOAD SWAP1 POP DUP5 JUMP JUMPDEST PUSH2 0x8AE PUSH2 0xB02 JUMP JUMPDEST PUSH1 0x2 DUP3 DUP2 SLOAD DUP2 LT PUSH2 0x8C2 JUMPI PUSH2 0x8C1 PUSH2 0x147B JUMP JUMPDEST JUMPDEST SWAP1 PUSH0 MSTORE PUSH1 0x20 PUSH0 KECCAK256 SWAP1 PUSH1 0x7 MUL ADD PUSH1 0x40 MLOAD DUP1 PUSH1 0xE0 ADD PUSH1 0x40 MSTORE SWAP1 DUP2 PUSH0 DUP3 ADD SLOAD DUP2 MSTORE PUSH1 0x20 ADD PUSH1 0x1 DUP3 ADD DUP1 SLOAD PUSH2 0x8F2 SWAP1 PUSH2 0x11B2 JUMP JUMPDEST DUP1 PUSH1 0x1F ADD PUSH1 0x20 DUP1 SWAP2 DIV MUL PUSH1 0x20 ADD PUSH1 0x40 MLOAD SWAP1 DUP2 ADD PUSH1 0x40 MSTORE DUP1 SWAP3 SWAP2 SWAP1 DUP2 DUP2 MSTORE PUSH1 0x20 ADD DUP3 DUP1 SLOAD PUSH2 0x91E SWAP1 PUSH2 0x11B2 JUMP JUMPDEST DUP1 ISZERO PUSH2 0x969 JUMPI DUP1 PUSH1 0x1F LT PUSH2 0x940 JUMPI PUSH2 0x100 DUP1 DUP4 SLOAD DIV MUL DUP4 MSTORE SWAP2 PUSH1 0x20 ADD SWAP2 PUSH2 0x969 JUMP JUMPDEST DUP3 ADD SWAP2 SWAP1 PUSH0 MSTORE PUSH1 0x20 PUSH0 KECCAK256 SWAP1 JUMPDEST DUP2 SLOAD DUP2 MSTORE SWAP1 PUSH1 0x1 ADD SWAP1 PUSH1 0x20 ADD DUP1 DUP4 GT PUSH2 0x94C JUMPI DUP3 SWAP1 SUB PUSH1 0x1F AND DUP3 ADD SWAP2 JUMPDEST POP POP POP POP POP DUP2 MSTORE PUSH1 0x20 ADD PUSH1 0x2 DUP3 ADD DUP1 SLOAD PUSH2 0x982 SWAP1 PUSH2 0x11B2 JUMP JUMPDEST DUP1 PUSH1 0x1F ADD PUSH1 0x20 DUP1 SWAP2 DIV MUL PUSH1 0x20 ADD PUSH1 0x40 MLOAD SWAP1 DUP2 ADD PUSH1 0x40 MSTORE DUP1 SWAP3 SWAP2 SWAP1 DUP2 DUP2 MSTORE PUSH1 0x20 ADD DUP3 DUP1 SLOAD PUSH2 0x9AE SWAP1 PUSH2 0x11B2 JUMP JUMPDEST DUP1 ISZERO PUSH2 0x9F9 JUMPI DUP1 PUSH1 0x1F LT PUSH2 0x9D0 JUMPI PUSH2 0x100 DUP1 DUP4 SLOAD DIV MUL DUP4 MSTORE SWAP2 PUSH1 0x20 ADD SWAP2 PUSH2 0x9F9 JUMP JUMPDEST DUP3 ADD SWAP2 SWAP1 PUSH0 MSTORE PUSH1 0x20 PUSH0 KECCAK256 SWAP1 JUMPDEST DUP2 SLOAD DUP2 MSTORE SWAP1 PUSH1 0x1 ADD SWAP1 PUSH1 0x20 ADD DUP1 DUP4 GT PUSH2 0x9DC JUMPI DUP3 SWAP1 SUB PUSH1 0x1F AND DUP3 ADD SWAP2 JUMPDEST POP POP POP POP POP DUP2 MSTORE PUSH1 0x20 ADD PUSH1 0x3 DUP3 ADD PUSH0 SWAP1 SLOAD SWAP1 PUSH2 0x100 EXP SWAP1 DIV PUSH20 0xFFFFFFFFFFFFFFFFFFFFFFFFFFFFFFFFFFFFFFFF AND PUSH20 0xFFFFFFFFFFFFFFFFFFFFFFFFFFFFFFFFFFFFFFFF AND PUSH20 0xFFFFFFFFFFFFFFFFFFFFFFFFFFFFFFFFFFFFFFFF AND DUP2 MSTORE PUSH1 0x20 ADD PUSH1 0x4 DUP3 ADD DUP1 SLOAD PUSH2 0xA67 SWAP1 PUSH2 0x11B2 JUMP JUMPDEST DUP1 PUSH1 0x1F ADD PUSH1 0x20 DUP1 SWAP2 DIV MUL PUSH1 0x20 ADD PUSH1 0x40 MLOAD SWAP1 DUP2 ADD PUSH1 0x40 MSTORE DUP1 SWAP3 SWAP2 SWAP1 DUP2 DUP2 MSTORE PUSH1 0x20 ADD DUP3 DUP1 SLOAD PUSH2 0xA93 SWAP1 PUSH2 0x11B2 JUMP JUMPDEST DUP1 ISZERO PUSH2 0xADE JUMPI DUP1 PUSH1 0x1F LT PUSH2 0xAB5 JUMPI PUSH2 0x100 DUP1 DUP4 SLOAD DIV MUL DUP4 MSTORE SWAP2 PUSH1 0x20 ADD SWAP2 PUSH2 0xADE JUMP JUMPDEST DUP3 ADD SWAP2 SWAP1 PUSH0 MSTORE PUSH1 0x20 PUSH0 KECCAK256 SWAP1 JUMPDEST DUP2 SLOAD DUP2 MSTORE SWAP1 PUSH1 0x1 ADD SWAP1 PUSH1 0x20 ADD DUP1 DUP4 GT PUSH2 0xAC1 JUMPI DUP3 SWAP1 SUB PUSH1 0x1F AND DUP3 ADD SWAP2 JUMPDEST POP POP POP POP POP DUP2 MSTORE PUSH1 0x20 ADD PUSH1 0x5 DUP3 ADD SLOAD DUP2 MSTORE PUSH1 0x20 ADD PUSH1 0x6 DUP3 ADD SLOAD DUP2 MSTORE POP POP SWAP1 POP SWAP2 SWAP1 POP JUMP JUMPDEST PUSH1 0x40 MLOAD DUP1 PUSH1 0xE0 ADD PUSH1 0x40 MSTORE DUP1 PUSH0 DUP2 MSTORE PUSH1 0x20 ADD PUSH1 0x60 DUP2 MSTORE PUSH1 0x20 ADD PUSH1 0x60 DUP2 MSTORE PUSH1 0x20 ADD PUSH0 PUSH20 0xFFFFFFFFFFFFFFFFFFFFFFFFFFFFFFFFFFFFFFFF AND DUP2 MSTORE PUSH1 0x20 ADD PUSH1 0x60 DUP2 MSTORE PUSH1 0x20 ADD PUSH0 DUP2 MSTORE PUSH1 0x20 ADD PUSH0 DUP2 MSTORE POP SWAP1 JUMP JUMPDEST PUSH0 DUP2 MLOAD SWAP1 POP SWAP2 SWAP1 POP JUMP JUMPDEST PUSH0 DUP3 DUP3 MSTORE PUSH1 0x20 DUP3 ADD SWAP1 POP SWAP3 SWAP2 POP POP JUMP JUMPDEST PUSH0 DUP2 SWAP1 POP PUSH1 0x20 DUP3 ADD SWAP1 POP SWAP2 SWAP1 POP JUMP JUMPDEST PUSH0 DUP2 SWAP1 POP SWAP2 SWAP1 POP JUMP JUMPDEST PUSH2 0xB8C DUP2 PUSH2 0xB7A JUMP JUMPDEST DUP3 MSTORE POP POP JUMP JUMPDEST PUSH0 DUP2 MLOAD SWAP1 POP SWAP2 SWAP1 POP JUMP JUMPDEST PUSH0 DUP3 DUP3 MSTORE PUSH1 0x20 DUP3 ADD SWAP1 POP SWAP3 SWAP2 POP POP JUMP JUMPDEST PUSH0 JUMPDEST DUP4 DUP2 LT ISZERO PUSH2 0xBC9 JUMPI DUP1 DUP3 ADD MLOAD DUP2 DUP5 ADD MSTORE PUSH1 0x20 DUP2 ADD SWAP1 POP PUSH2 0xBAE JUMP JUMPDEST PUSH0 DUP5 DUP5 ADD MSTORE POP POP POP POP JUMP JUMPDEST PUSH0 PUSH1 0x1F NOT PUSH1 0x1F DUP4 ADD AND SWAP1 POP SWAP2 SWAP1 POP JUMP JUMPDEST PUSH0 PUSH2 0xBEE DUP3 PUSH2 0xB92 JUMP JUMPDEST PUSH2 0xBF8 DUP2 DUP6 PUSH2 0xB9C JUMP JUMPDEST SWAP4 POP PUSH2 0xC08 DUP2 DUP6 PUSH1 0x20 DUP7 ADD PUSH2 0xBAC JUMP JUMPDEST PUSH2 0xC11 DUP2 PUSH2 0xBD4 JUMP JUMPDEST DUP5 ADD SWAP2 POP POP SWAP3 SWAP2 POP POP JUMP JUMPDEST PUSH0 PUSH20 0xFFFFFFFFFFFFFFFFFFFFFFFFFFFFFFFFFFFFFFFF DUP3 AND SWAP1 POP SWAP2 SWAP1 POP JUMP JUMPDEST PUSH0 PUSH2 0xC45 DUP3 PUSH2 0xC1C JUMP JUMPDEST SWAP1 POP SWAP2 SWAP1 POP JUMP JUMPDEST PUSH2 0xC55 DUP2 PUSH2 0xC3B JUMP JUMPDEST DUP3 MSTORE POP POP JUMP JUMPDEST PUSH0 PUSH1 0xE0 DUP4 ADD PUSH0 DUP4 ADD MLOAD PUSH2 0xC70 PUSH0 DUP7 ADD DUP3 PUSH2 0xB83 JUMP JUMPDEST POP PUSH1 0x20 DUP4 ADD MLOAD DUP5 DUP3 SUB PUSH1 0x20 DUP7 ADD MSTORE PUSH2 0xC88 DUP3 DUP3 PUSH2 0xBE4 JUMP JUMPDEST SWAP2 POP POP PUSH1 0x40 DUP4 ADD MLOAD DUP5 DUP3 SUB PUSH1 0x40 DUP7 ADD MSTORE PUSH2 0xCA2 DUP3 DUP3 PUSH2 0xBE4 JUMP JUMPDEST SWAP2 POP POP PUSH1 0x60 DUP4 ADD MLOAD PUSH2 0xCB7 PUSH1 0x60 DUP7 ADD DUP3 PUSH2 0xC4C JUMP JUMPDEST POP PUSH1 0x80 DUP4 ADD MLOAD DUP5 DUP3 SUB PUSH1 0x80 DUP7 ADD MSTORE PUSH2 0xCCF DUP3 DUP3 PUSH2 0xBE4 JUMP JUMPDEST SWAP2 POP POP PUSH1 0xA0 DUP4 ADD MLOAD PUSH2 0xCE4 PUSH1 0xA0 DUP7 ADD DUP3 PUSH2 0xB83 JUMP JUMPDEST POP PUSH1 0xC0 DUP4 ADD MLOAD PUSH2 0xCF7 PUSH1 0xC0 DUP7 ADD DUP3 PUSH2 0xB83 JUMP JUMPDEST POP DUP1 SWAP2 POP POP SWAP3 SWAP2 POP POP JUMP JUMPDEST PUSH0 PUSH2 0xD0D DUP4 DUP4 PUSH2 0xC5B JUMP JUMPDEST SWAP1 POP SWAP3 SWAP2 POP POP JUMP JUMPDEST PUSH0 PUSH1 0x20 DUP3 ADD SWAP1 POP SWAP2 SWAP1 POP JUMP JUMPDEST PUSH0 PUSH2 0xD2B DUP3 PUSH2 0xB51 JUMP JUMPDEST PUSH2 0xD35 DUP2 DUP6 PUSH2 0xB5B JUMP JUMPDEST SWAP4 POP DUP4 PUSH1 0x20 DUP3 MUL DUP6 ADD PUSH2 0xD47 DUP6 PUSH2 0xB6B JUMP JUMPDEST DUP1 PUSH0 JUMPDEST DUP6 DUP2 LT ISZERO PUSH2 0xD82 JUMPI DUP5 DUP5 SUB DUP10 MSTORE DUP2 MLOAD PUSH2 0xD63 DUP6 DUP3 PUSH2 0xD02 JUMP JUMPDEST SWAP5 POP PUSH2 0xD6E DUP4 PUSH2 0xD15 JUMP JUMPDEST SWAP3 POP PUSH1 0x20 DUP11 ADD SWAP10 POP POP PUSH1 0x1 DUP2 ADD SWAP1 POP PUSH2 0xD4A JUMP JUMPDEST POP DUP3 SWAP8 POP DUP8 SWAP6 POP POP POP POP POP POP SWAP3 SWAP2 POP POP JUMP JUMPDEST PUSH0 PUSH1 0x20 DUP3 ADD SWAP1 POP DUP2 DUP2 SUB PUSH0 DUP4 ADD MSTORE PUSH2 0xDAC DUP2 DUP5 PUSH2 0xD21 JUMP JUMPDEST SWAP1 POP SWAP3 SWAP2 POP POP JUMP JUMPDEST PUSH2 0xDBD DUP2 PUSH2 0xB7A JUMP JUMPDEST DUP3 MSTORE POP POP JUMP JUMPDEST PUSH0 PUSH1 0x20 DUP3 ADD SWAP1 POP PUSH2 0xDD6 PUSH0 DUP4 ADD DUP5 PUSH2 0xDB4 JUMP JUMPDEST SWAP3 SWAP2 POP POP JUMP JUMPDEST PUSH0 DUP1 REVERT JUMPDEST PUSH0 DUP1 REVERT JUMPDEST PUSH0 DUP1 REVERT JUMPDEST PUSH0 DUP1 REVERT JUMPDEST PUSH0 DUP1 REVERT JUMPDEST PUSH0 DUP1 DUP4 PUSH1 0x1F DUP5 ADD SLT PUSH2 0xE05 JUMPI PUSH2 0xE04 PUSH2 0xDE4 JUMP JUMPDEST JUMPDEST DUP3 CALLDATALOAD SWAP1 POP PUSH8 0xFFFFFFFFFFFFFFFF DUP2 GT ISZERO PUSH2 0xE22 JUMPI PUSH2 0xE21 PUSH2 0xDE8 JUMP JUMPDEST JUMPDEST PUSH1 0x20 DUP4 ADD SWAP2 POP DUP4 PUSH1 0x1 DUP3 MUL DUP4 ADD GT ISZERO PUSH2 0xE3E JUMPI PUSH2 0xE3D PUSH2 0xDEC JUMP JUMPDEST JUMPDEST SWAP3 POP SWAP3 SWAP1 POP JUMP JUMPDEST PUSH2 0xE4E DUP2 PUSH2 0xC3B JUMP JUMPDEST DUP2 EQ PUSH2 0xE58 JUMPI PUSH0 DUP1 REVERT JUMPDEST POP JUMP JUMPDEST PUSH0 DUP2 CALLDATALOAD SWAP1 POP PUSH2 0xE69 DUP2 PUSH2 0xE45 JUMP JUMPDEST SWAP3 SWAP2 POP POP JUMP JUMPDEST PUSH2 0xE78 DUP2 PUSH2 0xB7A JUMP JUMPDEST DUP2 EQ PUSH2 0xE82 JUMPI PUSH0 DUP1 REVERT JUMPDEST POP JUMP JUMPDEST PUSH0 DUP2 CALLDATALOAD SWAP1 POP PUSH2 0xE93 DUP2 PUSH2 0xE6F JUMP JUMPDEST SWAP3 SWAP2 POP POP JUMP JUMPDEST PUSH0 DUP1 PUSH0 DUP1 PUSH0 DUP1 PUSH0 DUP1 PUSH1 0xA0 DUP10 DUP12 SUB SLT ISZERO PUSH2 0xEB5 JUMPI PUSH2 0xEB4 PUSH2 0xDDC JUMP JUMPDEST JUMPDEST PUSH0 DUP10 ADD CALLDATALOAD PUSH8 0xFFFFFFFFFFFFFFFF DUP2 GT ISZERO PUSH2 0xED2 JUMPI PUSH2 0xED1 PUSH2 0xDE0 JUMP JUMPDEST JUMPDEST PUSH2 0xEDE DUP12 DUP3 DUP13 ADD PUSH2 0xDF0 JUMP JUMPDEST SWAP9 POP SWAP9 POP POP PUSH1 0x20 PUSH2 0xEF1 DUP12 DUP3 DUP13 ADD PUSH2 0xE5B JUMP JUMPDEST SWAP7 POP POP PUSH1 0x40 DUP10 ADD CALLDATALOAD PUSH8 0xFFFFFFFFFFFFFFFF DUP2 GT ISZERO PUSH2 0xF12 JUMPI PUSH2 0xF11 PUSH2 0xDE0 JUMP JUMPDEST JUMPDEST PUSH2 0xF1E DUP12 DUP3 DUP13 ADD PUSH2 0xDF0 JUMP JUMPDEST SWAP6 POP SWAP6 POP POP PUSH1 0x60 DUP10 ADD CALLDATALOAD PUSH8 0xFFFFFFFFFFFFFFFF DUP2 GT ISZERO PUSH2 0xF41 JUMPI PUSH2 0xF40 PUSH2 0xDE0 JUMP JUMPDEST JUMPDEST PUSH2 0xF4D DUP12 DUP3 DUP13 ADD PUSH2 0xDF0 JUMP JUMPDEST SWAP4 POP SWAP4 POP POP PUSH1 0x80 PUSH2 0xF60 DUP12 DUP3 DUP13 ADD PUSH2 0xE85 JUMP JUMPDEST SWAP2 POP POP SWAP3 SWAP6 SWAP9 POP SWAP3 SWAP6 SWAP9 SWAP1 SWAP4 SWAP7 POP JUMP JUMPDEST PUSH0 PUSH1 0x20 DUP3 DUP5 SUB SLT ISZERO PUSH2 0xF85 JUMPI PUSH2 0xF84 PUSH2 0xDDC JUMP JUMPDEST JUMPDEST PUSH0 PUSH2 0xF92 DUP5 DUP3 DUP6 ADD PUSH2 0xE85 JUMP JUMPDEST SWAP2 POP POP SWAP3 SWAP2 POP POP JUMP JUMPDEST PUSH0 DUP3 DUP3 MSTORE PUSH1 0x20 DUP3 ADD SWAP1 POP SWAP3 SWAP2 POP POP JUMP JUMPDEST PUSH0 PUSH2 0xFB5 DUP3 PUSH2 0xB92 JUMP JUMPDEST PUSH2 0xFBF DUP2 DUP6 PUSH2 0xF9B JUMP JUMPDEST SWAP4 POP PUSH2 0xFCF DUP2 DUP6 PUSH1 0x20 DUP7 ADD PUSH2 0xBAC JUMP JUMPDEST PUSH2 0xFD8 DUP2 PUSH2 0xBD4 JUMP JUMPDEST DUP5 ADD SWAP2 POP POP SWAP3 SWAP2 POP POP JUMP JUMPDEST PUSH2 0xFEC DUP2 PUSH2 0xC3B JUMP JUMPDEST DUP3 MSTORE POP POP JUMP JUMPDEST PUSH0 PUSH1 0xE0 DUP3 ADD SWAP1 POP PUSH2 0x1005 PUSH0 DUP4 ADD DUP11 PUSH2 0xDB4 JUMP JUMPDEST DUP2 DUP2 SUB PUSH1 0x20 DUP4 ADD MSTORE PUSH2 0x1017 DUP2 DUP10 PUSH2 0xFAB JUMP JUMPDEST SWAP1 POP DUP2 DUP2 SUB PUSH1 0x40 DUP4 ADD MSTORE PUSH2 0x102B DUP2 DUP9 PUSH2 0xFAB JUMP JUMPDEST SWAP1 POP PUSH2 0x103A PUSH1 0x60 DUP4 ADD DUP8 PUSH2 0xFE3 JUMP JUMPDEST DUP2 DUP2 SUB PUSH1 0x80 DUP4 ADD MSTORE PUSH2 0x104C DUP2 DUP7 PUSH2 0xFAB JUMP JUMPDEST SWAP1 POP PUSH2 0x105B PUSH1 0xA0 DUP4 ADD DUP6 PUSH2 0xDB4 JUMP JUMPDEST PUSH2 0x1068 PUSH1 0xC0 DUP4 ADD DUP5 PUSH2 0xDB4 JUMP JUMPDEST SWAP9 SWAP8 POP POP POP POP POP POP POP POP JUMP JUMPDEST PUSH0 PUSH1 0x80 DUP3 ADD SWAP1 POP PUSH2 0x1087 PUSH0 DUP4 ADD DUP8 PUSH2 0xDB4 JUMP JUMPDEST DUP2 DUP2 SUB PUSH1 0x20 DUP4 ADD MSTORE PUSH2 0x1099 DUP2 DUP7 PUSH2 0xFAB JUMP JUMPDEST SWAP1 POP PUSH2 0x10A8 PUSH1 0x40 DUP4 ADD DUP6 PUSH2 0xFE3 JUMP JUMPDEST PUSH2 0x10B5 PUSH1 0x60 DUP4 ADD DUP5 PUSH2 0xDB4 JUMP JUMPDEST SWAP6 SWAP5 POP POP POP POP POP JUMP JUMPDEST PUSH0 PUSH1 0xE0 DUP4 ADD PUSH0 DUP4 ADD MLOAD PUSH2 0x10D3 PUSH0 DUP7 ADD DUP3 PUSH2 0xB83 JUMP JUMPDEST POP PUSH1 0x20 DUP4 ADD MLOAD DUP5 DUP3 SUB PUSH1 0x20 DUP7 ADD MSTORE PUSH2 0x10EB DUP3 DUP3 PUSH2 0xBE4 JUMP JUMPDEST SWAP2 POP POP PUSH1 0x40 DUP4 ADD MLOAD DUP5 DUP3 SUB PUSH1 0x40 DUP7 ADD MSTORE PUSH2 0x1105 DUP3 DUP3 PUSH2 0xBE4 JUMP JUMPDEST SWAP2 POP POP PUSH1 0x60 DUP4 ADD MLOAD PUSH2 0x111A PUSH1 0x60 DUP7 ADD DUP3 PUSH2 0xC4C JUMP JUMPDEST POP PUSH1 0x80 DUP4 ADD MLOAD DUP5 DUP3 SUB PUSH1 0x80 DUP7 ADD MSTORE PUSH2 0x1132 DUP3 DUP3 PUSH2 0xBE4 JUMP JUMPDEST SWAP2 POP POP PUSH1 0xA0 DUP4 ADD MLOAD PUSH2 0x1147 PUSH1 0xA0 DUP7 ADD DUP3 PUSH2 0xB83 JUMP JUMPDEST POP PUSH1 0xC0 DUP4 ADD MLOAD PUSH2 0x115A PUSH1 0xC0 DUP7 ADD DUP3 PUSH2 0xB83 JUMP JUMPDEST POP DUP1 SWAP2 POP POP SWAP3 SWAP2 POP POP JUMP JUMPDEST PUSH0 PUSH1 0x20 DUP3 ADD SWAP1 POP DUP2 DUP2 SUB PUSH0 DUP4 ADD MSTORE PUSH2 0x117D DUP2 DUP5 PUSH2 0x10BE JUMP JUMPDEST SWAP1 POP SWAP3 SWAP2 POP POP JUMP JUMPDEST PUSH32 0x4E487B7100000000000000000000000000000000000000000000000000000000 PUSH0 MSTORE PUSH1 0x22 PUSH1 0x4 MSTORE PUSH1 0x24 PUSH0 REVERT JUMPDEST PUSH0 PUSH1 0x2 DUP3 DIV SWAP1 POP PUSH1 0x1 DUP3 AND DUP1 PUSH2 0x11C9 JUMPI PUSH1 0x7F DUP3 AND SWAP2 POP JUMPDEST PUSH1 0x20 DUP3 LT DUP2 SUB PUSH2 0x11DC JUMPI PUSH2 0x11DB PUSH2 0x1185 JUMP JUMPDEST JUMPDEST POP SWAP2 SWAP1 POP JUMP JUMPDEST PUSH32 0x4E487B7100000000000000000000000000000000000000000000000000000000 PUSH0 MSTORE PUSH1 0x41 PUSH1 0x4 MSTORE PUSH1 0x24 PUSH0 REVERT JUMPDEST PUSH0 DUP2 SWAP1 POP DUP2 PUSH0 MSTORE PUSH1 0x20 PUSH0 KECCAK256 SWAP1 POP SWAP2 SWAP1 POP JUMP JUMPDEST PUSH0 PUSH1 0x20 PUSH1 0x1F DUP4 ADD DIV SWAP1 POP SWAP2 SWAP1 POP JUMP JUMPDEST PUSH0 DUP3 DUP3 SHL SWAP1 POP SWAP3 SWAP2 POP POP JUMP JUMPDEST PUSH0 PUSH1 0x8 DUP4 MUL PUSH2 0x126B PUSH32 0xFFFFFFFFFFFFFFFFFFFFFFFFFFFFFFFFFFFFFFFFFFFFFFFFFFFFFFFFFFFFFFFF DUP3 PUSH2 0x1230 JUMP JUMPDEST PUSH2 0x1275 DUP7 DUP4 PUSH2 0x1230 JUMP JUMPDEST SWAP6 POP DUP1 NOT DUP5 AND SWAP4 POP DUP1 DUP7 AND DUP5 OR SWAP3 POP POP POP SWAP4 SWAP3 POP POP POP JUMP JUMPDEST PUSH0 DUP2 SWAP1 POP SWAP2 SWAP1 POP JUMP JUMPDEST PUSH0 PUSH2 0x12B0 PUSH2 0x12AB PUSH2 0x12A6 DUP5 PUSH2 0xB7A JUMP JUMPDEST PUSH2 0x128D JUMP JUMPDEST PUSH2 0xB7A JUMP JUMPDEST SWAP1 POP SWAP2 SWAP1 POP JUMP JUMPDEST PUSH0 DUP2 SWAP1 POP SWAP2 SWAP1 POP JUMP JUMPDEST PUSH2 0x12C9 DUP4 PUSH2 0x1296 JUMP JUMPDEST PUSH2 0x12DD PUSH2 0x12D5 DUP3 PUSH2 0x12B7 JUMP JUMPDEST DUP5 DUP5 SLOAD PUSH2 0x123C JUMP JUMPDEST DUP3 SSTORE POP POP POP POP JUMP JUMPDEST PUSH0 SWAP1 JUMP JUMPDEST PUSH2 0x12F1 PUSH2 0x12E5 JUMP JUMPDEST PUSH2 0x12FC DUP2 DUP5 DUP5 PUSH2 0x12C0 JUMP JUMPDEST POP POP POP JUMP JUMPDEST JUMPDEST DUP2 DUP2 LT ISZERO PUSH2 0x131F JUMPI PUSH2 0x1314 PUSH0 DUP3 PUSH2 0x12E9 JUMP JUMPDEST PUSH1 0x1 DUP2 ADD SWAP1 POP PUSH2 0x1302 JUMP JUMPDEST POP POP JUMP JUMPDEST PUSH1 0x1F DUP3 GT ISZERO PUSH2 0x1364 JUMPI PUSH2 0x1335 DUP2 PUSH2 0x120F JUMP JUMPDEST PUSH2 0x133E DUP5 PUSH2 0x1221 JUMP JUMPDEST DUP2 ADD PUSH1 0x20 DUP6 LT ISZERO PUSH2 0x134D JUMPI DUP2 SWAP1 POP JUMPDEST PUSH2 0x1361 PUSH2 0x1359 DUP6 PUSH2 0x1221 JUMP JUMPDEST DUP4 ADD DUP3 PUSH2 0x1301 JUMP JUMPDEST POP POP JUMPDEST POP POP POP JUMP JUMPDEST PUSH0 DUP3 DUP3 SHR SWAP1 POP SWAP3 SWAP2 POP POP JUMP JUMPDEST PUSH0 PUSH2 0x1384 PUSH0 NOT DUP5 PUSH1 0x8 MUL PUSH2 0x1369 JUMP JUMPDEST NOT DUP1 DUP4 AND SWAP2 POP POP SWAP3 SWAP2 POP POP JUMP JUMPDEST PUSH0 PUSH2 0x139C DUP4 DUP4 PUSH2 0x1375 JUMP JUMPDEST SWAP2 POP DUP3 PUSH1 0x2 MUL DUP3 OR SWAP1 POP SWAP3 SWAP2 POP POP JUMP JUMPDEST PUSH2 0x13B5 DUP3 PUSH2 0xB92 JUMP JUMPDEST PUSH8 0xFFFFFFFFFFFFFFFF DUP2 GT ISZERO PUSH2 0x13CE JUMPI PUSH2 0x13CD PUSH2 0x11E2 JUMP JUMPDEST JUMPDEST PUSH2 0x13D8 DUP3 SLOAD PUSH2 0x11B2 JUMP JUMPDEST PUSH2 0x13E3 DUP3 DUP3 DUP6 PUSH2 0x1323 JUMP JUMPDEST PUSH0 PUSH1 0x20 SWAP1 POP PUSH1 0x1F DUP4 GT PUSH1 0x1 DUP2 EQ PUSH2 0x1414 JUMPI PUSH0 DUP5 ISZERO PUSH2 0x1402 JUMPI DUP3 DUP8 ADD MLOAD SWAP1 POP JUMPDEST PUSH2 0x140C DUP6 DUP3 PUSH2 0x1391 JUMP JUMPDEST DUP7 SSTORE POP PUSH2 0x1473 JUMP JUMPDEST PUSH1 0x1F NOT DUP5 AND PUSH2 0x1422 DUP7 PUSH2 0x120F JUMP JUMPDEST PUSH0 JUMPDEST DUP3 DUP2 LT ISZERO PUSH2 0x1449 JUMPI DUP5 DUP10 ADD MLOAD DUP3 SSTORE PUSH1 0x1 DUP3 ADD SWAP2 POP PUSH1 0x20 DUP6 ADD SWAP5 POP PUSH1 0x20 DUP2 ADD SWAP1 POP PUSH2 0x1424 JUMP JUMPDEST DUP7 DUP4 LT ISZERO PUSH2 0x1466 JUMPI DUP5 DUP10 ADD MLOAD PUSH2 0x1462 PUSH1 0x1F DUP10 AND DUP3 PUSH2 0x1375 JUMP JUMPDEST DUP4 SSTORE POP JUMPDEST PUSH1 0x1 PUSH1 0x2 DUP9 MUL ADD DUP9 SSTORE POP POP POP JUMPDEST POP POP POP POP POP POP JUMP JUMPDEST PUSH32 0x4E487B7100000000000000000000000000000000000000000000000000000000 PUSH0 MSTORE PUSH1 0x32 PUSH1 0x4 MSTORE PUSH1 0x24 PUSH0 REVERT INVALID LOG2 PUSH5 0x6970667358 0x22 SLT KECCAK256 PUSH25 0xC41A2F0AF830F2CC8E5B1B23CC5CE3A31B8C96BE06AF273E35 0xD0 0x2A SWAP6 0xBA 0x2C INVALID PUSH5 0x736F6C6343 STOP ADDMOD XOR STOP CALLER "
		},
		"gasEstimates": {
			"creation": {
				"codeDepositCost": "1068400",
				"executionCost": "6118",
				"totalCost": "1074518"
			},
			"external": {
				"boardIndex()": "2424",
				"boards(uint256)": "infinite",
				"createBoard(string,address,string,string,uint256)": "infinite",
				"donators(uint256)": "infinite",
				"getAllBoards()": "infinite",
				"getBoardInfo(uint256)": "infinite"
			}
		},
		"methodIdentifiers": {
			"boardIndex()": "2277c26f",
			"boards(uint256)": "9a7083f9",
			"createBoard(string,address,string,string,uint256)": "3276be61",
			"donators(uint256)": "ac62f566",
			"getAllBoards()": "1872cd4c",
			"getBoardInfo(uint256)": "d1fb28bb"
		}
	},
	"abi": [
		{
			"inputs": [],
			"stateMutability": "nonpayable",
			"type": "constructor"
		},
		{
			"inputs": [],
			"name": "boardIndex",
			"outputs": [
				{
					"internalType": "uint256",
					"name": "",
					"type": "uint256"
				}
			],
			"stateMutability": "view",
			"type": "function"
		},
		{
			"inputs": [
				{
					"internalType": "uint256",
					"name": "",
					"type": "uint256"
				}
			],
			"name": "boards",
			"outputs": [
				{
					"internalType": "uint256",
					"name": "id",
					"type": "uint256"
				},
				{
					"internalType": "string",
					"name": "name",
					"type": "string"
				},
				{
					"internalType": "string",
					"name": "context",
					"type": "string"
				},
				{
					"internalType": "address",
					"name": "host",
					"type": "address"
				},
				{
					"internalType": "string",
					"name": "hostname",
					"type": "string"
				},
				{
					"internalType": "uint256",
					"name": "targetAmount",
					"type": "uint256"
				},
				{
					"internalType": "uint256",
					"name": "totalAmount",
					"type": "uint256"
				}
			],
			"stateMutability": "view",
			"type": "function"
		},
		{
			"inputs": [
				{
					"internalType": "string",
					"name": "hostname",
					"type": "string"
				},
				{
					"internalType": "address",
					"name": "host",
					"type": "address"
				},
				{
					"internalType": "string",
					"name": "_name",
					"type": "string"
				},
				{
					"internalType": "string",
					"name": "_context",
					"type": "string"
				},
				{
					"internalType": "uint256",
					"name": "_targetAmount",
					"type": "uint256"
				}
			],
			"name": "createBoard",
			"outputs": [],
			"stateMutability": "nonpayable",
			"type": "function"
		},
		{
			"inputs": [
				{
					"internalType": "uint256",
					"name": "",
					"type": "uint256"
				}
			],
			"name": "donators",
			"outputs": [
				{
					"internalType": "uint256",
					"name": "targetId",
					"type": "uint256"
				},
				{
					"internalType": "string",
					"name": "name",
					"type": "string"
				},
				{
					"internalType": "address",
					"name": "donator_addr",
					"type": "address"
				},
				{
					"internalType": "uint256",
					"name": "amount",
					"type": "uint256"
				}
			],
			"stateMutability": "view",
			"type": "function"
		},
		{
			"inputs": [],
			"name": "getAllBoards",
			"outputs": [
				{
					"components": [
						{
							"internalType": "uint256",
							"name": "id",
							"type": "uint256"
						},
						{
							"internalType": "string",
							"name": "name",
							"type": "string"
						},
						{
							"internalType": "string",
							"name": "context",
							"type": "string"
						},
						{
							"internalType": "address",
							"name": "host",
							"type": "address"
						},
						{
							"internalType": "string",
							"name": "hostname",
							"type": "string"
						},
						{
							"internalType": "uint256",
							"name": "targetAmount",
							"type": "uint256"
						},
						{
							"internalType": "uint256",
							"name": "totalAmount",
							"type": "uint256"
						}
					],
					"internalType": "struct Donate.Board[]",
					"name": "",
					"type": "tuple[]"
				}
			],
			"stateMutability": "view",
			"type": "function"
		},
		{
			"inputs": [
				{
					"internalType": "uint256",
					"name": "_boardIndex",
					"type": "uint256"
				}
			],
			"name": "getBoardInfo",
			"outputs": [
				{
					"components": [
						{
							"internalType": "uint256",
							"name": "id",
							"type": "uint256"
						},
						{
							"internalType": "string",
							"name": "name",
							"type": "string"
						},
						{
							"internalType": "string",
							"name": "context",
							"type": "string"
						},
						{
							"internalType": "address",
							"name": "host",
							"type": "address"
						},
						{
							"internalType": "string",
							"name": "hostname",
							"type": "string"
						},
						{
							"internalType": "uint256",
							"name": "targetAmount",
							"type": "uint256"
						},
						{
							"internalType": "uint256",
							"name": "totalAmount",
							"type": "uint256"
						}
					],
					"internalType": "struct Donate.Board",
					"name": "",
					"type": "tuple"
				}
			],
			"stateMutability": "view",
			"type": "function"
		}
	]
}